{
  "_format": "hh-sol-artifact-1",
  "contractName": "ReentrancyAttacker",
  "sourceName": "contracts/ReentrancyAttacker.sol",
  "abi": [
    {
      "inputs": [
        {
          "internalType": "address",
          "name": "_targetContract",
          "type": "address"
        }
      ],
      "stateMutability": "nonpayable",
      "type": "constructor"
    },
    {
      "anonymous": false,
      "inputs": [
        {
          "indexed": false,
          "internalType": "uint256",
          "name": "attemptNumber",
          "type": "uint256"
        },
        {
          "indexed": false,
          "internalType": "uint256",
          "name": "contractBalance",
          "type": "uint256"
        }
      ],
      "name": "AttackAttempt",
      "type": "event"
    },
    {
      "anonymous": false,
      "inputs": [
        {
          "indexed": false,
          "internalType": "string",
          "name": "reason",
          "type": "string"
        }
      ],
      "name": "AttackBlocked",
      "type": "event"
    },
    {
      "anonymous": false,
      "inputs": [
        {
          "indexed": false,
          "internalType": "uint256",
          "name": "amount",
          "type": "uint256"
        }
      ],
      "name": "FundsReceived",
      "type": "event"
    },
    {
      "inputs": [
        {
          "internalType": "uint256",
          "name": "_proposalId",
          "type": "uint256"
        }
      ],
      "name": "attack",
      "outputs": [],
      "stateMutability": "nonpayable",
      "type": "function"
    },
    {
      "inputs": [],
      "name": "attackCount",
      "outputs": [
        {
          "internalType": "uint256",
          "name": "",
          "type": "uint256"
        }
      ],
      "stateMutability": "view",
      "type": "function"
    },
    {
      "inputs": [],
      "name": "getAttackCount",
      "outputs": [
        {
          "internalType": "uint256",
          "name": "",
          "type": "uint256"
        }
      ],
      "stateMutability": "view",
      "type": "function"
    },
    {
      "inputs": [],
      "name": "getBalance",
      "outputs": [
        {
          "internalType": "uint256",
          "name": "",
          "type": "uint256"
        }
      ],
      "stateMutability": "view",
      "type": "function"
    },
    {
      "inputs": [],
      "name": "isAttacking",
      "outputs": [
        {
          "internalType": "bool",
          "name": "",
          "type": "bool"
        }
      ],
      "stateMutability": "view",
      "type": "function"
    },
    {
      "inputs": [],
      "name": "owner",
      "outputs": [
        {
          "internalType": "address",
          "name": "",
          "type": "address"
        }
      ],
      "stateMutability": "view",
      "type": "function"
    },
    {
      "inputs": [],
      "name": "proposalId",
      "outputs": [
        {
          "internalType": "uint256",
          "name": "",
          "type": "uint256"
        }
      ],
      "stateMutability": "view",
      "type": "function"
    },
    {
      "inputs": [],
      "name": "targetContract",
      "outputs": [
        {
          "internalType": "contract ISafeClub",
          "name": "",
          "type": "address"
        }
      ],
      "stateMutability": "view",
      "type": "function"
    },
    {
      "inputs": [],
      "name": "withdraw",
      "outputs": [],
      "stateMutability": "nonpayable",
      "type": "function"
    },
    {
      "stateMutability": "payable",
      "type": "receive"
    }
  ],
  "bytecode": "0x60803461009b57601f61074038819003918201601f19168301916001600160401b038311848410176100a05780849260209460405283398101031261009b57516001600160a01b0381169081900361009b57600080546001600160a01b031916919091178155600380546002929092556001600160a81b03199091163360081b610100600160a81b031617905560405161068990816100b78239f35b600080fd5b634e487b7160e01b600052604160045260246000fdfe60806040818152600491823610156101e7575b50361561001e57600080fd5b8051917fbcdc7071c1beb6dcf2744621e0b29a2f2432ee20812d9ca5e3d5e8f9308d93a36020600094348152a160035460ff811661005857005b60025460001981146101d457600101600281905584546001600160a01b03929083163191670de0b6b3a764000083101590816101c9575b50156101b7575060025490600182018092116101a457848693927f5545875187fb2ddf7c4681f2c2038f60a2795a2c0f74980b846f87aec96d398b9282519182526020820152a18154169160015490833b156101a0576024908386519586948593630d61b51960e01b85528401525af1908161018d575b50610127576001610115610564565b6308c379a014610133575b6101295750505b005b51903d90823e3d90fd5b61013b610582565b80610147575b50610120565b90507f6ef980fd00b53ca0f3fcdc7d97178d3de2b45bbf2b126784971cda25858dbd8c61017a849284519182918261060a565b0390a160ff196003541660035538610141565b6101999093919361053a565b9138610106565b8280fd5b634e487b7160e01b865260118452602486fd5b60ff1916600355506101279350505050565b600a9150103861008f565b634e487b7160e01b855260118352602485fd5b600090813560e01c90816312065fe014610520575080632dfca445146105015780633ccfd60b14610484578063407c28211461046557806364dd891a146102ee5780638da5cb5b146102c15780639a422b291461029d578063bd90df70146102755763e942550a036100125790346102715781600319360112610271576020906002549051908152f35b5080fd5b509034610271578160031936011261027157905490516001600160a01b039091168152602090f35b50903461027157816003193601126102715760209060ff6003541690519015158152f35b509034610271578160031936011261027157600354905160089190911c6001600160a01b03168152602090f35b5091346101a05760203660031901126101a057600354906001600160a01b03908035600884901c8316330361042a57808691600155600160ff1980961617600355816002558382541692833b156101a0576024908388519586948593630d61b51960e01b85528401525af19081610417575b506103df5750600190610371610564565b6308c379a014610385575b50610129575080f35b61038d610582565b908161039a575b5061037c565b9091507f6ef980fd00b53ca0f3fcdc7d97178d3de2b45bbf2b126784971cda25858dbd8c6103ce859385519182918261060a565b0390a1600354166003553880610394565b7f5545875187fb2ddf7c4681f2c2038f60a2795a2c0f74980b846f87aec96d398b92915083541631815190600182526020820152a180f35b6104239095919561053a565b9338610360565b845162461bcd60e51b815260208184015260156024820152744f6e6c79206f776e65722063616e2061747461636b60581b6044820152606490fd5b5090346102715781600319360112610271576020906002549051908152f35b5091346101a057826003193601126101a05760035460081c6001600160a01b031690338290036104d15750828080809347908282156104c8575bf115610129575080f35b506108fc6104be565b606490602084519162461bcd60e51b8352820152600a60248201526927b7363c9037bbb732b960b11b6044820152fd5b5090346102715781600319360112610271576020906001549051908152f35b905034610271578160031936011261027157602090478152f35b67ffffffffffffffff811161054e57604052565b634e487b7160e01b600052604160045260246000fd5b60009060033d1161057157565b905060046000803e60005160e01c90565b600060443d10610607576040516003193d81016004833e815167ffffffffffffffff918282113d60248401111761060057818401948551918483116105f6573d860101602083880101116105ed575001603f01601f19168201919082119082101761054e5760405290565b95945050505050565b5095945050505050565b5050505090565b90565b6020808252825181830181905290939260005b82811061063f57505060409293506000838284010152601f8019910116010190565b81810186015184820160400152850161061d56fea26469706673582212206e0314d0eece4efffb22f768d476c214994347e0c73928a13be755368382d44964736f6c63430008140033",
  "linkReferences": {},
  "deployedLinkReferences": {}
}