{
  "_format": "hh-sol-artifact-1",
  "contractName": "ReentrancyAttacker",
  "sourceName": "contracts/ReentrancyAttacker.sol",
  "abi": [
    {
      "inputs": [
        {
          "internalType": "address",
          "name": "_target",
          "type": "address"
        }
      ],
      "stateMutability": "nonpayable",
      "type": "constructor"
    },
    {
      "anonymous": false,
      "inputs": [
        {
          "indexed": false,
          "internalType": "uint256",
          "name": "count",
          "type": "uint256"
        }
      ],
      "name": "AttackAttempted",
      "type": "event"
    },
    {
      "anonymous": false,
      "inputs": [
        {
          "indexed": false,
          "internalType": "uint256",
          "name": "amount",
          "type": "uint256"
        },
        {
          "indexed": false,
          "internalType": "uint256",
          "name": "totalReceived",
          "type": "uint256"
        }
      ],
      "name": "FundsReceived",
      "type": "event"
    },
    {
      "inputs": [],
      "name": "MAX_ATTACKS",
      "outputs": [
        {
          "internalType": "uint256",
          "name": "",
          "type": "uint256"
        }
      ],
      "stateMutability": "view",
      "type": "function"
    },
    {
      "inputs": [],
      "name": "attackCount",
      "outputs": [
        {
          "internalType": "uint256",
          "name": "",
          "type": "uint256"
        }
      ],
      "stateMutability": "view",
      "type": "function"
    },
    {
      "inputs": [],
      "name": "fundsReceived",
      "outputs": [
        {
          "internalType": "uint256",
          "name": "",
          "type": "uint256"
        }
      ],
      "stateMutability": "view",
      "type": "function"
    },
    {
      "inputs": [],
      "name": "getBalance",
      "outputs": [
        {
          "internalType": "uint256",
          "name": "",
          "type": "uint256"
        }
      ],
      "stateMutability": "view",
      "type": "function"
    },
    {
      "inputs": [],
      "name": "target",
      "outputs": [
        {
          "internalType": "contract ISafeClub",
          "name": "",
          "type": "address"
        }
      ],
      "stateMutability": "view",
      "type": "function"
    },
    {
      "inputs": [],
      "name": "withdraw",
      "outputs": [],
      "stateMutability": "nonpayable",
      "type": "function"
    },
    {
      "stateMutability": "payable",
      "type": "receive"
    }
  ],
  "bytecode": "0x6080346100bf57601f61056438819003918201601f19168301916001600160401b038311848410176100c4578084926020946040528339810103126100bf57516001600160a01b038116908190036100bf57801561007a57600080546001600160a01b03191691909117905560405161048990816100db8239f35b60405162461bcd60e51b815260206004820152601660248201527f496e76616c6964207461726765742061646472657373000000000000000000006044820152606490fd5b600080fd5b634e487b7160e01b600052604160045260246000fdfe6080604090808252600490813610156101d9575b50361561001f57600080fd5b600254600090348101809111610191578060025560015490600582106000146101a45750600019811461019157602060017f9de7696c1ddde10847858955a8530cc578ad5b8a8887b231fad51acf0a4cfa0a9201806001558551908152a180546001600160a01b0316803b1561018d578180916024865180958193630d61b51960e01b835281898401525af19182610163575b50906100d857600191819060033d11610153575b506308c379a01461010d575b506100da575b005b7f063d07ee72a7483b8e07ca09054bb686775c5c030f945dde3823a5257a0a93eb906002548151903482526020820152a1005b6101156103e1565b156100d25790507f063d07ee72a7483b8e07ca09054bb686775c5c030f945dde3823a5257a0a93eb826002548151903482526020820152a1386100d2565b905081803e805160e01c386100c6565b67ffffffffffffffff811161017a578452386100b2565b634e487b7160e01b825260418452602482fd5b5080fd5b506011602492634e487b7160e01b835252fd5b915050827f063d07ee72a7483b8e07ca09054bb686775c5c030f945dde3823a5257a0a93eb93925051903482526020820152a1005b600090813560e01c90816311318b331461038d5750806312065fe0146103725780633ccfd60b14610286578063407c282114610267578063b36303fe1461024b5763d4b839920361001357823461018d578160031936011261018d57905490516001600160a01b039091168152602090f35b50823461018d578160031936011261018d576020905160058152f35b50823461018d578160031936011261018d576020906001549051908152f35b50913461036e578260031936011261036e57478015610334578380808093335af13d1561032f573d67ffffffffffffffff811161031c578251906102d4601f8201601f1916602001836103a9565b81528460203d92013e5b156102e7578280f35b906020606492519162461bcd60e51b8352820152600f60248201526e15da5d1a191c985dc819985a5b1959608a1b6044820152fd5b634e487b7160e01b855260418452602485fd5b6102de565b815162461bcd60e51b815260208185015260146024820152734e6f2066756e647320746f20776974686472617760601b6044820152606490fd5b8280fd5b50823461018d578160031936011261018d5751478152602090f35b90503461018d578160031936011261018d576020906002548152f35b90601f8019910116810190811067ffffffffffffffff8211176103cb57604052565b634e487b7160e01b600052604160045260246000fd5b600060443d1061043f57604051600319913d83016004833e815167ffffffffffffffff918282113d6024840111176104425781840194855193841161044a573d85010160208487010111610442575061043f929101602001906103a9565b90565b949350505050565b5094935050505056fea26469706673582212206e9ceaaaacb4d672818d7403164b6c90472326c9443805bc3e6941771cd0f06e64736f6c63430008140033",
  "linkReferences": {},
  "deployedLinkReferences": {}
}