{"contracts/SafeClub.sol":{"SafeClub":{"abi":[{"inputs":[],"stateMutability":"nonpayable","type":"constructor"},{"inputs":[{"internalType":"address","name":"owner","type":"address"}],"name":"OwnableInvalidOwner","type":"error"},{"inputs":[{"internalType":"address","name":"account","type":"address"}],"name":"OwnableUnauthorizedAccount","type":"error"},{"inputs":[],"name":"ReentrancyGuardReentrantCall","type":"error"},{"anonymous":false,"inputs":[{"indexed":true,"internalType":"address","name":"from","type":"address"},{"indexed":false,"internalType":"uint256","name":"amount","type":"uint256"}],"name":"FundsReceived","type":"event"},{"anonymous":false,"inputs":[{"indexed":true,"internalType":"address","name":"member","type":"address"},{"indexed":false,"internalType":"uint256","name":"timestamp","type":"uint256"}],"name":"MemberAdded","type":"event"},{"anonymous":false,"inputs":[{"indexed":true,"internalType":"address","name":"member","type":"address"},{"indexed":false,"internalType":"uint256","name":"timestamp","type":"uint256"}],"name":"MemberRemoved","type":"event"},{"anonymous":false,"inputs":[{"indexed":true,"internalType":"address","name":"previousOwner","type":"address"},{"indexed":true,"internalType":"address","name":"newOwner","type":"address"}],"name":"OwnershipTransferred","type":"event"},{"anonymous":false,"inputs":[{"indexed":true,"internalType":"uint256","name":"proposalId","type":"uint256"},{"indexed":false,"internalType":"string","name":"description","type":"string"},{"indexed":true,"internalType":"address","name":"recipient","type":"address"},{"indexed":false,"internalType":"uint256","name":"amount","type":"uint256"},{"indexed":false,"internalType":"uint256","name":"deadline","type":"uint256"}],"name":"ProposalCreated","type":"event"},{"anonymous":false,"inputs":[{"indexed":true,"internalType":"uint256","name":"proposalId","type":"uint256"},{"indexed":true,"internalType":"address","name":"recipient","type":"address"},{"indexed":false,"internalType":"uint256","name":"amount","type":"uint256"}],"name":"ProposalExecuted","type":"event"},{"anonymous":false,"inputs":[{"indexed":true,"internalType":"uint256","name":"proposalId","type":"uint256"},{"indexed":true,"internalType":"address","name":"voter","type":"address"},{"indexed":false,"internalType":"bool","name":"support","type":"bool"}],"name":"VoteCast","type":"event"},{"stateMutability":"payable","type":"fallback"},{"inputs":[{"internalType":"address","name":"_member","type":"address"}],"name":"addMember","outputs":[],"stateMutability":"nonpayable","type":"function"},{"inputs":[],"name":"approvalPercentage","outputs":[{"internalType":"uint256","name":"","type":"uint256"}],"stateMutability":"view","type":"function"},{"inputs":[{"internalType":"string","name":"_description","type":"string"},{"internalType":"address payable","name":"_recipient","type":"address"},{"internalType":"uint256","name":"_amount","type":"uint256"},{"internalType":"uint256","name":"_durationInDays","type":"uint256"}],"name":"createProposal","outputs":[],"stateMutability":"nonpayable","type":"function"},{"inputs":[{"internalType":"uint256","name":"_proposalId","type":"uint256"}],"name":"executeProposal","outputs":[],"stateMutability":"nonpayable","type":"function"},{"inputs":[],"name":"getAllMembers","outputs":[{"internalType":"address[]","name":"","type":"address[]"}],"stateMutability":"view","type":"function"},{"inputs":[],"name":"getBalance","outputs":[{"internalType":"uint256","name":"","type":"uint256"}],"stateMutability":"view","type":"function"},{"inputs":[],"name":"getMemberCount","outputs":[{"internalType":"uint256","name":"","type":"uint256"}],"stateMutability":"view","type":"function"},{"inputs":[{"internalType":"uint256","name":"_proposalId","type":"uint256"}],"name":"getProposal","outputs":[{"internalType":"uint256","name":"id","type":"uint256"},{"internalType":"string","name":"description","type":"string"},{"internalType":"address","name":"recipient","type":"address"},{"internalType":"uint256","name":"amount","type":"uint256"},{"internalType":"uint256","name":"votesFor","type":"uint256"},{"internalType":"uint256","name":"votesAgainst","type":"uint256"},{"internalType":"uint256","name":"deadline","type":"uint256"},{"internalType":"bool","name":"executed","type":"bool"}],"stateMutability":"view","type":"function"},{"inputs":[{"internalType":"uint256","name":"_proposalId","type":"uint256"},{"internalType":"address","name":"_voter","type":"address"}],"name":"hasVoted","outputs":[{"internalType":"bool","name":"","type":"bool"}],"stateMutability":"view","type":"function"},{"inputs":[{"internalType":"address","name":"_address","type":"address"}],"name":"isMember","outputs":[{"internalType":"bool","name":"","type":"bool"}],"stateMutability":"view","type":"function"},{"inputs":[{"internalType":"uint256","name":"_proposalId","type":"uint256"}],"name":"isProposalApproved","outputs":[{"internalType":"bool","name":"","type":"bool"}],"stateMutability":"view","type":"function"},{"inputs":[{"internalType":"uint256","name":"","type":"uint256"}],"name":"memberList","outputs":[{"internalType":"address","name":"","type":"address"}],"stateMutability":"view","type":"function"},{"inputs":[{"internalType":"address","name":"","type":"address"}],"name":"members","outputs":[{"internalType":"bool","name":"isActive","type":"bool"},{"internalType":"uint256","name":"joinedAt","type":"uint256"}],"stateMutability":"view","type":"function"},{"inputs":[],"name":"owner","outputs":[{"internalType":"address","name":"","type":"address"}],"stateMutability":"view","type":"function"},{"inputs":[],"name":"proposalCount","outputs":[{"internalType":"uint256","name":"","type":"uint256"}],"stateMutability":"view","type":"function"},{"inputs":[{"internalType":"uint256","name":"","type":"uint256"}],"name":"proposals","outputs":[{"internalType":"uint256","name":"id","type":"uint256"},{"internalType":"string","name":"description","type":"string"},{"internalType":"address payable","name":"recipient","type":"address"},{"internalType":"uint256","name":"amount","type":"uint256"},{"internalType":"uint256","name":"votesFor","type":"uint256"},{"internalType":"uint256","name":"votesAgainst","type":"uint256"},{"internalType":"uint256","name":"deadline","type":"uint256"},{"internalType":"bool","name":"executed","type":"bool"},{"internalType":"bool","name":"exists","type":"bool"}],"stateMutability":"view","type":"function"},{"inputs":[],"name":"quorumPercentage","outputs":[{"internalType":"uint256","name":"","type":"uint256"}],"stateMutability":"view","type":"function"},{"inputs":[{"internalType":"address","name":"_member","type":"address"}],"name":"removeMember","outputs":[],"stateMutability":"nonpayable","type":"function"},{"inputs":[],"name":"renounceOwnership","outputs":[],"stateMutability":"nonpayable","type":"function"},{"inputs":[{"internalType":"uint256","name":"_percentage","type":"uint256"}],"name":"setApprovalPercentage","outputs":[],"stateMutability":"nonpayable","type":"function"},{"inputs":[{"internalType":"uint256","name":"_percentage","type":"uint256"}],"name":"setQuorumPercentage","outputs":[],"stateMutability":"nonpayable","type":"function"},{"inputs":[{"internalType":"address","name":"newOwner","type":"address"}],"name":"transferOwnership","outputs":[],"stateMutability":"nonpayable","type":"function"},{"inputs":[{"internalType":"uint256","name":"_proposalId","type":"uint256"},{"internalType":"bool","name":"_support","type":"bool"}],"name":"vote","outputs":[],"stateMutability":"nonpayable","type":"function"},{"stateMutability":"payable","type":"receive"}],"evm":{"bytecode":{"linkReferences":{},"object":"60806040908082523461016c5733156101565750600080546001600160a01b031980821633908117845584519193926001600160a01b03167f8be0079c531659141344cd1fd0a4f28419497f9722a3daafe3b4186f6b6457e08480a3600180556032600655603c6007558084016001600160401b038111828210176101425784526001815260016020820142815233845260026020528584209251151560ff8019855416911617835551910155600354906801000000000000000082101561012e57600182018060035582101561011a5780600360209252200190339082541617905580514281527fede8eed4383e9241982619b94dd83e488b274cced0fd07b8c0092a393defd52f60203392a25161172290816101728239f35b634e487b7160e01b81526032600452602490fd5b634e487b7160e01b81526041600452602490fd5b634e487b7160e01b83526041600452602483fd5b631e4fbdf760e01b815260006004820152602490fd5b600080fdfe6040608081526004908136101561002b575b505036156100235761002161147c565b005b61002161147c565b600091823560e01c8063013cf08b146111a957806308ae4b0c146111625780630b1ca49a14610f6c5780630d61b51914610cda57806312065fe014610cbf5780633008d43714610ca057806332f6a1dc14610c615780634385963214610bf95780634fa76ec914610bda578063715018a614610b80578063784f80f814610b415780637c0f6b3514610a7c5780638743dae6146106a95780638da5cb5b14610681578063997072f7146106625780639abcc0cc1461061f578063a230c524146105e1578063b307fc6d146105a1578063c7f758a8146104ea578063c9d27afe14610373578063ca6d56dc146101e1578063da35c664146101be5763f2fde38b146101355750610011565b346101ba5760203660031901126101ba5761014e6113a7565b9061015761142b565b6001600160a01b039182169283156101a457505082546001600160a01b0319811683178455167f8be0079c531659141344cd1fd0a4f28419497f9722a3daafe3b4186f6b6457e08380a380f35b51631e4fbdf760e01b8152908101849052602490fd5b8280fd5b5050346101dd57816003193601126101dd576020906005549051908152f35b5080fd5b509190346101dd576020806003193601126101ba576101fe6113a7565b9161020761142b565b6001600160a01b03831692831561033d578385526002835260ff828620541661030657815182810181811067ffffffffffffffff8211176102f3578352600181526001848201428152868852600286528488209251151560ff8019855416911617835551910155600354680100000000000000008110156102e0577fede8eed4383e9241982619b94dd83e488b274cced0fd07b8c0092a393defd52f9392916102b98260016102d894016003556113de565b90919082549060031b9160018060a01b03809116831b921b1916179055565b51428152a280f35b634e487b7160e01b865260418752602486fd5b634e487b7160e01b875260418852602487fd5b815162461bcd60e51b8152808701849052601160248201527026b2b6b13932903232b5309030b1ba34b360791b6044820152606490fd5b815162461bcd60e51b8152808701849052601060248201526f4164726573736520696e76616c69646560801b6044820152606490fd5b509190346101dd57806003193601126101dd57823560243593841515928386036104e657338552602091600283526103b060ff83882054166114aa565b8386528083526103cb60ff6007848920015460081c16611563565b8386528083526103e460ff6007848920015416156115af565b838652808352818620600681015442116104b557600881019733885288855260ff848920541661047b577fe71fcdac32df1877c1700e7bda2a03157e20993363a28fc35ac495cefc76e4d495969798338a528552838920600160ff1982541617905560001461046557016104588154611457565b90555b519384523393a380f35b60059150016104748154611457565b905561045b565b835162461bcd60e51b81528084018690526014602482015273566f74652064656a6120656e726567697374726560601b6044820152606490fd5b5082606492519162461bcd60e51b8352820152600c60248201526b566f7465207465726d696e6560a01b6044820152fd5b8480fd5b50913461059e57602036600319011261059e57819083358082528460205261051d60ff6007858520015460081c16611563565b815283602052209081549160018060a01b036002820154169360038201549082015460058301549060068401549261055f600160ff60078801541696016112c1565b9761057b8751998a998a526101008060208c01528a0190611367565b968801526060870152608086015260a085015260c0840152151560e08301520390f35b80fd5b50346101ba5760203660031901126101ba57359160035483101561059e57506105cb6020926113de565b60018060a01b0391549060031b1c169051908152f35b5050346101dd5760203660031901126101dd5760209160ff9082906001600160a01b0361060c6113a7565b1681526002855220541690519015158152f35b50346101ba5760203660031901126101ba578061065460ff600785602097610659963595868252895220015460081c16611563565b6115fb565b90519015158152f35b5050346101dd57816003193601126101dd576020906003549051908152f35b5050346101dd57816003193601126101dd57905490516001600160a01b039091168152602090f35b508290346101dd5760803660031901126101dd5767ffffffffffffffff908035828111610a785736602382011215610a785780820135946106e9866113c2565b916106f682519384611289565b86835260249636888284010111610a745787929181889260209a8b9301838801378501015281356001600160a01b0381169590869003610a7457604435906064359533895260028a5261074e60ff858b2054166114aa565b8715610a3a5782156109f85761076647841115611502565b86156109c55785511561098d576005549661078088611457565b600555620151808082029182040361097b5761079c9042611556565b94878a52818b52848a20928884556001840191885191821161096a57508b6107c4835461124f565b601f8111610925575b50508b601f8211600114610894579a61087c9897959360079383839f9997947f331b791e5a0526c6d6f17a46c1d4139542c8579c245d9f8082d0b1462942f4fa9d9e9f8591610889575b508160011b916000199060031b1c19161790555b600283018d6bffffffffffffffffffffffff60a01b8254161790558460038401558201558b60058201558460068201550161010061ffff198254161790558151958695606087526060870190611367565b938501528301520390a380f35b90508b015138610817565b828c528c8c2090601f1983168d5b81811061090e57509360018e9f9997947f331b791e5a0526c6d6f17a46c1d4139542c8579c245d9f8082d0b1462942f4fa9d9e9f9461087c9d9c9a989482600799106108f5575b5050811b01905561082b565b8d015160001960f88460031b161c1916905538806108e9565b91928f60018192868f0151815501940192016108a2565b838d52818d2090601f840160051c8201928410610960575b601f0160051c01905b818110610955578d91506107cd565b8c8155600101610946565b909150819061093d565b634e487b7160e01b8c52604184528bfd5b634e487b7160e01b8a5260118252858afd5b835162461bcd60e51b81529081018a9052601381860152724465736372697074696f6e207265717569736560681b6044820152606490fd5b835162461bcd60e51b81529081018a9052600e818601526d447572656520696e76616c69646560901b6044820152606490fd5b835162461bcd60e51b81529081018a9052601f818601527f4d6f6e74616e7420646f697420657472652073757065726965757220612030006044820152606490fd5b835162461bcd60e51b81529081018a90526015818601527444657374696e61746169726520696e76616c69646560581b6044820152606490fd5b8680fd5b8380fd5b82843461059e578060031936011261059e579080519182906003549182855260208095018093600384527fc2575a0e9e593c00f959f8c92f12db2869c3395a3b0502d05e2516446f71f85b90845b818110610b245750505081610ae0910382611289565b83519485948186019282875251809352850193925b828110610b0457505050500390f35b83516001600160a01b031685528695509381019392810192600101610af5565b82546001600160a01b031684529288019260019283019201610aca565b8382346101dd5760203660031901126101dd5735610b5d61142b565b80151580610b75575b610b6f906116a9565b60075580f35b506064811115610b66565b833461059e578060031936011261059e57610b9961142b565b80546001600160a01b03198116825581906001600160a01b03167f8be0079c531659141344cd1fd0a4f28419497f9722a3daafe3b4186f6b6457e08280a380f35b5050346101dd57816003193601126101dd576020906006549051908152f35b50346101ba57816003193601126101ba576024356001600160a01b03811691908135908390036104e6579360ff928492866020978452818852610c46866007878720015460081c16611563565b83528652600883832001908252855220541690519015158152f35b8382346101dd5760203660031901126101dd5735610c7d61142b565b80151580610c95575b610c8f906116a9565b60065580f35b506064811115610c86565b5050346101dd57816003193601126101dd576020906007549051908152f35b5050346101dd57816003193601126101dd5751478152602090f35b508290346101dd576020806003193601126101ba5781359033845260028152610d0860ff86862054166114aa565b818452828152610d2360ff6007878720015460081c16611563565b818452828152610d3c60ff6007878720015416156115af565b600260015414610f5c576002600155818452828152848420946006860154421115610f2b57476003870194610d75865480931015611502565b8088015497610d8860058201548a611556565b986003549960649a8b8202908282048d1483151715610f1857600654610dad91611543565b11610ee1578a8202918083048c1490151715610ece57600754610dcf91611543565b11610e965780600760029201600160ff1982541617905501908780808060018060a01b0396878754165af13d15610e91573d610e0a816113c2565b90610e1787519283611289565b815289873d92013e5b15610e5c5750907f3b7c90df35b419337cff0919fe91849006607bb66c4373623f06f9d48c1ebb98939291541694549051908152a36001805580f35b835162461bcd60e51b8152908101859052601060248201526f5472616e7366657274206563686f756560801b60448201528890fd5b610e20565b835162461bcd60e51b8152808301869052601360248201527250726f706f736974696f6e2072656a6574656560681b60448201528990fd5b634e487b7160e01b8a526011845260248afd5b855162461bcd60e51b81528085018890526012602482015271145d5bdc9d5b481b9bdb88185d1d195a5b9d60721b60448201528b90fd5b634e487b7160e01b8c526011865260248cfd5b5162461bcd60e51b81529283015250600d60248201526c566f746520656e20636f75727360981b6044820152606490fd5b8451633ee5aeb560e01b81528390fd5b50913461059e57602091826003193601126101dd57610f896113a7565b92610f9261142b565b6001600160a01b03938416808452600282528284205490929060ff161561112c578484541683146110db5782845260028252808420805460ff19169055835b60038054808310156110ab578588610fe8856113de565b905490851b1c1614611004575050610fff90611457565b610fd1565b90916000979394959697199182810190811161109857906102b98561102b611038946113de565b905490871b1c16916113de565b81548015611085577f3ac963493df564de734d98633f1145d21512e282ba4c02d3c1011119bf7f2862969798500191611070836113de565b9091825491841b1b191690555551428152a280f35b634e487b7160e01b885260318952602488fd5b634e487b7160e01b895260118a52602489fd5b505050909193507f3ac963493df564de734d98633f1145d21512e282ba4c02d3c1011119bf7f28629294506102d8565b5162461bcd60e51b815280860191909152602560248201527f496d706f737369626c652064652072657469726572206c652070726f70726965604482015264746169726560d81b6064820152608490fd5b5162461bcd60e51b815280860191909152601060248201526f26b2b6b13932903737b71030b1ba34b360811b6044820152606490fd5b5050346101dd5760203660031901126101dd579081906001600160a01b036111886113a7565b168152600260205220600160ff825416910154825191151582526020820152f35b50823461059e57602036600319011261059e5782908235815282602052209160ff8354926111d9600186016112c1565b9460018060a01b0360028201541691600382015490820154600583015491600760068501549401549461121d88519a8b9a8b526101208060208d01528b0190611367565b978901526060880152608087015260a086015260c0850152818116151560e085015260081c1615156101008301520390f35b90600182811c9216801561127f575b602083101461126957565b634e487b7160e01b600052602260045260246000fd5b91607f169161125e565b90601f8019910116810190811067ffffffffffffffff8211176112ab57604052565b634e487b7160e01b600052604160045260246000fd5b90604051918260008254926112d58461124f565b9081845260019485811690816000146113445750600114611301575b50506112ff92500383611289565b565b9093915060005260209081600020936000915b81831061132c5750506112ff935082010138806112f1565b85548884018501529485019487945091830191611314565b9150506112ff94506020925060ff191682840152151560051b82010138806112f1565b919082519283825260005b848110611393575050826000602080949584010152601f8019910116010190565b602081830181015184830182015201611372565b600435906001600160a01b03821682036113bd57565b600080fd5b67ffffffffffffffff81116112ab57601f01601f191660200190565b6003548110156114155760036000527fc2575a0e9e593c00f959f8c92f12db2869c3395a3b0502d05e2516446f71f85b0190600090565b634e487b7160e01b600052603260045260246000fd5b6000546001600160a01b0316330361143f57565b60405163118cdaa760e01b8152336004820152602490fd5b60001981146114665760010190565b634e487b7160e01b600052601160045260246000fd5b6040513481527f8e47b87b0ef542cdfa1659c551d88bad38aa7f452d2bbb349ab7530dfec8be8f60203392a2565b156114b157565b60405162461bcd60e51b8152602060048201526024808201527f4e6f6e206175746f726973653a20766f7573206e276574657320706173206d656044820152636d62726560e01b6064820152608490fd5b1561150957565b60405162461bcd60e51b8152602060048201526012602482015271466f6e647320696e737566666973616e747360701b6044820152606490fd5b8181029291811591840414171561146657565b9190820180921161146657565b1561156a57565b60405162461bcd60e51b815260206004820152601760248201527f50726f706f736974696f6e20696e6578697374616e74650000000000000000006044820152606490fd5b156115b657565b60405162461bcd60e51b815260206004820152601960248201527f50726f706f736974696f6e2064656a61206578656375746565000000000000006044820152606490fd5b600090815260046020526040812060068101544211156116a5576116286005600483015492015482611556565b6003546064820290828204606414831517156116915760065461164a91611543565b11159260648302928084046064149015171561167d575060075461166d91611543565b111581611678575090565b905090565b634e487b7160e01b81526011600452602490fd5b634e487b7160e01b85526011600452602485fd5b5090565b156116b057565b60405162461bcd60e51b8152602060048201526014602482015273506f757263656e7461676520696e76616c69646560601b6044820152606490fdfea2646970667358221220f50b2170dd52ec4ba53b0a0fbd75c3a5b4b1954501916d3d7dbaaa5220fc7b1764736f6c63430008140033","opcodes":"PUSH1 0x80 PUSH1 0x40 SWAP1 DUP1 DUP3 MSTORE CALLVALUE PUSH2 0x16C JUMPI CALLER ISZERO PUSH2 0x156 JUMPI POP PUSH1 0x0 DUP1 SLOAD PUSH1 0x1 PUSH1 0x1 PUSH1 0xA0 SHL SUB NOT DUP1 DUP3 AND CALLER SWAP1 DUP2 OR DUP5 SSTORE DUP5 MLOAD SWAP2 SWAP4 SWAP3 PUSH1 0x1 PUSH1 0x1 PUSH1 0xA0 SHL SUB AND PUSH32 0x8BE0079C531659141344CD1FD0A4F28419497F9722A3DAAFE3B4186F6B6457E0 DUP5 DUP1 LOG3 PUSH1 0x1 DUP1 SSTORE PUSH1 0x32 PUSH1 0x6 SSTORE PUSH1 0x3C PUSH1 0x7 SSTORE DUP1 DUP5 ADD PUSH1 0x1 PUSH1 0x1 PUSH1 0x40 SHL SUB DUP2 GT DUP3 DUP3 LT OR PUSH2 0x142 JUMPI DUP5 MSTORE PUSH1 0x1 DUP2 MSTORE PUSH1 0x1 PUSH1 0x20 DUP3 ADD TIMESTAMP DUP2 MSTORE CALLER DUP5 MSTORE PUSH1 0x2 PUSH1 0x20 MSTORE DUP6 DUP5 KECCAK256 SWAP3 MLOAD ISZERO ISZERO PUSH1 0xFF DUP1 NOT DUP6 SLOAD AND SWAP2 AND OR DUP4 SSTORE MLOAD SWAP2 ADD SSTORE PUSH1 0x3 SLOAD SWAP1 PUSH9 0x10000000000000000 DUP3 LT ISZERO PUSH2 0x12E JUMPI PUSH1 0x1 DUP3 ADD DUP1 PUSH1 0x3 SSTORE DUP3 LT ISZERO PUSH2 0x11A JUMPI DUP1 PUSH1 0x3 PUSH1 0x20 SWAP3 MSTORE KECCAK256 ADD SWAP1 CALLER SWAP1 DUP3 SLOAD AND OR SWAP1 SSTORE DUP1 MLOAD TIMESTAMP DUP2 MSTORE PUSH32 0xEDE8EED4383E9241982619B94DD83E488B274CCED0FD07B8C0092A393DEFD52F PUSH1 0x20 CALLER SWAP3 LOG2 MLOAD PUSH2 0x1722 SWAP1 DUP2 PUSH2 0x172 DUP3 CODECOPY RETURN JUMPDEST PUSH4 0x4E487B71 PUSH1 0xE0 SHL DUP2 MSTORE PUSH1 0x32 PUSH1 0x4 MSTORE PUSH1 0x24 SWAP1 REVERT JUMPDEST PUSH4 0x4E487B71 PUSH1 0xE0 SHL DUP2 MSTORE PUSH1 0x41 PUSH1 0x4 MSTORE PUSH1 0x24 SWAP1 REVERT JUMPDEST PUSH4 0x4E487B71 PUSH1 0xE0 SHL DUP4 MSTORE PUSH1 0x41 PUSH1 0x4 MSTORE PUSH1 0x24 DUP4 REVERT JUMPDEST PUSH4 0x1E4FBDF7 PUSH1 0xE0 SHL DUP2 MSTORE PUSH1 0x0 PUSH1 0x4 DUP3 ADD MSTORE PUSH1 0x24 SWAP1 REVERT JUMPDEST PUSH1 0x0 DUP1 REVERT INVALID PUSH1 0x40 PUSH1 0x80 DUP2 MSTORE PUSH1 0x4 SWAP1 DUP2 CALLDATASIZE LT ISZERO PUSH2 0x2B JUMPI JUMPDEST POP POP CALLDATASIZE ISZERO PUSH2 0x23 JUMPI PUSH2 0x21 PUSH2 0x147C JUMP JUMPDEST STOP JUMPDEST PUSH2 0x21 PUSH2 0x147C JUMP JUMPDEST PUSH1 0x0 SWAP2 DUP3 CALLDATALOAD PUSH1 0xE0 SHR DUP1 PUSH4 0x13CF08B EQ PUSH2 0x11A9 JUMPI DUP1 PUSH4 0x8AE4B0C EQ PUSH2 0x1162 JUMPI DUP1 PUSH4 0xB1CA49A EQ PUSH2 0xF6C JUMPI DUP1 PUSH4 0xD61B519 EQ PUSH2 0xCDA JUMPI DUP1 PUSH4 0x12065FE0 EQ PUSH2 0xCBF JUMPI DUP1 PUSH4 0x3008D437 EQ PUSH2 0xCA0 JUMPI DUP1 PUSH4 0x32F6A1DC EQ PUSH2 0xC61 JUMPI DUP1 PUSH4 0x43859632 EQ PUSH2 0xBF9 JUMPI DUP1 PUSH4 0x4FA76EC9 EQ PUSH2 0xBDA JUMPI DUP1 PUSH4 0x715018A6 EQ PUSH2 0xB80 JUMPI DUP1 PUSH4 0x784F80F8 EQ PUSH2 0xB41 JUMPI DUP1 PUSH4 0x7C0F6B35 EQ PUSH2 0xA7C JUMPI DUP1 PUSH4 0x8743DAE6 EQ PUSH2 0x6A9 JUMPI DUP1 PUSH4 0x8DA5CB5B EQ PUSH2 0x681 JUMPI DUP1 PUSH4 0x997072F7 EQ PUSH2 0x662 JUMPI DUP1 PUSH4 0x9ABCC0CC EQ PUSH2 0x61F JUMPI DUP1 PUSH4 0xA230C524 EQ PUSH2 0x5E1 JUMPI DUP1 PUSH4 0xB307FC6D EQ PUSH2 0x5A1 JUMPI DUP1 PUSH4 0xC7F758A8 EQ PUSH2 0x4EA JUMPI DUP1 PUSH4 0xC9D27AFE EQ PUSH2 0x373 JUMPI DUP1 PUSH4 0xCA6D56DC EQ PUSH2 0x1E1 JUMPI DUP1 PUSH4 0xDA35C664 EQ PUSH2 0x1BE JUMPI PUSH4 0xF2FDE38B EQ PUSH2 0x135 JUMPI POP PUSH2 0x11 JUMP JUMPDEST CALLVALUE PUSH2 0x1BA JUMPI PUSH1 0x20 CALLDATASIZE PUSH1 0x3 NOT ADD SLT PUSH2 0x1BA JUMPI PUSH2 0x14E PUSH2 0x13A7 JUMP JUMPDEST SWAP1 PUSH2 0x157 PUSH2 0x142B JUMP JUMPDEST PUSH1 0x1 PUSH1 0x1 PUSH1 0xA0 SHL SUB SWAP2 DUP3 AND SWAP3 DUP4 ISZERO PUSH2 0x1A4 JUMPI POP POP DUP3 SLOAD PUSH1 0x1 PUSH1 0x1 PUSH1 0xA0 SHL SUB NOT DUP2 AND DUP4 OR DUP5 SSTORE AND PUSH32 0x8BE0079C531659141344CD1FD0A4F28419497F9722A3DAAFE3B4186F6B6457E0 DUP4 DUP1 LOG3 DUP1 RETURN JUMPDEST MLOAD PUSH4 0x1E4FBDF7 PUSH1 0xE0 SHL DUP2 MSTORE SWAP1 DUP2 ADD DUP5 SWAP1 MSTORE PUSH1 0x24 SWAP1 REVERT JUMPDEST DUP3 DUP1 REVERT JUMPDEST POP POP CALLVALUE PUSH2 0x1DD JUMPI DUP2 PUSH1 0x3 NOT CALLDATASIZE ADD SLT PUSH2 0x1DD JUMPI PUSH1 0x20 SWAP1 PUSH1 0x5 SLOAD SWAP1 MLOAD SWAP1 DUP2 MSTORE RETURN JUMPDEST POP DUP1 REVERT JUMPDEST POP SWAP2 SWAP1 CALLVALUE PUSH2 0x1DD JUMPI PUSH1 0x20 DUP1 PUSH1 0x3 NOT CALLDATASIZE ADD SLT PUSH2 0x1BA JUMPI PUSH2 0x1FE PUSH2 0x13A7 JUMP JUMPDEST SWAP2 PUSH2 0x207 PUSH2 0x142B JUMP JUMPDEST PUSH1 0x1 PUSH1 0x1 PUSH1 0xA0 SHL SUB DUP4 AND SWAP3 DUP4 ISZERO PUSH2 0x33D JUMPI DUP4 DUP6 MSTORE PUSH1 0x2 DUP4 MSTORE PUSH1 0xFF DUP3 DUP7 KECCAK256 SLOAD AND PUSH2 0x306 JUMPI DUP2 MLOAD DUP3 DUP2 ADD DUP2 DUP2 LT PUSH8 0xFFFFFFFFFFFFFFFF DUP3 GT OR PUSH2 0x2F3 JUMPI DUP4 MSTORE PUSH1 0x1 DUP2 MSTORE PUSH1 0x1 DUP5 DUP3 ADD TIMESTAMP DUP2 MSTORE DUP7 DUP9 MSTORE PUSH1 0x2 DUP7 MSTORE DUP5 DUP9 KECCAK256 SWAP3 MLOAD ISZERO ISZERO PUSH1 0xFF DUP1 NOT DUP6 SLOAD AND SWAP2 AND OR DUP4 SSTORE MLOAD SWAP2 ADD SSTORE PUSH1 0x3 SLOAD PUSH9 0x10000000000000000 DUP2 LT ISZERO PUSH2 0x2E0 JUMPI PUSH32 0xEDE8EED4383E9241982619B94DD83E488B274CCED0FD07B8C0092A393DEFD52F SWAP4 SWAP3 SWAP2 PUSH2 0x2B9 DUP3 PUSH1 0x1 PUSH2 0x2D8 SWAP5 ADD PUSH1 0x3 SSTORE PUSH2 0x13DE JUMP JUMPDEST SWAP1 SWAP2 SWAP1 DUP3 SLOAD SWAP1 PUSH1 0x3 SHL SWAP2 PUSH1 0x1 DUP1 PUSH1 0xA0 SHL SUB DUP1 SWAP2 AND DUP4 SHL SWAP3 SHL NOT AND OR SWAP1 SSTORE JUMP JUMPDEST MLOAD TIMESTAMP DUP2 MSTORE LOG2 DUP1 RETURN JUMPDEST PUSH4 0x4E487B71 PUSH1 0xE0 SHL DUP7 MSTORE PUSH1 0x41 DUP8 MSTORE PUSH1 0x24 DUP7 REVERT JUMPDEST PUSH4 0x4E487B71 PUSH1 0xE0 SHL DUP8 MSTORE PUSH1 0x41 DUP9 MSTORE PUSH1 0x24 DUP8 REVERT JUMPDEST DUP2 MLOAD PUSH3 0x461BCD PUSH1 0xE5 SHL DUP2 MSTORE DUP1 DUP8 ADD DUP5 SWAP1 MSTORE PUSH1 0x11 PUSH1 0x24 DUP3 ADD MSTORE PUSH17 0x26B2B6B13932903232B5309030B1BA34B3 PUSH1 0x79 SHL PUSH1 0x44 DUP3 ADD MSTORE PUSH1 0x64 SWAP1 REVERT JUMPDEST DUP2 MLOAD PUSH3 0x461BCD PUSH1 0xE5 SHL DUP2 MSTORE DUP1 DUP8 ADD DUP5 SWAP1 MSTORE PUSH1 0x10 PUSH1 0x24 DUP3 ADD MSTORE PUSH16 0x4164726573736520696E76616C696465 PUSH1 0x80 SHL PUSH1 0x44 DUP3 ADD MSTORE PUSH1 0x64 SWAP1 REVERT JUMPDEST POP SWAP2 SWAP1 CALLVALUE PUSH2 0x1DD JUMPI DUP1 PUSH1 0x3 NOT CALLDATASIZE ADD SLT PUSH2 0x1DD JUMPI DUP3 CALLDATALOAD PUSH1 0x24 CALLDATALOAD SWAP4 DUP5 ISZERO ISZERO SWAP3 DUP4 DUP7 SUB PUSH2 0x4E6 JUMPI CALLER DUP6 MSTORE PUSH1 0x20 SWAP2 PUSH1 0x2 DUP4 MSTORE PUSH2 0x3B0 PUSH1 0xFF DUP4 DUP9 KECCAK256 SLOAD AND PUSH2 0x14AA JUMP JUMPDEST DUP4 DUP7 MSTORE DUP1 DUP4 MSTORE PUSH2 0x3CB PUSH1 0xFF PUSH1 0x7 DUP5 DUP10 KECCAK256 ADD SLOAD PUSH1 0x8 SHR AND PUSH2 0x1563 JUMP JUMPDEST DUP4 DUP7 MSTORE DUP1 DUP4 MSTORE PUSH2 0x3E4 PUSH1 0xFF PUSH1 0x7 DUP5 DUP10 KECCAK256 ADD SLOAD AND ISZERO PUSH2 0x15AF JUMP JUMPDEST DUP4 DUP7 MSTORE DUP1 DUP4 MSTORE DUP2 DUP7 KECCAK256 PUSH1 0x6 DUP2 ADD SLOAD TIMESTAMP GT PUSH2 0x4B5 JUMPI PUSH1 0x8 DUP2 ADD SWAP8 CALLER DUP9 MSTORE DUP9 DUP6 MSTORE PUSH1 0xFF DUP5 DUP10 KECCAK256 SLOAD AND PUSH2 0x47B JUMPI PUSH32 0xE71FCDAC32DF1877C1700E7BDA2A03157E20993363A28FC35AC495CEFC76E4D4 SWAP6 SWAP7 SWAP8 SWAP9 CALLER DUP11 MSTORE DUP6 MSTORE DUP4 DUP10 KECCAK256 PUSH1 0x1 PUSH1 0xFF NOT DUP3 SLOAD AND OR SWAP1 SSTORE PUSH1 0x0 EQ PUSH2 0x465 JUMPI ADD PUSH2 0x458 DUP2 SLOAD PUSH2 0x1457 JUMP JUMPDEST SWAP1 SSTORE JUMPDEST MLOAD SWAP4 DUP5 MSTORE CALLER SWAP4 LOG3 DUP1 RETURN JUMPDEST PUSH1 0x5 SWAP2 POP ADD PUSH2 0x474 DUP2 SLOAD PUSH2 0x1457 JUMP JUMPDEST SWAP1 SSTORE PUSH2 0x45B JUMP JUMPDEST DUP4 MLOAD PUSH3 0x461BCD PUSH1 0xE5 SHL DUP2 MSTORE DUP1 DUP5 ADD DUP7 SWAP1 MSTORE PUSH1 0x14 PUSH1 0x24 DUP3 ADD MSTORE PUSH20 0x566F74652064656A6120656E7265676973747265 PUSH1 0x60 SHL PUSH1 0x44 DUP3 ADD MSTORE PUSH1 0x64 SWAP1 REVERT JUMPDEST POP DUP3 PUSH1 0x64 SWAP3 MLOAD SWAP2 PUSH3 0x461BCD PUSH1 0xE5 SHL DUP4 MSTORE DUP3 ADD MSTORE PUSH1 0xC PUSH1 0x24 DUP3 ADD MSTORE PUSH12 0x566F7465207465726D696E65 PUSH1 0xA0 SHL PUSH1 0x44 DUP3 ADD MSTORE REVERT JUMPDEST DUP5 DUP1 REVERT JUMPDEST POP SWAP2 CALLVALUE PUSH2 0x59E JUMPI PUSH1 0x20 CALLDATASIZE PUSH1 0x3 NOT ADD SLT PUSH2 0x59E JUMPI DUP2 SWAP1 DUP4 CALLDATALOAD DUP1 DUP3 MSTORE DUP5 PUSH1 0x20 MSTORE PUSH2 0x51D PUSH1 0xFF PUSH1 0x7 DUP6 DUP6 KECCAK256 ADD SLOAD PUSH1 0x8 SHR AND PUSH2 0x1563 JUMP JUMPDEST DUP2 MSTORE DUP4 PUSH1 0x20 MSTORE KECCAK256 SWAP1 DUP2 SLOAD SWAP2 PUSH1 0x1 DUP1 PUSH1 0xA0 SHL SUB PUSH1 0x2 DUP3 ADD SLOAD AND SWAP4 PUSH1 0x3 DUP3 ADD SLOAD SWAP1 DUP3 ADD SLOAD PUSH1 0x5 DUP4 ADD SLOAD SWAP1 PUSH1 0x6 DUP5 ADD SLOAD SWAP3 PUSH2 0x55F PUSH1 0x1 PUSH1 0xFF PUSH1 0x7 DUP9 ADD SLOAD AND SWAP7 ADD PUSH2 0x12C1 JUMP JUMPDEST SWAP8 PUSH2 0x57B DUP8 MLOAD SWAP10 DUP11 SWAP10 DUP11 MSTORE PUSH2 0x100 DUP1 PUSH1 0x20 DUP13 ADD MSTORE DUP11 ADD SWAP1 PUSH2 0x1367 JUMP JUMPDEST SWAP7 DUP9 ADD MSTORE PUSH1 0x60 DUP8 ADD MSTORE PUSH1 0x80 DUP7 ADD MSTORE PUSH1 0xA0 DUP6 ADD MSTORE PUSH1 0xC0 DUP5 ADD MSTORE ISZERO ISZERO PUSH1 0xE0 DUP4 ADD MSTORE SUB SWAP1 RETURN JUMPDEST DUP1 REVERT JUMPDEST POP CALLVALUE PUSH2 0x1BA JUMPI PUSH1 0x20 CALLDATASIZE PUSH1 0x3 NOT ADD SLT PUSH2 0x1BA JUMPI CALLDATALOAD SWAP2 PUSH1 0x3 SLOAD DUP4 LT ISZERO PUSH2 0x59E JUMPI POP PUSH2 0x5CB PUSH1 0x20 SWAP3 PUSH2 0x13DE JUMP JUMPDEST PUSH1 0x1 DUP1 PUSH1 0xA0 SHL SUB SWAP2 SLOAD SWAP1 PUSH1 0x3 SHL SHR AND SWAP1 MLOAD SWAP1 DUP2 MSTORE RETURN JUMPDEST POP POP CALLVALUE PUSH2 0x1DD JUMPI PUSH1 0x20 CALLDATASIZE PUSH1 0x3 NOT ADD SLT PUSH2 0x1DD JUMPI PUSH1 0x20 SWAP2 PUSH1 0xFF SWAP1 DUP3 SWAP1 PUSH1 0x1 PUSH1 0x1 PUSH1 0xA0 SHL SUB PUSH2 0x60C PUSH2 0x13A7 JUMP JUMPDEST AND DUP2 MSTORE PUSH1 0x2 DUP6 MSTORE KECCAK256 SLOAD AND SWAP1 MLOAD SWAP1 ISZERO ISZERO DUP2 MSTORE RETURN JUMPDEST POP CALLVALUE PUSH2 0x1BA JUMPI PUSH1 0x20 CALLDATASIZE PUSH1 0x3 NOT ADD SLT PUSH2 0x1BA JUMPI DUP1 PUSH2 0x654 PUSH1 0xFF PUSH1 0x7 DUP6 PUSH1 0x20 SWAP8 PUSH2 0x659 SWAP7 CALLDATALOAD SWAP6 DUP7 DUP3 MSTORE DUP10 MSTORE KECCAK256 ADD SLOAD PUSH1 0x8 SHR AND PUSH2 0x1563 JUMP JUMPDEST PUSH2 0x15FB JUMP JUMPDEST SWAP1 MLOAD SWAP1 ISZERO ISZERO DUP2 MSTORE RETURN JUMPDEST POP POP CALLVALUE PUSH2 0x1DD JUMPI DUP2 PUSH1 0x3 NOT CALLDATASIZE ADD SLT PUSH2 0x1DD JUMPI PUSH1 0x20 SWAP1 PUSH1 0x3 SLOAD SWAP1 MLOAD SWAP1 DUP2 MSTORE RETURN JUMPDEST POP POP CALLVALUE PUSH2 0x1DD JUMPI DUP2 PUSH1 0x3 NOT CALLDATASIZE ADD SLT PUSH2 0x1DD JUMPI SWAP1 SLOAD SWAP1 MLOAD PUSH1 0x1 PUSH1 0x1 PUSH1 0xA0 SHL SUB SWAP1 SWAP2 AND DUP2 MSTORE PUSH1 0x20 SWAP1 RETURN JUMPDEST POP DUP3 SWAP1 CALLVALUE PUSH2 0x1DD JUMPI PUSH1 0x80 CALLDATASIZE PUSH1 0x3 NOT ADD SLT PUSH2 0x1DD JUMPI PUSH8 0xFFFFFFFFFFFFFFFF SWAP1 DUP1 CALLDATALOAD DUP3 DUP2 GT PUSH2 0xA78 JUMPI CALLDATASIZE PUSH1 0x23 DUP3 ADD SLT ISZERO PUSH2 0xA78 JUMPI DUP1 DUP3 ADD CALLDATALOAD SWAP5 PUSH2 0x6E9 DUP7 PUSH2 0x13C2 JUMP JUMPDEST SWAP2 PUSH2 0x6F6 DUP3 MLOAD SWAP4 DUP5 PUSH2 0x1289 JUMP JUMPDEST DUP7 DUP4 MSTORE PUSH1 0x24 SWAP7 CALLDATASIZE DUP9 DUP3 DUP5 ADD ADD GT PUSH2 0xA74 JUMPI DUP8 SWAP3 SWAP2 DUP2 DUP9 SWAP3 PUSH1 0x20 SWAP11 DUP12 SWAP4 ADD DUP4 DUP9 ADD CALLDATACOPY DUP6 ADD ADD MSTORE DUP2 CALLDATALOAD PUSH1 0x1 PUSH1 0x1 PUSH1 0xA0 SHL SUB DUP2 AND SWAP6 SWAP1 DUP7 SWAP1 SUB PUSH2 0xA74 JUMPI PUSH1 0x44 CALLDATALOAD SWAP1 PUSH1 0x64 CALLDATALOAD SWAP6 CALLER DUP10 MSTORE PUSH1 0x2 DUP11 MSTORE PUSH2 0x74E PUSH1 0xFF DUP6 DUP12 KECCAK256 SLOAD AND PUSH2 0x14AA JUMP JUMPDEST DUP8 ISZERO PUSH2 0xA3A JUMPI DUP3 ISZERO PUSH2 0x9F8 JUMPI PUSH2 0x766 SELFBALANCE DUP5 GT ISZERO PUSH2 0x1502 JUMP JUMPDEST DUP7 ISZERO PUSH2 0x9C5 JUMPI DUP6 MLOAD ISZERO PUSH2 0x98D JUMPI PUSH1 0x5 SLOAD SWAP7 PUSH2 0x780 DUP9 PUSH2 0x1457 JUMP JUMPDEST PUSH1 0x5 SSTORE PUSH3 0x15180 DUP1 DUP3 MUL SWAP2 DUP3 DIV SUB PUSH2 0x97B JUMPI PUSH2 0x79C SWAP1 TIMESTAMP PUSH2 0x1556 JUMP JUMPDEST SWAP5 DUP8 DUP11 MSTORE DUP2 DUP12 MSTORE DUP5 DUP11 KECCAK256 SWAP3 DUP9 DUP5 SSTORE PUSH1 0x1 DUP5 ADD SWAP2 DUP9 MLOAD SWAP2 DUP3 GT PUSH2 0x96A JUMPI POP DUP12 PUSH2 0x7C4 DUP4 SLOAD PUSH2 0x124F JUMP JUMPDEST PUSH1 0x1F DUP2 GT PUSH2 0x925 JUMPI JUMPDEST POP POP DUP12 PUSH1 0x1F DUP3 GT PUSH1 0x1 EQ PUSH2 0x894 JUMPI SWAP11 PUSH2 0x87C SWAP9 SWAP8 SWAP6 SWAP4 PUSH1 0x7 SWAP4 DUP4 DUP4 SWAP16 SWAP10 SWAP8 SWAP5 PUSH32 0x331B791E5A0526C6D6F17A46C1D4139542C8579C245D9F8082D0B1462942F4FA SWAP14 SWAP15 SWAP16 DUP6 SWAP2 PUSH2 0x889 JUMPI JUMPDEST POP DUP2 PUSH1 0x1 SHL SWAP2 PUSH1 0x0 NOT SWAP1 PUSH1 0x3 SHL SHR NOT AND OR SWAP1 SSTORE JUMPDEST PUSH1 0x2 DUP4 ADD DUP14 PUSH12 0xFFFFFFFFFFFFFFFFFFFFFFFF PUSH1 0xA0 SHL DUP3 SLOAD AND OR SWAP1 SSTORE DUP5 PUSH1 0x3 DUP5 ADD SSTORE DUP3 ADD SSTORE DUP12 PUSH1 0x5 DUP3 ADD SSTORE DUP5 PUSH1 0x6 DUP3 ADD SSTORE ADD PUSH2 0x100 PUSH2 0xFFFF NOT DUP3 SLOAD AND OR SWAP1 SSTORE DUP2 MLOAD SWAP6 DUP7 SWAP6 PUSH1 0x60 DUP8 MSTORE PUSH1 0x60 DUP8 ADD SWAP1 PUSH2 0x1367 JUMP JUMPDEST SWAP4 DUP6 ADD MSTORE DUP4 ADD MSTORE SUB SWAP1 LOG3 DUP1 RETURN JUMPDEST SWAP1 POP DUP12 ADD MLOAD CODESIZE PUSH2 0x817 JUMP JUMPDEST DUP3 DUP13 MSTORE DUP13 DUP13 KECCAK256 SWAP1 PUSH1 0x1F NOT DUP4 AND DUP14 JUMPDEST DUP2 DUP2 LT PUSH2 0x90E JUMPI POP SWAP4 PUSH1 0x1 DUP15 SWAP16 SWAP10 SWAP8 SWAP5 PUSH32 0x331B791E5A0526C6D6F17A46C1D4139542C8579C245D9F8082D0B1462942F4FA SWAP14 SWAP15 SWAP16 SWAP5 PUSH2 0x87C SWAP14 SWAP13 SWAP11 SWAP9 SWAP5 DUP3 PUSH1 0x7 SWAP10 LT PUSH2 0x8F5 JUMPI JUMPDEST POP POP DUP2 SHL ADD SWAP1 SSTORE PUSH2 0x82B JUMP JUMPDEST DUP14 ADD MLOAD PUSH1 0x0 NOT PUSH1 0xF8 DUP5 PUSH1 0x3 SHL AND SHR NOT AND SWAP1 SSTORE CODESIZE DUP1 PUSH2 0x8E9 JUMP JUMPDEST SWAP2 SWAP3 DUP16 PUSH1 0x1 DUP2 SWAP3 DUP7 DUP16 ADD MLOAD DUP2 SSTORE ADD SWAP5 ADD SWAP3 ADD PUSH2 0x8A2 JUMP JUMPDEST DUP4 DUP14 MSTORE DUP2 DUP14 KECCAK256 SWAP1 PUSH1 0x1F DUP5 ADD PUSH1 0x5 SHR DUP3 ADD SWAP3 DUP5 LT PUSH2 0x960 JUMPI JUMPDEST PUSH1 0x1F ADD PUSH1 0x5 SHR ADD SWAP1 JUMPDEST DUP2 DUP2 LT PUSH2 0x955 JUMPI DUP14 SWAP2 POP PUSH2 0x7CD JUMP JUMPDEST DUP13 DUP2 SSTORE PUSH1 0x1 ADD PUSH2 0x946 JUMP JUMPDEST SWAP1 SWAP2 POP DUP2 SWAP1 PUSH2 0x93D JUMP JUMPDEST PUSH4 0x4E487B71 PUSH1 0xE0 SHL DUP13 MSTORE PUSH1 0x41 DUP5 MSTORE DUP12 REVERT JUMPDEST PUSH4 0x4E487B71 PUSH1 0xE0 SHL DUP11 MSTORE PUSH1 0x11 DUP3 MSTORE DUP6 DUP11 REVERT JUMPDEST DUP4 MLOAD PUSH3 0x461BCD PUSH1 0xE5 SHL DUP2 MSTORE SWAP1 DUP2 ADD DUP11 SWAP1 MSTORE PUSH1 0x13 DUP2 DUP7 ADD MSTORE PUSH19 0x4465736372697074696F6E2072657175697365 PUSH1 0x68 SHL PUSH1 0x44 DUP3 ADD MSTORE PUSH1 0x64 SWAP1 REVERT JUMPDEST DUP4 MLOAD PUSH3 0x461BCD PUSH1 0xE5 SHL DUP2 MSTORE SWAP1 DUP2 ADD DUP11 SWAP1 MSTORE PUSH1 0xE DUP2 DUP7 ADD MSTORE PUSH14 0x447572656520696E76616C696465 PUSH1 0x90 SHL PUSH1 0x44 DUP3 ADD MSTORE PUSH1 0x64 SWAP1 REVERT JUMPDEST DUP4 MLOAD PUSH3 0x461BCD PUSH1 0xE5 SHL DUP2 MSTORE SWAP1 DUP2 ADD DUP11 SWAP1 MSTORE PUSH1 0x1F DUP2 DUP7 ADD MSTORE PUSH32 0x4D6F6E74616E7420646F69742065747265207375706572696575722061203000 PUSH1 0x44 DUP3 ADD MSTORE PUSH1 0x64 SWAP1 REVERT JUMPDEST DUP4 MLOAD PUSH3 0x461BCD PUSH1 0xE5 SHL DUP2 MSTORE SWAP1 DUP2 ADD DUP11 SWAP1 MSTORE PUSH1 0x15 DUP2 DUP7 ADD MSTORE PUSH21 0x44657374696E61746169726520696E76616C696465 PUSH1 0x58 SHL PUSH1 0x44 DUP3 ADD MSTORE PUSH1 0x64 SWAP1 REVERT JUMPDEST DUP7 DUP1 REVERT JUMPDEST DUP4 DUP1 REVERT JUMPDEST DUP3 DUP5 CALLVALUE PUSH2 0x59E JUMPI DUP1 PUSH1 0x3 NOT CALLDATASIZE ADD SLT PUSH2 0x59E JUMPI SWAP1 DUP1 MLOAD SWAP2 DUP3 SWAP1 PUSH1 0x3 SLOAD SWAP2 DUP3 DUP6 MSTORE PUSH1 0x20 DUP1 SWAP6 ADD DUP1 SWAP4 PUSH1 0x3 DUP5 MSTORE PUSH32 0xC2575A0E9E593C00F959F8C92F12DB2869C3395A3B0502D05E2516446F71F85B SWAP1 DUP5 JUMPDEST DUP2 DUP2 LT PUSH2 0xB24 JUMPI POP POP POP DUP2 PUSH2 0xAE0 SWAP2 SUB DUP3 PUSH2 0x1289 JUMP JUMPDEST DUP4 MLOAD SWAP5 DUP6 SWAP5 DUP2 DUP7 ADD SWAP3 DUP3 DUP8 MSTORE MLOAD DUP1 SWAP4 MSTORE DUP6 ADD SWAP4 SWAP3 JUMPDEST DUP3 DUP2 LT PUSH2 0xB04 JUMPI POP POP POP POP SUB SWAP1 RETURN JUMPDEST DUP4 MLOAD PUSH1 0x1 PUSH1 0x1 PUSH1 0xA0 SHL SUB AND DUP6 MSTORE DUP7 SWAP6 POP SWAP4 DUP2 ADD SWAP4 SWAP3 DUP2 ADD SWAP3 PUSH1 0x1 ADD PUSH2 0xAF5 JUMP JUMPDEST DUP3 SLOAD PUSH1 0x1 PUSH1 0x1 PUSH1 0xA0 SHL SUB AND DUP5 MSTORE SWAP3 DUP9 ADD SWAP3 PUSH1 0x1 SWAP3 DUP4 ADD SWAP3 ADD PUSH2 0xACA JUMP JUMPDEST DUP4 DUP3 CALLVALUE PUSH2 0x1DD JUMPI PUSH1 0x20 CALLDATASIZE PUSH1 0x3 NOT ADD SLT PUSH2 0x1DD JUMPI CALLDATALOAD PUSH2 0xB5D PUSH2 0x142B JUMP JUMPDEST DUP1 ISZERO ISZERO DUP1 PUSH2 0xB75 JUMPI JUMPDEST PUSH2 0xB6F SWAP1 PUSH2 0x16A9 JUMP JUMPDEST PUSH1 0x7 SSTORE DUP1 RETURN JUMPDEST POP PUSH1 0x64 DUP2 GT ISZERO PUSH2 0xB66 JUMP JUMPDEST DUP4 CALLVALUE PUSH2 0x59E JUMPI DUP1 PUSH1 0x3 NOT CALLDATASIZE ADD SLT PUSH2 0x59E JUMPI PUSH2 0xB99 PUSH2 0x142B JUMP JUMPDEST DUP1 SLOAD PUSH1 0x1 PUSH1 0x1 PUSH1 0xA0 SHL SUB NOT DUP2 AND DUP3 SSTORE DUP2 SWAP1 PUSH1 0x1 PUSH1 0x1 PUSH1 0xA0 SHL SUB AND PUSH32 0x8BE0079C531659141344CD1FD0A4F28419497F9722A3DAAFE3B4186F6B6457E0 DUP3 DUP1 LOG3 DUP1 RETURN JUMPDEST POP POP CALLVALUE PUSH2 0x1DD JUMPI DUP2 PUSH1 0x3 NOT CALLDATASIZE ADD SLT PUSH2 0x1DD JUMPI PUSH1 0x20 SWAP1 PUSH1 0x6 SLOAD SWAP1 MLOAD SWAP1 DUP2 MSTORE RETURN JUMPDEST POP CALLVALUE PUSH2 0x1BA JUMPI DUP2 PUSH1 0x3 NOT CALLDATASIZE ADD SLT PUSH2 0x1BA JUMPI PUSH1 0x24 CALLDATALOAD PUSH1 0x1 PUSH1 0x1 PUSH1 0xA0 SHL SUB DUP2 AND SWAP2 SWAP1 DUP2 CALLDATALOAD SWAP1 DUP4 SWAP1 SUB PUSH2 0x4E6 JUMPI SWAP4 PUSH1 0xFF SWAP3 DUP5 SWAP3 DUP7 PUSH1 0x20 SWAP8 DUP5 MSTORE DUP2 DUP9 MSTORE PUSH2 0xC46 DUP7 PUSH1 0x7 DUP8 DUP8 KECCAK256 ADD SLOAD PUSH1 0x8 SHR AND PUSH2 0x1563 JUMP JUMPDEST DUP4 MSTORE DUP7 MSTORE PUSH1 0x8 DUP4 DUP4 KECCAK256 ADD SWAP1 DUP3 MSTORE DUP6 MSTORE KECCAK256 SLOAD AND SWAP1 MLOAD SWAP1 ISZERO ISZERO DUP2 MSTORE RETURN JUMPDEST DUP4 DUP3 CALLVALUE PUSH2 0x1DD JUMPI PUSH1 0x20 CALLDATASIZE PUSH1 0x3 NOT ADD SLT PUSH2 0x1DD JUMPI CALLDATALOAD PUSH2 0xC7D PUSH2 0x142B JUMP JUMPDEST DUP1 ISZERO ISZERO DUP1 PUSH2 0xC95 JUMPI JUMPDEST PUSH2 0xC8F SWAP1 PUSH2 0x16A9 JUMP JUMPDEST PUSH1 0x6 SSTORE DUP1 RETURN JUMPDEST POP PUSH1 0x64 DUP2 GT ISZERO PUSH2 0xC86 JUMP JUMPDEST POP POP CALLVALUE PUSH2 0x1DD JUMPI DUP2 PUSH1 0x3 NOT CALLDATASIZE ADD SLT PUSH2 0x1DD JUMPI PUSH1 0x20 SWAP1 PUSH1 0x7 SLOAD SWAP1 MLOAD SWAP1 DUP2 MSTORE RETURN JUMPDEST POP POP CALLVALUE PUSH2 0x1DD JUMPI DUP2 PUSH1 0x3 NOT CALLDATASIZE ADD SLT PUSH2 0x1DD JUMPI MLOAD SELFBALANCE DUP2 MSTORE PUSH1 0x20 SWAP1 RETURN JUMPDEST POP DUP3 SWAP1 CALLVALUE PUSH2 0x1DD JUMPI PUSH1 0x20 DUP1 PUSH1 0x3 NOT CALLDATASIZE ADD SLT PUSH2 0x1BA JUMPI DUP2 CALLDATALOAD SWAP1 CALLER DUP5 MSTORE PUSH1 0x2 DUP2 MSTORE PUSH2 0xD08 PUSH1 0xFF DUP7 DUP7 KECCAK256 SLOAD AND PUSH2 0x14AA JUMP JUMPDEST DUP2 DUP5 MSTORE DUP3 DUP2 MSTORE PUSH2 0xD23 PUSH1 0xFF PUSH1 0x7 DUP8 DUP8 KECCAK256 ADD SLOAD PUSH1 0x8 SHR AND PUSH2 0x1563 JUMP JUMPDEST DUP2 DUP5 MSTORE DUP3 DUP2 MSTORE PUSH2 0xD3C PUSH1 0xFF PUSH1 0x7 DUP8 DUP8 KECCAK256 ADD SLOAD AND ISZERO PUSH2 0x15AF JUMP JUMPDEST PUSH1 0x2 PUSH1 0x1 SLOAD EQ PUSH2 0xF5C JUMPI PUSH1 0x2 PUSH1 0x1 SSTORE DUP2 DUP5 MSTORE DUP3 DUP2 MSTORE DUP5 DUP5 KECCAK256 SWAP5 PUSH1 0x6 DUP7 ADD SLOAD TIMESTAMP GT ISZERO PUSH2 0xF2B JUMPI SELFBALANCE PUSH1 0x3 DUP8 ADD SWAP5 PUSH2 0xD75 DUP7 SLOAD DUP1 SWAP4 LT ISZERO PUSH2 0x1502 JUMP JUMPDEST DUP1 DUP9 ADD SLOAD SWAP8 PUSH2 0xD88 PUSH1 0x5 DUP3 ADD SLOAD DUP11 PUSH2 0x1556 JUMP JUMPDEST SWAP9 PUSH1 0x3 SLOAD SWAP10 PUSH1 0x64 SWAP11 DUP12 DUP3 MUL SWAP1 DUP3 DUP3 DIV DUP14 EQ DUP4 ISZERO OR ISZERO PUSH2 0xF18 JUMPI PUSH1 0x6 SLOAD PUSH2 0xDAD SWAP2 PUSH2 0x1543 JUMP JUMPDEST GT PUSH2 0xEE1 JUMPI DUP11 DUP3 MUL SWAP2 DUP1 DUP4 DIV DUP13 EQ SWAP1 ISZERO OR ISZERO PUSH2 0xECE JUMPI PUSH1 0x7 SLOAD PUSH2 0xDCF SWAP2 PUSH2 0x1543 JUMP JUMPDEST GT PUSH2 0xE96 JUMPI DUP1 PUSH1 0x7 PUSH1 0x2 SWAP3 ADD PUSH1 0x1 PUSH1 0xFF NOT DUP3 SLOAD AND OR SWAP1 SSTORE ADD SWAP1 DUP8 DUP1 DUP1 DUP1 PUSH1 0x1 DUP1 PUSH1 0xA0 SHL SUB SWAP7 DUP8 DUP8 SLOAD AND GAS CALL RETURNDATASIZE ISZERO PUSH2 0xE91 JUMPI RETURNDATASIZE PUSH2 0xE0A DUP2 PUSH2 0x13C2 JUMP JUMPDEST SWAP1 PUSH2 0xE17 DUP8 MLOAD SWAP3 DUP4 PUSH2 0x1289 JUMP JUMPDEST DUP2 MSTORE DUP10 DUP8 RETURNDATASIZE SWAP3 ADD RETURNDATACOPY JUMPDEST ISZERO PUSH2 0xE5C JUMPI POP SWAP1 PUSH32 0x3B7C90DF35B419337CFF0919FE91849006607BB66C4373623F06F9D48C1EBB98 SWAP4 SWAP3 SWAP2 SLOAD AND SWAP5 SLOAD SWAP1 MLOAD SWAP1 DUP2 MSTORE LOG3 PUSH1 0x1 DUP1 SSTORE DUP1 RETURN JUMPDEST DUP4 MLOAD PUSH3 0x461BCD PUSH1 0xE5 SHL DUP2 MSTORE SWAP1 DUP2 ADD DUP6 SWAP1 MSTORE PUSH1 0x10 PUSH1 0x24 DUP3 ADD MSTORE PUSH16 0x5472616E7366657274206563686F7565 PUSH1 0x80 SHL PUSH1 0x44 DUP3 ADD MSTORE DUP9 SWAP1 REVERT JUMPDEST PUSH2 0xE20 JUMP JUMPDEST DUP4 MLOAD PUSH3 0x461BCD PUSH1 0xE5 SHL DUP2 MSTORE DUP1 DUP4 ADD DUP7 SWAP1 MSTORE PUSH1 0x13 PUSH1 0x24 DUP3 ADD MSTORE PUSH19 0x50726F706F736974696F6E2072656A65746565 PUSH1 0x68 SHL PUSH1 0x44 DUP3 ADD MSTORE DUP10 SWAP1 REVERT JUMPDEST PUSH4 0x4E487B71 PUSH1 0xE0 SHL DUP11 MSTORE PUSH1 0x11 DUP5 MSTORE PUSH1 0x24 DUP11 REVERT JUMPDEST DUP6 MLOAD PUSH3 0x461BCD PUSH1 0xE5 SHL DUP2 MSTORE DUP1 DUP6 ADD DUP9 SWAP1 MSTORE PUSH1 0x12 PUSH1 0x24 DUP3 ADD MSTORE PUSH18 0x145D5BDC9D5B481B9BDB88185D1D195A5B9D PUSH1 0x72 SHL PUSH1 0x44 DUP3 ADD MSTORE DUP12 SWAP1 REVERT JUMPDEST PUSH4 0x4E487B71 PUSH1 0xE0 SHL DUP13 MSTORE PUSH1 0x11 DUP7 MSTORE PUSH1 0x24 DUP13 REVERT JUMPDEST MLOAD PUSH3 0x461BCD PUSH1 0xE5 SHL DUP2 MSTORE SWAP3 DUP4 ADD MSTORE POP PUSH1 0xD PUSH1 0x24 DUP3 ADD MSTORE PUSH13 0x566F746520656E20636F757273 PUSH1 0x98 SHL PUSH1 0x44 DUP3 ADD MSTORE PUSH1 0x64 SWAP1 REVERT JUMPDEST DUP5 MLOAD PUSH4 0x3EE5AEB5 PUSH1 0xE0 SHL DUP2 MSTORE DUP4 SWAP1 REVERT JUMPDEST POP SWAP2 CALLVALUE PUSH2 0x59E JUMPI PUSH1 0x20 SWAP2 DUP3 PUSH1 0x3 NOT CALLDATASIZE ADD SLT PUSH2 0x1DD JUMPI PUSH2 0xF89 PUSH2 0x13A7 JUMP JUMPDEST SWAP3 PUSH2 0xF92 PUSH2 0x142B JUMP JUMPDEST PUSH1 0x1 PUSH1 0x1 PUSH1 0xA0 SHL SUB SWAP4 DUP5 AND DUP1 DUP5 MSTORE PUSH1 0x2 DUP3 MSTORE DUP3 DUP5 KECCAK256 SLOAD SWAP1 SWAP3 SWAP1 PUSH1 0xFF AND ISZERO PUSH2 0x112C JUMPI DUP5 DUP5 SLOAD AND DUP4 EQ PUSH2 0x10DB JUMPI DUP3 DUP5 MSTORE PUSH1 0x2 DUP3 MSTORE DUP1 DUP5 KECCAK256 DUP1 SLOAD PUSH1 0xFF NOT AND SWAP1 SSTORE DUP4 JUMPDEST PUSH1 0x3 DUP1 SLOAD DUP1 DUP4 LT ISZERO PUSH2 0x10AB JUMPI DUP6 DUP9 PUSH2 0xFE8 DUP6 PUSH2 0x13DE JUMP JUMPDEST SWAP1 SLOAD SWAP1 DUP6 SHL SHR AND EQ PUSH2 0x1004 JUMPI POP POP PUSH2 0xFFF SWAP1 PUSH2 0x1457 JUMP JUMPDEST PUSH2 0xFD1 JUMP JUMPDEST SWAP1 SWAP2 PUSH1 0x0 SWAP8 SWAP4 SWAP5 SWAP6 SWAP7 SWAP8 NOT SWAP2 DUP3 DUP2 ADD SWAP1 DUP2 GT PUSH2 0x1098 JUMPI SWAP1 PUSH2 0x2B9 DUP6 PUSH2 0x102B PUSH2 0x1038 SWAP5 PUSH2 0x13DE JUMP JUMPDEST SWAP1 SLOAD SWAP1 DUP8 SHL SHR AND SWAP2 PUSH2 0x13DE JUMP JUMPDEST DUP2 SLOAD DUP1 ISZERO PUSH2 0x1085 JUMPI PUSH32 0x3AC963493DF564DE734D98633F1145D21512E282BA4C02D3C1011119BF7F2862 SWAP7 SWAP8 SWAP9 POP ADD SWAP2 PUSH2 0x1070 DUP4 PUSH2 0x13DE JUMP JUMPDEST SWAP1 SWAP2 DUP3 SLOAD SWAP2 DUP5 SHL SHL NOT AND SWAP1 SSTORE SSTORE MLOAD TIMESTAMP DUP2 MSTORE LOG2 DUP1 RETURN JUMPDEST PUSH4 0x4E487B71 PUSH1 0xE0 SHL DUP9 MSTORE PUSH1 0x31 DUP10 MSTORE PUSH1 0x24 DUP9 REVERT JUMPDEST PUSH4 0x4E487B71 PUSH1 0xE0 SHL DUP10 MSTORE PUSH1 0x11 DUP11 MSTORE PUSH1 0x24 DUP10 REVERT JUMPDEST POP POP POP SWAP1 SWAP2 SWAP4 POP PUSH32 0x3AC963493DF564DE734D98633F1145D21512E282BA4C02D3C1011119BF7F2862 SWAP3 SWAP5 POP PUSH2 0x2D8 JUMP JUMPDEST MLOAD PUSH3 0x461BCD PUSH1 0xE5 SHL DUP2 MSTORE DUP1 DUP7 ADD SWAP2 SWAP1 SWAP2 MSTORE PUSH1 0x25 PUSH1 0x24 DUP3 ADD MSTORE PUSH32 0x496D706F737369626C652064652072657469726572206C652070726F70726965 PUSH1 0x44 DUP3 ADD MSTORE PUSH5 0x7461697265 PUSH1 0xD8 SHL PUSH1 0x64 DUP3 ADD MSTORE PUSH1 0x84 SWAP1 REVERT JUMPDEST MLOAD PUSH3 0x461BCD PUSH1 0xE5 SHL DUP2 MSTORE DUP1 DUP7 ADD SWAP2 SWAP1 SWAP2 MSTORE PUSH1 0x10 PUSH1 0x24 DUP3 ADD MSTORE PUSH16 0x26B2B6B13932903737B71030B1BA34B3 PUSH1 0x81 SHL PUSH1 0x44 DUP3 ADD MSTORE PUSH1 0x64 SWAP1 REVERT JUMPDEST POP POP CALLVALUE PUSH2 0x1DD JUMPI PUSH1 0x20 CALLDATASIZE PUSH1 0x3 NOT ADD SLT PUSH2 0x1DD JUMPI SWAP1 DUP2 SWAP1 PUSH1 0x1 PUSH1 0x1 PUSH1 0xA0 SHL SUB PUSH2 0x1188 PUSH2 0x13A7 JUMP JUMPDEST AND DUP2 MSTORE PUSH1 0x2 PUSH1 0x20 MSTORE KECCAK256 PUSH1 0x1 PUSH1 0xFF DUP3 SLOAD AND SWAP2 ADD SLOAD DUP3 MLOAD SWAP2 ISZERO ISZERO DUP3 MSTORE PUSH1 0x20 DUP3 ADD MSTORE RETURN JUMPDEST POP DUP3 CALLVALUE PUSH2 0x59E JUMPI PUSH1 0x20 CALLDATASIZE PUSH1 0x3 NOT ADD SLT PUSH2 0x59E JUMPI DUP3 SWAP1 DUP3 CALLDATALOAD DUP2 MSTORE DUP3 PUSH1 0x20 MSTORE KECCAK256 SWAP2 PUSH1 0xFF DUP4 SLOAD SWAP3 PUSH2 0x11D9 PUSH1 0x1 DUP7 ADD PUSH2 0x12C1 JUMP JUMPDEST SWAP5 PUSH1 0x1 DUP1 PUSH1 0xA0 SHL SUB PUSH1 0x2 DUP3 ADD SLOAD AND SWAP2 PUSH1 0x3 DUP3 ADD SLOAD SWAP1 DUP3 ADD SLOAD PUSH1 0x5 DUP4 ADD SLOAD SWAP2 PUSH1 0x7 PUSH1 0x6 DUP6 ADD SLOAD SWAP5 ADD SLOAD SWAP5 PUSH2 0x121D DUP9 MLOAD SWAP11 DUP12 SWAP11 DUP12 MSTORE PUSH2 0x120 DUP1 PUSH1 0x20 DUP14 ADD MSTORE DUP12 ADD SWAP1 PUSH2 0x1367 JUMP JUMPDEST SWAP8 DUP10 ADD MSTORE PUSH1 0x60 DUP9 ADD MSTORE PUSH1 0x80 DUP8 ADD MSTORE PUSH1 0xA0 DUP7 ADD MSTORE PUSH1 0xC0 DUP6 ADD MSTORE DUP2 DUP2 AND ISZERO ISZERO PUSH1 0xE0 DUP6 ADD MSTORE PUSH1 0x8 SHR AND ISZERO ISZERO PUSH2 0x100 DUP4 ADD MSTORE SUB SWAP1 RETURN JUMPDEST SWAP1 PUSH1 0x1 DUP3 DUP2 SHR SWAP3 AND DUP1 ISZERO PUSH2 0x127F JUMPI JUMPDEST PUSH1 0x20 DUP4 LT EQ PUSH2 0x1269 JUMPI JUMP JUMPDEST PUSH4 0x4E487B71 PUSH1 0xE0 SHL PUSH1 0x0 MSTORE PUSH1 0x22 PUSH1 0x4 MSTORE PUSH1 0x24 PUSH1 0x0 REVERT JUMPDEST SWAP2 PUSH1 0x7F AND SWAP2 PUSH2 0x125E JUMP JUMPDEST SWAP1 PUSH1 0x1F DUP1 NOT SWAP2 ADD AND DUP2 ADD SWAP1 DUP2 LT PUSH8 0xFFFFFFFFFFFFFFFF DUP3 GT OR PUSH2 0x12AB JUMPI PUSH1 0x40 MSTORE JUMP JUMPDEST PUSH4 0x4E487B71 PUSH1 0xE0 SHL PUSH1 0x0 MSTORE PUSH1 0x41 PUSH1 0x4 MSTORE PUSH1 0x24 PUSH1 0x0 REVERT JUMPDEST SWAP1 PUSH1 0x40 MLOAD SWAP2 DUP3 PUSH1 0x0 DUP3 SLOAD SWAP3 PUSH2 0x12D5 DUP5 PUSH2 0x124F JUMP JUMPDEST SWAP1 DUP2 DUP5 MSTORE PUSH1 0x1 SWAP5 DUP6 DUP2 AND SWAP1 DUP2 PUSH1 0x0 EQ PUSH2 0x1344 JUMPI POP PUSH1 0x1 EQ PUSH2 0x1301 JUMPI JUMPDEST POP POP PUSH2 0x12FF SWAP3 POP SUB DUP4 PUSH2 0x1289 JUMP JUMPDEST JUMP JUMPDEST SWAP1 SWAP4 SWAP2 POP PUSH1 0x0 MSTORE PUSH1 0x20 SWAP1 DUP2 PUSH1 0x0 KECCAK256 SWAP4 PUSH1 0x0 SWAP2 JUMPDEST DUP2 DUP4 LT PUSH2 0x132C JUMPI POP POP PUSH2 0x12FF SWAP4 POP DUP3 ADD ADD CODESIZE DUP1 PUSH2 0x12F1 JUMP JUMPDEST DUP6 SLOAD DUP9 DUP5 ADD DUP6 ADD MSTORE SWAP5 DUP6 ADD SWAP5 DUP8 SWAP5 POP SWAP2 DUP4 ADD SWAP2 PUSH2 0x1314 JUMP JUMPDEST SWAP2 POP POP PUSH2 0x12FF SWAP5 POP PUSH1 0x20 SWAP3 POP PUSH1 0xFF NOT AND DUP3 DUP5 ADD MSTORE ISZERO ISZERO PUSH1 0x5 SHL DUP3 ADD ADD CODESIZE DUP1 PUSH2 0x12F1 JUMP JUMPDEST SWAP2 SWAP1 DUP3 MLOAD SWAP3 DUP4 DUP3 MSTORE PUSH1 0x0 JUMPDEST DUP5 DUP2 LT PUSH2 0x1393 JUMPI POP POP DUP3 PUSH1 0x0 PUSH1 0x20 DUP1 SWAP5 SWAP6 DUP5 ADD ADD MSTORE PUSH1 0x1F DUP1 NOT SWAP2 ADD AND ADD ADD SWAP1 JUMP JUMPDEST PUSH1 0x20 DUP2 DUP4 ADD DUP2 ADD MLOAD DUP5 DUP4 ADD DUP3 ADD MSTORE ADD PUSH2 0x1372 JUMP JUMPDEST PUSH1 0x4 CALLDATALOAD SWAP1 PUSH1 0x1 PUSH1 0x1 PUSH1 0xA0 SHL SUB DUP3 AND DUP3 SUB PUSH2 0x13BD JUMPI JUMP JUMPDEST PUSH1 0x0 DUP1 REVERT JUMPDEST PUSH8 0xFFFFFFFFFFFFFFFF DUP2 GT PUSH2 0x12AB JUMPI PUSH1 0x1F ADD PUSH1 0x1F NOT AND PUSH1 0x20 ADD SWAP1 JUMP JUMPDEST PUSH1 0x3 SLOAD DUP2 LT ISZERO PUSH2 0x1415 JUMPI PUSH1 0x3 PUSH1 0x0 MSTORE PUSH32 0xC2575A0E9E593C00F959F8C92F12DB2869C3395A3B0502D05E2516446F71F85B ADD SWAP1 PUSH1 0x0 SWAP1 JUMP JUMPDEST PUSH4 0x4E487B71 PUSH1 0xE0 SHL PUSH1 0x0 MSTORE PUSH1 0x32 PUSH1 0x4 MSTORE PUSH1 0x24 PUSH1 0x0 REVERT JUMPDEST PUSH1 0x0 SLOAD PUSH1 0x1 PUSH1 0x1 PUSH1 0xA0 SHL SUB AND CALLER SUB PUSH2 0x143F JUMPI JUMP JUMPDEST PUSH1 0x40 MLOAD PUSH4 0x118CDAA7 PUSH1 0xE0 SHL DUP2 MSTORE CALLER PUSH1 0x4 DUP3 ADD MSTORE PUSH1 0x24 SWAP1 REVERT JUMPDEST PUSH1 0x0 NOT DUP2 EQ PUSH2 0x1466 JUMPI PUSH1 0x1 ADD SWAP1 JUMP JUMPDEST PUSH4 0x4E487B71 PUSH1 0xE0 SHL PUSH1 0x0 MSTORE PUSH1 0x11 PUSH1 0x4 MSTORE PUSH1 0x24 PUSH1 0x0 REVERT JUMPDEST PUSH1 0x40 MLOAD CALLVALUE DUP2 MSTORE PUSH32 0x8E47B87B0EF542CDFA1659C551D88BAD38AA7F452D2BBB349AB7530DFEC8BE8F PUSH1 0x20 CALLER SWAP3 LOG2 JUMP JUMPDEST ISZERO PUSH2 0x14B1 JUMPI JUMP JUMPDEST PUSH1 0x40 MLOAD PUSH3 0x461BCD PUSH1 0xE5 SHL DUP2 MSTORE PUSH1 0x20 PUSH1 0x4 DUP3 ADD MSTORE PUSH1 0x24 DUP1 DUP3 ADD MSTORE PUSH32 0x4E6F6E206175746F726973653A20766F7573206E276574657320706173206D65 PUSH1 0x44 DUP3 ADD MSTORE PUSH4 0x6D627265 PUSH1 0xE0 SHL PUSH1 0x64 DUP3 ADD MSTORE PUSH1 0x84 SWAP1 REVERT JUMPDEST ISZERO PUSH2 0x1509 JUMPI JUMP JUMPDEST PUSH1 0x40 MLOAD PUSH3 0x461BCD PUSH1 0xE5 SHL DUP2 MSTORE PUSH1 0x20 PUSH1 0x4 DUP3 ADD MSTORE PUSH1 0x12 PUSH1 0x24 DUP3 ADD MSTORE PUSH18 0x466F6E647320696E737566666973616E7473 PUSH1 0x70 SHL PUSH1 0x44 DUP3 ADD MSTORE PUSH1 0x64 SWAP1 REVERT JUMPDEST DUP2 DUP2 MUL SWAP3 SWAP2 DUP2 ISZERO SWAP2 DUP5 DIV EQ OR ISZERO PUSH2 0x1466 JUMPI JUMP JUMPDEST SWAP2 SWAP1 DUP3 ADD DUP1 SWAP3 GT PUSH2 0x1466 JUMPI JUMP JUMPDEST ISZERO PUSH2 0x156A JUMPI JUMP JUMPDEST PUSH1 0x40 MLOAD PUSH3 0x461BCD PUSH1 0xE5 SHL DUP2 MSTORE PUSH1 0x20 PUSH1 0x4 DUP3 ADD MSTORE PUSH1 0x17 PUSH1 0x24 DUP3 ADD MSTORE PUSH32 0x50726F706F736974696F6E20696E6578697374616E7465000000000000000000 PUSH1 0x44 DUP3 ADD MSTORE PUSH1 0x64 SWAP1 REVERT JUMPDEST ISZERO PUSH2 0x15B6 JUMPI JUMP JUMPDEST PUSH1 0x40 MLOAD PUSH3 0x461BCD PUSH1 0xE5 SHL DUP2 MSTORE PUSH1 0x20 PUSH1 0x4 DUP3 ADD MSTORE PUSH1 0x19 PUSH1 0x24 DUP3 ADD MSTORE PUSH32 0x50726F706F736974696F6E2064656A6120657865637574656500000000000000 PUSH1 0x44 DUP3 ADD MSTORE PUSH1 0x64 SWAP1 REVERT JUMPDEST PUSH1 0x0 SWAP1 DUP2 MSTORE PUSH1 0x4 PUSH1 0x20 MSTORE PUSH1 0x40 DUP2 KECCAK256 PUSH1 0x6 DUP2 ADD SLOAD TIMESTAMP GT ISZERO PUSH2 0x16A5 JUMPI PUSH2 0x1628 PUSH1 0x5 PUSH1 0x4 DUP4 ADD SLOAD SWAP3 ADD SLOAD DUP3 PUSH2 0x1556 JUMP JUMPDEST PUSH1 0x3 SLOAD PUSH1 0x64 DUP3 MUL SWAP1 DUP3 DUP3 DIV PUSH1 0x64 EQ DUP4 ISZERO OR ISZERO PUSH2 0x1691 JUMPI PUSH1 0x6 SLOAD PUSH2 0x164A SWAP2 PUSH2 0x1543 JUMP JUMPDEST GT ISZERO SWAP3 PUSH1 0x64 DUP4 MUL SWAP3 DUP1 DUP5 DIV PUSH1 0x64 EQ SWAP1 ISZERO OR ISZERO PUSH2 0x167D JUMPI POP PUSH1 0x7 SLOAD PUSH2 0x166D SWAP2 PUSH2 0x1543 JUMP JUMPDEST GT ISZERO DUP2 PUSH2 0x1678 JUMPI POP SWAP1 JUMP JUMPDEST SWAP1 POP SWAP1 JUMP JUMPDEST PUSH4 0x4E487B71 PUSH1 0xE0 SHL DUP2 MSTORE PUSH1 0x11 PUSH1 0x4 MSTORE PUSH1 0x24 SWAP1 REVERT JUMPDEST PUSH4 0x4E487B71 PUSH1 0xE0 SHL DUP6 MSTORE PUSH1 0x11 PUSH1 0x4 MSTORE PUSH1 0x24 DUP6 REVERT JUMPDEST POP SWAP1 JUMP JUMPDEST ISZERO PUSH2 0x16B0 JUMPI JUMP JUMPDEST PUSH1 0x40 MLOAD PUSH3 0x461BCD PUSH1 0xE5 SHL DUP2 MSTORE PUSH1 0x20 PUSH1 0x4 DUP3 ADD MSTORE PUSH1 0x14 PUSH1 0x24 DUP3 ADD MSTORE PUSH20 0x506F757263656E7461676520696E76616C696465 PUSH1 0x60 SHL PUSH1 0x44 DUP3 ADD MSTORE PUSH1 0x64 SWAP1 REVERT INVALID LOG2 PUSH5 0x6970667358 0x22 SLT KECCAK256 CREATE2 SIGNEXTEND 0x21 PUSH17 0xDD52EC4BA53B0A0FBD75C3A5B4B1954501 SWAP2 PUSH14 0x3D7DBAAA5220FC7B1764736F6C63 NUMBER STOP ADDMOD EQ STOP CALLER "},"methodIdentifiers":{"addMember(address)":"ca6d56dc","approvalPercentage()":"3008d437","createProposal(string,address,uint256,uint256)":"8743dae6","executeProposal(uint256)":"0d61b519","getAllMembers()":"7c0f6b35","getBalance()":"12065fe0","getMemberCount()":"997072f7","getProposal(uint256)":"c7f758a8","hasVoted(uint256,address)":"43859632","isMember(address)":"a230c524","isProposalApproved(uint256)":"9abcc0cc","memberList(uint256)":"b307fc6d","members(address)":"08ae4b0c","owner()":"8da5cb5b","proposalCount()":"da35c664","proposals(uint256)":"013cf08b","quorumPercentage()":"4fa76ec9","removeMember(address)":"0b1ca49a","renounceOwnership()":"715018a6","setApprovalPercentage(uint256)":"784f80f8","setQuorumPercentage(uint256)":"32f6a1dc","transferOwnership(address)":"f2fde38b","vote(uint256,bool)":"c9d27afe"}}}}}