{"contracts/ReentrancyAttacker.sol":{"ReentrancyAttacker":{"abi":[{"inputs":[{"internalType":"address","name":"_targetContract","type":"address"}],"stateMutability":"nonpayable","type":"constructor"},{"anonymous":false,"inputs":[{"indexed":false,"internalType":"uint256","name":"attemptNumber","type":"uint256"},{"indexed":false,"internalType":"uint256","name":"contractBalance","type":"uint256"}],"name":"AttackAttempt","type":"event"},{"anonymous":false,"inputs":[{"indexed":false,"internalType":"string","name":"reason","type":"string"}],"name":"AttackBlocked","type":"event"},{"anonymous":false,"inputs":[{"indexed":false,"internalType":"uint256","name":"amount","type":"uint256"}],"name":"FundsReceived","type":"event"},{"inputs":[{"internalType":"uint256","name":"_proposalId","type":"uint256"}],"name":"attack","outputs":[],"stateMutability":"nonpayable","type":"function"},{"inputs":[],"name":"attackCount","outputs":[{"internalType":"uint256","name":"","type":"uint256"}],"stateMutability":"view","type":"function"},{"inputs":[],"name":"getAttackCount","outputs":[{"internalType":"uint256","name":"","type":"uint256"}],"stateMutability":"view","type":"function"},{"inputs":[],"name":"getBalance","outputs":[{"internalType":"uint256","name":"","type":"uint256"}],"stateMutability":"view","type":"function"},{"inputs":[],"name":"isAttacking","outputs":[{"internalType":"bool","name":"","type":"bool"}],"stateMutability":"view","type":"function"},{"inputs":[],"name":"owner","outputs":[{"internalType":"address","name":"","type":"address"}],"stateMutability":"view","type":"function"},{"inputs":[],"name":"proposalId","outputs":[{"internalType":"uint256","name":"","type":"uint256"}],"stateMutability":"view","type":"function"},{"inputs":[],"name":"targetContract","outputs":[{"internalType":"contract ISafeClub","name":"","type":"address"}],"stateMutability":"view","type":"function"},{"inputs":[],"name":"withdraw","outputs":[],"stateMutability":"nonpayable","type":"function"},{"stateMutability":"payable","type":"receive"}],"evm":{"bytecode":{"linkReferences":{},"object":"60803461009b57601f61074038819003918201601f19168301916001600160401b038311848410176100a05780849260209460405283398101031261009b57516001600160a01b0381169081900361009b57600080546001600160a01b031916919091178155600380546002929092556001600160a81b03199091163360081b610100600160a81b031617905560405161068990816100b78239f35b600080fd5b634e487b7160e01b600052604160045260246000fdfe60806040818152600491823610156101e7575b50361561001e57600080fd5b8051917fbcdc7071c1beb6dcf2744621e0b29a2f2432ee20812d9ca5e3d5e8f9308d93a36020600094348152a160035460ff811661005857005b60025460001981146101d457600101600281905584546001600160a01b03929083163191670de0b6b3a764000083101590816101c9575b50156101b7575060025490600182018092116101a457848693927f5545875187fb2ddf7c4681f2c2038f60a2795a2c0f74980b846f87aec96d398b9282519182526020820152a18154169160015490833b156101a0576024908386519586948593630d61b51960e01b85528401525af1908161018d575b50610127576001610115610564565b6308c379a014610133575b6101295750505b005b51903d90823e3d90fd5b61013b610582565b80610147575b50610120565b90507f6ef980fd00b53ca0f3fcdc7d97178d3de2b45bbf2b126784971cda25858dbd8c61017a849284519182918261060a565b0390a160ff196003541660035538610141565b6101999093919361053a565b9138610106565b8280fd5b634e487b7160e01b865260118452602486fd5b60ff1916600355506101279350505050565b600a9150103861008f565b634e487b7160e01b855260118352602485fd5b600090813560e01c90816312065fe014610520575080632dfca445146105015780633ccfd60b14610484578063407c28211461046557806364dd891a146102ee5780638da5cb5b146102c15780639a422b291461029d578063bd90df70146102755763e942550a036100125790346102715781600319360112610271576020906002549051908152f35b5080fd5b509034610271578160031936011261027157905490516001600160a01b039091168152602090f35b50903461027157816003193601126102715760209060ff6003541690519015158152f35b509034610271578160031936011261027157600354905160089190911c6001600160a01b03168152602090f35b5091346101a05760203660031901126101a057600354906001600160a01b03908035600884901c8316330361042a57808691600155600160ff1980961617600355816002558382541692833b156101a0576024908388519586948593630d61b51960e01b85528401525af19081610417575b506103df5750600190610371610564565b6308c379a014610385575b50610129575080f35b61038d610582565b908161039a575b5061037c565b9091507f6ef980fd00b53ca0f3fcdc7d97178d3de2b45bbf2b126784971cda25858dbd8c6103ce859385519182918261060a565b0390a1600354166003553880610394565b7f5545875187fb2ddf7c4681f2c2038f60a2795a2c0f74980b846f87aec96d398b92915083541631815190600182526020820152a180f35b6104239095919561053a565b9338610360565b845162461bcd60e51b815260208184015260156024820152744f6e6c79206f776e65722063616e2061747461636b60581b6044820152606490fd5b5090346102715781600319360112610271576020906002549051908152f35b5091346101a057826003193601126101a05760035460081c6001600160a01b031690338290036104d15750828080809347908282156104c8575bf115610129575080f35b506108fc6104be565b606490602084519162461bcd60e51b8352820152600a60248201526927b7363c9037bbb732b960b11b6044820152fd5b5090346102715781600319360112610271576020906001549051908152f35b905034610271578160031936011261027157602090478152f35b67ffffffffffffffff811161054e57604052565b634e487b7160e01b600052604160045260246000fd5b60009060033d1161057157565b905060046000803e60005160e01c90565b600060443d10610607576040516003193d81016004833e815167ffffffffffffffff918282113d60248401111761060057818401948551918483116105f6573d860101602083880101116105ed575001603f01601f19168201919082119082101761054e5760405290565b95945050505050565b5095945050505050565b5050505090565b90565b6020808252825181830181905290939260005b82811061063f57505060409293506000838284010152601f8019910116010190565b81810186015184820160400152850161061d56fea26469706673582212206e0314d0eece4efffb22f768d476c214994347e0c73928a13be755368382d44964736f6c63430008140033","opcodes":"PUSH1 0x80 CALLVALUE PUSH2 0x9B JUMPI PUSH1 0x1F PUSH2 0x740 CODESIZE DUP2 SWAP1 SUB SWAP2 DUP3 ADD PUSH1 0x1F NOT AND DUP4 ADD SWAP2 PUSH1 0x1 PUSH1 0x1 PUSH1 0x40 SHL SUB DUP4 GT DUP5 DUP5 LT OR PUSH2 0xA0 JUMPI DUP1 DUP5 SWAP3 PUSH1 0x20 SWAP5 PUSH1 0x40 MSTORE DUP4 CODECOPY DUP2 ADD SUB SLT PUSH2 0x9B JUMPI MLOAD PUSH1 0x1 PUSH1 0x1 PUSH1 0xA0 SHL SUB DUP2 AND SWAP1 DUP2 SWAP1 SUB PUSH2 0x9B JUMPI PUSH1 0x0 DUP1 SLOAD PUSH1 0x1 PUSH1 0x1 PUSH1 0xA0 SHL SUB NOT AND SWAP2 SWAP1 SWAP2 OR DUP2 SSTORE PUSH1 0x3 DUP1 SLOAD PUSH1 0x2 SWAP3 SWAP1 SWAP3 SSTORE PUSH1 0x1 PUSH1 0x1 PUSH1 0xA8 SHL SUB NOT SWAP1 SWAP2 AND CALLER PUSH1 0x8 SHL PUSH2 0x100 PUSH1 0x1 PUSH1 0xA8 SHL SUB AND OR SWAP1 SSTORE PUSH1 0x40 MLOAD PUSH2 0x689 SWAP1 DUP2 PUSH2 0xB7 DUP3 CODECOPY RETURN JUMPDEST PUSH1 0x0 DUP1 REVERT JUMPDEST PUSH4 0x4E487B71 PUSH1 0xE0 SHL PUSH1 0x0 MSTORE PUSH1 0x41 PUSH1 0x4 MSTORE PUSH1 0x24 PUSH1 0x0 REVERT INVALID PUSH1 0x80 PUSH1 0x40 DUP2 DUP2 MSTORE PUSH1 0x4 SWAP2 DUP3 CALLDATASIZE LT ISZERO PUSH2 0x1E7 JUMPI JUMPDEST POP CALLDATASIZE ISZERO PUSH2 0x1E JUMPI PUSH1 0x0 DUP1 REVERT JUMPDEST DUP1 MLOAD SWAP2 PUSH32 0xBCDC7071C1BEB6DCF2744621E0B29A2F2432EE20812D9CA5E3D5E8F9308D93A3 PUSH1 0x20 PUSH1 0x0 SWAP5 CALLVALUE DUP2 MSTORE LOG1 PUSH1 0x3 SLOAD PUSH1 0xFF DUP2 AND PUSH2 0x58 JUMPI STOP JUMPDEST PUSH1 0x2 SLOAD PUSH1 0x0 NOT DUP2 EQ PUSH2 0x1D4 JUMPI PUSH1 0x1 ADD PUSH1 0x2 DUP2 SWAP1 SSTORE DUP5 SLOAD PUSH1 0x1 PUSH1 0x1 PUSH1 0xA0 SHL SUB SWAP3 SWAP1 DUP4 AND BALANCE SWAP2 PUSH8 0xDE0B6B3A7640000 DUP4 LT ISZERO SWAP1 DUP2 PUSH2 0x1C9 JUMPI JUMPDEST POP ISZERO PUSH2 0x1B7 JUMPI POP PUSH1 0x2 SLOAD SWAP1 PUSH1 0x1 DUP3 ADD DUP1 SWAP3 GT PUSH2 0x1A4 JUMPI DUP5 DUP7 SWAP4 SWAP3 PUSH32 0x5545875187FB2DDF7C4681F2C2038F60A2795A2C0F74980B846F87AEC96D398B SWAP3 DUP3 MLOAD SWAP2 DUP3 MSTORE PUSH1 0x20 DUP3 ADD MSTORE LOG1 DUP2 SLOAD AND SWAP2 PUSH1 0x1 SLOAD SWAP1 DUP4 EXTCODESIZE ISZERO PUSH2 0x1A0 JUMPI PUSH1 0x24 SWAP1 DUP4 DUP7 MLOAD SWAP6 DUP7 SWAP5 DUP6 SWAP4 PUSH4 0xD61B519 PUSH1 0xE0 SHL DUP6 MSTORE DUP5 ADD MSTORE GAS CALL SWAP1 DUP2 PUSH2 0x18D JUMPI JUMPDEST POP PUSH2 0x127 JUMPI PUSH1 0x1 PUSH2 0x115 PUSH2 0x564 JUMP JUMPDEST PUSH4 0x8C379A0 EQ PUSH2 0x133 JUMPI JUMPDEST PUSH2 0x129 JUMPI POP POP JUMPDEST STOP JUMPDEST MLOAD SWAP1 RETURNDATASIZE SWAP1 DUP3 RETURNDATACOPY RETURNDATASIZE SWAP1 REVERT JUMPDEST PUSH2 0x13B PUSH2 0x582 JUMP JUMPDEST DUP1 PUSH2 0x147 JUMPI JUMPDEST POP PUSH2 0x120 JUMP JUMPDEST SWAP1 POP PUSH32 0x6EF980FD00B53CA0F3FCDC7D97178D3DE2B45BBF2B126784971CDA25858DBD8C PUSH2 0x17A DUP5 SWAP3 DUP5 MLOAD SWAP2 DUP3 SWAP2 DUP3 PUSH2 0x60A JUMP JUMPDEST SUB SWAP1 LOG1 PUSH1 0xFF NOT PUSH1 0x3 SLOAD AND PUSH1 0x3 SSTORE CODESIZE PUSH2 0x141 JUMP JUMPDEST PUSH2 0x199 SWAP1 SWAP4 SWAP2 SWAP4 PUSH2 0x53A JUMP JUMPDEST SWAP2 CODESIZE PUSH2 0x106 JUMP JUMPDEST DUP3 DUP1 REVERT JUMPDEST PUSH4 0x4E487B71 PUSH1 0xE0 SHL DUP7 MSTORE PUSH1 0x11 DUP5 MSTORE PUSH1 0x24 DUP7 REVERT JUMPDEST PUSH1 0xFF NOT AND PUSH1 0x3 SSTORE POP PUSH2 0x127 SWAP4 POP POP POP POP JUMP JUMPDEST PUSH1 0xA SWAP2 POP LT CODESIZE PUSH2 0x8F JUMP JUMPDEST PUSH4 0x4E487B71 PUSH1 0xE0 SHL DUP6 MSTORE PUSH1 0x11 DUP4 MSTORE PUSH1 0x24 DUP6 REVERT JUMPDEST PUSH1 0x0 SWAP1 DUP2 CALLDATALOAD PUSH1 0xE0 SHR SWAP1 DUP2 PUSH4 0x12065FE0 EQ PUSH2 0x520 JUMPI POP DUP1 PUSH4 0x2DFCA445 EQ PUSH2 0x501 JUMPI DUP1 PUSH4 0x3CCFD60B EQ PUSH2 0x484 JUMPI DUP1 PUSH4 0x407C2821 EQ PUSH2 0x465 JUMPI DUP1 PUSH4 0x64DD891A EQ PUSH2 0x2EE JUMPI DUP1 PUSH4 0x8DA5CB5B EQ PUSH2 0x2C1 JUMPI DUP1 PUSH4 0x9A422B29 EQ PUSH2 0x29D JUMPI DUP1 PUSH4 0xBD90DF70 EQ PUSH2 0x275 JUMPI PUSH4 0xE942550A SUB PUSH2 0x12 JUMPI SWAP1 CALLVALUE PUSH2 0x271 JUMPI DUP2 PUSH1 0x3 NOT CALLDATASIZE ADD SLT PUSH2 0x271 JUMPI PUSH1 0x20 SWAP1 PUSH1 0x2 SLOAD SWAP1 MLOAD SWAP1 DUP2 MSTORE RETURN JUMPDEST POP DUP1 REVERT JUMPDEST POP SWAP1 CALLVALUE PUSH2 0x271 JUMPI DUP2 PUSH1 0x3 NOT CALLDATASIZE ADD SLT PUSH2 0x271 JUMPI SWAP1 SLOAD SWAP1 MLOAD PUSH1 0x1 PUSH1 0x1 PUSH1 0xA0 SHL SUB SWAP1 SWAP2 AND DUP2 MSTORE PUSH1 0x20 SWAP1 RETURN JUMPDEST POP SWAP1 CALLVALUE PUSH2 0x271 JUMPI DUP2 PUSH1 0x3 NOT CALLDATASIZE ADD SLT PUSH2 0x271 JUMPI PUSH1 0x20 SWAP1 PUSH1 0xFF PUSH1 0x3 SLOAD AND SWAP1 MLOAD SWAP1 ISZERO ISZERO DUP2 MSTORE RETURN JUMPDEST POP SWAP1 CALLVALUE PUSH2 0x271 JUMPI DUP2 PUSH1 0x3 NOT CALLDATASIZE ADD SLT PUSH2 0x271 JUMPI PUSH1 0x3 SLOAD SWAP1 MLOAD PUSH1 0x8 SWAP2 SWAP1 SWAP2 SHR PUSH1 0x1 PUSH1 0x1 PUSH1 0xA0 SHL SUB AND DUP2 MSTORE PUSH1 0x20 SWAP1 RETURN JUMPDEST POP SWAP2 CALLVALUE PUSH2 0x1A0 JUMPI PUSH1 0x20 CALLDATASIZE PUSH1 0x3 NOT ADD SLT PUSH2 0x1A0 JUMPI PUSH1 0x3 SLOAD SWAP1 PUSH1 0x1 PUSH1 0x1 PUSH1 0xA0 SHL SUB SWAP1 DUP1 CALLDATALOAD PUSH1 0x8 DUP5 SWAP1 SHR DUP4 AND CALLER SUB PUSH2 0x42A JUMPI DUP1 DUP7 SWAP2 PUSH1 0x1 SSTORE PUSH1 0x1 PUSH1 0xFF NOT DUP1 SWAP7 AND OR PUSH1 0x3 SSTORE DUP2 PUSH1 0x2 SSTORE DUP4 DUP3 SLOAD AND SWAP3 DUP4 EXTCODESIZE ISZERO PUSH2 0x1A0 JUMPI PUSH1 0x24 SWAP1 DUP4 DUP9 MLOAD SWAP6 DUP7 SWAP5 DUP6 SWAP4 PUSH4 0xD61B519 PUSH1 0xE0 SHL DUP6 MSTORE DUP5 ADD MSTORE GAS CALL SWAP1 DUP2 PUSH2 0x417 JUMPI JUMPDEST POP PUSH2 0x3DF JUMPI POP PUSH1 0x1 SWAP1 PUSH2 0x371 PUSH2 0x564 JUMP JUMPDEST PUSH4 0x8C379A0 EQ PUSH2 0x385 JUMPI JUMPDEST POP PUSH2 0x129 JUMPI POP DUP1 RETURN JUMPDEST PUSH2 0x38D PUSH2 0x582 JUMP JUMPDEST SWAP1 DUP2 PUSH2 0x39A JUMPI JUMPDEST POP PUSH2 0x37C JUMP JUMPDEST SWAP1 SWAP2 POP PUSH32 0x6EF980FD00B53CA0F3FCDC7D97178D3DE2B45BBF2B126784971CDA25858DBD8C PUSH2 0x3CE DUP6 SWAP4 DUP6 MLOAD SWAP2 DUP3 SWAP2 DUP3 PUSH2 0x60A JUMP JUMPDEST SUB SWAP1 LOG1 PUSH1 0x3 SLOAD AND PUSH1 0x3 SSTORE CODESIZE DUP1 PUSH2 0x394 JUMP JUMPDEST PUSH32 0x5545875187FB2DDF7C4681F2C2038F60A2795A2C0F74980B846F87AEC96D398B SWAP3 SWAP2 POP DUP4 SLOAD AND BALANCE DUP2 MLOAD SWAP1 PUSH1 0x1 DUP3 MSTORE PUSH1 0x20 DUP3 ADD MSTORE LOG1 DUP1 RETURN JUMPDEST PUSH2 0x423 SWAP1 SWAP6 SWAP2 SWAP6 PUSH2 0x53A JUMP JUMPDEST SWAP4 CODESIZE PUSH2 0x360 JUMP JUMPDEST DUP5 MLOAD PUSH3 0x461BCD PUSH1 0xE5 SHL DUP2 MSTORE PUSH1 0x20 DUP2 DUP5 ADD MSTORE PUSH1 0x15 PUSH1 0x24 DUP3 ADD MSTORE PUSH21 0x4F6E6C79206F776E65722063616E2061747461636B PUSH1 0x58 SHL PUSH1 0x44 DUP3 ADD MSTORE PUSH1 0x64 SWAP1 REVERT JUMPDEST POP SWAP1 CALLVALUE PUSH2 0x271 JUMPI DUP2 PUSH1 0x3 NOT CALLDATASIZE ADD SLT PUSH2 0x271 JUMPI PUSH1 0x20 SWAP1 PUSH1 0x2 SLOAD SWAP1 MLOAD SWAP1 DUP2 MSTORE RETURN JUMPDEST POP SWAP2 CALLVALUE PUSH2 0x1A0 JUMPI DUP3 PUSH1 0x3 NOT CALLDATASIZE ADD SLT PUSH2 0x1A0 JUMPI PUSH1 0x3 SLOAD PUSH1 0x8 SHR PUSH1 0x1 PUSH1 0x1 PUSH1 0xA0 SHL SUB AND SWAP1 CALLER DUP3 SWAP1 SUB PUSH2 0x4D1 JUMPI POP DUP3 DUP1 DUP1 DUP1 SWAP4 SELFBALANCE SWAP1 DUP3 DUP3 ISZERO PUSH2 0x4C8 JUMPI JUMPDEST CALL ISZERO PUSH2 0x129 JUMPI POP DUP1 RETURN JUMPDEST POP PUSH2 0x8FC PUSH2 0x4BE JUMP JUMPDEST PUSH1 0x64 SWAP1 PUSH1 0x20 DUP5 MLOAD SWAP2 PUSH3 0x461BCD PUSH1 0xE5 SHL DUP4 MSTORE DUP3 ADD MSTORE PUSH1 0xA PUSH1 0x24 DUP3 ADD MSTORE PUSH10 0x27B7363C9037BBB732B9 PUSH1 0xB1 SHL PUSH1 0x44 DUP3 ADD MSTORE REVERT JUMPDEST POP SWAP1 CALLVALUE PUSH2 0x271 JUMPI DUP2 PUSH1 0x3 NOT CALLDATASIZE ADD SLT PUSH2 0x271 JUMPI PUSH1 0x20 SWAP1 PUSH1 0x1 SLOAD SWAP1 MLOAD SWAP1 DUP2 MSTORE RETURN JUMPDEST SWAP1 POP CALLVALUE PUSH2 0x271 JUMPI DUP2 PUSH1 0x3 NOT CALLDATASIZE ADD SLT PUSH2 0x271 JUMPI PUSH1 0x20 SWAP1 SELFBALANCE DUP2 MSTORE RETURN JUMPDEST PUSH8 0xFFFFFFFFFFFFFFFF DUP2 GT PUSH2 0x54E JUMPI PUSH1 0x40 MSTORE JUMP JUMPDEST PUSH4 0x4E487B71 PUSH1 0xE0 SHL PUSH1 0x0 MSTORE PUSH1 0x41 PUSH1 0x4 MSTORE PUSH1 0x24 PUSH1 0x0 REVERT JUMPDEST PUSH1 0x0 SWAP1 PUSH1 0x3 RETURNDATASIZE GT PUSH2 0x571 JUMPI JUMP JUMPDEST SWAP1 POP PUSH1 0x4 PUSH1 0x0 DUP1 RETURNDATACOPY PUSH1 0x0 MLOAD PUSH1 0xE0 SHR SWAP1 JUMP JUMPDEST PUSH1 0x0 PUSH1 0x44 RETURNDATASIZE LT PUSH2 0x607 JUMPI PUSH1 0x40 MLOAD PUSH1 0x3 NOT RETURNDATASIZE DUP2 ADD PUSH1 0x4 DUP4 RETURNDATACOPY DUP2 MLOAD PUSH8 0xFFFFFFFFFFFFFFFF SWAP2 DUP3 DUP3 GT RETURNDATASIZE PUSH1 0x24 DUP5 ADD GT OR PUSH2 0x600 JUMPI DUP2 DUP5 ADD SWAP5 DUP6 MLOAD SWAP2 DUP5 DUP4 GT PUSH2 0x5F6 JUMPI RETURNDATASIZE DUP7 ADD ADD PUSH1 0x20 DUP4 DUP9 ADD ADD GT PUSH2 0x5ED JUMPI POP ADD PUSH1 0x3F ADD PUSH1 0x1F NOT AND DUP3 ADD SWAP2 SWAP1 DUP3 GT SWAP1 DUP3 LT OR PUSH2 0x54E JUMPI PUSH1 0x40 MSTORE SWAP1 JUMP JUMPDEST SWAP6 SWAP5 POP POP POP POP POP JUMP JUMPDEST POP SWAP6 SWAP5 POP POP POP POP POP JUMP JUMPDEST POP POP POP POP SWAP1 JUMP JUMPDEST SWAP1 JUMP JUMPDEST PUSH1 0x20 DUP1 DUP3 MSTORE DUP3 MLOAD DUP2 DUP4 ADD DUP2 SWAP1 MSTORE SWAP1 SWAP4 SWAP3 PUSH1 0x0 JUMPDEST DUP3 DUP2 LT PUSH2 0x63F JUMPI POP POP PUSH1 0x40 SWAP3 SWAP4 POP PUSH1 0x0 DUP4 DUP3 DUP5 ADD ADD MSTORE PUSH1 0x1F DUP1 NOT SWAP2 ADD AND ADD ADD SWAP1 JUMP JUMPDEST DUP2 DUP2 ADD DUP7 ADD MLOAD DUP5 DUP3 ADD PUSH1 0x40 ADD MSTORE DUP6 ADD PUSH2 0x61D JUMP INVALID LOG2 PUSH5 0x6970667358 0x22 SLT KECCAK256 PUSH15 0x314D0EECE4EFFFB22F768D476C214 SWAP10 NUMBER SELFBALANCE 0xE0 0xC7 CODECOPY 0x28 LOG1 EXTCODESIZE 0xE7 SSTORE CALLDATASIZE DUP4 DUP3 0xD4 0x49 PUSH5 0x736F6C6343 STOP ADDMOD EQ STOP CALLER "},"methodIdentifiers":{"attack(uint256)":"64dd891a","attackCount()":"407c2821","getAttackCount()":"e942550a","getBalance()":"12065fe0","isAttacking()":"9a422b29","owner()":"8da5cb5b","proposalId()":"2dfca445","targetContract()":"bd90df70","withdraw()":"3ccfd60b"}}}}}