{"contracts/SafeClub.sol":{"SafeClub":{"abi":[{"inputs":[],"stateMutability":"nonpayable","type":"constructor"},{"inputs":[{"internalType":"address","name":"owner","type":"address"}],"name":"OwnableInvalidOwner","type":"error"},{"inputs":[{"internalType":"address","name":"account","type":"address"}],"name":"OwnableUnauthorizedAccount","type":"error"},{"inputs":[],"name":"ReentrancyGuardReentrantCall","type":"error"},{"anonymous":false,"inputs":[{"indexed":false,"internalType":"uint256","name":"oldApproval","type":"uint256"},{"indexed":false,"internalType":"uint256","name":"newApproval","type":"uint256"}],"name":"ApprovalUpdated","type":"event"},{"anonymous":false,"inputs":[{"indexed":true,"internalType":"address","name":"from","type":"address"},{"indexed":false,"internalType":"uint256","name":"amount","type":"uint256"},{"indexed":false,"internalType":"uint256","name":"timestamp","type":"uint256"}],"name":"FundsReceived","type":"event"},{"anonymous":false,"inputs":[{"indexed":true,"internalType":"address","name":"member","type":"address"},{"indexed":false,"internalType":"string","name":"name","type":"string"},{"indexed":false,"internalType":"string","name":"role","type":"string"},{"indexed":false,"internalType":"uint256","name":"timestamp","type":"uint256"}],"name":"MemberAdded","type":"event"},{"anonymous":false,"inputs":[{"indexed":true,"internalType":"address","name":"member","type":"address"},{"indexed":false,"internalType":"uint256","name":"timestamp","type":"uint256"}],"name":"MemberRemoved","type":"event"},{"anonymous":false,"inputs":[{"indexed":true,"internalType":"address","name":"member","type":"address"},{"indexed":false,"internalType":"string","name":"newName","type":"string"},{"indexed":false,"internalType":"string","name":"newRole","type":"string"},{"indexed":false,"internalType":"uint256","name":"timestamp","type":"uint256"}],"name":"MemberUpdated","type":"event"},{"anonymous":false,"inputs":[{"indexed":true,"internalType":"address","name":"previousOwner","type":"address"},{"indexed":true,"internalType":"address","name":"newOwner","type":"address"}],"name":"OwnershipTransferred","type":"event"},{"anonymous":false,"inputs":[{"indexed":true,"internalType":"uint256","name":"proposalId","type":"uint256"},{"indexed":true,"internalType":"address","name":"proposer","type":"address"},{"indexed":false,"internalType":"string","name":"description","type":"string"},{"indexed":true,"internalType":"address","name":"recipient","type":"address"},{"indexed":false,"internalType":"uint256","name":"amount","type":"uint256"},{"indexed":false,"internalType":"uint256","name":"deadline","type":"uint256"}],"name":"ProposalCreated","type":"event"},{"anonymous":false,"inputs":[{"indexed":true,"internalType":"uint256","name":"proposalId","type":"uint256"},{"indexed":true,"internalType":"address","name":"recipient","type":"address"},{"indexed":false,"internalType":"uint256","name":"amount","type":"uint256"}],"name":"ProposalExecuted","type":"event"},{"anonymous":false,"inputs":[{"indexed":false,"internalType":"uint256","name":"oldQuorum","type":"uint256"},{"indexed":false,"internalType":"uint256","name":"newQuorum","type":"uint256"}],"name":"QuorumUpdated","type":"event"},{"anonymous":false,"inputs":[{"indexed":true,"internalType":"uint256","name":"proposalId","type":"uint256"},{"indexed":true,"internalType":"address","name":"voter","type":"address"},{"indexed":false,"internalType":"bool","name":"support","type":"bool"},{"indexed":false,"internalType":"uint256","name":"votesFor","type":"uint256"},{"indexed":false,"internalType":"uint256","name":"votesAgainst","type":"uint256"}],"name":"VoteCast","type":"event"},{"stateMutability":"payable","type":"fallback"},{"inputs":[],"name":"MAX_ACTIVE_PROPOSALS","outputs":[{"internalType":"uint256","name":"","type":"uint256"}],"stateMutability":"view","type":"function"},{"inputs":[],"name":"MAX_MEMBERS","outputs":[{"internalType":"uint256","name":"","type":"uint256"}],"stateMutability":"view","type":"function"},{"inputs":[],"name":"MAX_PROPOSAL_AMOUNT","outputs":[{"internalType":"uint256","name":"","type":"uint256"}],"stateMutability":"view","type":"function"},{"inputs":[],"name":"MAX_PROPOSAL_DURATION","outputs":[{"internalType":"uint256","name":"","type":"uint256"}],"stateMutability":"view","type":"function"},{"inputs":[],"name":"MIN_PROPOSAL_DURATION","outputs":[{"internalType":"uint256","name":"","type":"uint256"}],"stateMutability":"view","type":"function"},{"inputs":[],"name":"activeProposalsCount","outputs":[{"internalType":"uint256","name":"","type":"uint256"}],"stateMutability":"view","type":"function"},{"inputs":[{"internalType":"address","name":"_member","type":"address"},{"internalType":"string","name":"_name","type":"string"},{"internalType":"string","name":"_role","type":"string"}],"name":"addMember","outputs":[],"stateMutability":"nonpayable","type":"function"},{"inputs":[],"name":"approvalPercentage","outputs":[{"internalType":"uint256","name":"","type":"uint256"}],"stateMutability":"view","type":"function"},{"inputs":[{"internalType":"string","name":"_description","type":"string"},{"internalType":"address payable","name":"_recipient","type":"address"},{"internalType":"uint256","name":"_amount","type":"uint256"},{"internalType":"uint256","name":"_durationInMinutes","type":"uint256"}],"name":"createProposal","outputs":[],"stateMutability":"nonpayable","type":"function"},{"inputs":[{"internalType":"uint256","name":"_proposalId","type":"uint256"}],"name":"executeProposal","outputs":[],"stateMutability":"nonpayable","type":"function"},{"inputs":[],"name":"getAllMembers","outputs":[{"internalType":"address[]","name":"","type":"address[]"}],"stateMutability":"view","type":"function"},{"inputs":[],"name":"getBalance","outputs":[{"internalType":"uint256","name":"","type":"uint256"}],"stateMutability":"view","type":"function"},{"inputs":[],"name":"getMemberCount","outputs":[{"internalType":"uint256","name":"","type":"uint256"}],"stateMutability":"view","type":"function"},{"inputs":[{"internalType":"address","name":"_member","type":"address"}],"name":"getMemberInfo","outputs":[{"internalType":"string","name":"name","type":"string"},{"internalType":"string","name":"role","type":"string"},{"internalType":"bool","name":"isActive","type":"bool"},{"internalType":"uint256","name":"joinedAt","type":"uint256"}],"stateMutability":"view","type":"function"},{"inputs":[{"internalType":"uint256","name":"_proposalId","type":"uint256"}],"name":"getProposal","outputs":[{"internalType":"uint256","name":"id","type":"uint256"},{"internalType":"string","name":"description","type":"string"},{"internalType":"address","name":"recipient","type":"address"},{"internalType":"uint256","name":"amount","type":"uint256"},{"internalType":"uint256","name":"votesFor","type":"uint256"},{"internalType":"uint256","name":"votesAgainst","type":"uint256"},{"internalType":"uint256","name":"deadline","type":"uint256"},{"internalType":"bool","name":"executed","type":"bool"}],"stateMutability":"view","type":"function"},{"inputs":[{"internalType":"uint256","name":"_proposalId","type":"uint256"},{"internalType":"address","name":"_voter","type":"address"}],"name":"hasVoted","outputs":[{"internalType":"bool","name":"","type":"bool"}],"stateMutability":"view","type":"function"},{"inputs":[{"internalType":"address","name":"_address","type":"address"}],"name":"isMember","outputs":[{"internalType":"bool","name":"","type":"bool"}],"stateMutability":"view","type":"function"},{"inputs":[{"internalType":"uint256","name":"_proposalId","type":"uint256"}],"name":"isProposalApproved","outputs":[{"internalType":"bool","name":"","type":"bool"}],"stateMutability":"view","type":"function"},{"inputs":[{"internalType":"address","name":"","type":"address"}],"name":"members","outputs":[{"internalType":"bool","name":"isActive","type":"bool"},{"internalType":"uint256","name":"joinedAt","type":"uint256"},{"internalType":"uint256","name":"proposalsCreated","type":"uint256"},{"internalType":"uint256","name":"votesCount","type":"uint256"},{"internalType":"string","name":"name","type":"string"},{"internalType":"string","name":"role","type":"string"}],"stateMutability":"view","type":"function"},{"inputs":[],"name":"owner","outputs":[{"internalType":"address","name":"","type":"address"}],"stateMutability":"view","type":"function"},{"inputs":[],"name":"proposalCount","outputs":[{"internalType":"uint256","name":"","type":"uint256"}],"stateMutability":"view","type":"function"},{"inputs":[],"name":"quorumPercentage","outputs":[{"internalType":"uint256","name":"","type":"uint256"}],"stateMutability":"view","type":"function"},{"inputs":[{"internalType":"address","name":"_member","type":"address"}],"name":"removeMember","outputs":[],"stateMutability":"nonpayable","type":"function"},{"inputs":[],"name":"renounceOwnership","outputs":[],"stateMutability":"nonpayable","type":"function"},{"inputs":[{"internalType":"uint256","name":"_percentage","type":"uint256"}],"name":"setApprovalPercentage","outputs":[],"stateMutability":"nonpayable","type":"function"},{"inputs":[{"internalType":"uint256","name":"_percentage","type":"uint256"}],"name":"setQuorumPercentage","outputs":[],"stateMutability":"nonpayable","type":"function"},{"inputs":[{"internalType":"address","name":"newOwner","type":"address"}],"name":"transferOwnership","outputs":[],"stateMutability":"nonpayable","type":"function"},{"inputs":[{"internalType":"address","name":"_member","type":"address"},{"internalType":"string","name":"_name","type":"string"},{"internalType":"string","name":"_role","type":"string"}],"name":"updateMember","outputs":[],"stateMutability":"nonpayable","type":"function"},{"inputs":[{"internalType":"uint256","name":"_proposalId","type":"uint256"},{"internalType":"bool","name":"_support","type":"bool"}],"name":"vote","outputs":[],"stateMutability":"nonpayable","type":"function"},{"stateMutability":"payable","type":"receive"}],"evm":{"bytecode":{"linkReferences":{},"object":"6080604090808252346200049f57331562000489575060008054336001600160a01b0319821681178355916001600160a01b03909116907f8be0079c531659141344cd1fd0a4f28419497f9722a3daafe3b4186f6b6457e09080a3600180556032600755603c60085562000072620004a4565b6200007c620004a4565b825160c081016001600160401b03811182821017620002a6578452600181526020810190428252848101600081526060820160008152608083019186835260a0840194868652336000526002602052886000209451151560ff801987541691161785555160018501555160028401555160038301555190815160018060401b038111620002a657600482015492600184811c941680156200047e575b60208510146200038c57601f9384811162000431575b50602090848311600114620003b957600593929160009183620003ad575b50508160011b916000199060031b1c19161760048201555b01915180519160018060401b038311620002a657835491600183811c93168015620003a2575b60208410146200038c57828285941162000333575b506020918311600114620002c857600092620002bc575b50508160011b916000199060031b1c19161790555b60035468010000000000000000811015620002a6576001810180600355811015620002905760036000527fc2575a0e9e593c00f959f8c92f12db2869c3395a3b0502d05e2516446f71f85b0180546001600160a01b031916331790558251606080825290927f62c29952981da6a6c23203092d94e1ce8ad7a50339f2377bbe25b2f07dd9663992620002769290916200026791860190620004d6565b908482036020860152620004d6565b9142848201528033930390a2516121509081620005198239f35b634e487b7160e01b600052603260045260246000fd5b634e487b7160e01b600052604160045260246000fd5b015190503880620001b6565b6000858152602081209350601f198516905b8181106200031a575090846001959493921062000300575b505050811b019055620001cb565b015160001960f88460031b161c19169055388080620002f2565b92936020600181928786015181550195019301620002da565b909192508460005260206000208380860160051c8201926020871062000382575b94869594939291940160051c01905b8181106200037257506200019f565b6000815585945060010162000363565b9250819262000354565b634e487b7160e01b600052602260045260246000fd5b92607f16926200018a565b0151905038806200014c565b906004840160005260206000209160005b601f198516811062000418575091839160019360059695601f19811610620003fe575b505050811b01600482015562000164565b015160001960f88460031b161c19169055388080620003ed565b91926020600181928685015181550194019201620003ca565b6004840160005260206000208580850160051c8201926020861062000474575b0160051c01905b8181106200046757506200012e565b6000815560010162000458565b9250819262000451565b93607f169362000118565b631e4fbdf760e01b815260006004820152602490fd5b600080fd5b60408051919082016001600160401b03811183821017620002a657604052600582526420b236b4b760d91b6020830152565b919082519283825260005b84811062000503575050826000602080949584010152601f8019910116010190565b602081830181015184830182015201620004e156fe60806040526004361015610026575b361561001e5761001c611ee4565b005b61001c611ee4565b60003560e01c806308ae4b0c14611a295780630b1ca49a146118bb5780630d61b5191461160057806312065fe0146115e45780632116c347146115c65780633008d437146115a857806332f6a1dc146115375780633340a176146115135780633f66a4511461122257806343859632146111c25780634fa76ec9146111a45780635f1231ea1461111a578063715018a6146110c157806376c1954614610c52578063784f80f814610be15780637c0f6b3514610b195780638743dae61461056b5780638da5cb5b14610542578063944ee22d1461048f578063997072f7146105245780639abcc0cc146104ef578063a230c524146104b0578063a91937ad14610494578063bd9682161461048f578063c7f758a8146103ea578063c9d27afe14610237578063da35c66414610219578063ea0e35b1146101fd5763f2fde38b0361000e57346101f85760203660031901126101f857610183611ac9565b61018b611cfa565b6001600160a01b039081169081156101df57600054826bffffffffffffffffffffffff60a01b821617600055167f8be0079c531659141344cd1fd0a4f28419497f9722a3daafe3b4186f6b6457e0600080a3005b604051631e4fbdf760e01b815260006004820152602490fd5b600080fd5b346101f85760003660031901126101f857602060405160648152f35b346101f85760003660031901126101f8576020600454604051908152f35b346101f85760403660031901126101f85760043560243590811515918281036101f857336000526020906002825261027660ff60406000205416611e9a565b6102836004548410611fa1565b61029d60ff600761029386611f66565b5001541615611fed565b6102a683611f66565b5090600682015442116103af578360005260058352604060002033600052835260ff6040600020541661037a57836000526005835260406000203360005283526040600020600160ff1982541617905560028352600360406000200161030c8154611ed5565b90551561036557600481016103218154611ed5565b90555b600560048201549101549160405194855284015260408301527f77a255f45c79d26605c257d8dfc37f9a619f53963ddbed1e95aa0aab1c801cee60603393a3005b600581016103738154611ed5565b9055610324565b60405162461bcd60e51b815260048101849052600d60248201526c105b1c9958591e481d9bdd1959609a1b6044820152606490fd5b60405162461bcd60e51b8152600481018490526013602482015272159bdd1a5b99c81c195c9a5bd908195b991959606a1b6044820152606490fd5b346101f85760203660031901126101f85761041360043561040e6004548210611fa1565b611f66565b50805460018060a01b036002830154166003830154926004810154600582015460068301549161044d600160ff6007870154169501611b3b565b9661046a60405198899889526101008060208b0152890190611be1565b9560408801526060870152608086015260a085015260c0840152151560e08301520390f35b611cde565b346101f85760003660031901126101f857602060405160148152f35b346101f85760203660031901126101f8576001600160a01b036104d1611ac9565b166000526002602052602060ff604060002054166040519015158152f35b346101f85760203660031901126101f857602061051a6004356105156004548210611fa1565b61204c565b6040519015158152f35b346101f85760003660031901126101f8576020600354604051908152f35b346101f85760003660031901126101f8576000546040516001600160a01b039091168152602090f35b346101f85760803660031901126101f85760043567ffffffffffffffff81116101f85761059c903690600401611c3d565b6024356001600160a01b03811681036101f8573360005260026020526105c960ff60406000205416611e9a565b6105dd6001600160a01b0382161515611d26565b6105f26001600160a01b038216301415611d64565b604490813515610ad5576802b5e3af16b1880000823511610a985761061a4783351115611f18565b825115610a54576101f4835111610a19576001606435036109cb576014600654101561098757603c420142116109715760045460405190610140820182811067ffffffffffffffff8211176109455760405280825284602083015260018060a01b03831660408301528335606083015260006080830152600060a0830152603c420160c0830152600060e08301523361010083015242610120830152600160401b811015610945578060016106d29201600455611f66565b61095b5781518155602082015180519067ffffffffffffffff8211610945576106fe6001840154611adf565b601f81116108fe575b50602090601f831160011461086b577ffcbc93e90de1f3909139448eea84876f427c600d8e1706f36918b4c5635c02139493929160009183610860575b50508160011b916000199060031b1c19161760018201555b6002810160018060a01b036040840151166bffffffffffffffffffffffff60a01b825416179055606082015160038201556080820151600482015560a0820151600582015560c08201516006820155600781016107cb60e08401511515829060ff801983541691151516179055565b6101008301518154610100600160a81b031916600891821b610100600160a81b03161790915561012083015191015560065461080690611ed5565b60065533600052600260205260026040600020016108248154611ed5565b9055519161083d60405195606087526060870190611be1565b9335602086015242603c0160408601526001600160a01b031693339381900390a4005b015190508880610744565b906001840160005260206000209160005b601f19851681106108e657509183916001937ffcbc93e90de1f3909139448eea84876f427c600d8e1706f36918b4c5635c0213979695601f198116106108cd575b505050811b01600182015561075c565b015160001960f88460031b161c191690558880806108bd565b9192602060018192868501518155019401920161087c565b600184016000526020600020601f840160051c81016020851061093e575b601f830160051c82018110610932575050610707565b6000815560010161091c565b508061091c565b634e487b7160e01b600052604160045260246000fd5b634e487b7160e01b600052600060045260246000fd5b634e487b7160e01b600052601160045260246000fd5b60405162461bcd60e51b815260206004820152601960248201527f546f6f206d616e79206163746976652070726f706f73616c730000000000000081840152606490fd5b60405162461bcd60e51b815260206004820152602160248201527f4475726174696f6e206d7573742062652065786163746c792031206d696e757481840152606560f81b6064820152608490fd5b60405162461bcd60e51b81526020600482015260146024820152734465736372697074696f6e20746f6f206c6f6e6760601b81840152606490fd5b60405162461bcd60e51b815260206004820152601b60248201527f4465736372697074696f6e2063616e6e6f7420626520656d707479000000000081840152606490fd5b60405162461bcd60e51b8152602060048201526016602482015275416d6f756e742065786365656473206d6178696d756d60501b81840152606490fd5b60405162461bcd60e51b815260206004820152601d60248201527f416d6f756e74206d7573742062652067726561746572207468616e203000000081840152606490fd5b346101f85760003660031901126101f857604051806003548083526020809301809160036000527fc2575a0e9e593c00f959f8c92f12db2869c3395a3b0502d05e2516446f71f85b9060005b86828210610bc4578686610b7b82880383611b19565b604051928392818401908285525180915260408401929160005b828110610ba457505050500390f35b83516001600160a01b031685528695509381019392810192600101610b95565b83546001600160a01b031685529093019260019283019201610b65565b346101f85760203660031901126101f8577f215d877bb551ed521bd109659d4cd1e18e4a0a2b72986cb41380db7375b277af6040600435610c20611cfa565b80151580610c47575b610c32906120d9565b600854908060085582519182526020820152a1005b506064811115610c29565b346101f857610c6036611c84565b9190610c6a611cfa565b610c7e6001600160a01b0383161515611d26565b610c936001600160a01b038316301415611d64565b6001600160a01b03821660009081526002602052604090205460ff16611089576064600354101561104d57610cd381518015159081611041575b50611da9565b610ce883518015159081611035575b50611de4565b60405160c0810181811067ffffffffffffffff821117610945576040526001815260208101904282526040810160008152606082016000815260808301918583528760a085015260018060a01b0387166000526002602052604060002094610d5f85511515879060ff801983541691151516179055565b5160018601555160028501555160038401555180519067ffffffffffffffff821161094557610d916004850154611adf565b601f8111610fee575b50602090601f8311600114610f7d5760a093929160009183610f72575b50508160011b916000199060031b1c19161760048401555b015180519067ffffffffffffffff821161094557610df06005840154611adf565b601f8111610f27575b50602090601f8311600114610eb9576005929160009183610eae575b50508160011b916000199060031b1c1916179101555b60035491600160401b83101561094557610e8f81610e708560017f62c29952981da6a6c23203092d94e1ce8ad7a50339f2377bbe25b2f07dd966399701600355611e1f565b90919082549060031b9160018060a01b03809116831b921b1916179055565b610ea960405192839260018060a01b031695429184611e6c565b0390a2005b015190508780610e15565b90601f198316916005850160005260206000209260005b818110610f0f57509160019391856005969410610ef6575b505050811b01910155610e2b565b015160001960f88460031b161c19169055878080610ee8565b92936020600181928786015181550195019301610ed0565b600584016000526020600020601f840160051c81019160208510610f68575b601f0160051c01905b818110610f5c5750610df9565b60008155600101610f4f565b9091508190610f46565b015190508880610db7565b90601f198316916004860160005260206000209260005b818110610fd6575091600193918560a097969410610fbd575b505050811b016004840155610dcf565b015160001960f88460031b161c19169055888080610fad565b92936020600181928786015181550195019301610f94565b600485016000526020600020601f840160051c81016020851061102e575b601f830160051c82018110611022575050610d9a565b6000815560010161100c565b508061100c565b60329150111585610ce2565b60329150111585610ccd565b60405162461bcd60e51b815260206004820152601460248201527313595b58995c881b1a5b5a5d081c995858da195960621b6044820152606490fd5b60405162461bcd60e51b815260206004820152601060248201526f20b63932b0b23c90309036b2b6b132b960811b6044820152606490fd5b346101f85760003660031901126101f8576110da611cfa565b600080546001600160a01b0319811682556001600160a01b03167f8be0079c531659141344cd1fd0a4f28419497f9722a3daafe3b4186f6b6457e08280a3005b346101f85760203660031901126101f8576001600160a01b0361113b611ac9565b166000526002602052611185604060002060ff8154166001820154611193611171600561116a60048701611b3b565b9501611b3b565b604051958695608087526080870190611be1565b908582036020870152611be1565b911515604084015260608301520390f35b346101f85760003660031901126101f8576020600754604051908152f35b346101f85760403660031901126101f8576024356001600160a01b03811690600435908290036101f8576111f96004548210611fa1565b6000526005602052604060002090600052602052602060ff604060002054166040519015158152f35b346101f85761123036611c84565b91611239611cfa565b60018060a01b031690816000526020926002845261125e60ff60406000205416611e9a565b611272825180151590816115075750611da9565b611286815180151590816114fb5750611de4565b8260005260028452600460406000200193825167ffffffffffffffff95868211610945576112b48154611adf565b91601f928381116114b8575b5080848482116001146114555760009161144a575b508160011b916000199060031b1c19161790555b846000526002825260056040600020019183519687116109455761130d8354611adf565b828111611407575b508091871160011461137f575094807f633ae31836fc599829bb7374ec1a83609545ea12b3b3795f14f6dbf7bc3c1d779596600091611374575b508160011b916000199060031b1c19161790555b610ea9604051928392429184611e6c565b90508301518761134f565b90601f1987168360005282600020926000905b8282106113ef5750509187917f633ae31836fc599829bb7374ec1a83609545ea12b3b3795f14f6dbf7bc3c1d779798600194106113d6575b5050811b019055611363565b85015160001960f88460031b161c1916905587806113ca565b80600185968294968a01518155019501930190611392565b836000528160002083808a0160051c820192848b10611441575b0160051c01905b8181106114355750611315565b60008155600101611428565b92508192611421565b9050860151896112d5565b60008481528681209250601f198416905b878282106114a25750509083600194939210611489575b5050811b0190556112e9565b88015160001960f88460031b161c19169055898061147d565b600184958293958d015181550194019201611466565b82600052846000208480840160051c8201928785106114f2575b0160051c01905b8181106114e657506112c0565b600081556001016114d9565b925081926114d2565b60329150111586610ce2565b60329150111586610ccd565b346101f85760003660031901126101f85760206040516802b5e3af16b18800008152f35b346101f85760203660031901126101f8577f6784e9bcb845caaa98267d7b0918f97d3d17f7cb35a05b52010f7eb587a0acb06040600435611576611cfa565b8015158061159d575b611588906120d9565b600754908060075582519182526020820152a1005b50606481111561157f565b346101f85760003660031901126101f8576020600854604051908152f35b346101f85760003660031901126101f8576020600654604051908152f35b346101f85760003660031901126101f857602047604051908152f35b346101f8576020806003193601126101f85760043590336000526002815261162f60ff60406000205416611e9a565b61163c6004548310611fa1565b61164c60ff600761029385611f66565b6002600154146118a957600260015561166482611f66565b50916006830154421115611864574791611685600385019384541115611f18565b600484015493611699600582015486611f59565b9460035495801561182f57606496878202908282048903610971576007546116c091612039565b116117f65786820291808304881490151715610971576008546116e291612039565b116117be5760078101805460ff1916600117905560065490811561097157600291600019016006550160018060a01b03906000808080858554168954905af13d156117b9573d61173181611c21565b9061173f6040519283611b19565b81526000853d92013e5b1561178357907f3b7c90df35b419337cff0919fe91849006607bb66c4373623f06f9d48c1ebb98929154169354604051908152a360018055005b60405162461bcd60e51b815260048101849052600f60248201526e151c985b9cd9995c8819985a5b1959608a1b60448201528690fd5b611749565b60405162461bcd60e51b8152600481018390526011602482015270141c9bdc1bdcd85b081c995a9958dd1959607a1b60448201528590fd5b60405162461bcd60e51b8152600481018590526012602482015271145d5bdc9d5b481b9bdd081c995858da195960721b60448201528790fd5b60405162461bcd60e51b815260048101859052600d60248201526c139bc81d9bdd195cc818d85cdd609a1b6044820152606490fd5b60405162461bcd60e51b815260048101839052601860248201527f566f74696e67207374696c6c20696e2070726f677265737300000000000000006044820152606490fd5b604051633ee5aeb560e01b8152600490fd5b346101f85760203660031901126101f8576118d4611ac9565b6118dc611cfa565b60018060a01b038091169081600052600260205261190160ff60406000205416611e9a565b806000541682146119ee576000828152600260205260408120805460ff191690555b6003908154808210156119e557848461193b84611e1f565b905490861b1c161461195757506119529150611ed5565b611923565b6000199181830191821161097157610e708561197561198294611e1f565b905490871b1c1691611e1f565b815480156119cf57019161199583611e1f565b9091825491841b1b19169055555b7f3ac963493df564de734d98633f1145d21512e282ba4c02d3c1011119bf7f28626020604051428152a2005b634e487b7160e01b600052603160045260246000fd5b505050506119a3565b60405162461bcd60e51b815260206004820152601360248201527221b0b73737ba103932b6b7bb329037bbb732b960691b6044820152606490fd5b346101f85760203660031901126101f8576001600160a01b03611a4a611ac9565b166000526002602052604060002060ff815416611ac5600183015492611ab76002820154916003810154611a8c6005611a8560048501611b3b565b9301611b3b565b936040519788971515885260208801526040870152606086015260c0608086015260c0850190611be1565b9083820360a0850152611be1565b0390f35b600435906001600160a01b03821682036101f857565b90600182811c92168015611b0f575b6020831014611af957565b634e487b7160e01b600052602260045260246000fd5b91607f1691611aee565b90601f8019910116810190811067ffffffffffffffff82111761094557604052565b9060405191826000825492611b4f84611adf565b908184526001948581169081600014611bbe5750600114611b7b575b5050611b7992500383611b19565b565b9093915060005260209081600020936000915b818310611ba6575050611b7993508201013880611b6b565b85548884018501529485019487945091830191611b8e565b915050611b7994506020925060ff191682840152151560051b8201013880611b6b565b919082519283825260005b848110611c0d575050826000602080949584010152601f8019910116010190565b602081830181015184830182015201611bec565b67ffffffffffffffff811161094557601f01601f191660200190565b81601f820112156101f857803590611c5482611c21565b92611c626040519485611b19565b828452602083830101116101f857816000926020809301838601378301015290565b60606003198201126101f8576004356001600160a01b03811681036101f8579167ffffffffffffffff6024358181116101f85783611cc491600401611c3d565b926044359182116101f857611cdb91600401611c3d565b90565b346101f85760003660031901126101f8576020604051603c8152f35b6000546001600160a01b03163303611d0e57565b60405163118cdaa760e01b8152336004820152602490fd5b15611d2d57565b60405162461bcd60e51b815260206004820152600f60248201526e496e76616c6964206164647265737360881b6044820152606490fd5b15611d6b57565b60405162461bcd60e51b815260206004820152601660248201527510d85b9b9bdd081d185c99d95d0818dbdb9d1c9858dd60521b6044820152606490fd5b15611db057565b60405162461bcd60e51b815260206004820152600c60248201526b496e76616c6964206e616d6560a01b6044820152606490fd5b15611deb57565b60405162461bcd60e51b815260206004820152600c60248201526b496e76616c696420726f6c6560a01b6044820152606490fd5b600354811015611e565760036000527fc2575a0e9e593c00f959f8c92f12db2869c3395a3b0502d05e2516446f71f85b0190600090565b634e487b7160e01b600052603260045260246000fd5b939291611e9590611e87604093606088526060880190611be1565b908682036020880152611be1565b930152565b15611ea157565b60405162461bcd60e51b815260206004820152600c60248201526b2737ba10309036b2b6b132b960a11b6044820152606490fd5b60001981146109715760010190565b6040513481524260208201527f363f315f930a17d1266b86a20d6dd34b1cfbc5a9db9f13a65d06a689c3a2af8a60403392a2565b15611f1f57565b60405162461bcd60e51b8152602060048201526012602482015271496e73756666696369656e742066756e647360701b6044820152606490fd5b9190820180921161097157565b600454811015611e56576009906004600052027f8a35acfbc15ff81a39ae7d344fd709f28e8600b4aa8c65c6b64bfe7fe36bd19b0190600090565b15611fa857565b60405162461bcd60e51b815260206004820152601760248201527f50726f706f73616c20646f6573206e6f742065786973740000000000000000006044820152606490fd5b15611ff457565b60405162461bcd60e51b815260206004820152601960248201527f50726f706f73616c20616c7265616479206578656375746564000000000000006044820152606490fd5b8181029291811591840414171561097157565b61205590611f66565b5060068101544211156120d3576120756005600483015492015482611f59565b9081156120cc5760035460648302908382046064036109715760075461209a91612039565b111591606482029180830460641490151715610971576008546120bc91612039565b1115816120c7575090565b905090565b5050600090565b50600090565b156120e057565b60405162461bcd60e51b8152602060048201526012602482015271496e76616c69642070657263656e7461676560701b6044820152606490fdfea2646970667358221220c1b165d84b421c8b443ab26d52dd0c6e1d959e46d3a868532f9102310e0edf3264736f6c63430008140033","opcodes":"PUSH1 0x80 PUSH1 0x40 SWAP1 DUP1 DUP3 MSTORE CALLVALUE PUSH3 0x49F JUMPI CALLER ISZERO PUSH3 0x489 JUMPI POP PUSH1 0x0 DUP1 SLOAD CALLER PUSH1 0x1 PUSH1 0x1 PUSH1 0xA0 SHL SUB NOT DUP3 AND DUP2 OR DUP4 SSTORE SWAP2 PUSH1 0x1 PUSH1 0x1 PUSH1 0xA0 SHL SUB SWAP1 SWAP2 AND SWAP1 PUSH32 0x8BE0079C531659141344CD1FD0A4F28419497F9722A3DAAFE3B4186F6B6457E0 SWAP1 DUP1 LOG3 PUSH1 0x1 DUP1 SSTORE PUSH1 0x32 PUSH1 0x7 SSTORE PUSH1 0x3C PUSH1 0x8 SSTORE PUSH3 0x72 PUSH3 0x4A4 JUMP JUMPDEST PUSH3 0x7C PUSH3 0x4A4 JUMP JUMPDEST DUP3 MLOAD PUSH1 0xC0 DUP2 ADD PUSH1 0x1 PUSH1 0x1 PUSH1 0x40 SHL SUB DUP2 GT DUP3 DUP3 LT OR PUSH3 0x2A6 JUMPI DUP5 MSTORE PUSH1 0x1 DUP2 MSTORE PUSH1 0x20 DUP2 ADD SWAP1 TIMESTAMP DUP3 MSTORE DUP5 DUP2 ADD PUSH1 0x0 DUP2 MSTORE PUSH1 0x60 DUP3 ADD PUSH1 0x0 DUP2 MSTORE PUSH1 0x80 DUP4 ADD SWAP2 DUP7 DUP4 MSTORE PUSH1 0xA0 DUP5 ADD SWAP5 DUP7 DUP7 MSTORE CALLER PUSH1 0x0 MSTORE PUSH1 0x2 PUSH1 0x20 MSTORE DUP9 PUSH1 0x0 KECCAK256 SWAP5 MLOAD ISZERO ISZERO PUSH1 0xFF DUP1 NOT DUP8 SLOAD AND SWAP2 AND OR DUP6 SSTORE MLOAD PUSH1 0x1 DUP6 ADD SSTORE MLOAD PUSH1 0x2 DUP5 ADD SSTORE MLOAD PUSH1 0x3 DUP4 ADD SSTORE MLOAD SWAP1 DUP2 MLOAD PUSH1 0x1 DUP1 PUSH1 0x40 SHL SUB DUP2 GT PUSH3 0x2A6 JUMPI PUSH1 0x4 DUP3 ADD SLOAD SWAP3 PUSH1 0x1 DUP5 DUP2 SHR SWAP5 AND DUP1 ISZERO PUSH3 0x47E JUMPI JUMPDEST PUSH1 0x20 DUP6 LT EQ PUSH3 0x38C JUMPI PUSH1 0x1F SWAP4 DUP5 DUP2 GT PUSH3 0x431 JUMPI JUMPDEST POP PUSH1 0x20 SWAP1 DUP5 DUP4 GT PUSH1 0x1 EQ PUSH3 0x3B9 JUMPI PUSH1 0x5 SWAP4 SWAP3 SWAP2 PUSH1 0x0 SWAP2 DUP4 PUSH3 0x3AD JUMPI JUMPDEST POP POP DUP2 PUSH1 0x1 SHL SWAP2 PUSH1 0x0 NOT SWAP1 PUSH1 0x3 SHL SHR NOT AND OR PUSH1 0x4 DUP3 ADD SSTORE JUMPDEST ADD SWAP2 MLOAD DUP1 MLOAD SWAP2 PUSH1 0x1 DUP1 PUSH1 0x40 SHL SUB DUP4 GT PUSH3 0x2A6 JUMPI DUP4 SLOAD SWAP2 PUSH1 0x1 DUP4 DUP2 SHR SWAP4 AND DUP1 ISZERO PUSH3 0x3A2 JUMPI JUMPDEST PUSH1 0x20 DUP5 LT EQ PUSH3 0x38C JUMPI DUP3 DUP3 DUP6 SWAP5 GT PUSH3 0x333 JUMPI JUMPDEST POP PUSH1 0x20 SWAP2 DUP4 GT PUSH1 0x1 EQ PUSH3 0x2C8 JUMPI PUSH1 0x0 SWAP3 PUSH3 0x2BC JUMPI JUMPDEST POP POP DUP2 PUSH1 0x1 SHL SWAP2 PUSH1 0x0 NOT SWAP1 PUSH1 0x3 SHL SHR NOT AND OR SWAP1 SSTORE JUMPDEST PUSH1 0x3 SLOAD PUSH9 0x10000000000000000 DUP2 LT ISZERO PUSH3 0x2A6 JUMPI PUSH1 0x1 DUP2 ADD DUP1 PUSH1 0x3 SSTORE DUP2 LT ISZERO PUSH3 0x290 JUMPI PUSH1 0x3 PUSH1 0x0 MSTORE PUSH32 0xC2575A0E9E593C00F959F8C92F12DB2869C3395A3B0502D05E2516446F71F85B ADD DUP1 SLOAD PUSH1 0x1 PUSH1 0x1 PUSH1 0xA0 SHL SUB NOT AND CALLER OR SWAP1 SSTORE DUP3 MLOAD PUSH1 0x60 DUP1 DUP3 MSTORE SWAP1 SWAP3 PUSH32 0x62C29952981DA6A6C23203092D94E1CE8AD7A50339F2377BBE25B2F07DD96639 SWAP3 PUSH3 0x276 SWAP3 SWAP1 SWAP2 PUSH3 0x267 SWAP2 DUP7 ADD SWAP1 PUSH3 0x4D6 JUMP JUMPDEST SWAP1 DUP5 DUP3 SUB PUSH1 0x20 DUP7 ADD MSTORE PUSH3 0x4D6 JUMP JUMPDEST SWAP2 TIMESTAMP DUP5 DUP3 ADD MSTORE DUP1 CALLER SWAP4 SUB SWAP1 LOG2 MLOAD PUSH2 0x2150 SWAP1 DUP2 PUSH3 0x519 DUP3 CODECOPY RETURN JUMPDEST PUSH4 0x4E487B71 PUSH1 0xE0 SHL PUSH1 0x0 MSTORE PUSH1 0x32 PUSH1 0x4 MSTORE PUSH1 0x24 PUSH1 0x0 REVERT JUMPDEST PUSH4 0x4E487B71 PUSH1 0xE0 SHL PUSH1 0x0 MSTORE PUSH1 0x41 PUSH1 0x4 MSTORE PUSH1 0x24 PUSH1 0x0 REVERT JUMPDEST ADD MLOAD SWAP1 POP CODESIZE DUP1 PUSH3 0x1B6 JUMP JUMPDEST PUSH1 0x0 DUP6 DUP2 MSTORE PUSH1 0x20 DUP2 KECCAK256 SWAP4 POP PUSH1 0x1F NOT DUP6 AND SWAP1 JUMPDEST DUP2 DUP2 LT PUSH3 0x31A JUMPI POP SWAP1 DUP5 PUSH1 0x1 SWAP6 SWAP5 SWAP4 SWAP3 LT PUSH3 0x300 JUMPI JUMPDEST POP POP POP DUP2 SHL ADD SWAP1 SSTORE PUSH3 0x1CB JUMP JUMPDEST ADD MLOAD PUSH1 0x0 NOT PUSH1 0xF8 DUP5 PUSH1 0x3 SHL AND SHR NOT AND SWAP1 SSTORE CODESIZE DUP1 DUP1 PUSH3 0x2F2 JUMP JUMPDEST SWAP3 SWAP4 PUSH1 0x20 PUSH1 0x1 DUP2 SWAP3 DUP8 DUP7 ADD MLOAD DUP2 SSTORE ADD SWAP6 ADD SWAP4 ADD PUSH3 0x2DA JUMP JUMPDEST SWAP1 SWAP2 SWAP3 POP DUP5 PUSH1 0x0 MSTORE PUSH1 0x20 PUSH1 0x0 KECCAK256 DUP4 DUP1 DUP7 ADD PUSH1 0x5 SHR DUP3 ADD SWAP3 PUSH1 0x20 DUP8 LT PUSH3 0x382 JUMPI JUMPDEST SWAP5 DUP7 SWAP6 SWAP5 SWAP4 SWAP3 SWAP2 SWAP5 ADD PUSH1 0x5 SHR ADD SWAP1 JUMPDEST DUP2 DUP2 LT PUSH3 0x372 JUMPI POP PUSH3 0x19F JUMP JUMPDEST PUSH1 0x0 DUP2 SSTORE DUP6 SWAP5 POP PUSH1 0x1 ADD PUSH3 0x363 JUMP JUMPDEST SWAP3 POP DUP2 SWAP3 PUSH3 0x354 JUMP JUMPDEST PUSH4 0x4E487B71 PUSH1 0xE0 SHL PUSH1 0x0 MSTORE PUSH1 0x22 PUSH1 0x4 MSTORE PUSH1 0x24 PUSH1 0x0 REVERT JUMPDEST SWAP3 PUSH1 0x7F AND SWAP3 PUSH3 0x18A JUMP JUMPDEST ADD MLOAD SWAP1 POP CODESIZE DUP1 PUSH3 0x14C JUMP JUMPDEST SWAP1 PUSH1 0x4 DUP5 ADD PUSH1 0x0 MSTORE PUSH1 0x20 PUSH1 0x0 KECCAK256 SWAP2 PUSH1 0x0 JUMPDEST PUSH1 0x1F NOT DUP6 AND DUP2 LT PUSH3 0x418 JUMPI POP SWAP2 DUP4 SWAP2 PUSH1 0x1 SWAP4 PUSH1 0x5 SWAP7 SWAP6 PUSH1 0x1F NOT DUP2 AND LT PUSH3 0x3FE JUMPI JUMPDEST POP POP POP DUP2 SHL ADD PUSH1 0x4 DUP3 ADD SSTORE PUSH3 0x164 JUMP JUMPDEST ADD MLOAD PUSH1 0x0 NOT PUSH1 0xF8 DUP5 PUSH1 0x3 SHL AND SHR NOT AND SWAP1 SSTORE CODESIZE DUP1 DUP1 PUSH3 0x3ED JUMP JUMPDEST SWAP2 SWAP3 PUSH1 0x20 PUSH1 0x1 DUP2 SWAP3 DUP7 DUP6 ADD MLOAD DUP2 SSTORE ADD SWAP5 ADD SWAP3 ADD PUSH3 0x3CA JUMP JUMPDEST PUSH1 0x4 DUP5 ADD PUSH1 0x0 MSTORE PUSH1 0x20 PUSH1 0x0 KECCAK256 DUP6 DUP1 DUP6 ADD PUSH1 0x5 SHR DUP3 ADD SWAP3 PUSH1 0x20 DUP7 LT PUSH3 0x474 JUMPI JUMPDEST ADD PUSH1 0x5 SHR ADD SWAP1 JUMPDEST DUP2 DUP2 LT PUSH3 0x467 JUMPI POP PUSH3 0x12E JUMP JUMPDEST PUSH1 0x0 DUP2 SSTORE PUSH1 0x1 ADD PUSH3 0x458 JUMP JUMPDEST SWAP3 POP DUP2 SWAP3 PUSH3 0x451 JUMP JUMPDEST SWAP4 PUSH1 0x7F AND SWAP4 PUSH3 0x118 JUMP JUMPDEST PUSH4 0x1E4FBDF7 PUSH1 0xE0 SHL DUP2 MSTORE PUSH1 0x0 PUSH1 0x4 DUP3 ADD MSTORE PUSH1 0x24 SWAP1 REVERT JUMPDEST PUSH1 0x0 DUP1 REVERT JUMPDEST PUSH1 0x40 DUP1 MLOAD SWAP2 SWAP1 DUP3 ADD PUSH1 0x1 PUSH1 0x1 PUSH1 0x40 SHL SUB DUP2 GT DUP4 DUP3 LT OR PUSH3 0x2A6 JUMPI PUSH1 0x40 MSTORE PUSH1 0x5 DUP3 MSTORE PUSH5 0x20B236B4B7 PUSH1 0xD9 SHL PUSH1 0x20 DUP4 ADD MSTORE JUMP JUMPDEST SWAP2 SWAP1 DUP3 MLOAD SWAP3 DUP4 DUP3 MSTORE PUSH1 0x0 JUMPDEST DUP5 DUP2 LT PUSH3 0x503 JUMPI POP POP DUP3 PUSH1 0x0 PUSH1 0x20 DUP1 SWAP5 SWAP6 DUP5 ADD ADD MSTORE PUSH1 0x1F DUP1 NOT SWAP2 ADD AND ADD ADD SWAP1 JUMP JUMPDEST PUSH1 0x20 DUP2 DUP4 ADD DUP2 ADD MLOAD DUP5 DUP4 ADD DUP3 ADD MSTORE ADD PUSH3 0x4E1 JUMP INVALID PUSH1 0x80 PUSH1 0x40 MSTORE PUSH1 0x4 CALLDATASIZE LT ISZERO PUSH2 0x26 JUMPI JUMPDEST CALLDATASIZE ISZERO PUSH2 0x1E JUMPI PUSH2 0x1C PUSH2 0x1EE4 JUMP JUMPDEST STOP JUMPDEST PUSH2 0x1C PUSH2 0x1EE4 JUMP JUMPDEST PUSH1 0x0 CALLDATALOAD PUSH1 0xE0 SHR DUP1 PUSH4 0x8AE4B0C EQ PUSH2 0x1A29 JUMPI DUP1 PUSH4 0xB1CA49A EQ PUSH2 0x18BB JUMPI DUP1 PUSH4 0xD61B519 EQ PUSH2 0x1600 JUMPI DUP1 PUSH4 0x12065FE0 EQ PUSH2 0x15E4 JUMPI DUP1 PUSH4 0x2116C347 EQ PUSH2 0x15C6 JUMPI DUP1 PUSH4 0x3008D437 EQ PUSH2 0x15A8 JUMPI DUP1 PUSH4 0x32F6A1DC EQ PUSH2 0x1537 JUMPI DUP1 PUSH4 0x3340A176 EQ PUSH2 0x1513 JUMPI DUP1 PUSH4 0x3F66A451 EQ PUSH2 0x1222 JUMPI DUP1 PUSH4 0x43859632 EQ PUSH2 0x11C2 JUMPI DUP1 PUSH4 0x4FA76EC9 EQ PUSH2 0x11A4 JUMPI DUP1 PUSH4 0x5F1231EA EQ PUSH2 0x111A JUMPI DUP1 PUSH4 0x715018A6 EQ PUSH2 0x10C1 JUMPI DUP1 PUSH4 0x76C19546 EQ PUSH2 0xC52 JUMPI DUP1 PUSH4 0x784F80F8 EQ PUSH2 0xBE1 JUMPI DUP1 PUSH4 0x7C0F6B35 EQ PUSH2 0xB19 JUMPI DUP1 PUSH4 0x8743DAE6 EQ PUSH2 0x56B JUMPI DUP1 PUSH4 0x8DA5CB5B EQ PUSH2 0x542 JUMPI DUP1 PUSH4 0x944EE22D EQ PUSH2 0x48F JUMPI DUP1 PUSH4 0x997072F7 EQ PUSH2 0x524 JUMPI DUP1 PUSH4 0x9ABCC0CC EQ PUSH2 0x4EF JUMPI DUP1 PUSH4 0xA230C524 EQ PUSH2 0x4B0 JUMPI DUP1 PUSH4 0xA91937AD EQ PUSH2 0x494 JUMPI DUP1 PUSH4 0xBD968216 EQ PUSH2 0x48F JUMPI DUP1 PUSH4 0xC7F758A8 EQ PUSH2 0x3EA JUMPI DUP1 PUSH4 0xC9D27AFE EQ PUSH2 0x237 JUMPI DUP1 PUSH4 0xDA35C664 EQ PUSH2 0x219 JUMPI DUP1 PUSH4 0xEA0E35B1 EQ PUSH2 0x1FD JUMPI PUSH4 0xF2FDE38B SUB PUSH2 0xE JUMPI CALLVALUE PUSH2 0x1F8 JUMPI PUSH1 0x20 CALLDATASIZE PUSH1 0x3 NOT ADD SLT PUSH2 0x1F8 JUMPI PUSH2 0x183 PUSH2 0x1AC9 JUMP JUMPDEST PUSH2 0x18B PUSH2 0x1CFA JUMP JUMPDEST PUSH1 0x1 PUSH1 0x1 PUSH1 0xA0 SHL SUB SWAP1 DUP2 AND SWAP1 DUP2 ISZERO PUSH2 0x1DF JUMPI PUSH1 0x0 SLOAD DUP3 PUSH12 0xFFFFFFFFFFFFFFFFFFFFFFFF PUSH1 0xA0 SHL DUP3 AND OR PUSH1 0x0 SSTORE AND PUSH32 0x8BE0079C531659141344CD1FD0A4F28419497F9722A3DAAFE3B4186F6B6457E0 PUSH1 0x0 DUP1 LOG3 STOP JUMPDEST PUSH1 0x40 MLOAD PUSH4 0x1E4FBDF7 PUSH1 0xE0 SHL DUP2 MSTORE PUSH1 0x0 PUSH1 0x4 DUP3 ADD MSTORE PUSH1 0x24 SWAP1 REVERT JUMPDEST PUSH1 0x0 DUP1 REVERT JUMPDEST CALLVALUE PUSH2 0x1F8 JUMPI PUSH1 0x0 CALLDATASIZE PUSH1 0x3 NOT ADD SLT PUSH2 0x1F8 JUMPI PUSH1 0x20 PUSH1 0x40 MLOAD PUSH1 0x64 DUP2 MSTORE RETURN JUMPDEST CALLVALUE PUSH2 0x1F8 JUMPI PUSH1 0x0 CALLDATASIZE PUSH1 0x3 NOT ADD SLT PUSH2 0x1F8 JUMPI PUSH1 0x20 PUSH1 0x4 SLOAD PUSH1 0x40 MLOAD SWAP1 DUP2 MSTORE RETURN JUMPDEST CALLVALUE PUSH2 0x1F8 JUMPI PUSH1 0x40 CALLDATASIZE PUSH1 0x3 NOT ADD SLT PUSH2 0x1F8 JUMPI PUSH1 0x4 CALLDATALOAD PUSH1 0x24 CALLDATALOAD SWAP1 DUP2 ISZERO ISZERO SWAP2 DUP3 DUP2 SUB PUSH2 0x1F8 JUMPI CALLER PUSH1 0x0 MSTORE PUSH1 0x20 SWAP1 PUSH1 0x2 DUP3 MSTORE PUSH2 0x276 PUSH1 0xFF PUSH1 0x40 PUSH1 0x0 KECCAK256 SLOAD AND PUSH2 0x1E9A JUMP JUMPDEST PUSH2 0x283 PUSH1 0x4 SLOAD DUP5 LT PUSH2 0x1FA1 JUMP JUMPDEST PUSH2 0x29D PUSH1 0xFF PUSH1 0x7 PUSH2 0x293 DUP7 PUSH2 0x1F66 JUMP JUMPDEST POP ADD SLOAD AND ISZERO PUSH2 0x1FED JUMP JUMPDEST PUSH2 0x2A6 DUP4 PUSH2 0x1F66 JUMP JUMPDEST POP SWAP1 PUSH1 0x6 DUP3 ADD SLOAD TIMESTAMP GT PUSH2 0x3AF JUMPI DUP4 PUSH1 0x0 MSTORE PUSH1 0x5 DUP4 MSTORE PUSH1 0x40 PUSH1 0x0 KECCAK256 CALLER PUSH1 0x0 MSTORE DUP4 MSTORE PUSH1 0xFF PUSH1 0x40 PUSH1 0x0 KECCAK256 SLOAD AND PUSH2 0x37A JUMPI DUP4 PUSH1 0x0 MSTORE PUSH1 0x5 DUP4 MSTORE PUSH1 0x40 PUSH1 0x0 KECCAK256 CALLER PUSH1 0x0 MSTORE DUP4 MSTORE PUSH1 0x40 PUSH1 0x0 KECCAK256 PUSH1 0x1 PUSH1 0xFF NOT DUP3 SLOAD AND OR SWAP1 SSTORE PUSH1 0x2 DUP4 MSTORE PUSH1 0x3 PUSH1 0x40 PUSH1 0x0 KECCAK256 ADD PUSH2 0x30C DUP2 SLOAD PUSH2 0x1ED5 JUMP JUMPDEST SWAP1 SSTORE ISZERO PUSH2 0x365 JUMPI PUSH1 0x4 DUP2 ADD PUSH2 0x321 DUP2 SLOAD PUSH2 0x1ED5 JUMP JUMPDEST SWAP1 SSTORE JUMPDEST PUSH1 0x5 PUSH1 0x4 DUP3 ADD SLOAD SWAP2 ADD SLOAD SWAP2 PUSH1 0x40 MLOAD SWAP5 DUP6 MSTORE DUP5 ADD MSTORE PUSH1 0x40 DUP4 ADD MSTORE PUSH32 0x77A255F45C79D26605C257D8DFC37F9A619F53963DDBED1E95AA0AAB1C801CEE PUSH1 0x60 CALLER SWAP4 LOG3 STOP JUMPDEST PUSH1 0x5 DUP2 ADD PUSH2 0x373 DUP2 SLOAD PUSH2 0x1ED5 JUMP JUMPDEST SWAP1 SSTORE PUSH2 0x324 JUMP JUMPDEST PUSH1 0x40 MLOAD PUSH3 0x461BCD PUSH1 0xE5 SHL DUP2 MSTORE PUSH1 0x4 DUP2 ADD DUP5 SWAP1 MSTORE PUSH1 0xD PUSH1 0x24 DUP3 ADD MSTORE PUSH13 0x105B1C9958591E481D9BDD1959 PUSH1 0x9A SHL PUSH1 0x44 DUP3 ADD MSTORE PUSH1 0x64 SWAP1 REVERT JUMPDEST PUSH1 0x40 MLOAD PUSH3 0x461BCD PUSH1 0xE5 SHL DUP2 MSTORE PUSH1 0x4 DUP2 ADD DUP5 SWAP1 MSTORE PUSH1 0x13 PUSH1 0x24 DUP3 ADD MSTORE PUSH19 0x159BDD1A5B99C81C195C9A5BD908195B991959 PUSH1 0x6A SHL PUSH1 0x44 DUP3 ADD MSTORE PUSH1 0x64 SWAP1 REVERT JUMPDEST CALLVALUE PUSH2 0x1F8 JUMPI PUSH1 0x20 CALLDATASIZE PUSH1 0x3 NOT ADD SLT PUSH2 0x1F8 JUMPI PUSH2 0x413 PUSH1 0x4 CALLDATALOAD PUSH2 0x40E PUSH1 0x4 SLOAD DUP3 LT PUSH2 0x1FA1 JUMP JUMPDEST PUSH2 0x1F66 JUMP JUMPDEST POP DUP1 SLOAD PUSH1 0x1 DUP1 PUSH1 0xA0 SHL SUB PUSH1 0x2 DUP4 ADD SLOAD AND PUSH1 0x3 DUP4 ADD SLOAD SWAP3 PUSH1 0x4 DUP2 ADD SLOAD PUSH1 0x5 DUP3 ADD SLOAD PUSH1 0x6 DUP4 ADD SLOAD SWAP2 PUSH2 0x44D PUSH1 0x1 PUSH1 0xFF PUSH1 0x7 DUP8 ADD SLOAD AND SWAP6 ADD PUSH2 0x1B3B JUMP JUMPDEST SWAP7 PUSH2 0x46A PUSH1 0x40 MLOAD SWAP9 DUP10 SWAP9 DUP10 MSTORE PUSH2 0x100 DUP1 PUSH1 0x20 DUP12 ADD MSTORE DUP10 ADD SWAP1 PUSH2 0x1BE1 JUMP JUMPDEST SWAP6 PUSH1 0x40 DUP9 ADD MSTORE PUSH1 0x60 DUP8 ADD MSTORE PUSH1 0x80 DUP7 ADD MSTORE PUSH1 0xA0 DUP6 ADD MSTORE PUSH1 0xC0 DUP5 ADD MSTORE ISZERO ISZERO PUSH1 0xE0 DUP4 ADD MSTORE SUB SWAP1 RETURN JUMPDEST PUSH2 0x1CDE JUMP JUMPDEST CALLVALUE PUSH2 0x1F8 JUMPI PUSH1 0x0 CALLDATASIZE PUSH1 0x3 NOT ADD SLT PUSH2 0x1F8 JUMPI PUSH1 0x20 PUSH1 0x40 MLOAD PUSH1 0x14 DUP2 MSTORE RETURN JUMPDEST CALLVALUE PUSH2 0x1F8 JUMPI PUSH1 0x20 CALLDATASIZE PUSH1 0x3 NOT ADD SLT PUSH2 0x1F8 JUMPI PUSH1 0x1 PUSH1 0x1 PUSH1 0xA0 SHL SUB PUSH2 0x4D1 PUSH2 0x1AC9 JUMP JUMPDEST AND PUSH1 0x0 MSTORE PUSH1 0x2 PUSH1 0x20 MSTORE PUSH1 0x20 PUSH1 0xFF PUSH1 0x40 PUSH1 0x0 KECCAK256 SLOAD AND PUSH1 0x40 MLOAD SWAP1 ISZERO ISZERO DUP2 MSTORE RETURN JUMPDEST CALLVALUE PUSH2 0x1F8 JUMPI PUSH1 0x20 CALLDATASIZE PUSH1 0x3 NOT ADD SLT PUSH2 0x1F8 JUMPI PUSH1 0x20 PUSH2 0x51A PUSH1 0x4 CALLDATALOAD PUSH2 0x515 PUSH1 0x4 SLOAD DUP3 LT PUSH2 0x1FA1 JUMP JUMPDEST PUSH2 0x204C JUMP JUMPDEST PUSH1 0x40 MLOAD SWAP1 ISZERO ISZERO DUP2 MSTORE RETURN JUMPDEST CALLVALUE PUSH2 0x1F8 JUMPI PUSH1 0x0 CALLDATASIZE PUSH1 0x3 NOT ADD SLT PUSH2 0x1F8 JUMPI PUSH1 0x20 PUSH1 0x3 SLOAD PUSH1 0x40 MLOAD SWAP1 DUP2 MSTORE RETURN JUMPDEST CALLVALUE PUSH2 0x1F8 JUMPI PUSH1 0x0 CALLDATASIZE PUSH1 0x3 NOT ADD SLT PUSH2 0x1F8 JUMPI PUSH1 0x0 SLOAD PUSH1 0x40 MLOAD PUSH1 0x1 PUSH1 0x1 PUSH1 0xA0 SHL SUB SWAP1 SWAP2 AND DUP2 MSTORE PUSH1 0x20 SWAP1 RETURN JUMPDEST CALLVALUE PUSH2 0x1F8 JUMPI PUSH1 0x80 CALLDATASIZE PUSH1 0x3 NOT ADD SLT PUSH2 0x1F8 JUMPI PUSH1 0x4 CALLDATALOAD PUSH8 0xFFFFFFFFFFFFFFFF DUP2 GT PUSH2 0x1F8 JUMPI PUSH2 0x59C SWAP1 CALLDATASIZE SWAP1 PUSH1 0x4 ADD PUSH2 0x1C3D JUMP JUMPDEST PUSH1 0x24 CALLDATALOAD PUSH1 0x1 PUSH1 0x1 PUSH1 0xA0 SHL SUB DUP2 AND DUP2 SUB PUSH2 0x1F8 JUMPI CALLER PUSH1 0x0 MSTORE PUSH1 0x2 PUSH1 0x20 MSTORE PUSH2 0x5C9 PUSH1 0xFF PUSH1 0x40 PUSH1 0x0 KECCAK256 SLOAD AND PUSH2 0x1E9A JUMP JUMPDEST PUSH2 0x5DD PUSH1 0x1 PUSH1 0x1 PUSH1 0xA0 SHL SUB DUP3 AND ISZERO ISZERO PUSH2 0x1D26 JUMP JUMPDEST PUSH2 0x5F2 PUSH1 0x1 PUSH1 0x1 PUSH1 0xA0 SHL SUB DUP3 AND ADDRESS EQ ISZERO PUSH2 0x1D64 JUMP JUMPDEST PUSH1 0x44 SWAP1 DUP2 CALLDATALOAD ISZERO PUSH2 0xAD5 JUMPI PUSH9 0x2B5E3AF16B1880000 DUP3 CALLDATALOAD GT PUSH2 0xA98 JUMPI PUSH2 0x61A SELFBALANCE DUP4 CALLDATALOAD GT ISZERO PUSH2 0x1F18 JUMP JUMPDEST DUP3 MLOAD ISZERO PUSH2 0xA54 JUMPI PUSH2 0x1F4 DUP4 MLOAD GT PUSH2 0xA19 JUMPI PUSH1 0x1 PUSH1 0x64 CALLDATALOAD SUB PUSH2 0x9CB JUMPI PUSH1 0x14 PUSH1 0x6 SLOAD LT ISZERO PUSH2 0x987 JUMPI PUSH1 0x3C TIMESTAMP ADD TIMESTAMP GT PUSH2 0x971 JUMPI PUSH1 0x4 SLOAD PUSH1 0x40 MLOAD SWAP1 PUSH2 0x140 DUP3 ADD DUP3 DUP2 LT PUSH8 0xFFFFFFFFFFFFFFFF DUP3 GT OR PUSH2 0x945 JUMPI PUSH1 0x40 MSTORE DUP1 DUP3 MSTORE DUP5 PUSH1 0x20 DUP4 ADD MSTORE PUSH1 0x1 DUP1 PUSH1 0xA0 SHL SUB DUP4 AND PUSH1 0x40 DUP4 ADD MSTORE DUP4 CALLDATALOAD PUSH1 0x60 DUP4 ADD MSTORE PUSH1 0x0 PUSH1 0x80 DUP4 ADD MSTORE PUSH1 0x0 PUSH1 0xA0 DUP4 ADD MSTORE PUSH1 0x3C TIMESTAMP ADD PUSH1 0xC0 DUP4 ADD MSTORE PUSH1 0x0 PUSH1 0xE0 DUP4 ADD MSTORE CALLER PUSH2 0x100 DUP4 ADD MSTORE TIMESTAMP PUSH2 0x120 DUP4 ADD MSTORE PUSH1 0x1 PUSH1 0x40 SHL DUP2 LT ISZERO PUSH2 0x945 JUMPI DUP1 PUSH1 0x1 PUSH2 0x6D2 SWAP3 ADD PUSH1 0x4 SSTORE PUSH2 0x1F66 JUMP JUMPDEST PUSH2 0x95B JUMPI DUP2 MLOAD DUP2 SSTORE PUSH1 0x20 DUP3 ADD MLOAD DUP1 MLOAD SWAP1 PUSH8 0xFFFFFFFFFFFFFFFF DUP3 GT PUSH2 0x945 JUMPI PUSH2 0x6FE PUSH1 0x1 DUP5 ADD SLOAD PUSH2 0x1ADF JUMP JUMPDEST PUSH1 0x1F DUP2 GT PUSH2 0x8FE JUMPI JUMPDEST POP PUSH1 0x20 SWAP1 PUSH1 0x1F DUP4 GT PUSH1 0x1 EQ PUSH2 0x86B JUMPI PUSH32 0xFCBC93E90DE1F3909139448EEA84876F427C600D8E1706F36918B4C5635C0213 SWAP5 SWAP4 SWAP3 SWAP2 PUSH1 0x0 SWAP2 DUP4 PUSH2 0x860 JUMPI JUMPDEST POP POP DUP2 PUSH1 0x1 SHL SWAP2 PUSH1 0x0 NOT SWAP1 PUSH1 0x3 SHL SHR NOT AND OR PUSH1 0x1 DUP3 ADD SSTORE JUMPDEST PUSH1 0x2 DUP2 ADD PUSH1 0x1 DUP1 PUSH1 0xA0 SHL SUB PUSH1 0x40 DUP5 ADD MLOAD AND PUSH12 0xFFFFFFFFFFFFFFFFFFFFFFFF PUSH1 0xA0 SHL DUP3 SLOAD AND OR SWAP1 SSTORE PUSH1 0x60 DUP3 ADD MLOAD PUSH1 0x3 DUP3 ADD SSTORE PUSH1 0x80 DUP3 ADD MLOAD PUSH1 0x4 DUP3 ADD SSTORE PUSH1 0xA0 DUP3 ADD MLOAD PUSH1 0x5 DUP3 ADD SSTORE PUSH1 0xC0 DUP3 ADD MLOAD PUSH1 0x6 DUP3 ADD SSTORE PUSH1 0x7 DUP2 ADD PUSH2 0x7CB PUSH1 0xE0 DUP5 ADD MLOAD ISZERO ISZERO DUP3 SWAP1 PUSH1 0xFF DUP1 NOT DUP4 SLOAD AND SWAP2 ISZERO ISZERO AND OR SWAP1 SSTORE JUMP JUMPDEST PUSH2 0x100 DUP4 ADD MLOAD DUP2 SLOAD PUSH2 0x100 PUSH1 0x1 PUSH1 0xA8 SHL SUB NOT AND PUSH1 0x8 SWAP2 DUP3 SHL PUSH2 0x100 PUSH1 0x1 PUSH1 0xA8 SHL SUB AND OR SWAP1 SWAP2 SSTORE PUSH2 0x120 DUP4 ADD MLOAD SWAP2 ADD SSTORE PUSH1 0x6 SLOAD PUSH2 0x806 SWAP1 PUSH2 0x1ED5 JUMP JUMPDEST PUSH1 0x6 SSTORE CALLER PUSH1 0x0 MSTORE PUSH1 0x2 PUSH1 0x20 MSTORE PUSH1 0x2 PUSH1 0x40 PUSH1 0x0 KECCAK256 ADD PUSH2 0x824 DUP2 SLOAD PUSH2 0x1ED5 JUMP JUMPDEST SWAP1 SSTORE MLOAD SWAP2 PUSH2 0x83D PUSH1 0x40 MLOAD SWAP6 PUSH1 0x60 DUP8 MSTORE PUSH1 0x60 DUP8 ADD SWAP1 PUSH2 0x1BE1 JUMP JUMPDEST SWAP4 CALLDATALOAD PUSH1 0x20 DUP7 ADD MSTORE TIMESTAMP PUSH1 0x3C ADD PUSH1 0x40 DUP7 ADD MSTORE PUSH1 0x1 PUSH1 0x1 PUSH1 0xA0 SHL SUB AND SWAP4 CALLER SWAP4 DUP2 SWAP1 SUB SWAP1 LOG4 STOP JUMPDEST ADD MLOAD SWAP1 POP DUP9 DUP1 PUSH2 0x744 JUMP JUMPDEST SWAP1 PUSH1 0x1 DUP5 ADD PUSH1 0x0 MSTORE PUSH1 0x20 PUSH1 0x0 KECCAK256 SWAP2 PUSH1 0x0 JUMPDEST PUSH1 0x1F NOT DUP6 AND DUP2 LT PUSH2 0x8E6 JUMPI POP SWAP2 DUP4 SWAP2 PUSH1 0x1 SWAP4 PUSH32 0xFCBC93E90DE1F3909139448EEA84876F427C600D8E1706F36918B4C5635C0213 SWAP8 SWAP7 SWAP6 PUSH1 0x1F NOT DUP2 AND LT PUSH2 0x8CD JUMPI JUMPDEST POP POP POP DUP2 SHL ADD PUSH1 0x1 DUP3 ADD SSTORE PUSH2 0x75C JUMP JUMPDEST ADD MLOAD PUSH1 0x0 NOT PUSH1 0xF8 DUP5 PUSH1 0x3 SHL AND SHR NOT AND SWAP1 SSTORE DUP9 DUP1 DUP1 PUSH2 0x8BD JUMP JUMPDEST SWAP2 SWAP3 PUSH1 0x20 PUSH1 0x1 DUP2 SWAP3 DUP7 DUP6 ADD MLOAD DUP2 SSTORE ADD SWAP5 ADD SWAP3 ADD PUSH2 0x87C JUMP JUMPDEST PUSH1 0x1 DUP5 ADD PUSH1 0x0 MSTORE PUSH1 0x20 PUSH1 0x0 KECCAK256 PUSH1 0x1F DUP5 ADD PUSH1 0x5 SHR DUP2 ADD PUSH1 0x20 DUP6 LT PUSH2 0x93E JUMPI JUMPDEST PUSH1 0x1F DUP4 ADD PUSH1 0x5 SHR DUP3 ADD DUP2 LT PUSH2 0x932 JUMPI POP POP PUSH2 0x707 JUMP JUMPDEST PUSH1 0x0 DUP2 SSTORE PUSH1 0x1 ADD PUSH2 0x91C JUMP JUMPDEST POP DUP1 PUSH2 0x91C JUMP JUMPDEST PUSH4 0x4E487B71 PUSH1 0xE0 SHL PUSH1 0x0 MSTORE PUSH1 0x41 PUSH1 0x4 MSTORE PUSH1 0x24 PUSH1 0x0 REVERT JUMPDEST PUSH4 0x4E487B71 PUSH1 0xE0 SHL PUSH1 0x0 MSTORE PUSH1 0x0 PUSH1 0x4 MSTORE PUSH1 0x24 PUSH1 0x0 REVERT JUMPDEST PUSH4 0x4E487B71 PUSH1 0xE0 SHL PUSH1 0x0 MSTORE PUSH1 0x11 PUSH1 0x4 MSTORE PUSH1 0x24 PUSH1 0x0 REVERT JUMPDEST PUSH1 0x40 MLOAD PUSH3 0x461BCD PUSH1 0xE5 SHL DUP2 MSTORE PUSH1 0x20 PUSH1 0x4 DUP3 ADD MSTORE PUSH1 0x19 PUSH1 0x24 DUP3 ADD MSTORE PUSH32 0x546F6F206D616E79206163746976652070726F706F73616C7300000000000000 DUP2 DUP5 ADD MSTORE PUSH1 0x64 SWAP1 REVERT JUMPDEST PUSH1 0x40 MLOAD PUSH3 0x461BCD PUSH1 0xE5 SHL DUP2 MSTORE PUSH1 0x20 PUSH1 0x4 DUP3 ADD MSTORE PUSH1 0x21 PUSH1 0x24 DUP3 ADD MSTORE PUSH32 0x4475726174696F6E206D7573742062652065786163746C792031206D696E7574 DUP2 DUP5 ADD MSTORE PUSH1 0x65 PUSH1 0xF8 SHL PUSH1 0x64 DUP3 ADD MSTORE PUSH1 0x84 SWAP1 REVERT JUMPDEST PUSH1 0x40 MLOAD PUSH3 0x461BCD PUSH1 0xE5 SHL DUP2 MSTORE PUSH1 0x20 PUSH1 0x4 DUP3 ADD MSTORE PUSH1 0x14 PUSH1 0x24 DUP3 ADD MSTORE PUSH20 0x4465736372697074696F6E20746F6F206C6F6E67 PUSH1 0x60 SHL DUP2 DUP5 ADD MSTORE PUSH1 0x64 SWAP1 REVERT JUMPDEST PUSH1 0x40 MLOAD PUSH3 0x461BCD PUSH1 0xE5 SHL DUP2 MSTORE PUSH1 0x20 PUSH1 0x4 DUP3 ADD MSTORE PUSH1 0x1B PUSH1 0x24 DUP3 ADD MSTORE PUSH32 0x4465736372697074696F6E2063616E6E6F7420626520656D7074790000000000 DUP2 DUP5 ADD MSTORE PUSH1 0x64 SWAP1 REVERT JUMPDEST PUSH1 0x40 MLOAD PUSH3 0x461BCD PUSH1 0xE5 SHL DUP2 MSTORE PUSH1 0x20 PUSH1 0x4 DUP3 ADD MSTORE PUSH1 0x16 PUSH1 0x24 DUP3 ADD MSTORE PUSH22 0x416D6F756E742065786365656473206D6178696D756D PUSH1 0x50 SHL DUP2 DUP5 ADD MSTORE PUSH1 0x64 SWAP1 REVERT JUMPDEST PUSH1 0x40 MLOAD PUSH3 0x461BCD PUSH1 0xE5 SHL DUP2 MSTORE PUSH1 0x20 PUSH1 0x4 DUP3 ADD MSTORE PUSH1 0x1D PUSH1 0x24 DUP3 ADD MSTORE PUSH32 0x416D6F756E74206D7573742062652067726561746572207468616E2030000000 DUP2 DUP5 ADD MSTORE PUSH1 0x64 SWAP1 REVERT JUMPDEST CALLVALUE PUSH2 0x1F8 JUMPI PUSH1 0x0 CALLDATASIZE PUSH1 0x3 NOT ADD SLT PUSH2 0x1F8 JUMPI PUSH1 0x40 MLOAD DUP1 PUSH1 0x3 SLOAD DUP1 DUP4 MSTORE PUSH1 0x20 DUP1 SWAP4 ADD DUP1 SWAP2 PUSH1 0x3 PUSH1 0x0 MSTORE PUSH32 0xC2575A0E9E593C00F959F8C92F12DB2869C3395A3B0502D05E2516446F71F85B SWAP1 PUSH1 0x0 JUMPDEST DUP7 DUP3 DUP3 LT PUSH2 0xBC4 JUMPI DUP7 DUP7 PUSH2 0xB7B DUP3 DUP9 SUB DUP4 PUSH2 0x1B19 JUMP JUMPDEST PUSH1 0x40 MLOAD SWAP3 DUP4 SWAP3 DUP2 DUP5 ADD SWAP1 DUP3 DUP6 MSTORE MLOAD DUP1 SWAP2 MSTORE PUSH1 0x40 DUP5 ADD SWAP3 SWAP2 PUSH1 0x0 JUMPDEST DUP3 DUP2 LT PUSH2 0xBA4 JUMPI POP POP POP POP SUB SWAP1 RETURN JUMPDEST DUP4 MLOAD PUSH1 0x1 PUSH1 0x1 PUSH1 0xA0 SHL SUB AND DUP6 MSTORE DUP7 SWAP6 POP SWAP4 DUP2 ADD SWAP4 SWAP3 DUP2 ADD SWAP3 PUSH1 0x1 ADD PUSH2 0xB95 JUMP JUMPDEST DUP4 SLOAD PUSH1 0x1 PUSH1 0x1 PUSH1 0xA0 SHL SUB AND DUP6 MSTORE SWAP1 SWAP4 ADD SWAP3 PUSH1 0x1 SWAP3 DUP4 ADD SWAP3 ADD PUSH2 0xB65 JUMP JUMPDEST CALLVALUE PUSH2 0x1F8 JUMPI PUSH1 0x20 CALLDATASIZE PUSH1 0x3 NOT ADD SLT PUSH2 0x1F8 JUMPI PUSH32 0x215D877BB551ED521BD109659D4CD1E18E4A0A2B72986CB41380DB7375B277AF PUSH1 0x40 PUSH1 0x4 CALLDATALOAD PUSH2 0xC20 PUSH2 0x1CFA JUMP JUMPDEST DUP1 ISZERO ISZERO DUP1 PUSH2 0xC47 JUMPI JUMPDEST PUSH2 0xC32 SWAP1 PUSH2 0x20D9 JUMP JUMPDEST PUSH1 0x8 SLOAD SWAP1 DUP1 PUSH1 0x8 SSTORE DUP3 MLOAD SWAP2 DUP3 MSTORE PUSH1 0x20 DUP3 ADD MSTORE LOG1 STOP JUMPDEST POP PUSH1 0x64 DUP2 GT ISZERO PUSH2 0xC29 JUMP JUMPDEST CALLVALUE PUSH2 0x1F8 JUMPI PUSH2 0xC60 CALLDATASIZE PUSH2 0x1C84 JUMP JUMPDEST SWAP2 SWAP1 PUSH2 0xC6A PUSH2 0x1CFA JUMP JUMPDEST PUSH2 0xC7E PUSH1 0x1 PUSH1 0x1 PUSH1 0xA0 SHL SUB DUP4 AND ISZERO ISZERO PUSH2 0x1D26 JUMP JUMPDEST PUSH2 0xC93 PUSH1 0x1 PUSH1 0x1 PUSH1 0xA0 SHL SUB DUP4 AND ADDRESS EQ ISZERO PUSH2 0x1D64 JUMP JUMPDEST PUSH1 0x1 PUSH1 0x1 PUSH1 0xA0 SHL SUB DUP3 AND PUSH1 0x0 SWAP1 DUP2 MSTORE PUSH1 0x2 PUSH1 0x20 MSTORE PUSH1 0x40 SWAP1 KECCAK256 SLOAD PUSH1 0xFF AND PUSH2 0x1089 JUMPI PUSH1 0x64 PUSH1 0x3 SLOAD LT ISZERO PUSH2 0x104D JUMPI PUSH2 0xCD3 DUP2 MLOAD DUP1 ISZERO ISZERO SWAP1 DUP2 PUSH2 0x1041 JUMPI JUMPDEST POP PUSH2 0x1DA9 JUMP JUMPDEST PUSH2 0xCE8 DUP4 MLOAD DUP1 ISZERO ISZERO SWAP1 DUP2 PUSH2 0x1035 JUMPI JUMPDEST POP PUSH2 0x1DE4 JUMP JUMPDEST PUSH1 0x40 MLOAD PUSH1 0xC0 DUP2 ADD DUP2 DUP2 LT PUSH8 0xFFFFFFFFFFFFFFFF DUP3 GT OR PUSH2 0x945 JUMPI PUSH1 0x40 MSTORE PUSH1 0x1 DUP2 MSTORE PUSH1 0x20 DUP2 ADD SWAP1 TIMESTAMP DUP3 MSTORE PUSH1 0x40 DUP2 ADD PUSH1 0x0 DUP2 MSTORE PUSH1 0x60 DUP3 ADD PUSH1 0x0 DUP2 MSTORE PUSH1 0x80 DUP4 ADD SWAP2 DUP6 DUP4 MSTORE DUP8 PUSH1 0xA0 DUP6 ADD MSTORE PUSH1 0x1 DUP1 PUSH1 0xA0 SHL SUB DUP8 AND PUSH1 0x0 MSTORE PUSH1 0x2 PUSH1 0x20 MSTORE PUSH1 0x40 PUSH1 0x0 KECCAK256 SWAP5 PUSH2 0xD5F DUP6 MLOAD ISZERO ISZERO DUP8 SWAP1 PUSH1 0xFF DUP1 NOT DUP4 SLOAD AND SWAP2 ISZERO ISZERO AND OR SWAP1 SSTORE JUMP JUMPDEST MLOAD PUSH1 0x1 DUP7 ADD SSTORE MLOAD PUSH1 0x2 DUP6 ADD SSTORE MLOAD PUSH1 0x3 DUP5 ADD SSTORE MLOAD DUP1 MLOAD SWAP1 PUSH8 0xFFFFFFFFFFFFFFFF DUP3 GT PUSH2 0x945 JUMPI PUSH2 0xD91 PUSH1 0x4 DUP6 ADD SLOAD PUSH2 0x1ADF JUMP JUMPDEST PUSH1 0x1F DUP2 GT PUSH2 0xFEE JUMPI JUMPDEST POP PUSH1 0x20 SWAP1 PUSH1 0x1F DUP4 GT PUSH1 0x1 EQ PUSH2 0xF7D JUMPI PUSH1 0xA0 SWAP4 SWAP3 SWAP2 PUSH1 0x0 SWAP2 DUP4 PUSH2 0xF72 JUMPI JUMPDEST POP POP DUP2 PUSH1 0x1 SHL SWAP2 PUSH1 0x0 NOT SWAP1 PUSH1 0x3 SHL SHR NOT AND OR PUSH1 0x4 DUP5 ADD SSTORE JUMPDEST ADD MLOAD DUP1 MLOAD SWAP1 PUSH8 0xFFFFFFFFFFFFFFFF DUP3 GT PUSH2 0x945 JUMPI PUSH2 0xDF0 PUSH1 0x5 DUP5 ADD SLOAD PUSH2 0x1ADF JUMP JUMPDEST PUSH1 0x1F DUP2 GT PUSH2 0xF27 JUMPI JUMPDEST POP PUSH1 0x20 SWAP1 PUSH1 0x1F DUP4 GT PUSH1 0x1 EQ PUSH2 0xEB9 JUMPI PUSH1 0x5 SWAP3 SWAP2 PUSH1 0x0 SWAP2 DUP4 PUSH2 0xEAE JUMPI JUMPDEST POP POP DUP2 PUSH1 0x1 SHL SWAP2 PUSH1 0x0 NOT SWAP1 PUSH1 0x3 SHL SHR NOT AND OR SWAP2 ADD SSTORE JUMPDEST PUSH1 0x3 SLOAD SWAP2 PUSH1 0x1 PUSH1 0x40 SHL DUP4 LT ISZERO PUSH2 0x945 JUMPI PUSH2 0xE8F DUP2 PUSH2 0xE70 DUP6 PUSH1 0x1 PUSH32 0x62C29952981DA6A6C23203092D94E1CE8AD7A50339F2377BBE25B2F07DD96639 SWAP8 ADD PUSH1 0x3 SSTORE PUSH2 0x1E1F JUMP JUMPDEST SWAP1 SWAP2 SWAP1 DUP3 SLOAD SWAP1 PUSH1 0x3 SHL SWAP2 PUSH1 0x1 DUP1 PUSH1 0xA0 SHL SUB DUP1 SWAP2 AND DUP4 SHL SWAP3 SHL NOT AND OR SWAP1 SSTORE JUMP JUMPDEST PUSH2 0xEA9 PUSH1 0x40 MLOAD SWAP3 DUP4 SWAP3 PUSH1 0x1 DUP1 PUSH1 0xA0 SHL SUB AND SWAP6 TIMESTAMP SWAP2 DUP5 PUSH2 0x1E6C JUMP JUMPDEST SUB SWAP1 LOG2 STOP JUMPDEST ADD MLOAD SWAP1 POP DUP8 DUP1 PUSH2 0xE15 JUMP JUMPDEST SWAP1 PUSH1 0x1F NOT DUP4 AND SWAP2 PUSH1 0x5 DUP6 ADD PUSH1 0x0 MSTORE PUSH1 0x20 PUSH1 0x0 KECCAK256 SWAP3 PUSH1 0x0 JUMPDEST DUP2 DUP2 LT PUSH2 0xF0F JUMPI POP SWAP2 PUSH1 0x1 SWAP4 SWAP2 DUP6 PUSH1 0x5 SWAP7 SWAP5 LT PUSH2 0xEF6 JUMPI JUMPDEST POP POP POP DUP2 SHL ADD SWAP2 ADD SSTORE PUSH2 0xE2B JUMP JUMPDEST ADD MLOAD PUSH1 0x0 NOT PUSH1 0xF8 DUP5 PUSH1 0x3 SHL AND SHR NOT AND SWAP1 SSTORE DUP8 DUP1 DUP1 PUSH2 0xEE8 JUMP JUMPDEST SWAP3 SWAP4 PUSH1 0x20 PUSH1 0x1 DUP2 SWAP3 DUP8 DUP7 ADD MLOAD DUP2 SSTORE ADD SWAP6 ADD SWAP4 ADD PUSH2 0xED0 JUMP JUMPDEST PUSH1 0x5 DUP5 ADD PUSH1 0x0 MSTORE PUSH1 0x20 PUSH1 0x0 KECCAK256 PUSH1 0x1F DUP5 ADD PUSH1 0x5 SHR DUP2 ADD SWAP2 PUSH1 0x20 DUP6 LT PUSH2 0xF68 JUMPI JUMPDEST PUSH1 0x1F ADD PUSH1 0x5 SHR ADD SWAP1 JUMPDEST DUP2 DUP2 LT PUSH2 0xF5C JUMPI POP PUSH2 0xDF9 JUMP JUMPDEST PUSH1 0x0 DUP2 SSTORE PUSH1 0x1 ADD PUSH2 0xF4F JUMP JUMPDEST SWAP1 SWAP2 POP DUP2 SWAP1 PUSH2 0xF46 JUMP JUMPDEST ADD MLOAD SWAP1 POP DUP9 DUP1 PUSH2 0xDB7 JUMP JUMPDEST SWAP1 PUSH1 0x1F NOT DUP4 AND SWAP2 PUSH1 0x4 DUP7 ADD PUSH1 0x0 MSTORE PUSH1 0x20 PUSH1 0x0 KECCAK256 SWAP3 PUSH1 0x0 JUMPDEST DUP2 DUP2 LT PUSH2 0xFD6 JUMPI POP SWAP2 PUSH1 0x1 SWAP4 SWAP2 DUP6 PUSH1 0xA0 SWAP8 SWAP7 SWAP5 LT PUSH2 0xFBD JUMPI JUMPDEST POP POP POP DUP2 SHL ADD PUSH1 0x4 DUP5 ADD SSTORE PUSH2 0xDCF JUMP JUMPDEST ADD MLOAD PUSH1 0x0 NOT PUSH1 0xF8 DUP5 PUSH1 0x3 SHL AND SHR NOT AND SWAP1 SSTORE DUP9 DUP1 DUP1 PUSH2 0xFAD JUMP JUMPDEST SWAP3 SWAP4 PUSH1 0x20 PUSH1 0x1 DUP2 SWAP3 DUP8 DUP7 ADD MLOAD DUP2 SSTORE ADD SWAP6 ADD SWAP4 ADD PUSH2 0xF94 JUMP JUMPDEST PUSH1 0x4 DUP6 ADD PUSH1 0x0 MSTORE PUSH1 0x20 PUSH1 0x0 KECCAK256 PUSH1 0x1F DUP5 ADD PUSH1 0x5 SHR DUP2 ADD PUSH1 0x20 DUP6 LT PUSH2 0x102E JUMPI JUMPDEST PUSH1 0x1F DUP4 ADD PUSH1 0x5 SHR DUP3 ADD DUP2 LT PUSH2 0x1022 JUMPI POP POP PUSH2 0xD9A JUMP JUMPDEST PUSH1 0x0 DUP2 SSTORE PUSH1 0x1 ADD PUSH2 0x100C JUMP JUMPDEST POP DUP1 PUSH2 0x100C JUMP JUMPDEST PUSH1 0x32 SWAP2 POP GT ISZERO DUP6 PUSH2 0xCE2 JUMP JUMPDEST PUSH1 0x32 SWAP2 POP GT ISZERO DUP6 PUSH2 0xCCD JUMP JUMPDEST PUSH1 0x40 MLOAD PUSH3 0x461BCD PUSH1 0xE5 SHL DUP2 MSTORE PUSH1 0x20 PUSH1 0x4 DUP3 ADD MSTORE PUSH1 0x14 PUSH1 0x24 DUP3 ADD MSTORE PUSH20 0x13595B58995C881B1A5B5A5D081C995858DA1959 PUSH1 0x62 SHL PUSH1 0x44 DUP3 ADD MSTORE PUSH1 0x64 SWAP1 REVERT JUMPDEST PUSH1 0x40 MLOAD PUSH3 0x461BCD PUSH1 0xE5 SHL DUP2 MSTORE PUSH1 0x20 PUSH1 0x4 DUP3 ADD MSTORE PUSH1 0x10 PUSH1 0x24 DUP3 ADD MSTORE PUSH16 0x20B63932B0B23C90309036B2B6B132B9 PUSH1 0x81 SHL PUSH1 0x44 DUP3 ADD MSTORE PUSH1 0x64 SWAP1 REVERT JUMPDEST CALLVALUE PUSH2 0x1F8 JUMPI PUSH1 0x0 CALLDATASIZE PUSH1 0x3 NOT ADD SLT PUSH2 0x1F8 JUMPI PUSH2 0x10DA PUSH2 0x1CFA JUMP JUMPDEST PUSH1 0x0 DUP1 SLOAD PUSH1 0x1 PUSH1 0x1 PUSH1 0xA0 SHL SUB NOT DUP2 AND DUP3 SSTORE PUSH1 0x1 PUSH1 0x1 PUSH1 0xA0 SHL SUB AND PUSH32 0x8BE0079C531659141344CD1FD0A4F28419497F9722A3DAAFE3B4186F6B6457E0 DUP3 DUP1 LOG3 STOP JUMPDEST CALLVALUE PUSH2 0x1F8 JUMPI PUSH1 0x20 CALLDATASIZE PUSH1 0x3 NOT ADD SLT PUSH2 0x1F8 JUMPI PUSH1 0x1 PUSH1 0x1 PUSH1 0xA0 SHL SUB PUSH2 0x113B PUSH2 0x1AC9 JUMP JUMPDEST AND PUSH1 0x0 MSTORE PUSH1 0x2 PUSH1 0x20 MSTORE PUSH2 0x1185 PUSH1 0x40 PUSH1 0x0 KECCAK256 PUSH1 0xFF DUP2 SLOAD AND PUSH1 0x1 DUP3 ADD SLOAD PUSH2 0x1193 PUSH2 0x1171 PUSH1 0x5 PUSH2 0x116A PUSH1 0x4 DUP8 ADD PUSH2 0x1B3B JUMP JUMPDEST SWAP6 ADD PUSH2 0x1B3B JUMP JUMPDEST PUSH1 0x40 MLOAD SWAP6 DUP7 SWAP6 PUSH1 0x80 DUP8 MSTORE PUSH1 0x80 DUP8 ADD SWAP1 PUSH2 0x1BE1 JUMP JUMPDEST SWAP1 DUP6 DUP3 SUB PUSH1 0x20 DUP8 ADD MSTORE PUSH2 0x1BE1 JUMP JUMPDEST SWAP2 ISZERO ISZERO PUSH1 0x40 DUP5 ADD MSTORE PUSH1 0x60 DUP4 ADD MSTORE SUB SWAP1 RETURN JUMPDEST CALLVALUE PUSH2 0x1F8 JUMPI PUSH1 0x0 CALLDATASIZE PUSH1 0x3 NOT ADD SLT PUSH2 0x1F8 JUMPI PUSH1 0x20 PUSH1 0x7 SLOAD PUSH1 0x40 MLOAD SWAP1 DUP2 MSTORE RETURN JUMPDEST CALLVALUE PUSH2 0x1F8 JUMPI PUSH1 0x40 CALLDATASIZE PUSH1 0x3 NOT ADD SLT PUSH2 0x1F8 JUMPI PUSH1 0x24 CALLDATALOAD PUSH1 0x1 PUSH1 0x1 PUSH1 0xA0 SHL SUB DUP2 AND SWAP1 PUSH1 0x4 CALLDATALOAD SWAP1 DUP3 SWAP1 SUB PUSH2 0x1F8 JUMPI PUSH2 0x11F9 PUSH1 0x4 SLOAD DUP3 LT PUSH2 0x1FA1 JUMP JUMPDEST PUSH1 0x0 MSTORE PUSH1 0x5 PUSH1 0x20 MSTORE PUSH1 0x40 PUSH1 0x0 KECCAK256 SWAP1 PUSH1 0x0 MSTORE PUSH1 0x20 MSTORE PUSH1 0x20 PUSH1 0xFF PUSH1 0x40 PUSH1 0x0 KECCAK256 SLOAD AND PUSH1 0x40 MLOAD SWAP1 ISZERO ISZERO DUP2 MSTORE RETURN JUMPDEST CALLVALUE PUSH2 0x1F8 JUMPI PUSH2 0x1230 CALLDATASIZE PUSH2 0x1C84 JUMP JUMPDEST SWAP2 PUSH2 0x1239 PUSH2 0x1CFA JUMP JUMPDEST PUSH1 0x1 DUP1 PUSH1 0xA0 SHL SUB AND SWAP1 DUP2 PUSH1 0x0 MSTORE PUSH1 0x20 SWAP3 PUSH1 0x2 DUP5 MSTORE PUSH2 0x125E PUSH1 0xFF PUSH1 0x40 PUSH1 0x0 KECCAK256 SLOAD AND PUSH2 0x1E9A JUMP JUMPDEST PUSH2 0x1272 DUP3 MLOAD DUP1 ISZERO ISZERO SWAP1 DUP2 PUSH2 0x1507 JUMPI POP PUSH2 0x1DA9 JUMP JUMPDEST PUSH2 0x1286 DUP2 MLOAD DUP1 ISZERO ISZERO SWAP1 DUP2 PUSH2 0x14FB JUMPI POP PUSH2 0x1DE4 JUMP JUMPDEST DUP3 PUSH1 0x0 MSTORE PUSH1 0x2 DUP5 MSTORE PUSH1 0x4 PUSH1 0x40 PUSH1 0x0 KECCAK256 ADD SWAP4 DUP3 MLOAD PUSH8 0xFFFFFFFFFFFFFFFF SWAP6 DUP7 DUP3 GT PUSH2 0x945 JUMPI PUSH2 0x12B4 DUP2 SLOAD PUSH2 0x1ADF JUMP JUMPDEST SWAP2 PUSH1 0x1F SWAP3 DUP4 DUP2 GT PUSH2 0x14B8 JUMPI JUMPDEST POP DUP1 DUP5 DUP5 DUP3 GT PUSH1 0x1 EQ PUSH2 0x1455 JUMPI PUSH1 0x0 SWAP2 PUSH2 0x144A JUMPI JUMPDEST POP DUP2 PUSH1 0x1 SHL SWAP2 PUSH1 0x0 NOT SWAP1 PUSH1 0x3 SHL SHR NOT AND OR SWAP1 SSTORE JUMPDEST DUP5 PUSH1 0x0 MSTORE PUSH1 0x2 DUP3 MSTORE PUSH1 0x5 PUSH1 0x40 PUSH1 0x0 KECCAK256 ADD SWAP2 DUP4 MLOAD SWAP7 DUP8 GT PUSH2 0x945 JUMPI PUSH2 0x130D DUP4 SLOAD PUSH2 0x1ADF JUMP JUMPDEST DUP3 DUP2 GT PUSH2 0x1407 JUMPI JUMPDEST POP DUP1 SWAP2 DUP8 GT PUSH1 0x1 EQ PUSH2 0x137F JUMPI POP SWAP5 DUP1 PUSH32 0x633AE31836FC599829BB7374EC1A83609545EA12B3B3795F14F6DBF7BC3C1D77 SWAP6 SWAP7 PUSH1 0x0 SWAP2 PUSH2 0x1374 JUMPI JUMPDEST POP DUP2 PUSH1 0x1 SHL SWAP2 PUSH1 0x0 NOT SWAP1 PUSH1 0x3 SHL SHR NOT AND OR SWAP1 SSTORE JUMPDEST PUSH2 0xEA9 PUSH1 0x40 MLOAD SWAP3 DUP4 SWAP3 TIMESTAMP SWAP2 DUP5 PUSH2 0x1E6C JUMP JUMPDEST SWAP1 POP DUP4 ADD MLOAD DUP8 PUSH2 0x134F JUMP JUMPDEST SWAP1 PUSH1 0x1F NOT DUP8 AND DUP4 PUSH1 0x0 MSTORE DUP3 PUSH1 0x0 KECCAK256 SWAP3 PUSH1 0x0 SWAP1 JUMPDEST DUP3 DUP3 LT PUSH2 0x13EF JUMPI POP POP SWAP2 DUP8 SWAP2 PUSH32 0x633AE31836FC599829BB7374EC1A83609545EA12B3B3795F14F6DBF7BC3C1D77 SWAP8 SWAP9 PUSH1 0x1 SWAP5 LT PUSH2 0x13D6 JUMPI JUMPDEST POP POP DUP2 SHL ADD SWAP1 SSTORE PUSH2 0x1363 JUMP JUMPDEST DUP6 ADD MLOAD PUSH1 0x0 NOT PUSH1 0xF8 DUP5 PUSH1 0x3 SHL AND SHR NOT AND SWAP1 SSTORE DUP8 DUP1 PUSH2 0x13CA JUMP JUMPDEST DUP1 PUSH1 0x1 DUP6 SWAP7 DUP3 SWAP5 SWAP7 DUP11 ADD MLOAD DUP2 SSTORE ADD SWAP6 ADD SWAP4 ADD SWAP1 PUSH2 0x1392 JUMP JUMPDEST DUP4 PUSH1 0x0 MSTORE DUP2 PUSH1 0x0 KECCAK256 DUP4 DUP1 DUP11 ADD PUSH1 0x5 SHR DUP3 ADD SWAP3 DUP5 DUP12 LT PUSH2 0x1441 JUMPI JUMPDEST ADD PUSH1 0x5 SHR ADD SWAP1 JUMPDEST DUP2 DUP2 LT PUSH2 0x1435 JUMPI POP PUSH2 0x1315 JUMP JUMPDEST PUSH1 0x0 DUP2 SSTORE PUSH1 0x1 ADD PUSH2 0x1428 JUMP JUMPDEST SWAP3 POP DUP2 SWAP3 PUSH2 0x1421 JUMP JUMPDEST SWAP1 POP DUP7 ADD MLOAD DUP10 PUSH2 0x12D5 JUMP JUMPDEST PUSH1 0x0 DUP5 DUP2 MSTORE DUP7 DUP2 KECCAK256 SWAP3 POP PUSH1 0x1F NOT DUP5 AND SWAP1 JUMPDEST DUP8 DUP3 DUP3 LT PUSH2 0x14A2 JUMPI POP POP SWAP1 DUP4 PUSH1 0x1 SWAP5 SWAP4 SWAP3 LT PUSH2 0x1489 JUMPI JUMPDEST POP POP DUP2 SHL ADD SWAP1 SSTORE PUSH2 0x12E9 JUMP JUMPDEST DUP9 ADD MLOAD PUSH1 0x0 NOT PUSH1 0xF8 DUP5 PUSH1 0x3 SHL AND SHR NOT AND SWAP1 SSTORE DUP10 DUP1 PUSH2 0x147D JUMP JUMPDEST PUSH1 0x1 DUP5 SWAP6 DUP3 SWAP4 SWAP6 DUP14 ADD MLOAD DUP2 SSTORE ADD SWAP5 ADD SWAP3 ADD PUSH2 0x1466 JUMP JUMPDEST DUP3 PUSH1 0x0 MSTORE DUP5 PUSH1 0x0 KECCAK256 DUP5 DUP1 DUP5 ADD PUSH1 0x5 SHR DUP3 ADD SWAP3 DUP8 DUP6 LT PUSH2 0x14F2 JUMPI JUMPDEST ADD PUSH1 0x5 SHR ADD SWAP1 JUMPDEST DUP2 DUP2 LT PUSH2 0x14E6 JUMPI POP PUSH2 0x12C0 JUMP JUMPDEST PUSH1 0x0 DUP2 SSTORE PUSH1 0x1 ADD PUSH2 0x14D9 JUMP JUMPDEST SWAP3 POP DUP2 SWAP3 PUSH2 0x14D2 JUMP JUMPDEST PUSH1 0x32 SWAP2 POP GT ISZERO DUP7 PUSH2 0xCE2 JUMP JUMPDEST PUSH1 0x32 SWAP2 POP GT ISZERO DUP7 PUSH2 0xCCD JUMP JUMPDEST CALLVALUE PUSH2 0x1F8 JUMPI PUSH1 0x0 CALLDATASIZE PUSH1 0x3 NOT ADD SLT PUSH2 0x1F8 JUMPI PUSH1 0x20 PUSH1 0x40 MLOAD PUSH9 0x2B5E3AF16B1880000 DUP2 MSTORE RETURN JUMPDEST CALLVALUE PUSH2 0x1F8 JUMPI PUSH1 0x20 CALLDATASIZE PUSH1 0x3 NOT ADD SLT PUSH2 0x1F8 JUMPI PUSH32 0x6784E9BCB845CAAA98267D7B0918F97D3D17F7CB35A05B52010F7EB587A0ACB0 PUSH1 0x40 PUSH1 0x4 CALLDATALOAD PUSH2 0x1576 PUSH2 0x1CFA JUMP JUMPDEST DUP1 ISZERO ISZERO DUP1 PUSH2 0x159D JUMPI JUMPDEST PUSH2 0x1588 SWAP1 PUSH2 0x20D9 JUMP JUMPDEST PUSH1 0x7 SLOAD SWAP1 DUP1 PUSH1 0x7 SSTORE DUP3 MLOAD SWAP2 DUP3 MSTORE PUSH1 0x20 DUP3 ADD MSTORE LOG1 STOP JUMPDEST POP PUSH1 0x64 DUP2 GT ISZERO PUSH2 0x157F JUMP JUMPDEST CALLVALUE PUSH2 0x1F8 JUMPI PUSH1 0x0 CALLDATASIZE PUSH1 0x3 NOT ADD SLT PUSH2 0x1F8 JUMPI PUSH1 0x20 PUSH1 0x8 SLOAD PUSH1 0x40 MLOAD SWAP1 DUP2 MSTORE RETURN JUMPDEST CALLVALUE PUSH2 0x1F8 JUMPI PUSH1 0x0 CALLDATASIZE PUSH1 0x3 NOT ADD SLT PUSH2 0x1F8 JUMPI PUSH1 0x20 PUSH1 0x6 SLOAD PUSH1 0x40 MLOAD SWAP1 DUP2 MSTORE RETURN JUMPDEST CALLVALUE PUSH2 0x1F8 JUMPI PUSH1 0x0 CALLDATASIZE PUSH1 0x3 NOT ADD SLT PUSH2 0x1F8 JUMPI PUSH1 0x20 SELFBALANCE PUSH1 0x40 MLOAD SWAP1 DUP2 MSTORE RETURN JUMPDEST CALLVALUE PUSH2 0x1F8 JUMPI PUSH1 0x20 DUP1 PUSH1 0x3 NOT CALLDATASIZE ADD SLT PUSH2 0x1F8 JUMPI PUSH1 0x4 CALLDATALOAD SWAP1 CALLER PUSH1 0x0 MSTORE PUSH1 0x2 DUP2 MSTORE PUSH2 0x162F PUSH1 0xFF PUSH1 0x40 PUSH1 0x0 KECCAK256 SLOAD AND PUSH2 0x1E9A JUMP JUMPDEST PUSH2 0x163C PUSH1 0x4 SLOAD DUP4 LT PUSH2 0x1FA1 JUMP JUMPDEST PUSH2 0x164C PUSH1 0xFF PUSH1 0x7 PUSH2 0x293 DUP6 PUSH2 0x1F66 JUMP JUMPDEST PUSH1 0x2 PUSH1 0x1 SLOAD EQ PUSH2 0x18A9 JUMPI PUSH1 0x2 PUSH1 0x1 SSTORE PUSH2 0x1664 DUP3 PUSH2 0x1F66 JUMP JUMPDEST POP SWAP2 PUSH1 0x6 DUP4 ADD SLOAD TIMESTAMP GT ISZERO PUSH2 0x1864 JUMPI SELFBALANCE SWAP2 PUSH2 0x1685 PUSH1 0x3 DUP6 ADD SWAP4 DUP5 SLOAD GT ISZERO PUSH2 0x1F18 JUMP JUMPDEST PUSH1 0x4 DUP5 ADD SLOAD SWAP4 PUSH2 0x1699 PUSH1 0x5 DUP3 ADD SLOAD DUP7 PUSH2 0x1F59 JUMP JUMPDEST SWAP5 PUSH1 0x3 SLOAD SWAP6 DUP1 ISZERO PUSH2 0x182F JUMPI PUSH1 0x64 SWAP7 DUP8 DUP3 MUL SWAP1 DUP3 DUP3 DIV DUP10 SUB PUSH2 0x971 JUMPI PUSH1 0x7 SLOAD PUSH2 0x16C0 SWAP2 PUSH2 0x2039 JUMP JUMPDEST GT PUSH2 0x17F6 JUMPI DUP7 DUP3 MUL SWAP2 DUP1 DUP4 DIV DUP9 EQ SWAP1 ISZERO OR ISZERO PUSH2 0x971 JUMPI PUSH1 0x8 SLOAD PUSH2 0x16E2 SWAP2 PUSH2 0x2039 JUMP JUMPDEST GT PUSH2 0x17BE JUMPI PUSH1 0x7 DUP2 ADD DUP1 SLOAD PUSH1 0xFF NOT AND PUSH1 0x1 OR SWAP1 SSTORE PUSH1 0x6 SLOAD SWAP1 DUP2 ISZERO PUSH2 0x971 JUMPI PUSH1 0x2 SWAP2 PUSH1 0x0 NOT ADD PUSH1 0x6 SSTORE ADD PUSH1 0x1 DUP1 PUSH1 0xA0 SHL SUB SWAP1 PUSH1 0x0 DUP1 DUP1 DUP1 DUP6 DUP6 SLOAD AND DUP10 SLOAD SWAP1 GAS CALL RETURNDATASIZE ISZERO PUSH2 0x17B9 JUMPI RETURNDATASIZE PUSH2 0x1731 DUP2 PUSH2 0x1C21 JUMP JUMPDEST SWAP1 PUSH2 0x173F PUSH1 0x40 MLOAD SWAP3 DUP4 PUSH2 0x1B19 JUMP JUMPDEST DUP2 MSTORE PUSH1 0x0 DUP6 RETURNDATASIZE SWAP3 ADD RETURNDATACOPY JUMPDEST ISZERO PUSH2 0x1783 JUMPI SWAP1 PUSH32 0x3B7C90DF35B419337CFF0919FE91849006607BB66C4373623F06F9D48C1EBB98 SWAP3 SWAP2 SLOAD AND SWAP4 SLOAD PUSH1 0x40 MLOAD SWAP1 DUP2 MSTORE LOG3 PUSH1 0x1 DUP1 SSTORE STOP JUMPDEST PUSH1 0x40 MLOAD PUSH3 0x461BCD PUSH1 0xE5 SHL DUP2 MSTORE PUSH1 0x4 DUP2 ADD DUP5 SWAP1 MSTORE PUSH1 0xF PUSH1 0x24 DUP3 ADD MSTORE PUSH15 0x151C985B9CD9995C8819985A5B1959 PUSH1 0x8A SHL PUSH1 0x44 DUP3 ADD MSTORE DUP7 SWAP1 REVERT JUMPDEST PUSH2 0x1749 JUMP JUMPDEST PUSH1 0x40 MLOAD PUSH3 0x461BCD PUSH1 0xE5 SHL DUP2 MSTORE PUSH1 0x4 DUP2 ADD DUP4 SWAP1 MSTORE PUSH1 0x11 PUSH1 0x24 DUP3 ADD MSTORE PUSH17 0x141C9BDC1BDCD85B081C995A9958DD1959 PUSH1 0x7A SHL PUSH1 0x44 DUP3 ADD MSTORE DUP6 SWAP1 REVERT JUMPDEST PUSH1 0x40 MLOAD PUSH3 0x461BCD PUSH1 0xE5 SHL DUP2 MSTORE PUSH1 0x4 DUP2 ADD DUP6 SWAP1 MSTORE PUSH1 0x12 PUSH1 0x24 DUP3 ADD MSTORE PUSH18 0x145D5BDC9D5B481B9BDD081C995858DA1959 PUSH1 0x72 SHL PUSH1 0x44 DUP3 ADD MSTORE DUP8 SWAP1 REVERT JUMPDEST PUSH1 0x40 MLOAD PUSH3 0x461BCD PUSH1 0xE5 SHL DUP2 MSTORE PUSH1 0x4 DUP2 ADD DUP6 SWAP1 MSTORE PUSH1 0xD PUSH1 0x24 DUP3 ADD MSTORE PUSH13 0x139BC81D9BDD195CC818D85CDD PUSH1 0x9A SHL PUSH1 0x44 DUP3 ADD MSTORE PUSH1 0x64 SWAP1 REVERT JUMPDEST PUSH1 0x40 MLOAD PUSH3 0x461BCD PUSH1 0xE5 SHL DUP2 MSTORE PUSH1 0x4 DUP2 ADD DUP4 SWAP1 MSTORE PUSH1 0x18 PUSH1 0x24 DUP3 ADD MSTORE PUSH32 0x566F74696E67207374696C6C20696E2070726F67726573730000000000000000 PUSH1 0x44 DUP3 ADD MSTORE PUSH1 0x64 SWAP1 REVERT JUMPDEST PUSH1 0x40 MLOAD PUSH4 0x3EE5AEB5 PUSH1 0xE0 SHL DUP2 MSTORE PUSH1 0x4 SWAP1 REVERT JUMPDEST CALLVALUE PUSH2 0x1F8 JUMPI PUSH1 0x20 CALLDATASIZE PUSH1 0x3 NOT ADD SLT PUSH2 0x1F8 JUMPI PUSH2 0x18D4 PUSH2 0x1AC9 JUMP JUMPDEST PUSH2 0x18DC PUSH2 0x1CFA JUMP JUMPDEST PUSH1 0x1 DUP1 PUSH1 0xA0 SHL SUB DUP1 SWAP2 AND SWAP1 DUP2 PUSH1 0x0 MSTORE PUSH1 0x2 PUSH1 0x20 MSTORE PUSH2 0x1901 PUSH1 0xFF PUSH1 0x40 PUSH1 0x0 KECCAK256 SLOAD AND PUSH2 0x1E9A JUMP JUMPDEST DUP1 PUSH1 0x0 SLOAD AND DUP3 EQ PUSH2 0x19EE JUMPI PUSH1 0x0 DUP3 DUP2 MSTORE PUSH1 0x2 PUSH1 0x20 MSTORE PUSH1 0x40 DUP2 KECCAK256 DUP1 SLOAD PUSH1 0xFF NOT AND SWAP1 SSTORE JUMPDEST PUSH1 0x3 SWAP1 DUP2 SLOAD DUP1 DUP3 LT ISZERO PUSH2 0x19E5 JUMPI DUP5 DUP5 PUSH2 0x193B DUP5 PUSH2 0x1E1F JUMP JUMPDEST SWAP1 SLOAD SWAP1 DUP7 SHL SHR AND EQ PUSH2 0x1957 JUMPI POP PUSH2 0x1952 SWAP2 POP PUSH2 0x1ED5 JUMP JUMPDEST PUSH2 0x1923 JUMP JUMPDEST PUSH1 0x0 NOT SWAP2 DUP2 DUP4 ADD SWAP2 DUP3 GT PUSH2 0x971 JUMPI PUSH2 0xE70 DUP6 PUSH2 0x1975 PUSH2 0x1982 SWAP5 PUSH2 0x1E1F JUMP JUMPDEST SWAP1 SLOAD SWAP1 DUP8 SHL SHR AND SWAP2 PUSH2 0x1E1F JUMP JUMPDEST DUP2 SLOAD DUP1 ISZERO PUSH2 0x19CF JUMPI ADD SWAP2 PUSH2 0x1995 DUP4 PUSH2 0x1E1F JUMP JUMPDEST SWAP1 SWAP2 DUP3 SLOAD SWAP2 DUP5 SHL SHL NOT AND SWAP1 SSTORE SSTORE JUMPDEST PUSH32 0x3AC963493DF564DE734D98633F1145D21512E282BA4C02D3C1011119BF7F2862 PUSH1 0x20 PUSH1 0x40 MLOAD TIMESTAMP DUP2 MSTORE LOG2 STOP JUMPDEST PUSH4 0x4E487B71 PUSH1 0xE0 SHL PUSH1 0x0 MSTORE PUSH1 0x31 PUSH1 0x4 MSTORE PUSH1 0x24 PUSH1 0x0 REVERT JUMPDEST POP POP POP POP PUSH2 0x19A3 JUMP JUMPDEST PUSH1 0x40 MLOAD PUSH3 0x461BCD PUSH1 0xE5 SHL DUP2 MSTORE PUSH1 0x20 PUSH1 0x4 DUP3 ADD MSTORE PUSH1 0x13 PUSH1 0x24 DUP3 ADD MSTORE PUSH19 0x21B0B73737BA103932B6B7BB329037BBB732B9 PUSH1 0x69 SHL PUSH1 0x44 DUP3 ADD MSTORE PUSH1 0x64 SWAP1 REVERT JUMPDEST CALLVALUE PUSH2 0x1F8 JUMPI PUSH1 0x20 CALLDATASIZE PUSH1 0x3 NOT ADD SLT PUSH2 0x1F8 JUMPI PUSH1 0x1 PUSH1 0x1 PUSH1 0xA0 SHL SUB PUSH2 0x1A4A PUSH2 0x1AC9 JUMP JUMPDEST AND PUSH1 0x0 MSTORE PUSH1 0x2 PUSH1 0x20 MSTORE PUSH1 0x40 PUSH1 0x0 KECCAK256 PUSH1 0xFF DUP2 SLOAD AND PUSH2 0x1AC5 PUSH1 0x1 DUP4 ADD SLOAD SWAP3 PUSH2 0x1AB7 PUSH1 0x2 DUP3 ADD SLOAD SWAP2 PUSH1 0x3 DUP2 ADD SLOAD PUSH2 0x1A8C PUSH1 0x5 PUSH2 0x1A85 PUSH1 0x4 DUP6 ADD PUSH2 0x1B3B JUMP JUMPDEST SWAP4 ADD PUSH2 0x1B3B JUMP JUMPDEST SWAP4 PUSH1 0x40 MLOAD SWAP8 DUP9 SWAP8 ISZERO ISZERO DUP9 MSTORE PUSH1 0x20 DUP9 ADD MSTORE PUSH1 0x40 DUP8 ADD MSTORE PUSH1 0x60 DUP7 ADD MSTORE PUSH1 0xC0 PUSH1 0x80 DUP7 ADD MSTORE PUSH1 0xC0 DUP6 ADD SWAP1 PUSH2 0x1BE1 JUMP JUMPDEST SWAP1 DUP4 DUP3 SUB PUSH1 0xA0 DUP6 ADD MSTORE PUSH2 0x1BE1 JUMP JUMPDEST SUB SWAP1 RETURN JUMPDEST PUSH1 0x4 CALLDATALOAD SWAP1 PUSH1 0x1 PUSH1 0x1 PUSH1 0xA0 SHL SUB DUP3 AND DUP3 SUB PUSH2 0x1F8 JUMPI JUMP JUMPDEST SWAP1 PUSH1 0x1 DUP3 DUP2 SHR SWAP3 AND DUP1 ISZERO PUSH2 0x1B0F JUMPI JUMPDEST PUSH1 0x20 DUP4 LT EQ PUSH2 0x1AF9 JUMPI JUMP JUMPDEST PUSH4 0x4E487B71 PUSH1 0xE0 SHL PUSH1 0x0 MSTORE PUSH1 0x22 PUSH1 0x4 MSTORE PUSH1 0x24 PUSH1 0x0 REVERT JUMPDEST SWAP2 PUSH1 0x7F AND SWAP2 PUSH2 0x1AEE JUMP JUMPDEST SWAP1 PUSH1 0x1F DUP1 NOT SWAP2 ADD AND DUP2 ADD SWAP1 DUP2 LT PUSH8 0xFFFFFFFFFFFFFFFF DUP3 GT OR PUSH2 0x945 JUMPI PUSH1 0x40 MSTORE JUMP JUMPDEST SWAP1 PUSH1 0x40 MLOAD SWAP2 DUP3 PUSH1 0x0 DUP3 SLOAD SWAP3 PUSH2 0x1B4F DUP5 PUSH2 0x1ADF JUMP JUMPDEST SWAP1 DUP2 DUP5 MSTORE PUSH1 0x1 SWAP5 DUP6 DUP2 AND SWAP1 DUP2 PUSH1 0x0 EQ PUSH2 0x1BBE JUMPI POP PUSH1 0x1 EQ PUSH2 0x1B7B JUMPI JUMPDEST POP POP PUSH2 0x1B79 SWAP3 POP SUB DUP4 PUSH2 0x1B19 JUMP JUMPDEST JUMP JUMPDEST SWAP1 SWAP4 SWAP2 POP PUSH1 0x0 MSTORE PUSH1 0x20 SWAP1 DUP2 PUSH1 0x0 KECCAK256 SWAP4 PUSH1 0x0 SWAP2 JUMPDEST DUP2 DUP4 LT PUSH2 0x1BA6 JUMPI POP POP PUSH2 0x1B79 SWAP4 POP DUP3 ADD ADD CODESIZE DUP1 PUSH2 0x1B6B JUMP JUMPDEST DUP6 SLOAD DUP9 DUP5 ADD DUP6 ADD MSTORE SWAP5 DUP6 ADD SWAP5 DUP8 SWAP5 POP SWAP2 DUP4 ADD SWAP2 PUSH2 0x1B8E JUMP JUMPDEST SWAP2 POP POP PUSH2 0x1B79 SWAP5 POP PUSH1 0x20 SWAP3 POP PUSH1 0xFF NOT AND DUP3 DUP5 ADD MSTORE ISZERO ISZERO PUSH1 0x5 SHL DUP3 ADD ADD CODESIZE DUP1 PUSH2 0x1B6B JUMP JUMPDEST SWAP2 SWAP1 DUP3 MLOAD SWAP3 DUP4 DUP3 MSTORE PUSH1 0x0 JUMPDEST DUP5 DUP2 LT PUSH2 0x1C0D JUMPI POP POP DUP3 PUSH1 0x0 PUSH1 0x20 DUP1 SWAP5 SWAP6 DUP5 ADD ADD MSTORE PUSH1 0x1F DUP1 NOT SWAP2 ADD AND ADD ADD SWAP1 JUMP JUMPDEST PUSH1 0x20 DUP2 DUP4 ADD DUP2 ADD MLOAD DUP5 DUP4 ADD DUP3 ADD MSTORE ADD PUSH2 0x1BEC JUMP JUMPDEST PUSH8 0xFFFFFFFFFFFFFFFF DUP2 GT PUSH2 0x945 JUMPI PUSH1 0x1F ADD PUSH1 0x1F NOT AND PUSH1 0x20 ADD SWAP1 JUMP JUMPDEST DUP2 PUSH1 0x1F DUP3 ADD SLT ISZERO PUSH2 0x1F8 JUMPI DUP1 CALLDATALOAD SWAP1 PUSH2 0x1C54 DUP3 PUSH2 0x1C21 JUMP JUMPDEST SWAP3 PUSH2 0x1C62 PUSH1 0x40 MLOAD SWAP5 DUP6 PUSH2 0x1B19 JUMP JUMPDEST DUP3 DUP5 MSTORE PUSH1 0x20 DUP4 DUP4 ADD ADD GT PUSH2 0x1F8 JUMPI DUP2 PUSH1 0x0 SWAP3 PUSH1 0x20 DUP1 SWAP4 ADD DUP4 DUP7 ADD CALLDATACOPY DUP4 ADD ADD MSTORE SWAP1 JUMP JUMPDEST PUSH1 0x60 PUSH1 0x3 NOT DUP3 ADD SLT PUSH2 0x1F8 JUMPI PUSH1 0x4 CALLDATALOAD PUSH1 0x1 PUSH1 0x1 PUSH1 0xA0 SHL SUB DUP2 AND DUP2 SUB PUSH2 0x1F8 JUMPI SWAP2 PUSH8 0xFFFFFFFFFFFFFFFF PUSH1 0x24 CALLDATALOAD DUP2 DUP2 GT PUSH2 0x1F8 JUMPI DUP4 PUSH2 0x1CC4 SWAP2 PUSH1 0x4 ADD PUSH2 0x1C3D JUMP JUMPDEST SWAP3 PUSH1 0x44 CALLDATALOAD SWAP2 DUP3 GT PUSH2 0x1F8 JUMPI PUSH2 0x1CDB SWAP2 PUSH1 0x4 ADD PUSH2 0x1C3D JUMP JUMPDEST SWAP1 JUMP JUMPDEST CALLVALUE PUSH2 0x1F8 JUMPI PUSH1 0x0 CALLDATASIZE PUSH1 0x3 NOT ADD SLT PUSH2 0x1F8 JUMPI PUSH1 0x20 PUSH1 0x40 MLOAD PUSH1 0x3C DUP2 MSTORE RETURN JUMPDEST PUSH1 0x0 SLOAD PUSH1 0x1 PUSH1 0x1 PUSH1 0xA0 SHL SUB AND CALLER SUB PUSH2 0x1D0E JUMPI JUMP JUMPDEST PUSH1 0x40 MLOAD PUSH4 0x118CDAA7 PUSH1 0xE0 SHL DUP2 MSTORE CALLER PUSH1 0x4 DUP3 ADD MSTORE PUSH1 0x24 SWAP1 REVERT JUMPDEST ISZERO PUSH2 0x1D2D JUMPI JUMP JUMPDEST PUSH1 0x40 MLOAD PUSH3 0x461BCD PUSH1 0xE5 SHL DUP2 MSTORE PUSH1 0x20 PUSH1 0x4 DUP3 ADD MSTORE PUSH1 0xF PUSH1 0x24 DUP3 ADD MSTORE PUSH15 0x496E76616C69642061646472657373 PUSH1 0x88 SHL PUSH1 0x44 DUP3 ADD MSTORE PUSH1 0x64 SWAP1 REVERT JUMPDEST ISZERO PUSH2 0x1D6B JUMPI JUMP JUMPDEST PUSH1 0x40 MLOAD PUSH3 0x461BCD PUSH1 0xE5 SHL DUP2 MSTORE PUSH1 0x20 PUSH1 0x4 DUP3 ADD MSTORE PUSH1 0x16 PUSH1 0x24 DUP3 ADD MSTORE PUSH22 0x10D85B9B9BDD081D185C99D95D0818DBDB9D1C9858DD PUSH1 0x52 SHL PUSH1 0x44 DUP3 ADD MSTORE PUSH1 0x64 SWAP1 REVERT JUMPDEST ISZERO PUSH2 0x1DB0 JUMPI JUMP JUMPDEST PUSH1 0x40 MLOAD PUSH3 0x461BCD PUSH1 0xE5 SHL DUP2 MSTORE PUSH1 0x20 PUSH1 0x4 DUP3 ADD MSTORE PUSH1 0xC PUSH1 0x24 DUP3 ADD MSTORE PUSH12 0x496E76616C6964206E616D65 PUSH1 0xA0 SHL PUSH1 0x44 DUP3 ADD MSTORE PUSH1 0x64 SWAP1 REVERT JUMPDEST ISZERO PUSH2 0x1DEB JUMPI JUMP JUMPDEST PUSH1 0x40 MLOAD PUSH3 0x461BCD PUSH1 0xE5 SHL DUP2 MSTORE PUSH1 0x20 PUSH1 0x4 DUP3 ADD MSTORE PUSH1 0xC PUSH1 0x24 DUP3 ADD MSTORE PUSH12 0x496E76616C696420726F6C65 PUSH1 0xA0 SHL PUSH1 0x44 DUP3 ADD MSTORE PUSH1 0x64 SWAP1 REVERT JUMPDEST PUSH1 0x3 SLOAD DUP2 LT ISZERO PUSH2 0x1E56 JUMPI PUSH1 0x3 PUSH1 0x0 MSTORE PUSH32 0xC2575A0E9E593C00F959F8C92F12DB2869C3395A3B0502D05E2516446F71F85B ADD SWAP1 PUSH1 0x0 SWAP1 JUMP JUMPDEST PUSH4 0x4E487B71 PUSH1 0xE0 SHL PUSH1 0x0 MSTORE PUSH1 0x32 PUSH1 0x4 MSTORE PUSH1 0x24 PUSH1 0x0 REVERT JUMPDEST SWAP4 SWAP3 SWAP2 PUSH2 0x1E95 SWAP1 PUSH2 0x1E87 PUSH1 0x40 SWAP4 PUSH1 0x60 DUP9 MSTORE PUSH1 0x60 DUP9 ADD SWAP1 PUSH2 0x1BE1 JUMP JUMPDEST SWAP1 DUP7 DUP3 SUB PUSH1 0x20 DUP9 ADD MSTORE PUSH2 0x1BE1 JUMP JUMPDEST SWAP4 ADD MSTORE JUMP JUMPDEST ISZERO PUSH2 0x1EA1 JUMPI JUMP JUMPDEST PUSH1 0x40 MLOAD PUSH3 0x461BCD PUSH1 0xE5 SHL DUP2 MSTORE PUSH1 0x20 PUSH1 0x4 DUP3 ADD MSTORE PUSH1 0xC PUSH1 0x24 DUP3 ADD MSTORE PUSH12 0x2737BA10309036B2B6B132B9 PUSH1 0xA1 SHL PUSH1 0x44 DUP3 ADD MSTORE PUSH1 0x64 SWAP1 REVERT JUMPDEST PUSH1 0x0 NOT DUP2 EQ PUSH2 0x971 JUMPI PUSH1 0x1 ADD SWAP1 JUMP JUMPDEST PUSH1 0x40 MLOAD CALLVALUE DUP2 MSTORE TIMESTAMP PUSH1 0x20 DUP3 ADD MSTORE PUSH32 0x363F315F930A17D1266B86A20D6DD34B1CFBC5A9DB9F13A65D06A689C3A2AF8A PUSH1 0x40 CALLER SWAP3 LOG2 JUMP JUMPDEST ISZERO PUSH2 0x1F1F JUMPI JUMP JUMPDEST PUSH1 0x40 MLOAD PUSH3 0x461BCD PUSH1 0xE5 SHL DUP2 MSTORE PUSH1 0x20 PUSH1 0x4 DUP3 ADD MSTORE PUSH1 0x12 PUSH1 0x24 DUP3 ADD MSTORE PUSH18 0x496E73756666696369656E742066756E6473 PUSH1 0x70 SHL PUSH1 0x44 DUP3 ADD MSTORE PUSH1 0x64 SWAP1 REVERT JUMPDEST SWAP2 SWAP1 DUP3 ADD DUP1 SWAP3 GT PUSH2 0x971 JUMPI JUMP JUMPDEST PUSH1 0x4 SLOAD DUP2 LT ISZERO PUSH2 0x1E56 JUMPI PUSH1 0x9 SWAP1 PUSH1 0x4 PUSH1 0x0 MSTORE MUL PUSH32 0x8A35ACFBC15FF81A39AE7D344FD709F28E8600B4AA8C65C6B64BFE7FE36BD19B ADD SWAP1 PUSH1 0x0 SWAP1 JUMP JUMPDEST ISZERO PUSH2 0x1FA8 JUMPI JUMP JUMPDEST PUSH1 0x40 MLOAD PUSH3 0x461BCD PUSH1 0xE5 SHL DUP2 MSTORE PUSH1 0x20 PUSH1 0x4 DUP3 ADD MSTORE PUSH1 0x17 PUSH1 0x24 DUP3 ADD MSTORE PUSH32 0x50726F706F73616C20646F6573206E6F74206578697374000000000000000000 PUSH1 0x44 DUP3 ADD MSTORE PUSH1 0x64 SWAP1 REVERT JUMPDEST ISZERO PUSH2 0x1FF4 JUMPI JUMP JUMPDEST PUSH1 0x40 MLOAD PUSH3 0x461BCD PUSH1 0xE5 SHL DUP2 MSTORE PUSH1 0x20 PUSH1 0x4 DUP3 ADD MSTORE PUSH1 0x19 PUSH1 0x24 DUP3 ADD MSTORE PUSH32 0x50726F706F73616C20616C726561647920657865637574656400000000000000 PUSH1 0x44 DUP3 ADD MSTORE PUSH1 0x64 SWAP1 REVERT JUMPDEST DUP2 DUP2 MUL SWAP3 SWAP2 DUP2 ISZERO SWAP2 DUP5 DIV EQ OR ISZERO PUSH2 0x971 JUMPI JUMP JUMPDEST PUSH2 0x2055 SWAP1 PUSH2 0x1F66 JUMP JUMPDEST POP PUSH1 0x6 DUP2 ADD SLOAD TIMESTAMP GT ISZERO PUSH2 0x20D3 JUMPI PUSH2 0x2075 PUSH1 0x5 PUSH1 0x4 DUP4 ADD SLOAD SWAP3 ADD SLOAD DUP3 PUSH2 0x1F59 JUMP JUMPDEST SWAP1 DUP2 ISZERO PUSH2 0x20CC JUMPI PUSH1 0x3 SLOAD PUSH1 0x64 DUP4 MUL SWAP1 DUP4 DUP3 DIV PUSH1 0x64 SUB PUSH2 0x971 JUMPI PUSH1 0x7 SLOAD PUSH2 0x209A SWAP2 PUSH2 0x2039 JUMP JUMPDEST GT ISZERO SWAP2 PUSH1 0x64 DUP3 MUL SWAP2 DUP1 DUP4 DIV PUSH1 0x64 EQ SWAP1 ISZERO OR ISZERO PUSH2 0x971 JUMPI PUSH1 0x8 SLOAD PUSH2 0x20BC SWAP2 PUSH2 0x2039 JUMP JUMPDEST GT ISZERO DUP2 PUSH2 0x20C7 JUMPI POP SWAP1 JUMP JUMPDEST SWAP1 POP SWAP1 JUMP JUMPDEST POP POP PUSH1 0x0 SWAP1 JUMP JUMPDEST POP PUSH1 0x0 SWAP1 JUMP JUMPDEST ISZERO PUSH2 0x20E0 JUMPI JUMP JUMPDEST PUSH1 0x40 MLOAD PUSH3 0x461BCD PUSH1 0xE5 SHL DUP2 MSTORE PUSH1 0x20 PUSH1 0x4 DUP3 ADD MSTORE PUSH1 0x12 PUSH1 0x24 DUP3 ADD MSTORE PUSH18 0x496E76616C69642070657263656E74616765 PUSH1 0x70 SHL PUSH1 0x44 DUP3 ADD MSTORE PUSH1 0x64 SWAP1 REVERT INVALID LOG2 PUSH5 0x6970667358 0x22 SLT KECCAK256 0xC1 0xB1 PUSH6 0xD84B421C8B44 GASPRICE 0xB2 PUSH14 0x52DD0C6E1D959E46D3A868532F91 MUL BALANCE 0xE 0xE 0xDF ORIGIN PUSH5 0x736F6C6343 STOP ADDMOD EQ STOP CALLER "},"methodIdentifiers":{"MAX_ACTIVE_PROPOSALS()":"a91937ad","MAX_MEMBERS()":"ea0e35b1","MAX_PROPOSAL_AMOUNT()":"3340a176","MAX_PROPOSAL_DURATION()":"bd968216","MIN_PROPOSAL_DURATION()":"944ee22d","activeProposalsCount()":"2116c347","addMember(address,string,string)":"76c19546","approvalPercentage()":"3008d437","createProposal(string,address,uint256,uint256)":"8743dae6","executeProposal(uint256)":"0d61b519","getAllMembers()":"7c0f6b35","getBalance()":"12065fe0","getMemberCount()":"997072f7","getMemberInfo(address)":"5f1231ea","getProposal(uint256)":"c7f758a8","hasVoted(uint256,address)":"43859632","isMember(address)":"a230c524","isProposalApproved(uint256)":"9abcc0cc","members(address)":"08ae4b0c","owner()":"8da5cb5b","proposalCount()":"da35c664","quorumPercentage()":"4fa76ec9","removeMember(address)":"0b1ca49a","renounceOwnership()":"715018a6","setApprovalPercentage(uint256)":"784f80f8","setQuorumPercentage(uint256)":"32f6a1dc","transferOwnership(address)":"f2fde38b","updateMember(address,string,string)":"3f66a451","vote(uint256,bool)":"c9d27afe"}}}}}