{"contracts/ReentrancyAttacker.sol":{"ReentrancyAttacker":{"abi":[{"inputs":[{"internalType":"address","name":"_target","type":"address"}],"stateMutability":"nonpayable","type":"constructor"},{"anonymous":false,"inputs":[{"indexed":false,"internalType":"uint256","name":"count","type":"uint256"}],"name":"AttackAttempted","type":"event"},{"anonymous":false,"inputs":[{"indexed":false,"internalType":"uint256","name":"amount","type":"uint256"},{"indexed":false,"internalType":"uint256","name":"totalReceived","type":"uint256"}],"name":"FundsReceived","type":"event"},{"inputs":[],"name":"MAX_ATTACKS","outputs":[{"internalType":"uint256","name":"","type":"uint256"}],"stateMutability":"view","type":"function"},{"inputs":[],"name":"attackCount","outputs":[{"internalType":"uint256","name":"","type":"uint256"}],"stateMutability":"view","type":"function"},{"inputs":[],"name":"fundsReceived","outputs":[{"internalType":"uint256","name":"","type":"uint256"}],"stateMutability":"view","type":"function"},{"inputs":[],"name":"getBalance","outputs":[{"internalType":"uint256","name":"","type":"uint256"}],"stateMutability":"view","type":"function"},{"inputs":[],"name":"target","outputs":[{"internalType":"contract ISafeClub","name":"","type":"address"}],"stateMutability":"view","type":"function"},{"inputs":[],"name":"withdraw","outputs":[],"stateMutability":"nonpayable","type":"function"},{"stateMutability":"payable","type":"receive"}],"evm":{"bytecode":{"linkReferences":{},"object":"6080346100bf57601f61056438819003918201601f19168301916001600160401b038311848410176100c4578084926020946040528339810103126100bf57516001600160a01b038116908190036100bf57801561007a57600080546001600160a01b03191691909117905560405161048990816100db8239f35b60405162461bcd60e51b815260206004820152601660248201527f496e76616c6964207461726765742061646472657373000000000000000000006044820152606490fd5b600080fd5b634e487b7160e01b600052604160045260246000fdfe6080604090808252600490813610156101d9575b50361561001f57600080fd5b600254600090348101809111610191578060025560015490600582106000146101a45750600019811461019157602060017f9de7696c1ddde10847858955a8530cc578ad5b8a8887b231fad51acf0a4cfa0a9201806001558551908152a180546001600160a01b0316803b1561018d578180916024865180958193630d61b51960e01b835281898401525af19182610163575b50906100d857600191819060033d11610153575b506308c379a01461010d575b506100da575b005b7f063d07ee72a7483b8e07ca09054bb686775c5c030f945dde3823a5257a0a93eb906002548151903482526020820152a1005b6101156103e1565b156100d25790507f063d07ee72a7483b8e07ca09054bb686775c5c030f945dde3823a5257a0a93eb826002548151903482526020820152a1386100d2565b905081803e805160e01c386100c6565b67ffffffffffffffff811161017a578452386100b2565b634e487b7160e01b825260418452602482fd5b5080fd5b506011602492634e487b7160e01b835252fd5b915050827f063d07ee72a7483b8e07ca09054bb686775c5c030f945dde3823a5257a0a93eb93925051903482526020820152a1005b600090813560e01c90816311318b331461038d5750806312065fe0146103725780633ccfd60b14610286578063407c282114610267578063b36303fe1461024b5763d4b839920361001357823461018d578160031936011261018d57905490516001600160a01b039091168152602090f35b50823461018d578160031936011261018d576020905160058152f35b50823461018d578160031936011261018d576020906001549051908152f35b50913461036e578260031936011261036e57478015610334578380808093335af13d1561032f573d67ffffffffffffffff811161031c578251906102d4601f8201601f1916602001836103a9565b81528460203d92013e5b156102e7578280f35b906020606492519162461bcd60e51b8352820152600f60248201526e15da5d1a191c985dc819985a5b1959608a1b6044820152fd5b634e487b7160e01b855260418452602485fd5b6102de565b815162461bcd60e51b815260208185015260146024820152734e6f2066756e647320746f20776974686472617760601b6044820152606490fd5b8280fd5b50823461018d578160031936011261018d5751478152602090f35b90503461018d578160031936011261018d576020906002548152f35b90601f8019910116810190811067ffffffffffffffff8211176103cb57604052565b634e487b7160e01b600052604160045260246000fd5b600060443d1061043f57604051600319913d83016004833e815167ffffffffffffffff918282113d6024840111176104425781840194855193841161044a573d85010160208487010111610442575061043f929101602001906103a9565b90565b949350505050565b5094935050505056fea26469706673582212206e9ceaaaacb4d672818d7403164b6c90472326c9443805bc3e6941771cd0f06e64736f6c63430008140033","opcodes":"PUSH1 0x80 CALLVALUE PUSH2 0xBF JUMPI PUSH1 0x1F PUSH2 0x564 CODESIZE DUP2 SWAP1 SUB SWAP2 DUP3 ADD PUSH1 0x1F NOT AND DUP4 ADD SWAP2 PUSH1 0x1 PUSH1 0x1 PUSH1 0x40 SHL SUB DUP4 GT DUP5 DUP5 LT OR PUSH2 0xC4 JUMPI DUP1 DUP5 SWAP3 PUSH1 0x20 SWAP5 PUSH1 0x40 MSTORE DUP4 CODECOPY DUP2 ADD SUB SLT PUSH2 0xBF JUMPI MLOAD PUSH1 0x1 PUSH1 0x1 PUSH1 0xA0 SHL SUB DUP2 AND SWAP1 DUP2 SWAP1 SUB PUSH2 0xBF JUMPI DUP1 ISZERO PUSH2 0x7A JUMPI PUSH1 0x0 DUP1 SLOAD PUSH1 0x1 PUSH1 0x1 PUSH1 0xA0 SHL SUB NOT AND SWAP2 SWAP1 SWAP2 OR SWAP1 SSTORE PUSH1 0x40 MLOAD PUSH2 0x489 SWAP1 DUP2 PUSH2 0xDB DUP3 CODECOPY RETURN JUMPDEST PUSH1 0x40 MLOAD PUSH3 0x461BCD PUSH1 0xE5 SHL DUP2 MSTORE PUSH1 0x20 PUSH1 0x4 DUP3 ADD MSTORE PUSH1 0x16 PUSH1 0x24 DUP3 ADD MSTORE PUSH32 0x496E76616C696420746172676574206164647265737300000000000000000000 PUSH1 0x44 DUP3 ADD MSTORE PUSH1 0x64 SWAP1 REVERT JUMPDEST PUSH1 0x0 DUP1 REVERT JUMPDEST PUSH4 0x4E487B71 PUSH1 0xE0 SHL PUSH1 0x0 MSTORE PUSH1 0x41 PUSH1 0x4 MSTORE PUSH1 0x24 PUSH1 0x0 REVERT INVALID PUSH1 0x80 PUSH1 0x40 SWAP1 DUP1 DUP3 MSTORE PUSH1 0x4 SWAP1 DUP2 CALLDATASIZE LT ISZERO PUSH2 0x1D9 JUMPI JUMPDEST POP CALLDATASIZE ISZERO PUSH2 0x1F JUMPI PUSH1 0x0 DUP1 REVERT JUMPDEST PUSH1 0x2 SLOAD PUSH1 0x0 SWAP1 CALLVALUE DUP2 ADD DUP1 SWAP2 GT PUSH2 0x191 JUMPI DUP1 PUSH1 0x2 SSTORE PUSH1 0x1 SLOAD SWAP1 PUSH1 0x5 DUP3 LT PUSH1 0x0 EQ PUSH2 0x1A4 JUMPI POP PUSH1 0x0 NOT DUP2 EQ PUSH2 0x191 JUMPI PUSH1 0x20 PUSH1 0x1 PUSH32 0x9DE7696C1DDDE10847858955A8530CC578AD5B8A8887B231FAD51ACF0A4CFA0A SWAP3 ADD DUP1 PUSH1 0x1 SSTORE DUP6 MLOAD SWAP1 DUP2 MSTORE LOG1 DUP1 SLOAD PUSH1 0x1 PUSH1 0x1 PUSH1 0xA0 SHL SUB AND DUP1 EXTCODESIZE ISZERO PUSH2 0x18D JUMPI DUP2 DUP1 SWAP2 PUSH1 0x24 DUP7 MLOAD DUP1 SWAP6 DUP2 SWAP4 PUSH4 0xD61B519 PUSH1 0xE0 SHL DUP4 MSTORE DUP2 DUP10 DUP5 ADD MSTORE GAS CALL SWAP2 DUP3 PUSH2 0x163 JUMPI JUMPDEST POP SWAP1 PUSH2 0xD8 JUMPI PUSH1 0x1 SWAP2 DUP2 SWAP1 PUSH1 0x3 RETURNDATASIZE GT PUSH2 0x153 JUMPI JUMPDEST POP PUSH4 0x8C379A0 EQ PUSH2 0x10D JUMPI JUMPDEST POP PUSH2 0xDA JUMPI JUMPDEST STOP JUMPDEST PUSH32 0x63D07EE72A7483B8E07CA09054BB686775C5C030F945DDE3823A5257A0A93EB SWAP1 PUSH1 0x2 SLOAD DUP2 MLOAD SWAP1 CALLVALUE DUP3 MSTORE PUSH1 0x20 DUP3 ADD MSTORE LOG1 STOP JUMPDEST PUSH2 0x115 PUSH2 0x3E1 JUMP JUMPDEST ISZERO PUSH2 0xD2 JUMPI SWAP1 POP PUSH32 0x63D07EE72A7483B8E07CA09054BB686775C5C030F945DDE3823A5257A0A93EB DUP3 PUSH1 0x2 SLOAD DUP2 MLOAD SWAP1 CALLVALUE DUP3 MSTORE PUSH1 0x20 DUP3 ADD MSTORE LOG1 CODESIZE PUSH2 0xD2 JUMP JUMPDEST SWAP1 POP DUP2 DUP1 RETURNDATACOPY DUP1 MLOAD PUSH1 0xE0 SHR CODESIZE PUSH2 0xC6 JUMP JUMPDEST PUSH8 0xFFFFFFFFFFFFFFFF DUP2 GT PUSH2 0x17A JUMPI DUP5 MSTORE CODESIZE PUSH2 0xB2 JUMP JUMPDEST PUSH4 0x4E487B71 PUSH1 0xE0 SHL DUP3 MSTORE PUSH1 0x41 DUP5 MSTORE PUSH1 0x24 DUP3 REVERT JUMPDEST POP DUP1 REVERT JUMPDEST POP PUSH1 0x11 PUSH1 0x24 SWAP3 PUSH4 0x4E487B71 PUSH1 0xE0 SHL DUP4 MSTORE MSTORE REVERT JUMPDEST SWAP2 POP POP DUP3 PUSH32 0x63D07EE72A7483B8E07CA09054BB686775C5C030F945DDE3823A5257A0A93EB SWAP4 SWAP3 POP MLOAD SWAP1 CALLVALUE DUP3 MSTORE PUSH1 0x20 DUP3 ADD MSTORE LOG1 STOP JUMPDEST PUSH1 0x0 SWAP1 DUP2 CALLDATALOAD PUSH1 0xE0 SHR SWAP1 DUP2 PUSH4 0x11318B33 EQ PUSH2 0x38D JUMPI POP DUP1 PUSH4 0x12065FE0 EQ PUSH2 0x372 JUMPI DUP1 PUSH4 0x3CCFD60B EQ PUSH2 0x286 JUMPI DUP1 PUSH4 0x407C2821 EQ PUSH2 0x267 JUMPI DUP1 PUSH4 0xB36303FE EQ PUSH2 0x24B JUMPI PUSH4 0xD4B83992 SUB PUSH2 0x13 JUMPI DUP3 CALLVALUE PUSH2 0x18D JUMPI DUP2 PUSH1 0x3 NOT CALLDATASIZE ADD SLT PUSH2 0x18D JUMPI SWAP1 SLOAD SWAP1 MLOAD PUSH1 0x1 PUSH1 0x1 PUSH1 0xA0 SHL SUB SWAP1 SWAP2 AND DUP2 MSTORE PUSH1 0x20 SWAP1 RETURN JUMPDEST POP DUP3 CALLVALUE PUSH2 0x18D JUMPI DUP2 PUSH1 0x3 NOT CALLDATASIZE ADD SLT PUSH2 0x18D JUMPI PUSH1 0x20 SWAP1 MLOAD PUSH1 0x5 DUP2 MSTORE RETURN JUMPDEST POP DUP3 CALLVALUE PUSH2 0x18D JUMPI DUP2 PUSH1 0x3 NOT CALLDATASIZE ADD SLT PUSH2 0x18D JUMPI PUSH1 0x20 SWAP1 PUSH1 0x1 SLOAD SWAP1 MLOAD SWAP1 DUP2 MSTORE RETURN JUMPDEST POP SWAP2 CALLVALUE PUSH2 0x36E JUMPI DUP3 PUSH1 0x3 NOT CALLDATASIZE ADD SLT PUSH2 0x36E JUMPI SELFBALANCE DUP1 ISZERO PUSH2 0x334 JUMPI DUP4 DUP1 DUP1 DUP1 SWAP4 CALLER GAS CALL RETURNDATASIZE ISZERO PUSH2 0x32F JUMPI RETURNDATASIZE PUSH8 0xFFFFFFFFFFFFFFFF DUP2 GT PUSH2 0x31C JUMPI DUP3 MLOAD SWAP1 PUSH2 0x2D4 PUSH1 0x1F DUP3 ADD PUSH1 0x1F NOT AND PUSH1 0x20 ADD DUP4 PUSH2 0x3A9 JUMP JUMPDEST DUP2 MSTORE DUP5 PUSH1 0x20 RETURNDATASIZE SWAP3 ADD RETURNDATACOPY JUMPDEST ISZERO PUSH2 0x2E7 JUMPI DUP3 DUP1 RETURN JUMPDEST SWAP1 PUSH1 0x20 PUSH1 0x64 SWAP3 MLOAD SWAP2 PUSH3 0x461BCD PUSH1 0xE5 SHL DUP4 MSTORE DUP3 ADD MSTORE PUSH1 0xF PUSH1 0x24 DUP3 ADD MSTORE PUSH15 0x15DA5D1A191C985DC819985A5B1959 PUSH1 0x8A SHL PUSH1 0x44 DUP3 ADD MSTORE REVERT JUMPDEST PUSH4 0x4E487B71 PUSH1 0xE0 SHL DUP6 MSTORE PUSH1 0x41 DUP5 MSTORE PUSH1 0x24 DUP6 REVERT JUMPDEST PUSH2 0x2DE JUMP JUMPDEST DUP2 MLOAD PUSH3 0x461BCD PUSH1 0xE5 SHL DUP2 MSTORE PUSH1 0x20 DUP2 DUP6 ADD MSTORE PUSH1 0x14 PUSH1 0x24 DUP3 ADD MSTORE PUSH20 0x4E6F2066756E647320746F207769746864726177 PUSH1 0x60 SHL PUSH1 0x44 DUP3 ADD MSTORE PUSH1 0x64 SWAP1 REVERT JUMPDEST DUP3 DUP1 REVERT JUMPDEST POP DUP3 CALLVALUE PUSH2 0x18D JUMPI DUP2 PUSH1 0x3 NOT CALLDATASIZE ADD SLT PUSH2 0x18D JUMPI MLOAD SELFBALANCE DUP2 MSTORE PUSH1 0x20 SWAP1 RETURN JUMPDEST SWAP1 POP CALLVALUE PUSH2 0x18D JUMPI DUP2 PUSH1 0x3 NOT CALLDATASIZE ADD SLT PUSH2 0x18D JUMPI PUSH1 0x20 SWAP1 PUSH1 0x2 SLOAD DUP2 MSTORE RETURN JUMPDEST SWAP1 PUSH1 0x1F DUP1 NOT SWAP2 ADD AND DUP2 ADD SWAP1 DUP2 LT PUSH8 0xFFFFFFFFFFFFFFFF DUP3 GT OR PUSH2 0x3CB JUMPI PUSH1 0x40 MSTORE JUMP JUMPDEST PUSH4 0x4E487B71 PUSH1 0xE0 SHL PUSH1 0x0 MSTORE PUSH1 0x41 PUSH1 0x4 MSTORE PUSH1 0x24 PUSH1 0x0 REVERT JUMPDEST PUSH1 0x0 PUSH1 0x44 RETURNDATASIZE LT PUSH2 0x43F JUMPI PUSH1 0x40 MLOAD PUSH1 0x3 NOT SWAP2 RETURNDATASIZE DUP4 ADD PUSH1 0x4 DUP4 RETURNDATACOPY DUP2 MLOAD PUSH8 0xFFFFFFFFFFFFFFFF SWAP2 DUP3 DUP3 GT RETURNDATASIZE PUSH1 0x24 DUP5 ADD GT OR PUSH2 0x442 JUMPI DUP2 DUP5 ADD SWAP5 DUP6 MLOAD SWAP4 DUP5 GT PUSH2 0x44A JUMPI RETURNDATASIZE DUP6 ADD ADD PUSH1 0x20 DUP5 DUP8 ADD ADD GT PUSH2 0x442 JUMPI POP PUSH2 0x43F SWAP3 SWAP2 ADD PUSH1 0x20 ADD SWAP1 PUSH2 0x3A9 JUMP JUMPDEST SWAP1 JUMP JUMPDEST SWAP5 SWAP4 POP POP POP POP JUMP JUMPDEST POP SWAP5 SWAP4 POP POP POP POP JUMP INVALID LOG2 PUSH5 0x6970667358 0x22 SLT KECCAK256 PUSH15 0x9CEAAAACB4D672818D7403164B6C90 SELFBALANCE 0x23 0x26 0xC9 PREVRANDAO CODESIZE SDIV 0xBC RETURNDATACOPY PUSH10 0x41771CD0F06E64736F6C PUSH4 0x43000814 STOP CALLER "},"methodIdentifiers":{"MAX_ATTACKS()":"b36303fe","attackCount()":"407c2821","fundsReceived()":"11318b33","getBalance()":"12065fe0","target()":"d4b83992","withdraw()":"3ccfd60b"}}}}}