{"contracts/SafeClub.sol":{"SafeClub":{"abi":[{"inputs":[],"stateMutability":"nonpayable","type":"constructor"},{"inputs":[],"name":"EnforcedPause","type":"error"},{"inputs":[],"name":"ExpectedPause","type":"error"},{"inputs":[{"internalType":"address","name":"owner","type":"address"}],"name":"OwnableInvalidOwner","type":"error"},{"inputs":[{"internalType":"address","name":"account","type":"address"}],"name":"OwnableUnauthorizedAccount","type":"error"},{"inputs":[],"name":"ReentrancyGuardReentrantCall","type":"error"},{"anonymous":false,"inputs":[{"indexed":false,"internalType":"uint256","name":"oldApproval","type":"uint256"},{"indexed":false,"internalType":"uint256","name":"newApproval","type":"uint256"},{"indexed":false,"internalType":"uint256","name":"timestamp","type":"uint256"}],"name":"ApprovalUpdated","type":"event"},{"anonymous":false,"inputs":[{"indexed":true,"internalType":"address","name":"by","type":"address"},{"indexed":false,"internalType":"uint256","name":"timestamp","type":"uint256"}],"name":"ContractPaused","type":"event"},{"anonymous":false,"inputs":[{"indexed":true,"internalType":"address","name":"by","type":"address"},{"indexed":false,"internalType":"uint256","name":"timestamp","type":"uint256"}],"name":"ContractUnpaused","type":"event"},{"anonymous":false,"inputs":[{"indexed":true,"internalType":"address","name":"from","type":"address"},{"indexed":false,"internalType":"uint256","name":"amount","type":"uint256"},{"indexed":false,"internalType":"uint256","name":"timestamp","type":"uint256"}],"name":"FundsReceived","type":"event"},{"anonymous":false,"inputs":[{"indexed":true,"internalType":"address","name":"member","type":"address"},{"indexed":false,"internalType":"uint256","name":"timestamp","type":"uint256"}],"name":"MemberAdded","type":"event"},{"anonymous":false,"inputs":[{"indexed":true,"internalType":"address","name":"member","type":"address"},{"indexed":false,"internalType":"uint256","name":"timestamp","type":"uint256"}],"name":"MemberRemoved","type":"event"},{"anonymous":false,"inputs":[{"indexed":true,"internalType":"address","name":"previousOwner","type":"address"},{"indexed":true,"internalType":"address","name":"newOwner","type":"address"}],"name":"OwnershipTransferred","type":"event"},{"anonymous":false,"inputs":[{"indexed":false,"internalType":"address","name":"account","type":"address"}],"name":"Paused","type":"event"},{"anonymous":false,"inputs":[{"indexed":true,"internalType":"uint256","name":"proposalId","type":"uint256"},{"indexed":true,"internalType":"address","name":"proposer","type":"address"},{"indexed":false,"internalType":"string","name":"description","type":"string"},{"indexed":true,"internalType":"address","name":"recipient","type":"address"},{"indexed":false,"internalType":"uint256","name":"amount","type":"uint256"},{"indexed":false,"internalType":"uint256","name":"deadline","type":"uint256"},{"indexed":false,"internalType":"uint256","name":"timestamp","type":"uint256"}],"name":"ProposalCreated","type":"event"},{"anonymous":false,"inputs":[{"indexed":true,"internalType":"uint256","name":"proposalId","type":"uint256"},{"indexed":true,"internalType":"address","name":"recipient","type":"address"},{"indexed":false,"internalType":"uint256","name":"amount","type":"uint256"},{"indexed":false,"internalType":"uint256","name":"timestamp","type":"uint256"}],"name":"ProposalExecuted","type":"event"},{"anonymous":false,"inputs":[{"indexed":false,"internalType":"uint256","name":"oldQuorum","type":"uint256"},{"indexed":false,"internalType":"uint256","name":"newQuorum","type":"uint256"},{"indexed":false,"internalType":"uint256","name":"timestamp","type":"uint256"}],"name":"QuorumUpdated","type":"event"},{"anonymous":false,"inputs":[{"indexed":false,"internalType":"address","name":"account","type":"address"}],"name":"Unpaused","type":"event"},{"anonymous":false,"inputs":[{"indexed":true,"internalType":"uint256","name":"proposalId","type":"uint256"},{"indexed":true,"internalType":"address","name":"voter","type":"address"},{"indexed":false,"internalType":"bool","name":"support","type":"bool"},{"indexed":false,"internalType":"uint256","name":"votesFor","type":"uint256"},{"indexed":false,"internalType":"uint256","name":"votesAgainst","type":"uint256"},{"indexed":false,"internalType":"uint256","name":"timestamp","type":"uint256"}],"name":"VoteCast","type":"event"},{"stateMutability":"payable","type":"fallback"},{"inputs":[],"name":"MAX_ACTIVE_PROPOSALS","outputs":[{"internalType":"uint256","name":"","type":"uint256"}],"stateMutability":"view","type":"function"},{"inputs":[],"name":"MAX_MEMBERS","outputs":[{"internalType":"uint256","name":"","type":"uint256"}],"stateMutability":"view","type":"function"},{"inputs":[],"name":"MAX_PROPOSAL_AMOUNT","outputs":[{"internalType":"uint256","name":"","type":"uint256"}],"stateMutability":"view","type":"function"},{"inputs":[],"name":"MAX_PROPOSAL_DURATION","outputs":[{"internalType":"uint256","name":"","type":"uint256"}],"stateMutability":"view","type":"function"},{"inputs":[],"name":"MIN_PROPOSAL_DURATION","outputs":[{"internalType":"uint256","name":"","type":"uint256"}],"stateMutability":"view","type":"function"},{"inputs":[],"name":"activeProposalsCount","outputs":[{"internalType":"uint256","name":"","type":"uint256"}],"stateMutability":"view","type":"function"},{"inputs":[{"internalType":"address","name":"_member","type":"address"}],"name":"addMember","outputs":[],"stateMutability":"nonpayable","type":"function"},{"inputs":[],"name":"approvalPercentage","outputs":[{"internalType":"uint256","name":"","type":"uint256"}],"stateMutability":"view","type":"function"},{"inputs":[{"internalType":"string","name":"_description","type":"string"},{"internalType":"address payable","name":"_recipient","type":"address"},{"internalType":"uint256","name":"_amount","type":"uint256"},{"internalType":"uint256","name":"_durationInDays","type":"uint256"}],"name":"createProposal","outputs":[],"stateMutability":"nonpayable","type":"function"},{"inputs":[{"internalType":"uint256","name":"_proposalId","type":"uint256"}],"name":"executeProposal","outputs":[],"stateMutability":"nonpayable","type":"function"},{"inputs":[],"name":"getAllMembers","outputs":[{"internalType":"address[]","name":"","type":"address[]"}],"stateMutability":"view","type":"function"},{"inputs":[],"name":"getBalance","outputs":[{"internalType":"uint256","name":"","type":"uint256"}],"stateMutability":"view","type":"function"},{"inputs":[],"name":"getMemberCount","outputs":[{"internalType":"uint256","name":"","type":"uint256"}],"stateMutability":"view","type":"function"},{"inputs":[{"internalType":"uint256","name":"_proposalId","type":"uint256"}],"name":"getProposal","outputs":[{"internalType":"uint256","name":"id","type":"uint256"},{"internalType":"string","name":"description","type":"string"},{"internalType":"address","name":"recipient","type":"address"},{"internalType":"uint256","name":"amount","type":"uint256"},{"internalType":"uint256","name":"votesFor","type":"uint256"},{"internalType":"uint256","name":"votesAgainst","type":"uint256"},{"internalType":"uint256","name":"deadline","type":"uint256"},{"internalType":"bool","name":"executed","type":"bool"}],"stateMutability":"view","type":"function"},{"inputs":[{"internalType":"uint256","name":"_proposalId","type":"uint256"},{"internalType":"address","name":"_voter","type":"address"}],"name":"hasVoted","outputs":[{"internalType":"bool","name":"","type":"bool"}],"stateMutability":"view","type":"function"},{"inputs":[{"internalType":"address","name":"_address","type":"address"}],"name":"isMember","outputs":[{"internalType":"bool","name":"","type":"bool"}],"stateMutability":"view","type":"function"},{"inputs":[{"internalType":"uint256","name":"_proposalId","type":"uint256"}],"name":"isProposalApproved","outputs":[{"internalType":"bool","name":"","type":"bool"}],"stateMutability":"view","type":"function"},{"inputs":[{"internalType":"uint256","name":"","type":"uint256"}],"name":"memberList","outputs":[{"internalType":"address","name":"","type":"address"}],"stateMutability":"view","type":"function"},{"inputs":[{"internalType":"address","name":"","type":"address"}],"name":"members","outputs":[{"internalType":"bool","name":"isActive","type":"bool"},{"internalType":"uint256","name":"joinedAt","type":"uint256"},{"internalType":"uint256","name":"proposalsCreated","type":"uint256"},{"internalType":"uint256","name":"votesCount","type":"uint256"}],"stateMutability":"view","type":"function"},{"inputs":[],"name":"owner","outputs":[{"internalType":"address","name":"","type":"address"}],"stateMutability":"view","type":"function"},{"inputs":[],"name":"pause","outputs":[],"stateMutability":"nonpayable","type":"function"},{"inputs":[],"name":"paused","outputs":[{"internalType":"bool","name":"","type":"bool"}],"stateMutability":"view","type":"function"},{"inputs":[],"name":"proposalCount","outputs":[{"internalType":"uint256","name":"","type":"uint256"}],"stateMutability":"view","type":"function"},{"inputs":[{"internalType":"uint256","name":"","type":"uint256"}],"name":"proposals","outputs":[{"internalType":"uint256","name":"id","type":"uint256"},{"internalType":"string","name":"description","type":"string"},{"internalType":"address payable","name":"recipient","type":"address"},{"internalType":"uint256","name":"amount","type":"uint256"},{"internalType":"uint256","name":"votesFor","type":"uint256"},{"internalType":"uint256","name":"votesAgainst","type":"uint256"},{"internalType":"uint256","name":"deadline","type":"uint256"},{"internalType":"bool","name":"executed","type":"bool"},{"internalType":"bool","name":"exists","type":"bool"},{"internalType":"address","name":"proposer","type":"address"},{"internalType":"uint256","name":"createdAt","type":"uint256"}],"stateMutability":"view","type":"function"},{"inputs":[],"name":"quorumPercentage","outputs":[{"internalType":"uint256","name":"","type":"uint256"}],"stateMutability":"view","type":"function"},{"inputs":[{"internalType":"address","name":"_member","type":"address"}],"name":"removeMember","outputs":[],"stateMutability":"nonpayable","type":"function"},{"inputs":[],"name":"renounceOwnership","outputs":[],"stateMutability":"nonpayable","type":"function"},{"inputs":[{"internalType":"uint256","name":"_percentage","type":"uint256"}],"name":"setApprovalPercentage","outputs":[],"stateMutability":"nonpayable","type":"function"},{"inputs":[{"internalType":"uint256","name":"_percentage","type":"uint256"}],"name":"setQuorumPercentage","outputs":[],"stateMutability":"nonpayable","type":"function"},{"inputs":[{"internalType":"address","name":"newOwner","type":"address"}],"name":"transferOwnership","outputs":[],"stateMutability":"nonpayable","type":"function"},{"inputs":[],"name":"unpause","outputs":[],"stateMutability":"nonpayable","type":"function"},{"inputs":[{"internalType":"uint256","name":"_proposalId","type":"uint256"},{"internalType":"bool","name":"_support","type":"bool"}],"name":"vote","outputs":[],"stateMutability":"nonpayable","type":"function"},{"stateMutability":"payable","type":"receive"}],"evm":{"bytecode":{"linkReferences":{},"object":"6080604090808252346101865733156101705750600080546001600160a01b031980821633908117845584519193926001600160a01b03167f8be0079c531659141344cd1fd0a4f28419497f9722a3daafe3b4186f6b6457e08480a3600180556032600855603c600955608081016001600160401b0381118282101761015c578452600181526003602082014281528583018481526060840191858352338652836020528786209451151560ff801987541691161785555160018501555160028401555191015560045490680100000000000000008210156101485760018201806004558210156101345780600460209252200190339082541617905580514281527fede8eed4383e9241982619b94dd83e488b274cced0fd07b8c0092a393defd52f60203392a251611e6a908161018c8239f35b634e487b7160e01b81526032600452602490fd5b634e487b7160e01b81526041600452602490fd5b634e487b7160e01b83526041600452602483fd5b631e4fbdf760e01b815260006004820152602490fd5b600080fdfe60406080815260049081361015610033575b5050361561002b57610021611a3e565b610029611b56565b005b610021611a3e565b600091823560e01c8063013cf08b1461177357806308ae4b0c146117025780630b1ca49a146115195780630d61b519146111d357806312065fe0146111b85780632116c347146111995780633008d4371461117a57806332f6a1dc146110fd5780633340a176146110d95780633f4ba83a146110475780634385963214610fce5780634fa76ec914610faf5780635c975abb14610f8b578063715018a614610f31578063784f80f814610eb25780637c0f6b3514610df05780638456cb5914610d6b5780638743dae61461084c5780638da5cb5b14610824578063944ee22d14610806578063997072f7146107e95780639abcc0cc14610798578063a230c5241461075a578063a91937ad1461073e578063b307fc6d146106fe578063bd968216146106e0578063c7f758a81461061a578063c9d27afe14610447578063ca6d56dc14610268578063da35c66414610249578063ea0e35b1146102295763f2fde38b146101a05750610011565b34610225576020366003190112610225576101b961198e565b906101c2611a12565b6001600160a01b0391821692831561020f57505082546001600160a01b0319811683178455167f8be0079c531659141344cd1fd0a4f28419497f9722a3daafe3b4186f6b6457e08380a380f35b51631e4fbdf760e01b8152908101849052602490fd5b8280fd5b5050346102455781600319360112610245576020905160648152f35b5080fd5b5050346102455781600319360112610245576020906006549051908152f35b50919034610245576020806003193601126102255761028561198e565b9161028e611a12565b6001600160a01b038316926102a4841515611a5c565b6102b030851415611aa1565b6102b8611a3e565b8385526003835260ff828620541661040c576064865410156103c95781516080810181811067ffffffffffffffff8211176103b65783526001815260038482014281528483018881526060840191898352888a52838852868a209451151560ff80198754169116178555516001850155516002840155519101558554680100000000000000008110156103a3579061037c827fede8eed4383e9241982619b94dd83e488b274cced0fd07b8c0092a393defd52f969798600161039b950190556119c5565b90919082549060031b9160018060a01b03809116831b921b1916179055565b51428152a280f35b634e487b7160e01b865260418752602486fd5b634e487b7160e01b875260418852602487fd5b815162461bcd60e51b8152808701849052601960248201527f53616665436c75623a206c696d6974652061747465696e7465000000000000006044820152606490fd5b815162461bcd60e51b8152808701849052601560248201527453616665436c75623a2064656a61206d656d62726560581b6044820152606490fd5b509034610225578060031936011261022557813590602435908115158203610616573385526020936003855261048260ff8388205416611b95565b61048a611a3e565b6104976006548510611c4d565b838652600585526104b360ff6007848920015460081c16611c91565b838652600585526104cd60ff600784892001541615611ce7565b8386526005855281862094600686015442116105dd576009860133885280825260ff84892054166105a6577f6f6f95f30a8e58dcbd04046390ab11f621176801303e8fd816ddb1002c0004d9949392600361058c93600593338c528152858b20600160ff19825416179055526003848a20016105498154611aed565b905584156105925780880161055e8154611aed565b90555b8701549601549151921515835260208301959095526040820152426060820152339381906080820190565b0390a380f35b81880161059f8154611aed565b9055610561565b50606492519162461bcd60e51b8352820152601360248201527253616665436c75623a2064656a6120766f746560681b6044820152fd5b606492519162461bcd60e51b8352820152601660248201527553616665436c75623a20766f7465207465726d696e6560501b6044820152fd5b8480fd5b5091346106dd5760203660031901126106dd578190833561063e6006548210611c4d565b808252600560205261065b60ff6007858520015460081c16611c91565b81526005602052209081549160018060a01b036002820154169360038201549082015460058301549060068401549261069e600160ff60078801541696016118a8565b976106ba8751998a998a526101008060208c01528a019061194e565b968801526060870152608086015260a085015260c0840152151560e08301520390f35b80fd5b505034610245578160031936011261024557602090516276a7008152f35b5091346106dd5760203660031901126106dd57823592548310156106dd57506107286020926119c5565b905491519160018060a01b039160031b1c168152f35b5050346102455781600319360112610245576020905160148152f35b5050346102455760203660031901126102455760209160ff9082906001600160a01b0361078561198e565b1681526003855220541690519015158152f35b5034610225576020366003190112610225576020926107db60ff6007856107e09535946107c86006548710611c4d565b8581526005895220015460081c16611c91565b611d33565b90519015158152f35b503461022557826003193601126102255760209250549051908152f35b50503461024557816003193601126102455760209051620151808152f35b505034610245578160031936011261024557905490516001600160a01b039091168152602090f35b50346102255760803660031901126102255780359067ffffffffffffffff808311610616573660238401121561061657828201359161088a836119a9565b9061089786519283611870565b838252866024953687878301011161024557858796602098899301838701378401015283356001600160a01b0381169690879003610d67578594604490898235926108f260ff86606494600386359d33835252205416611b95565b6108fa611a3e565b6109058b1515611a5c565b610911308c1415611aa1565b61091c841515611b12565b6802b5e3af16b18800008411610d295761093847851115611be1565b62015180808a0299808b04821490151715610d17578910610cd9576276a7008911610c9b57865115610c5d576101f4875111610c145760146007541015610bc65750506109946006549761098b89611aed565b60065542611c40565b93878b5260058952838b209188835560018301908751988911610bb5575090816109bf8d9354611836565b601f8111610b68575b508a98601f8111600114610acc57807fc063349a9ed4c2f352529d20275a109284941778ebc0f9384b0f7d5f746d812b9a8591610ac1575b508160011b916000199060031b1c19161790555b6002830180546001600160a01b0319168c17905560038301849055820155600581018a905560068101849055600780820180546001600160b01b0319163360101b62010000600160b01b0316176101001790554260089092019190915554610a7b90611aed565b600755338952600387526002828a2001610a958154611aed565b9055610aab82519460808652608086019061194e565b968401528201524260608201528033940390a480f35b905089015138610a00565b8184528b84209099601f198b16858e5b828210610b38575050918b917fc063349a9ed4c2f352529d20275a109284941778ebc0f9384b0f7d5f746d812b9c60019410610b1f575b5050811b019055610a14565b8b015160001960f88460031b161c191690553880610b13565b91929496509260018291868e9f989a9b9c9d9e015181550194019201908f959392918e9c9b9a999897959c610adc565b90809293528a8d20601f8a0160051c8101918c8b10610bab575b90601f8f959493920160051c01905b818110610b9e57506109c8565b9384558d93600101610b91565b9091508190610b82565b634e487b7160e01b8d52604183528cfd5b85917f53616665436c75623a2074726f702064652070726f706f736974696f6e7320616563746976657360d01b9260266084968e8a519762461bcd60e51b8952880152860152840152820152fd5b85917f53616665436c75623a206465736372697074696f6e2074726f70206c6f6e6775606560f81b9260216084968e8a519762461bcd60e51b8952880152860152840152820152fd5b7f53616665436c75623a206465736372697074696f6e20766964650000000000008691601a858d89519562461bcd60e51b8752860152840152820152fd5b7f53616665436c75623a2064757265652074726f70206c6f6e67756500000000008691601b858d89519562461bcd60e51b8752860152840152820152fd5b7f53616665436c75623a2064757265652074726f7020636f7572746500000000008691601b858d89519562461bcd60e51b8752860152840152820152fd5b634e487b7160e01b8d5260118752838dfd5b7f53616665436c75623a206d6f6e74616e742074726f7020656c657665000000008691601c858d89519562461bcd60e51b8752860152840152820152fd5b8780fd5b505034610245578160031936011261024557610d85611a12565b610d8d611a3e565b600160ff1960025416176002557f62e78cea01bee320cd4e420270b5ea74000d11b0c9f74754ebdbfc544b05a25860208251338152a1514281527f80170b5fcdd2bf1e0660ef4b8851f86685f64d41b1a19de1471947ece8725aac60203392a280f35b5082346106dd57806003193601126106dd579190815192838254808652602080960190819484527f8a35acfbc15ff81a39ae7d344fd709f28e8600b4aa8c65c6b64bfe7fe36bd19b90845b818110610e955750505081610e51910382611870565b83519485948186019282875251809352850193925b828110610e7557505050500390f35b83516001600160a01b031685528695509381019392810192600101610e66565b82546001600160a01b031684529288019260019283019201610e3b565b509034610225576020366003190112610225577fda4bd2ea351b72d1a0ace37c381ff426e3f4d0d1e7b5b040e550f47c998bf7f89135610ef0611a12565b80151580610f26575b610f0290611de8565b60098054908290559151918252602082015242604082015280606081015b0390a180f35b506064811115610ef9565b83346106dd57806003193601126106dd57610f4a611a12565b80546001600160a01b03198116825581906001600160a01b03167f8be0079c531659141344cd1fd0a4f28419497f9722a3daafe3b4186f6b6457e08280a380f35b50503461024557816003193601126102455760209060ff6002541690519015158152f35b5050346102455781600319360112610245576020906008549051908152f35b50346102255781600319360112610225576024356001600160a01b0381169135908290036110435760209360ff92849261100b6006548210611c4d565b80835260058752611026856007868620015460081c16611c91565b825260058652600983832001908252855220541690519015158152f35b8380fd5b5034610225578260031936011261022557611060611a12565b6002549060ff8216156110cb575060ff19166002557f5db9ee0a495bf2e6ff9c91a7834c1ba4fdd244a5e8aa4e537bd38aeae4b073aa60208251338152a1514281527f107553d8191d85b405879cf752997865edd48d94e20bda4dd27223c94b31a7cc60203392a280f35b8251638dfc202b60e01b8152fd5b505034610245578160031936011261024557602090516802b5e3af16b18800008152f35b509034610225576020366003190112610225577f5384e77902e0a367dcb99bc04797da1faf6cf20207e7277dd78a7f0388dc08b8913561113b611a12565b8015158061116f575b61114d90611de8565b6008805490829055915191825260208201524260408201528060608101610f20565b506064811115611144565b5050346102455781600319360112610245576020906009549051908152f35b5050346102455781600319360112610245576020906007549051908152f35b50503461024557816003193601126102455751478152602090f35b5090346102255760209081600319360112611043578235913385526003815261120160ff8387205416611b95565b611209611a3e565b6112166006548410611c4d565b8285526005815261123260ff6007848820015460081c16611c91565b8285526005815261124c60ff600784882001541615611ce7565b600260015414611509576002600155828552600581528185209360068501544211156114c8574794611285600382019687541115611be1565b8181015490611298600582015483611c40565b9183549260649384820282159183820487148317156114b5576008546112bd91611c2d565b116114735761143a5783820291808304851490151715611427576009546112e391611c2d565b116113e7576007818101805460ff191660011790555480156113d45760001901600755600201805487546001600160a01b0394929392918a9182918291829189165af13d156113cf573d611336816119a9565b9061134389519283611870565b81528a873d92013e5b1561138f575050907f2d436577633120007446fc8116bf731759187b21264eb8a052e92be53c64c61e939291541694549082519182524290820152a36001805580f35b855162461bcd60e51b8152908101859052601a60248201527f53616665436c75623a207472616e7366657274206563686f75650000000000006044820152fd5b61134c565b634e487b7160e01b895260118452602489fd5b509183519162461bcd60e51b8352820152601d60248201527f53616665436c75623a2070726f706f736974696f6e2072656a657465650000006044820152fd5b634e487b7160e01b8a526011855260248afd5b5050509183519162461bcd60e51b8352820152601460248201527353616665436c75623a20617563756e20766f746560601b6044820152fd5b875162461bcd60e51b8152808701889052601c60248201527f53616665436c75623a2071756f72756d206e6f6e2061747465696e740000000060448201528590fd5b634e487b7160e01b8d526011885260248dfd5b915162461bcd60e51b815291820152601760248201527f53616665436c75623a20766f746520656e20636f7572730000000000000000006044820152606490fd5b8151633ee5aeb560e01b81528490fd5b5082346106dd57602092836003193601126102455761153661198e565b9361153f611a12565b611547611a3e565b6001600160a01b0394851680845260038083528385205491939160ff16156116c85786855416841461167a57838552808352818520805460ff19169055845b86548082101561164a57858961159b846119c5565b905490861b1c16146115b657506115b190611aed565b611586565b979060009792939495969719988981019081116113d4579061037c836115de6115eb946119c5565b905490881b1c16916119c5565b8154978815611637577f3ac963493df564de734d98633f1145d21512e282ba4c02d3c1011119bf7f28629697980192611623846119c5565b81939154921b1b191690555551428152a280f35b634e487b7160e01b885260318352602488fd5b505050909193507f3ac963493df564de734d98633f1145d21512e282ba4c02d3c1011119bf7f286292945061039b565b815162461bcd60e51b8152808701849052602260248201527f53616665436c75623a20696d706f737369626c652072657469726572206f776e60448201526132b960f11b6064820152608490fd5b815162461bcd60e51b8152808701849052601460248201527353616665436c75623a206e6f6e206d656d62726560601b6044820152606490fd5b505034610245576020366003190112610245579081906001600160a01b0361172861198e565b1681526003602052209061176f60ff835416916001840154936003600282015491015491519485948590949392606092608083019615158352602083015260408201520152565b0390f35b5082346106dd5760203660031901126106dd57829082358152600560205220918254916117a2600185016118a8565b9360018060a01b0390816002820154169260038201549082015460058301549060068401549260086007860154950154966117f089519b8c9b8c5260208c61016091829101528c019061194e565b988a01526060890152608088015260a087015260c086015260ff8116151560e086015260ff8160081c16151561010086015260101c166101208401526101408301520390f35b90600182811c92168015611866575b602083101461185057565b634e487b7160e01b600052602260045260246000fd5b91607f1691611845565b90601f8019910116810190811067ffffffffffffffff82111761189257604052565b634e487b7160e01b600052604160045260246000fd5b90604051918260008254926118bc84611836565b90818452600194858116908160001461192b57506001146118e8575b50506118e692500383611870565b565b9093915060005260209081600020936000915b8183106119135750506118e6935082010138806118d8565b855488840185015294850194879450918301916118fb565b9150506118e694506020925060ff191682840152151560051b82010138806118d8565b919082519283825260005b84811061197a575050826000602080949584010152601f8019910116010190565b602081830181015184830182015201611959565b600435906001600160a01b03821682036119a457565b600080fd5b67ffffffffffffffff811161189257601f01601f191660200190565b6004548110156119fc5760046000527f8a35acfbc15ff81a39ae7d344fd709f28e8600b4aa8c65c6b64bfe7fe36bd19b0190600090565b634e487b7160e01b600052603260045260246000fd5b6000546001600160a01b03163303611a2657565b60405163118cdaa760e01b8152336004820152602490fd5b60ff60025416611a4a57565b60405163d93c066560e01b8152600490fd5b15611a6357565b60405162461bcd60e51b815260206004820152601660248201527553616665436c75623a2061647265737365207a65726f60501b6044820152606490fd5b15611aa857565b60405162461bcd60e51b815260206004820152601960248201527f53616665436c75623a206164726573736520636f6e74726174000000000000006044820152606490fd5b6000198114611afc5760010190565b634e487b7160e01b600052601160045260246000fd5b15611b1957565b60405162461bcd60e51b815260206004820152601560248201527414d8599950db1d588e881b5bdb9d185b9d081b9d5b605a1b6044820152606490fd5b611b61341515611b12565b6040513481524260208201527f363f315f930a17d1266b86a20d6dd34b1cfbc5a9db9f13a65d06a689c3a2af8a60403392a2565b15611b9c57565b60405162461bcd60e51b815260206004820152601d60248201527f53616665436c75623a20617070656c616e74206e6f6e206d656d6272650000006044820152606490fd5b15611be857565b60405162461bcd60e51b815260206004820152601c60248201527f53616665436c75623a20666f6e647320696e737566666973616e7473000000006044820152606490fd5b81810292918115918404141715611afc57565b91908201809211611afc57565b15611c5457565b60405162461bcd60e51b815260206004820152601560248201527453616665436c75623a20494420696e76616c69646560581b6044820152606490fd5b15611c9857565b60405162461bcd60e51b815260206004820152602160248201527f53616665436c75623a2070726f706f736974696f6e20696e6578697374616e746044820152606560f81b6064820152608490fd5b15611cee57565b60405162461bcd60e51b815260206004820152601760248201527f53616665436c75623a2064656a612065786563757465650000000000000000006044820152606490fd5b60009081526005602052604081206006810154421115611de457611d606005600483015492015482611c40565b8015611ddf576004546064820290828204606403611dcb57600854611d8491611c2d565b111592606483029280840460641490151715611db75750600954611da791611c2d565b111581611db2575090565b905090565b634e487b7160e01b81526011600452602490fd5b634e487b7160e01b85526011600452602485fd5b505090565b5090565b15611def57565b60405162461bcd60e51b815260206004820152601e60248201527f53616665436c75623a20706f757263656e7461676520696e76616c69646500006044820152606490fdfea2646970667358221220318470e1500507d58543c54df0fb35e0706faf5d8c27e76dd533684fa244305164736f6c63430008140033","opcodes":"PUSH1 0x80 PUSH1 0x40 SWAP1 DUP1 DUP3 MSTORE CALLVALUE PUSH2 0x186 JUMPI CALLER ISZERO PUSH2 0x170 JUMPI POP PUSH1 0x0 DUP1 SLOAD PUSH1 0x1 PUSH1 0x1 PUSH1 0xA0 SHL SUB NOT DUP1 DUP3 AND CALLER SWAP1 DUP2 OR DUP5 SSTORE DUP5 MLOAD SWAP2 SWAP4 SWAP3 PUSH1 0x1 PUSH1 0x1 PUSH1 0xA0 SHL SUB AND PUSH32 0x8BE0079C531659141344CD1FD0A4F28419497F9722A3DAAFE3B4186F6B6457E0 DUP5 DUP1 LOG3 PUSH1 0x1 DUP1 SSTORE PUSH1 0x32 PUSH1 0x8 SSTORE PUSH1 0x3C PUSH1 0x9 SSTORE PUSH1 0x80 DUP2 ADD PUSH1 0x1 PUSH1 0x1 PUSH1 0x40 SHL SUB DUP2 GT DUP3 DUP3 LT OR PUSH2 0x15C JUMPI DUP5 MSTORE PUSH1 0x1 DUP2 MSTORE PUSH1 0x3 PUSH1 0x20 DUP3 ADD TIMESTAMP DUP2 MSTORE DUP6 DUP4 ADD DUP5 DUP2 MSTORE PUSH1 0x60 DUP5 ADD SWAP2 DUP6 DUP4 MSTORE CALLER DUP7 MSTORE DUP4 PUSH1 0x20 MSTORE DUP8 DUP7 KECCAK256 SWAP5 MLOAD ISZERO ISZERO PUSH1 0xFF DUP1 NOT DUP8 SLOAD AND SWAP2 AND OR DUP6 SSTORE MLOAD PUSH1 0x1 DUP6 ADD SSTORE MLOAD PUSH1 0x2 DUP5 ADD SSTORE MLOAD SWAP2 ADD SSTORE PUSH1 0x4 SLOAD SWAP1 PUSH9 0x10000000000000000 DUP3 LT ISZERO PUSH2 0x148 JUMPI PUSH1 0x1 DUP3 ADD DUP1 PUSH1 0x4 SSTORE DUP3 LT ISZERO PUSH2 0x134 JUMPI DUP1 PUSH1 0x4 PUSH1 0x20 SWAP3 MSTORE KECCAK256 ADD SWAP1 CALLER SWAP1 DUP3 SLOAD AND OR SWAP1 SSTORE DUP1 MLOAD TIMESTAMP DUP2 MSTORE PUSH32 0xEDE8EED4383E9241982619B94DD83E488B274CCED0FD07B8C0092A393DEFD52F PUSH1 0x20 CALLER SWAP3 LOG2 MLOAD PUSH2 0x1E6A SWAP1 DUP2 PUSH2 0x18C DUP3 CODECOPY RETURN JUMPDEST PUSH4 0x4E487B71 PUSH1 0xE0 SHL DUP2 MSTORE PUSH1 0x32 PUSH1 0x4 MSTORE PUSH1 0x24 SWAP1 REVERT JUMPDEST PUSH4 0x4E487B71 PUSH1 0xE0 SHL DUP2 MSTORE PUSH1 0x41 PUSH1 0x4 MSTORE PUSH1 0x24 SWAP1 REVERT JUMPDEST PUSH4 0x4E487B71 PUSH1 0xE0 SHL DUP4 MSTORE PUSH1 0x41 PUSH1 0x4 MSTORE PUSH1 0x24 DUP4 REVERT JUMPDEST PUSH4 0x1E4FBDF7 PUSH1 0xE0 SHL DUP2 MSTORE PUSH1 0x0 PUSH1 0x4 DUP3 ADD MSTORE PUSH1 0x24 SWAP1 REVERT JUMPDEST PUSH1 0x0 DUP1 REVERT INVALID PUSH1 0x40 PUSH1 0x80 DUP2 MSTORE PUSH1 0x4 SWAP1 DUP2 CALLDATASIZE LT ISZERO PUSH2 0x33 JUMPI JUMPDEST POP POP CALLDATASIZE ISZERO PUSH2 0x2B JUMPI PUSH2 0x21 PUSH2 0x1A3E JUMP JUMPDEST PUSH2 0x29 PUSH2 0x1B56 JUMP JUMPDEST STOP JUMPDEST PUSH2 0x21 PUSH2 0x1A3E JUMP JUMPDEST PUSH1 0x0 SWAP2 DUP3 CALLDATALOAD PUSH1 0xE0 SHR DUP1 PUSH4 0x13CF08B EQ PUSH2 0x1773 JUMPI DUP1 PUSH4 0x8AE4B0C EQ PUSH2 0x1702 JUMPI DUP1 PUSH4 0xB1CA49A EQ PUSH2 0x1519 JUMPI DUP1 PUSH4 0xD61B519 EQ PUSH2 0x11D3 JUMPI DUP1 PUSH4 0x12065FE0 EQ PUSH2 0x11B8 JUMPI DUP1 PUSH4 0x2116C347 EQ PUSH2 0x1199 JUMPI DUP1 PUSH4 0x3008D437 EQ PUSH2 0x117A JUMPI DUP1 PUSH4 0x32F6A1DC EQ PUSH2 0x10FD JUMPI DUP1 PUSH4 0x3340A176 EQ PUSH2 0x10D9 JUMPI DUP1 PUSH4 0x3F4BA83A EQ PUSH2 0x1047 JUMPI DUP1 PUSH4 0x43859632 EQ PUSH2 0xFCE JUMPI DUP1 PUSH4 0x4FA76EC9 EQ PUSH2 0xFAF JUMPI DUP1 PUSH4 0x5C975ABB EQ PUSH2 0xF8B JUMPI DUP1 PUSH4 0x715018A6 EQ PUSH2 0xF31 JUMPI DUP1 PUSH4 0x784F80F8 EQ PUSH2 0xEB2 JUMPI DUP1 PUSH4 0x7C0F6B35 EQ PUSH2 0xDF0 JUMPI DUP1 PUSH4 0x8456CB59 EQ PUSH2 0xD6B JUMPI DUP1 PUSH4 0x8743DAE6 EQ PUSH2 0x84C JUMPI DUP1 PUSH4 0x8DA5CB5B EQ PUSH2 0x824 JUMPI DUP1 PUSH4 0x944EE22D EQ PUSH2 0x806 JUMPI DUP1 PUSH4 0x997072F7 EQ PUSH2 0x7E9 JUMPI DUP1 PUSH4 0x9ABCC0CC EQ PUSH2 0x798 JUMPI DUP1 PUSH4 0xA230C524 EQ PUSH2 0x75A JUMPI DUP1 PUSH4 0xA91937AD EQ PUSH2 0x73E JUMPI DUP1 PUSH4 0xB307FC6D EQ PUSH2 0x6FE JUMPI DUP1 PUSH4 0xBD968216 EQ PUSH2 0x6E0 JUMPI DUP1 PUSH4 0xC7F758A8 EQ PUSH2 0x61A JUMPI DUP1 PUSH4 0xC9D27AFE EQ PUSH2 0x447 JUMPI DUP1 PUSH4 0xCA6D56DC EQ PUSH2 0x268 JUMPI DUP1 PUSH4 0xDA35C664 EQ PUSH2 0x249 JUMPI DUP1 PUSH4 0xEA0E35B1 EQ PUSH2 0x229 JUMPI PUSH4 0xF2FDE38B EQ PUSH2 0x1A0 JUMPI POP PUSH2 0x11 JUMP JUMPDEST CALLVALUE PUSH2 0x225 JUMPI PUSH1 0x20 CALLDATASIZE PUSH1 0x3 NOT ADD SLT PUSH2 0x225 JUMPI PUSH2 0x1B9 PUSH2 0x198E JUMP JUMPDEST SWAP1 PUSH2 0x1C2 PUSH2 0x1A12 JUMP JUMPDEST PUSH1 0x1 PUSH1 0x1 PUSH1 0xA0 SHL SUB SWAP2 DUP3 AND SWAP3 DUP4 ISZERO PUSH2 0x20F JUMPI POP POP DUP3 SLOAD PUSH1 0x1 PUSH1 0x1 PUSH1 0xA0 SHL SUB NOT DUP2 AND DUP4 OR DUP5 SSTORE AND PUSH32 0x8BE0079C531659141344CD1FD0A4F28419497F9722A3DAAFE3B4186F6B6457E0 DUP4 DUP1 LOG3 DUP1 RETURN JUMPDEST MLOAD PUSH4 0x1E4FBDF7 PUSH1 0xE0 SHL DUP2 MSTORE SWAP1 DUP2 ADD DUP5 SWAP1 MSTORE PUSH1 0x24 SWAP1 REVERT JUMPDEST DUP3 DUP1 REVERT JUMPDEST POP POP CALLVALUE PUSH2 0x245 JUMPI DUP2 PUSH1 0x3 NOT CALLDATASIZE ADD SLT PUSH2 0x245 JUMPI PUSH1 0x20 SWAP1 MLOAD PUSH1 0x64 DUP2 MSTORE RETURN JUMPDEST POP DUP1 REVERT JUMPDEST POP POP CALLVALUE PUSH2 0x245 JUMPI DUP2 PUSH1 0x3 NOT CALLDATASIZE ADD SLT PUSH2 0x245 JUMPI PUSH1 0x20 SWAP1 PUSH1 0x6 SLOAD SWAP1 MLOAD SWAP1 DUP2 MSTORE RETURN JUMPDEST POP SWAP2 SWAP1 CALLVALUE PUSH2 0x245 JUMPI PUSH1 0x20 DUP1 PUSH1 0x3 NOT CALLDATASIZE ADD SLT PUSH2 0x225 JUMPI PUSH2 0x285 PUSH2 0x198E JUMP JUMPDEST SWAP2 PUSH2 0x28E PUSH2 0x1A12 JUMP JUMPDEST PUSH1 0x1 PUSH1 0x1 PUSH1 0xA0 SHL SUB DUP4 AND SWAP3 PUSH2 0x2A4 DUP5 ISZERO ISZERO PUSH2 0x1A5C JUMP JUMPDEST PUSH2 0x2B0 ADDRESS DUP6 EQ ISZERO PUSH2 0x1AA1 JUMP JUMPDEST PUSH2 0x2B8 PUSH2 0x1A3E JUMP JUMPDEST DUP4 DUP6 MSTORE PUSH1 0x3 DUP4 MSTORE PUSH1 0xFF DUP3 DUP7 KECCAK256 SLOAD AND PUSH2 0x40C JUMPI PUSH1 0x64 DUP7 SLOAD LT ISZERO PUSH2 0x3C9 JUMPI DUP2 MLOAD PUSH1 0x80 DUP2 ADD DUP2 DUP2 LT PUSH8 0xFFFFFFFFFFFFFFFF DUP3 GT OR PUSH2 0x3B6 JUMPI DUP4 MSTORE PUSH1 0x1 DUP2 MSTORE PUSH1 0x3 DUP5 DUP3 ADD TIMESTAMP DUP2 MSTORE DUP5 DUP4 ADD DUP9 DUP2 MSTORE PUSH1 0x60 DUP5 ADD SWAP2 DUP10 DUP4 MSTORE DUP9 DUP11 MSTORE DUP4 DUP9 MSTORE DUP7 DUP11 KECCAK256 SWAP5 MLOAD ISZERO ISZERO PUSH1 0xFF DUP1 NOT DUP8 SLOAD AND SWAP2 AND OR DUP6 SSTORE MLOAD PUSH1 0x1 DUP6 ADD SSTORE MLOAD PUSH1 0x2 DUP5 ADD SSTORE MLOAD SWAP2 ADD SSTORE DUP6 SLOAD PUSH9 0x10000000000000000 DUP2 LT ISZERO PUSH2 0x3A3 JUMPI SWAP1 PUSH2 0x37C DUP3 PUSH32 0xEDE8EED4383E9241982619B94DD83E488B274CCED0FD07B8C0092A393DEFD52F SWAP7 SWAP8 SWAP9 PUSH1 0x1 PUSH2 0x39B SWAP6 ADD SWAP1 SSTORE PUSH2 0x19C5 JUMP JUMPDEST SWAP1 SWAP2 SWAP1 DUP3 SLOAD SWAP1 PUSH1 0x3 SHL SWAP2 PUSH1 0x1 DUP1 PUSH1 0xA0 SHL SUB DUP1 SWAP2 AND DUP4 SHL SWAP3 SHL NOT AND OR SWAP1 SSTORE JUMP JUMPDEST MLOAD TIMESTAMP DUP2 MSTORE LOG2 DUP1 RETURN JUMPDEST PUSH4 0x4E487B71 PUSH1 0xE0 SHL DUP7 MSTORE PUSH1 0x41 DUP8 MSTORE PUSH1 0x24 DUP7 REVERT JUMPDEST PUSH4 0x4E487B71 PUSH1 0xE0 SHL DUP8 MSTORE PUSH1 0x41 DUP9 MSTORE PUSH1 0x24 DUP8 REVERT JUMPDEST DUP2 MLOAD PUSH3 0x461BCD PUSH1 0xE5 SHL DUP2 MSTORE DUP1 DUP8 ADD DUP5 SWAP1 MSTORE PUSH1 0x19 PUSH1 0x24 DUP3 ADD MSTORE PUSH32 0x53616665436C75623A206C696D6974652061747465696E746500000000000000 PUSH1 0x44 DUP3 ADD MSTORE PUSH1 0x64 SWAP1 REVERT JUMPDEST DUP2 MLOAD PUSH3 0x461BCD PUSH1 0xE5 SHL DUP2 MSTORE DUP1 DUP8 ADD DUP5 SWAP1 MSTORE PUSH1 0x15 PUSH1 0x24 DUP3 ADD MSTORE PUSH21 0x53616665436C75623A2064656A61206D656D627265 PUSH1 0x58 SHL PUSH1 0x44 DUP3 ADD MSTORE PUSH1 0x64 SWAP1 REVERT JUMPDEST POP SWAP1 CALLVALUE PUSH2 0x225 JUMPI DUP1 PUSH1 0x3 NOT CALLDATASIZE ADD SLT PUSH2 0x225 JUMPI DUP2 CALLDATALOAD SWAP1 PUSH1 0x24 CALLDATALOAD SWAP1 DUP2 ISZERO ISZERO DUP3 SUB PUSH2 0x616 JUMPI CALLER DUP6 MSTORE PUSH1 0x20 SWAP4 PUSH1 0x3 DUP6 MSTORE PUSH2 0x482 PUSH1 0xFF DUP4 DUP9 KECCAK256 SLOAD AND PUSH2 0x1B95 JUMP JUMPDEST PUSH2 0x48A PUSH2 0x1A3E JUMP JUMPDEST PUSH2 0x497 PUSH1 0x6 SLOAD DUP6 LT PUSH2 0x1C4D JUMP JUMPDEST DUP4 DUP7 MSTORE PUSH1 0x5 DUP6 MSTORE PUSH2 0x4B3 PUSH1 0xFF PUSH1 0x7 DUP5 DUP10 KECCAK256 ADD SLOAD PUSH1 0x8 SHR AND PUSH2 0x1C91 JUMP JUMPDEST DUP4 DUP7 MSTORE PUSH1 0x5 DUP6 MSTORE PUSH2 0x4CD PUSH1 0xFF PUSH1 0x7 DUP5 DUP10 KECCAK256 ADD SLOAD AND ISZERO PUSH2 0x1CE7 JUMP JUMPDEST DUP4 DUP7 MSTORE PUSH1 0x5 DUP6 MSTORE DUP2 DUP7 KECCAK256 SWAP5 PUSH1 0x6 DUP7 ADD SLOAD TIMESTAMP GT PUSH2 0x5DD JUMPI PUSH1 0x9 DUP7 ADD CALLER DUP9 MSTORE DUP1 DUP3 MSTORE PUSH1 0xFF DUP5 DUP10 KECCAK256 SLOAD AND PUSH2 0x5A6 JUMPI PUSH32 0x6F6F95F30A8E58DCBD04046390AB11F621176801303E8FD816DDB1002C0004D9 SWAP5 SWAP4 SWAP3 PUSH1 0x3 PUSH2 0x58C SWAP4 PUSH1 0x5 SWAP4 CALLER DUP13 MSTORE DUP2 MSTORE DUP6 DUP12 KECCAK256 PUSH1 0x1 PUSH1 0xFF NOT DUP3 SLOAD AND OR SWAP1 SSTORE MSTORE PUSH1 0x3 DUP5 DUP11 KECCAK256 ADD PUSH2 0x549 DUP2 SLOAD PUSH2 0x1AED JUMP JUMPDEST SWAP1 SSTORE DUP5 ISZERO PUSH2 0x592 JUMPI DUP1 DUP9 ADD PUSH2 0x55E DUP2 SLOAD PUSH2 0x1AED JUMP JUMPDEST SWAP1 SSTORE JUMPDEST DUP8 ADD SLOAD SWAP7 ADD SLOAD SWAP2 MLOAD SWAP3 ISZERO ISZERO DUP4 MSTORE PUSH1 0x20 DUP4 ADD SWAP6 SWAP1 SWAP6 MSTORE PUSH1 0x40 DUP3 ADD MSTORE TIMESTAMP PUSH1 0x60 DUP3 ADD MSTORE CALLER SWAP4 DUP2 SWAP1 PUSH1 0x80 DUP3 ADD SWAP1 JUMP JUMPDEST SUB SWAP1 LOG3 DUP1 RETURN JUMPDEST DUP2 DUP9 ADD PUSH2 0x59F DUP2 SLOAD PUSH2 0x1AED JUMP JUMPDEST SWAP1 SSTORE PUSH2 0x561 JUMP JUMPDEST POP PUSH1 0x64 SWAP3 MLOAD SWAP2 PUSH3 0x461BCD PUSH1 0xE5 SHL DUP4 MSTORE DUP3 ADD MSTORE PUSH1 0x13 PUSH1 0x24 DUP3 ADD MSTORE PUSH19 0x53616665436C75623A2064656A6120766F7465 PUSH1 0x68 SHL PUSH1 0x44 DUP3 ADD MSTORE REVERT JUMPDEST PUSH1 0x64 SWAP3 MLOAD SWAP2 PUSH3 0x461BCD PUSH1 0xE5 SHL DUP4 MSTORE DUP3 ADD MSTORE PUSH1 0x16 PUSH1 0x24 DUP3 ADD MSTORE PUSH22 0x53616665436C75623A20766F7465207465726D696E65 PUSH1 0x50 SHL PUSH1 0x44 DUP3 ADD MSTORE REVERT JUMPDEST DUP5 DUP1 REVERT JUMPDEST POP SWAP2 CALLVALUE PUSH2 0x6DD JUMPI PUSH1 0x20 CALLDATASIZE PUSH1 0x3 NOT ADD SLT PUSH2 0x6DD JUMPI DUP2 SWAP1 DUP4 CALLDATALOAD PUSH2 0x63E PUSH1 0x6 SLOAD DUP3 LT PUSH2 0x1C4D JUMP JUMPDEST DUP1 DUP3 MSTORE PUSH1 0x5 PUSH1 0x20 MSTORE PUSH2 0x65B PUSH1 0xFF PUSH1 0x7 DUP6 DUP6 KECCAK256 ADD SLOAD PUSH1 0x8 SHR AND PUSH2 0x1C91 JUMP JUMPDEST DUP2 MSTORE PUSH1 0x5 PUSH1 0x20 MSTORE KECCAK256 SWAP1 DUP2 SLOAD SWAP2 PUSH1 0x1 DUP1 PUSH1 0xA0 SHL SUB PUSH1 0x2 DUP3 ADD SLOAD AND SWAP4 PUSH1 0x3 DUP3 ADD SLOAD SWAP1 DUP3 ADD SLOAD PUSH1 0x5 DUP4 ADD SLOAD SWAP1 PUSH1 0x6 DUP5 ADD SLOAD SWAP3 PUSH2 0x69E PUSH1 0x1 PUSH1 0xFF PUSH1 0x7 DUP9 ADD SLOAD AND SWAP7 ADD PUSH2 0x18A8 JUMP JUMPDEST SWAP8 PUSH2 0x6BA DUP8 MLOAD SWAP10 DUP11 SWAP10 DUP11 MSTORE PUSH2 0x100 DUP1 PUSH1 0x20 DUP13 ADD MSTORE DUP11 ADD SWAP1 PUSH2 0x194E JUMP JUMPDEST SWAP7 DUP9 ADD MSTORE PUSH1 0x60 DUP8 ADD MSTORE PUSH1 0x80 DUP7 ADD MSTORE PUSH1 0xA0 DUP6 ADD MSTORE PUSH1 0xC0 DUP5 ADD MSTORE ISZERO ISZERO PUSH1 0xE0 DUP4 ADD MSTORE SUB SWAP1 RETURN JUMPDEST DUP1 REVERT JUMPDEST POP POP CALLVALUE PUSH2 0x245 JUMPI DUP2 PUSH1 0x3 NOT CALLDATASIZE ADD SLT PUSH2 0x245 JUMPI PUSH1 0x20 SWAP1 MLOAD PUSH3 0x76A700 DUP2 MSTORE RETURN JUMPDEST POP SWAP2 CALLVALUE PUSH2 0x6DD JUMPI PUSH1 0x20 CALLDATASIZE PUSH1 0x3 NOT ADD SLT PUSH2 0x6DD JUMPI DUP3 CALLDATALOAD SWAP3 SLOAD DUP4 LT ISZERO PUSH2 0x6DD JUMPI POP PUSH2 0x728 PUSH1 0x20 SWAP3 PUSH2 0x19C5 JUMP JUMPDEST SWAP1 SLOAD SWAP2 MLOAD SWAP2 PUSH1 0x1 DUP1 PUSH1 0xA0 SHL SUB SWAP2 PUSH1 0x3 SHL SHR AND DUP2 MSTORE RETURN JUMPDEST POP POP CALLVALUE PUSH2 0x245 JUMPI DUP2 PUSH1 0x3 NOT CALLDATASIZE ADD SLT PUSH2 0x245 JUMPI PUSH1 0x20 SWAP1 MLOAD PUSH1 0x14 DUP2 MSTORE RETURN JUMPDEST POP POP CALLVALUE PUSH2 0x245 JUMPI PUSH1 0x20 CALLDATASIZE PUSH1 0x3 NOT ADD SLT PUSH2 0x245 JUMPI PUSH1 0x20 SWAP2 PUSH1 0xFF SWAP1 DUP3 SWAP1 PUSH1 0x1 PUSH1 0x1 PUSH1 0xA0 SHL SUB PUSH2 0x785 PUSH2 0x198E JUMP JUMPDEST AND DUP2 MSTORE PUSH1 0x3 DUP6 MSTORE KECCAK256 SLOAD AND SWAP1 MLOAD SWAP1 ISZERO ISZERO DUP2 MSTORE RETURN JUMPDEST POP CALLVALUE PUSH2 0x225 JUMPI PUSH1 0x20 CALLDATASIZE PUSH1 0x3 NOT ADD SLT PUSH2 0x225 JUMPI PUSH1 0x20 SWAP3 PUSH2 0x7DB PUSH1 0xFF PUSH1 0x7 DUP6 PUSH2 0x7E0 SWAP6 CALLDATALOAD SWAP5 PUSH2 0x7C8 PUSH1 0x6 SLOAD DUP8 LT PUSH2 0x1C4D JUMP JUMPDEST DUP6 DUP2 MSTORE PUSH1 0x5 DUP10 MSTORE KECCAK256 ADD SLOAD PUSH1 0x8 SHR AND PUSH2 0x1C91 JUMP JUMPDEST PUSH2 0x1D33 JUMP JUMPDEST SWAP1 MLOAD SWAP1 ISZERO ISZERO DUP2 MSTORE RETURN JUMPDEST POP CALLVALUE PUSH2 0x225 JUMPI DUP3 PUSH1 0x3 NOT CALLDATASIZE ADD SLT PUSH2 0x225 JUMPI PUSH1 0x20 SWAP3 POP SLOAD SWAP1 MLOAD SWAP1 DUP2 MSTORE RETURN JUMPDEST POP POP CALLVALUE PUSH2 0x245 JUMPI DUP2 PUSH1 0x3 NOT CALLDATASIZE ADD SLT PUSH2 0x245 JUMPI PUSH1 0x20 SWAP1 MLOAD PUSH3 0x15180 DUP2 MSTORE RETURN JUMPDEST POP POP CALLVALUE PUSH2 0x245 JUMPI DUP2 PUSH1 0x3 NOT CALLDATASIZE ADD SLT PUSH2 0x245 JUMPI SWAP1 SLOAD SWAP1 MLOAD PUSH1 0x1 PUSH1 0x1 PUSH1 0xA0 SHL SUB SWAP1 SWAP2 AND DUP2 MSTORE PUSH1 0x20 SWAP1 RETURN JUMPDEST POP CALLVALUE PUSH2 0x225 JUMPI PUSH1 0x80 CALLDATASIZE PUSH1 0x3 NOT ADD SLT PUSH2 0x225 JUMPI DUP1 CALLDATALOAD SWAP1 PUSH8 0xFFFFFFFFFFFFFFFF DUP1 DUP4 GT PUSH2 0x616 JUMPI CALLDATASIZE PUSH1 0x23 DUP5 ADD SLT ISZERO PUSH2 0x616 JUMPI DUP3 DUP3 ADD CALLDATALOAD SWAP2 PUSH2 0x88A DUP4 PUSH2 0x19A9 JUMP JUMPDEST SWAP1 PUSH2 0x897 DUP7 MLOAD SWAP3 DUP4 PUSH2 0x1870 JUMP JUMPDEST DUP4 DUP3 MSTORE DUP7 PUSH1 0x24 SWAP6 CALLDATASIZE DUP8 DUP8 DUP4 ADD ADD GT PUSH2 0x245 JUMPI DUP6 DUP8 SWAP7 PUSH1 0x20 SWAP9 DUP10 SWAP4 ADD DUP4 DUP8 ADD CALLDATACOPY DUP5 ADD ADD MSTORE DUP4 CALLDATALOAD PUSH1 0x1 PUSH1 0x1 PUSH1 0xA0 SHL SUB DUP2 AND SWAP7 SWAP1 DUP8 SWAP1 SUB PUSH2 0xD67 JUMPI DUP6 SWAP5 PUSH1 0x44 SWAP1 DUP10 DUP3 CALLDATALOAD SWAP3 PUSH2 0x8F2 PUSH1 0xFF DUP7 PUSH1 0x64 SWAP5 PUSH1 0x3 DUP7 CALLDATALOAD SWAP14 CALLER DUP4 MSTORE MSTORE KECCAK256 SLOAD AND PUSH2 0x1B95 JUMP JUMPDEST PUSH2 0x8FA PUSH2 0x1A3E JUMP JUMPDEST PUSH2 0x905 DUP12 ISZERO ISZERO PUSH2 0x1A5C JUMP JUMPDEST PUSH2 0x911 ADDRESS DUP13 EQ ISZERO PUSH2 0x1AA1 JUMP JUMPDEST PUSH2 0x91C DUP5 ISZERO ISZERO PUSH2 0x1B12 JUMP JUMPDEST PUSH9 0x2B5E3AF16B1880000 DUP5 GT PUSH2 0xD29 JUMPI PUSH2 0x938 SELFBALANCE DUP6 GT ISZERO PUSH2 0x1BE1 JUMP JUMPDEST PUSH3 0x15180 DUP1 DUP11 MUL SWAP10 DUP1 DUP12 DIV DUP3 EQ SWAP1 ISZERO OR ISZERO PUSH2 0xD17 JUMPI DUP10 LT PUSH2 0xCD9 JUMPI PUSH3 0x76A700 DUP10 GT PUSH2 0xC9B JUMPI DUP7 MLOAD ISZERO PUSH2 0xC5D JUMPI PUSH2 0x1F4 DUP8 MLOAD GT PUSH2 0xC14 JUMPI PUSH1 0x14 PUSH1 0x7 SLOAD LT ISZERO PUSH2 0xBC6 JUMPI POP POP PUSH2 0x994 PUSH1 0x6 SLOAD SWAP8 PUSH2 0x98B DUP10 PUSH2 0x1AED JUMP JUMPDEST PUSH1 0x6 SSTORE TIMESTAMP PUSH2 0x1C40 JUMP JUMPDEST SWAP4 DUP8 DUP12 MSTORE PUSH1 0x5 DUP10 MSTORE DUP4 DUP12 KECCAK256 SWAP2 DUP9 DUP4 SSTORE PUSH1 0x1 DUP4 ADD SWAP1 DUP8 MLOAD SWAP9 DUP10 GT PUSH2 0xBB5 JUMPI POP SWAP1 DUP2 PUSH2 0x9BF DUP14 SWAP4 SLOAD PUSH2 0x1836 JUMP JUMPDEST PUSH1 0x1F DUP2 GT PUSH2 0xB68 JUMPI JUMPDEST POP DUP11 SWAP9 PUSH1 0x1F DUP2 GT PUSH1 0x1 EQ PUSH2 0xACC JUMPI DUP1 PUSH32 0xC063349A9ED4C2F352529D20275A109284941778EBC0F9384B0F7D5F746D812B SWAP11 DUP6 SWAP2 PUSH2 0xAC1 JUMPI JUMPDEST POP DUP2 PUSH1 0x1 SHL SWAP2 PUSH1 0x0 NOT SWAP1 PUSH1 0x3 SHL SHR NOT AND OR SWAP1 SSTORE JUMPDEST PUSH1 0x2 DUP4 ADD DUP1 SLOAD PUSH1 0x1 PUSH1 0x1 PUSH1 0xA0 SHL SUB NOT AND DUP13 OR SWAP1 SSTORE PUSH1 0x3 DUP4 ADD DUP5 SWAP1 SSTORE DUP3 ADD SSTORE PUSH1 0x5 DUP2 ADD DUP11 SWAP1 SSTORE PUSH1 0x6 DUP2 ADD DUP5 SWAP1 SSTORE PUSH1 0x7 DUP1 DUP3 ADD DUP1 SLOAD PUSH1 0x1 PUSH1 0x1 PUSH1 0xB0 SHL SUB NOT AND CALLER PUSH1 0x10 SHL PUSH3 0x10000 PUSH1 0x1 PUSH1 0xB0 SHL SUB AND OR PUSH2 0x100 OR SWAP1 SSTORE TIMESTAMP PUSH1 0x8 SWAP1 SWAP3 ADD SWAP2 SWAP1 SWAP2 SSTORE SLOAD PUSH2 0xA7B SWAP1 PUSH2 0x1AED JUMP JUMPDEST PUSH1 0x7 SSTORE CALLER DUP10 MSTORE PUSH1 0x3 DUP8 MSTORE PUSH1 0x2 DUP3 DUP11 KECCAK256 ADD PUSH2 0xA95 DUP2 SLOAD PUSH2 0x1AED JUMP JUMPDEST SWAP1 SSTORE PUSH2 0xAAB DUP3 MLOAD SWAP5 PUSH1 0x80 DUP7 MSTORE PUSH1 0x80 DUP7 ADD SWAP1 PUSH2 0x194E JUMP JUMPDEST SWAP7 DUP5 ADD MSTORE DUP3 ADD MSTORE TIMESTAMP PUSH1 0x60 DUP3 ADD MSTORE DUP1 CALLER SWAP5 SUB SWAP1 LOG4 DUP1 RETURN JUMPDEST SWAP1 POP DUP10 ADD MLOAD CODESIZE PUSH2 0xA00 JUMP JUMPDEST DUP2 DUP5 MSTORE DUP12 DUP5 KECCAK256 SWAP1 SWAP10 PUSH1 0x1F NOT DUP12 AND DUP6 DUP15 JUMPDEST DUP3 DUP3 LT PUSH2 0xB38 JUMPI POP POP SWAP2 DUP12 SWAP2 PUSH32 0xC063349A9ED4C2F352529D20275A109284941778EBC0F9384B0F7D5F746D812B SWAP13 PUSH1 0x1 SWAP5 LT PUSH2 0xB1F JUMPI JUMPDEST POP POP DUP2 SHL ADD SWAP1 SSTORE PUSH2 0xA14 JUMP JUMPDEST DUP12 ADD MLOAD PUSH1 0x0 NOT PUSH1 0xF8 DUP5 PUSH1 0x3 SHL AND SHR NOT AND SWAP1 SSTORE CODESIZE DUP1 PUSH2 0xB13 JUMP JUMPDEST SWAP2 SWAP3 SWAP5 SWAP7 POP SWAP3 PUSH1 0x1 DUP3 SWAP2 DUP7 DUP15 SWAP16 SWAP9 SWAP11 SWAP12 SWAP13 SWAP14 SWAP15 ADD MLOAD DUP2 SSTORE ADD SWAP5 ADD SWAP3 ADD SWAP1 DUP16 SWAP6 SWAP4 SWAP3 SWAP2 DUP15 SWAP13 SWAP12 SWAP11 SWAP10 SWAP9 SWAP8 SWAP6 SWAP13 PUSH2 0xADC JUMP JUMPDEST SWAP1 DUP1 SWAP3 SWAP4 MSTORE DUP11 DUP14 KECCAK256 PUSH1 0x1F DUP11 ADD PUSH1 0x5 SHR DUP2 ADD SWAP2 DUP13 DUP12 LT PUSH2 0xBAB JUMPI JUMPDEST SWAP1 PUSH1 0x1F DUP16 SWAP6 SWAP5 SWAP4 SWAP3 ADD PUSH1 0x5 SHR ADD SWAP1 JUMPDEST DUP2 DUP2 LT PUSH2 0xB9E JUMPI POP PUSH2 0x9C8 JUMP JUMPDEST SWAP4 DUP5 SSTORE DUP14 SWAP4 PUSH1 0x1 ADD PUSH2 0xB91 JUMP JUMPDEST SWAP1 SWAP2 POP DUP2 SWAP1 PUSH2 0xB82 JUMP JUMPDEST PUSH4 0x4E487B71 PUSH1 0xE0 SHL DUP14 MSTORE PUSH1 0x41 DUP4 MSTORE DUP13 REVERT JUMPDEST DUP6 SWAP2 PUSH32 0x53616665436C75623A2074726F702064652070726F706F736974696F6E732061 PUSH6 0x637469766573 PUSH1 0xD0 SHL SWAP3 PUSH1 0x26 PUSH1 0x84 SWAP7 DUP15 DUP11 MLOAD SWAP8 PUSH3 0x461BCD PUSH1 0xE5 SHL DUP10 MSTORE DUP9 ADD MSTORE DUP7 ADD MSTORE DUP5 ADD MSTORE DUP3 ADD MSTORE REVERT JUMPDEST DUP6 SWAP2 PUSH32 0x53616665436C75623A206465736372697074696F6E2074726F70206C6F6E6775 PUSH1 0x65 PUSH1 0xF8 SHL SWAP3 PUSH1 0x21 PUSH1 0x84 SWAP7 DUP15 DUP11 MLOAD SWAP8 PUSH3 0x461BCD PUSH1 0xE5 SHL DUP10 MSTORE DUP9 ADD MSTORE DUP7 ADD MSTORE DUP5 ADD MSTORE DUP3 ADD MSTORE REVERT JUMPDEST PUSH32 0x53616665436C75623A206465736372697074696F6E2076696465000000000000 DUP7 SWAP2 PUSH1 0x1A DUP6 DUP14 DUP10 MLOAD SWAP6 PUSH3 0x461BCD PUSH1 0xE5 SHL DUP8 MSTORE DUP7 ADD MSTORE DUP5 ADD MSTORE DUP3 ADD MSTORE REVERT JUMPDEST PUSH32 0x53616665436C75623A2064757265652074726F70206C6F6E6775650000000000 DUP7 SWAP2 PUSH1 0x1B DUP6 DUP14 DUP10 MLOAD SWAP6 PUSH3 0x461BCD PUSH1 0xE5 SHL DUP8 MSTORE DUP7 ADD MSTORE DUP5 ADD MSTORE DUP3 ADD MSTORE REVERT JUMPDEST PUSH32 0x53616665436C75623A2064757265652074726F7020636F757274650000000000 DUP7 SWAP2 PUSH1 0x1B DUP6 DUP14 DUP10 MLOAD SWAP6 PUSH3 0x461BCD PUSH1 0xE5 SHL DUP8 MSTORE DUP7 ADD MSTORE DUP5 ADD MSTORE DUP3 ADD MSTORE REVERT JUMPDEST PUSH4 0x4E487B71 PUSH1 0xE0 SHL DUP14 MSTORE PUSH1 0x11 DUP8 MSTORE DUP4 DUP14 REVERT JUMPDEST PUSH32 0x53616665436C75623A206D6F6E74616E742074726F7020656C65766500000000 DUP7 SWAP2 PUSH1 0x1C DUP6 DUP14 DUP10 MLOAD SWAP6 PUSH3 0x461BCD PUSH1 0xE5 SHL DUP8 MSTORE DUP7 ADD MSTORE DUP5 ADD MSTORE DUP3 ADD MSTORE REVERT JUMPDEST DUP8 DUP1 REVERT JUMPDEST POP POP CALLVALUE PUSH2 0x245 JUMPI DUP2 PUSH1 0x3 NOT CALLDATASIZE ADD SLT PUSH2 0x245 JUMPI PUSH2 0xD85 PUSH2 0x1A12 JUMP JUMPDEST PUSH2 0xD8D PUSH2 0x1A3E JUMP JUMPDEST PUSH1 0x1 PUSH1 0xFF NOT PUSH1 0x2 SLOAD AND OR PUSH1 0x2 SSTORE PUSH32 0x62E78CEA01BEE320CD4E420270B5EA74000D11B0C9F74754EBDBFC544B05A258 PUSH1 0x20 DUP3 MLOAD CALLER DUP2 MSTORE LOG1 MLOAD TIMESTAMP DUP2 MSTORE PUSH32 0x80170B5FCDD2BF1E0660EF4B8851F86685F64D41B1A19DE1471947ECE8725AAC PUSH1 0x20 CALLER SWAP3 LOG2 DUP1 RETURN JUMPDEST POP DUP3 CALLVALUE PUSH2 0x6DD JUMPI DUP1 PUSH1 0x3 NOT CALLDATASIZE ADD SLT PUSH2 0x6DD JUMPI SWAP2 SWAP1 DUP2 MLOAD SWAP3 DUP4 DUP3 SLOAD DUP1 DUP7 MSTORE PUSH1 0x20 DUP1 SWAP7 ADD SWAP1 DUP2 SWAP5 DUP5 MSTORE PUSH32 0x8A35ACFBC15FF81A39AE7D344FD709F28E8600B4AA8C65C6B64BFE7FE36BD19B SWAP1 DUP5 JUMPDEST DUP2 DUP2 LT PUSH2 0xE95 JUMPI POP POP POP DUP2 PUSH2 0xE51 SWAP2 SUB DUP3 PUSH2 0x1870 JUMP JUMPDEST DUP4 MLOAD SWAP5 DUP6 SWAP5 DUP2 DUP7 ADD SWAP3 DUP3 DUP8 MSTORE MLOAD DUP1 SWAP4 MSTORE DUP6 ADD SWAP4 SWAP3 JUMPDEST DUP3 DUP2 LT PUSH2 0xE75 JUMPI POP POP POP POP SUB SWAP1 RETURN JUMPDEST DUP4 MLOAD PUSH1 0x1 PUSH1 0x1 PUSH1 0xA0 SHL SUB AND DUP6 MSTORE DUP7 SWAP6 POP SWAP4 DUP2 ADD SWAP4 SWAP3 DUP2 ADD SWAP3 PUSH1 0x1 ADD PUSH2 0xE66 JUMP JUMPDEST DUP3 SLOAD PUSH1 0x1 PUSH1 0x1 PUSH1 0xA0 SHL SUB AND DUP5 MSTORE SWAP3 DUP9 ADD SWAP3 PUSH1 0x1 SWAP3 DUP4 ADD SWAP3 ADD PUSH2 0xE3B JUMP JUMPDEST POP SWAP1 CALLVALUE PUSH2 0x225 JUMPI PUSH1 0x20 CALLDATASIZE PUSH1 0x3 NOT ADD SLT PUSH2 0x225 JUMPI PUSH32 0xDA4BD2EA351B72D1A0ACE37C381FF426E3F4D0D1E7B5B040E550F47C998BF7F8 SWAP2 CALLDATALOAD PUSH2 0xEF0 PUSH2 0x1A12 JUMP JUMPDEST DUP1 ISZERO ISZERO DUP1 PUSH2 0xF26 JUMPI JUMPDEST PUSH2 0xF02 SWAP1 PUSH2 0x1DE8 JUMP JUMPDEST PUSH1 0x9 DUP1 SLOAD SWAP1 DUP3 SWAP1 SSTORE SWAP2 MLOAD SWAP2 DUP3 MSTORE PUSH1 0x20 DUP3 ADD MSTORE TIMESTAMP PUSH1 0x40 DUP3 ADD MSTORE DUP1 PUSH1 0x60 DUP2 ADD JUMPDEST SUB SWAP1 LOG1 DUP1 RETURN JUMPDEST POP PUSH1 0x64 DUP2 GT ISZERO PUSH2 0xEF9 JUMP JUMPDEST DUP4 CALLVALUE PUSH2 0x6DD JUMPI DUP1 PUSH1 0x3 NOT CALLDATASIZE ADD SLT PUSH2 0x6DD JUMPI PUSH2 0xF4A PUSH2 0x1A12 JUMP JUMPDEST DUP1 SLOAD PUSH1 0x1 PUSH1 0x1 PUSH1 0xA0 SHL SUB NOT DUP2 AND DUP3 SSTORE DUP2 SWAP1 PUSH1 0x1 PUSH1 0x1 PUSH1 0xA0 SHL SUB AND PUSH32 0x8BE0079C531659141344CD1FD0A4F28419497F9722A3DAAFE3B4186F6B6457E0 DUP3 DUP1 LOG3 DUP1 RETURN JUMPDEST POP POP CALLVALUE PUSH2 0x245 JUMPI DUP2 PUSH1 0x3 NOT CALLDATASIZE ADD SLT PUSH2 0x245 JUMPI PUSH1 0x20 SWAP1 PUSH1 0xFF PUSH1 0x2 SLOAD AND SWAP1 MLOAD SWAP1 ISZERO ISZERO DUP2 MSTORE RETURN JUMPDEST POP POP CALLVALUE PUSH2 0x245 JUMPI DUP2 PUSH1 0x3 NOT CALLDATASIZE ADD SLT PUSH2 0x245 JUMPI PUSH1 0x20 SWAP1 PUSH1 0x8 SLOAD SWAP1 MLOAD SWAP1 DUP2 MSTORE RETURN JUMPDEST POP CALLVALUE PUSH2 0x225 JUMPI DUP2 PUSH1 0x3 NOT CALLDATASIZE ADD SLT PUSH2 0x225 JUMPI PUSH1 0x24 CALLDATALOAD PUSH1 0x1 PUSH1 0x1 PUSH1 0xA0 SHL SUB DUP2 AND SWAP2 CALLDATALOAD SWAP1 DUP3 SWAP1 SUB PUSH2 0x1043 JUMPI PUSH1 0x20 SWAP4 PUSH1 0xFF SWAP3 DUP5 SWAP3 PUSH2 0x100B PUSH1 0x6 SLOAD DUP3 LT PUSH2 0x1C4D JUMP JUMPDEST DUP1 DUP4 MSTORE PUSH1 0x5 DUP8 MSTORE PUSH2 0x1026 DUP6 PUSH1 0x7 DUP7 DUP7 KECCAK256 ADD SLOAD PUSH1 0x8 SHR AND PUSH2 0x1C91 JUMP JUMPDEST DUP3 MSTORE PUSH1 0x5 DUP7 MSTORE PUSH1 0x9 DUP4 DUP4 KECCAK256 ADD SWAP1 DUP3 MSTORE DUP6 MSTORE KECCAK256 SLOAD AND SWAP1 MLOAD SWAP1 ISZERO ISZERO DUP2 MSTORE RETURN JUMPDEST DUP4 DUP1 REVERT JUMPDEST POP CALLVALUE PUSH2 0x225 JUMPI DUP3 PUSH1 0x3 NOT CALLDATASIZE ADD SLT PUSH2 0x225 JUMPI PUSH2 0x1060 PUSH2 0x1A12 JUMP JUMPDEST PUSH1 0x2 SLOAD SWAP1 PUSH1 0xFF DUP3 AND ISZERO PUSH2 0x10CB JUMPI POP PUSH1 0xFF NOT AND PUSH1 0x2 SSTORE PUSH32 0x5DB9EE0A495BF2E6FF9C91A7834C1BA4FDD244A5E8AA4E537BD38AEAE4B073AA PUSH1 0x20 DUP3 MLOAD CALLER DUP2 MSTORE LOG1 MLOAD TIMESTAMP DUP2 MSTORE PUSH32 0x107553D8191D85B405879CF752997865EDD48D94E20BDA4DD27223C94B31A7CC PUSH1 0x20 CALLER SWAP3 LOG2 DUP1 RETURN JUMPDEST DUP3 MLOAD PUSH4 0x8DFC202B PUSH1 0xE0 SHL DUP2 MSTORE REVERT JUMPDEST POP POP CALLVALUE PUSH2 0x245 JUMPI DUP2 PUSH1 0x3 NOT CALLDATASIZE ADD SLT PUSH2 0x245 JUMPI PUSH1 0x20 SWAP1 MLOAD PUSH9 0x2B5E3AF16B1880000 DUP2 MSTORE RETURN JUMPDEST POP SWAP1 CALLVALUE PUSH2 0x225 JUMPI PUSH1 0x20 CALLDATASIZE PUSH1 0x3 NOT ADD SLT PUSH2 0x225 JUMPI PUSH32 0x5384E77902E0A367DCB99BC04797DA1FAF6CF20207E7277DD78A7F0388DC08B8 SWAP2 CALLDATALOAD PUSH2 0x113B PUSH2 0x1A12 JUMP JUMPDEST DUP1 ISZERO ISZERO DUP1 PUSH2 0x116F JUMPI JUMPDEST PUSH2 0x114D SWAP1 PUSH2 0x1DE8 JUMP JUMPDEST PUSH1 0x8 DUP1 SLOAD SWAP1 DUP3 SWAP1 SSTORE SWAP2 MLOAD SWAP2 DUP3 MSTORE PUSH1 0x20 DUP3 ADD MSTORE TIMESTAMP PUSH1 0x40 DUP3 ADD MSTORE DUP1 PUSH1 0x60 DUP2 ADD PUSH2 0xF20 JUMP JUMPDEST POP PUSH1 0x64 DUP2 GT ISZERO PUSH2 0x1144 JUMP JUMPDEST POP POP CALLVALUE PUSH2 0x245 JUMPI DUP2 PUSH1 0x3 NOT CALLDATASIZE ADD SLT PUSH2 0x245 JUMPI PUSH1 0x20 SWAP1 PUSH1 0x9 SLOAD SWAP1 MLOAD SWAP1 DUP2 MSTORE RETURN JUMPDEST POP POP CALLVALUE PUSH2 0x245 JUMPI DUP2 PUSH1 0x3 NOT CALLDATASIZE ADD SLT PUSH2 0x245 JUMPI PUSH1 0x20 SWAP1 PUSH1 0x7 SLOAD SWAP1 MLOAD SWAP1 DUP2 MSTORE RETURN JUMPDEST POP POP CALLVALUE PUSH2 0x245 JUMPI DUP2 PUSH1 0x3 NOT CALLDATASIZE ADD SLT PUSH2 0x245 JUMPI MLOAD SELFBALANCE DUP2 MSTORE PUSH1 0x20 SWAP1 RETURN JUMPDEST POP SWAP1 CALLVALUE PUSH2 0x225 JUMPI PUSH1 0x20 SWAP1 DUP2 PUSH1 0x3 NOT CALLDATASIZE ADD SLT PUSH2 0x1043 JUMPI DUP3 CALLDATALOAD SWAP2 CALLER DUP6 MSTORE PUSH1 0x3 DUP2 MSTORE PUSH2 0x1201 PUSH1 0xFF DUP4 DUP8 KECCAK256 SLOAD AND PUSH2 0x1B95 JUMP JUMPDEST PUSH2 0x1209 PUSH2 0x1A3E JUMP JUMPDEST PUSH2 0x1216 PUSH1 0x6 SLOAD DUP5 LT PUSH2 0x1C4D JUMP JUMPDEST DUP3 DUP6 MSTORE PUSH1 0x5 DUP2 MSTORE PUSH2 0x1232 PUSH1 0xFF PUSH1 0x7 DUP5 DUP9 KECCAK256 ADD SLOAD PUSH1 0x8 SHR AND PUSH2 0x1C91 JUMP JUMPDEST DUP3 DUP6 MSTORE PUSH1 0x5 DUP2 MSTORE PUSH2 0x124C PUSH1 0xFF PUSH1 0x7 DUP5 DUP9 KECCAK256 ADD SLOAD AND ISZERO PUSH2 0x1CE7 JUMP JUMPDEST PUSH1 0x2 PUSH1 0x1 SLOAD EQ PUSH2 0x1509 JUMPI PUSH1 0x2 PUSH1 0x1 SSTORE DUP3 DUP6 MSTORE PUSH1 0x5 DUP2 MSTORE DUP2 DUP6 KECCAK256 SWAP4 PUSH1 0x6 DUP6 ADD SLOAD TIMESTAMP GT ISZERO PUSH2 0x14C8 JUMPI SELFBALANCE SWAP5 PUSH2 0x1285 PUSH1 0x3 DUP3 ADD SWAP7 DUP8 SLOAD GT ISZERO PUSH2 0x1BE1 JUMP JUMPDEST DUP2 DUP2 ADD SLOAD SWAP1 PUSH2 0x1298 PUSH1 0x5 DUP3 ADD SLOAD DUP4 PUSH2 0x1C40 JUMP JUMPDEST SWAP2 DUP4 SLOAD SWAP3 PUSH1 0x64 SWAP4 DUP5 DUP3 MUL DUP3 ISZERO SWAP2 DUP4 DUP3 DIV DUP8 EQ DUP4 OR ISZERO PUSH2 0x14B5 JUMPI PUSH1 0x8 SLOAD PUSH2 0x12BD SWAP2 PUSH2 0x1C2D JUMP JUMPDEST GT PUSH2 0x1473 JUMPI PUSH2 0x143A JUMPI DUP4 DUP3 MUL SWAP2 DUP1 DUP4 DIV DUP6 EQ SWAP1 ISZERO OR ISZERO PUSH2 0x1427 JUMPI PUSH1 0x9 SLOAD PUSH2 0x12E3 SWAP2 PUSH2 0x1C2D JUMP JUMPDEST GT PUSH2 0x13E7 JUMPI PUSH1 0x7 DUP2 DUP2 ADD DUP1 SLOAD PUSH1 0xFF NOT AND PUSH1 0x1 OR SWAP1 SSTORE SLOAD DUP1 ISZERO PUSH2 0x13D4 JUMPI PUSH1 0x0 NOT ADD PUSH1 0x7 SSTORE PUSH1 0x2 ADD DUP1 SLOAD DUP8 SLOAD PUSH1 0x1 PUSH1 0x1 PUSH1 0xA0 SHL SUB SWAP5 SWAP3 SWAP4 SWAP3 SWAP2 DUP11 SWAP2 DUP3 SWAP2 DUP3 SWAP2 DUP3 SWAP2 DUP10 AND GAS CALL RETURNDATASIZE ISZERO PUSH2 0x13CF JUMPI RETURNDATASIZE PUSH2 0x1336 DUP2 PUSH2 0x19A9 JUMP JUMPDEST SWAP1 PUSH2 0x1343 DUP10 MLOAD SWAP3 DUP4 PUSH2 0x1870 JUMP JUMPDEST DUP2 MSTORE DUP11 DUP8 RETURNDATASIZE SWAP3 ADD RETURNDATACOPY JUMPDEST ISZERO PUSH2 0x138F JUMPI POP POP SWAP1 PUSH32 0x2D436577633120007446FC8116BF731759187B21264EB8A052E92BE53C64C61E SWAP4 SWAP3 SWAP2 SLOAD AND SWAP5 SLOAD SWAP1 DUP3 MLOAD SWAP2 DUP3 MSTORE TIMESTAMP SWAP1 DUP3 ADD MSTORE LOG3 PUSH1 0x1 DUP1 SSTORE DUP1 RETURN JUMPDEST DUP6 MLOAD PUSH3 0x461BCD PUSH1 0xE5 SHL DUP2 MSTORE SWAP1 DUP2 ADD DUP6 SWAP1 MSTORE PUSH1 0x1A PUSH1 0x24 DUP3 ADD MSTORE PUSH32 0x53616665436C75623A207472616E7366657274206563686F7565000000000000 PUSH1 0x44 DUP3 ADD MSTORE REVERT JUMPDEST PUSH2 0x134C JUMP JUMPDEST PUSH4 0x4E487B71 PUSH1 0xE0 SHL DUP10 MSTORE PUSH1 0x11 DUP5 MSTORE PUSH1 0x24 DUP10 REVERT JUMPDEST POP SWAP2 DUP4 MLOAD SWAP2 PUSH3 0x461BCD PUSH1 0xE5 SHL DUP4 MSTORE DUP3 ADD MSTORE PUSH1 0x1D PUSH1 0x24 DUP3 ADD MSTORE PUSH32 0x53616665436C75623A2070726F706F736974696F6E2072656A65746565000000 PUSH1 0x44 DUP3 ADD MSTORE REVERT JUMPDEST PUSH4 0x4E487B71 PUSH1 0xE0 SHL DUP11 MSTORE PUSH1 0x11 DUP6 MSTORE PUSH1 0x24 DUP11 REVERT JUMPDEST POP POP POP SWAP2 DUP4 MLOAD SWAP2 PUSH3 0x461BCD PUSH1 0xE5 SHL DUP4 MSTORE DUP3 ADD MSTORE PUSH1 0x14 PUSH1 0x24 DUP3 ADD MSTORE PUSH20 0x53616665436C75623A20617563756E20766F7465 PUSH1 0x60 SHL PUSH1 0x44 DUP3 ADD MSTORE REVERT JUMPDEST DUP8 MLOAD PUSH3 0x461BCD PUSH1 0xE5 SHL DUP2 MSTORE DUP1 DUP8 ADD DUP9 SWAP1 MSTORE PUSH1 0x1C PUSH1 0x24 DUP3 ADD MSTORE PUSH32 0x53616665436C75623A2071756F72756D206E6F6E2061747465696E7400000000 PUSH1 0x44 DUP3 ADD MSTORE DUP6 SWAP1 REVERT JUMPDEST PUSH4 0x4E487B71 PUSH1 0xE0 SHL DUP14 MSTORE PUSH1 0x11 DUP9 MSTORE PUSH1 0x24 DUP14 REVERT JUMPDEST SWAP2 MLOAD PUSH3 0x461BCD PUSH1 0xE5 SHL DUP2 MSTORE SWAP2 DUP3 ADD MSTORE PUSH1 0x17 PUSH1 0x24 DUP3 ADD MSTORE PUSH32 0x53616665436C75623A20766F746520656E20636F757273000000000000000000 PUSH1 0x44 DUP3 ADD MSTORE PUSH1 0x64 SWAP1 REVERT JUMPDEST DUP2 MLOAD PUSH4 0x3EE5AEB5 PUSH1 0xE0 SHL DUP2 MSTORE DUP5 SWAP1 REVERT JUMPDEST POP DUP3 CALLVALUE PUSH2 0x6DD JUMPI PUSH1 0x20 SWAP3 DUP4 PUSH1 0x3 NOT CALLDATASIZE ADD SLT PUSH2 0x245 JUMPI PUSH2 0x1536 PUSH2 0x198E JUMP JUMPDEST SWAP4 PUSH2 0x153F PUSH2 0x1A12 JUMP JUMPDEST PUSH2 0x1547 PUSH2 0x1A3E JUMP JUMPDEST PUSH1 0x1 PUSH1 0x1 PUSH1 0xA0 SHL SUB SWAP5 DUP6 AND DUP1 DUP5 MSTORE PUSH1 0x3 DUP1 DUP4 MSTORE DUP4 DUP6 KECCAK256 SLOAD SWAP2 SWAP4 SWAP2 PUSH1 0xFF AND ISZERO PUSH2 0x16C8 JUMPI DUP7 DUP6 SLOAD AND DUP5 EQ PUSH2 0x167A JUMPI DUP4 DUP6 MSTORE DUP1 DUP4 MSTORE DUP2 DUP6 KECCAK256 DUP1 SLOAD PUSH1 0xFF NOT AND SWAP1 SSTORE DUP5 JUMPDEST DUP7 SLOAD DUP1 DUP3 LT ISZERO PUSH2 0x164A JUMPI DUP6 DUP10 PUSH2 0x159B DUP5 PUSH2 0x19C5 JUMP JUMPDEST SWAP1 SLOAD SWAP1 DUP7 SHL SHR AND EQ PUSH2 0x15B6 JUMPI POP PUSH2 0x15B1 SWAP1 PUSH2 0x1AED JUMP JUMPDEST PUSH2 0x1586 JUMP JUMPDEST SWAP8 SWAP1 PUSH1 0x0 SWAP8 SWAP3 SWAP4 SWAP5 SWAP6 SWAP7 SWAP8 NOT SWAP9 DUP10 DUP2 ADD SWAP1 DUP2 GT PUSH2 0x13D4 JUMPI SWAP1 PUSH2 0x37C DUP4 PUSH2 0x15DE PUSH2 0x15EB SWAP5 PUSH2 0x19C5 JUMP JUMPDEST SWAP1 SLOAD SWAP1 DUP9 SHL SHR AND SWAP2 PUSH2 0x19C5 JUMP JUMPDEST DUP2 SLOAD SWAP8 DUP9 ISZERO PUSH2 0x1637 JUMPI PUSH32 0x3AC963493DF564DE734D98633F1145D21512E282BA4C02D3C1011119BF7F2862 SWAP7 SWAP8 SWAP9 ADD SWAP3 PUSH2 0x1623 DUP5 PUSH2 0x19C5 JUMP JUMPDEST DUP2 SWAP4 SWAP2 SLOAD SWAP3 SHL SHL NOT AND SWAP1 SSTORE SSTORE MLOAD TIMESTAMP DUP2 MSTORE LOG2 DUP1 RETURN JUMPDEST PUSH4 0x4E487B71 PUSH1 0xE0 SHL DUP9 MSTORE PUSH1 0x31 DUP4 MSTORE PUSH1 0x24 DUP9 REVERT JUMPDEST POP POP POP SWAP1 SWAP2 SWAP4 POP PUSH32 0x3AC963493DF564DE734D98633F1145D21512E282BA4C02D3C1011119BF7F2862 SWAP3 SWAP5 POP PUSH2 0x39B JUMP JUMPDEST DUP2 MLOAD PUSH3 0x461BCD PUSH1 0xE5 SHL DUP2 MSTORE DUP1 DUP8 ADD DUP5 SWAP1 MSTORE PUSH1 0x22 PUSH1 0x24 DUP3 ADD MSTORE PUSH32 0x53616665436C75623A20696D706F737369626C652072657469726572206F776E PUSH1 0x44 DUP3 ADD MSTORE PUSH2 0x32B9 PUSH1 0xF1 SHL PUSH1 0x64 DUP3 ADD MSTORE PUSH1 0x84 SWAP1 REVERT JUMPDEST DUP2 MLOAD PUSH3 0x461BCD PUSH1 0xE5 SHL DUP2 MSTORE DUP1 DUP8 ADD DUP5 SWAP1 MSTORE PUSH1 0x14 PUSH1 0x24 DUP3 ADD MSTORE PUSH20 0x53616665436C75623A206E6F6E206D656D627265 PUSH1 0x60 SHL PUSH1 0x44 DUP3 ADD MSTORE PUSH1 0x64 SWAP1 REVERT JUMPDEST POP POP CALLVALUE PUSH2 0x245 JUMPI PUSH1 0x20 CALLDATASIZE PUSH1 0x3 NOT ADD SLT PUSH2 0x245 JUMPI SWAP1 DUP2 SWAP1 PUSH1 0x1 PUSH1 0x1 PUSH1 0xA0 SHL SUB PUSH2 0x1728 PUSH2 0x198E JUMP JUMPDEST AND DUP2 MSTORE PUSH1 0x3 PUSH1 0x20 MSTORE KECCAK256 SWAP1 PUSH2 0x176F PUSH1 0xFF DUP4 SLOAD AND SWAP2 PUSH1 0x1 DUP5 ADD SLOAD SWAP4 PUSH1 0x3 PUSH1 0x2 DUP3 ADD SLOAD SWAP2 ADD SLOAD SWAP2 MLOAD SWAP5 DUP6 SWAP5 DUP6 SWAP1 SWAP5 SWAP4 SWAP3 PUSH1 0x60 SWAP3 PUSH1 0x80 DUP4 ADD SWAP7 ISZERO ISZERO DUP4 MSTORE PUSH1 0x20 DUP4 ADD MSTORE PUSH1 0x40 DUP3 ADD MSTORE ADD MSTORE JUMP JUMPDEST SUB SWAP1 RETURN JUMPDEST POP DUP3 CALLVALUE PUSH2 0x6DD JUMPI PUSH1 0x20 CALLDATASIZE PUSH1 0x3 NOT ADD SLT PUSH2 0x6DD JUMPI DUP3 SWAP1 DUP3 CALLDATALOAD DUP2 MSTORE PUSH1 0x5 PUSH1 0x20 MSTORE KECCAK256 SWAP2 DUP3 SLOAD SWAP2 PUSH2 0x17A2 PUSH1 0x1 DUP6 ADD PUSH2 0x18A8 JUMP JUMPDEST SWAP4 PUSH1 0x1 DUP1 PUSH1 0xA0 SHL SUB SWAP1 DUP2 PUSH1 0x2 DUP3 ADD SLOAD AND SWAP3 PUSH1 0x3 DUP3 ADD SLOAD SWAP1 DUP3 ADD SLOAD PUSH1 0x5 DUP4 ADD SLOAD SWAP1 PUSH1 0x6 DUP5 ADD SLOAD SWAP3 PUSH1 0x8 PUSH1 0x7 DUP7 ADD SLOAD SWAP6 ADD SLOAD SWAP7 PUSH2 0x17F0 DUP10 MLOAD SWAP12 DUP13 SWAP12 DUP13 MSTORE PUSH1 0x20 DUP13 PUSH2 0x160 SWAP2 DUP3 SWAP2 ADD MSTORE DUP13 ADD SWAP1 PUSH2 0x194E JUMP JUMPDEST SWAP9 DUP11 ADD MSTORE PUSH1 0x60 DUP10 ADD MSTORE PUSH1 0x80 DUP9 ADD MSTORE PUSH1 0xA0 DUP8 ADD MSTORE PUSH1 0xC0 DUP7 ADD MSTORE PUSH1 0xFF DUP2 AND ISZERO ISZERO PUSH1 0xE0 DUP7 ADD MSTORE PUSH1 0xFF DUP2 PUSH1 0x8 SHR AND ISZERO ISZERO PUSH2 0x100 DUP7 ADD MSTORE PUSH1 0x10 SHR AND PUSH2 0x120 DUP5 ADD MSTORE PUSH2 0x140 DUP4 ADD MSTORE SUB SWAP1 RETURN JUMPDEST SWAP1 PUSH1 0x1 DUP3 DUP2 SHR SWAP3 AND DUP1 ISZERO PUSH2 0x1866 JUMPI JUMPDEST PUSH1 0x20 DUP4 LT EQ PUSH2 0x1850 JUMPI JUMP JUMPDEST PUSH4 0x4E487B71 PUSH1 0xE0 SHL PUSH1 0x0 MSTORE PUSH1 0x22 PUSH1 0x4 MSTORE PUSH1 0x24 PUSH1 0x0 REVERT JUMPDEST SWAP2 PUSH1 0x7F AND SWAP2 PUSH2 0x1845 JUMP JUMPDEST SWAP1 PUSH1 0x1F DUP1 NOT SWAP2 ADD AND DUP2 ADD SWAP1 DUP2 LT PUSH8 0xFFFFFFFFFFFFFFFF DUP3 GT OR PUSH2 0x1892 JUMPI PUSH1 0x40 MSTORE JUMP JUMPDEST PUSH4 0x4E487B71 PUSH1 0xE0 SHL PUSH1 0x0 MSTORE PUSH1 0x41 PUSH1 0x4 MSTORE PUSH1 0x24 PUSH1 0x0 REVERT JUMPDEST SWAP1 PUSH1 0x40 MLOAD SWAP2 DUP3 PUSH1 0x0 DUP3 SLOAD SWAP3 PUSH2 0x18BC DUP5 PUSH2 0x1836 JUMP JUMPDEST SWAP1 DUP2 DUP5 MSTORE PUSH1 0x1 SWAP5 DUP6 DUP2 AND SWAP1 DUP2 PUSH1 0x0 EQ PUSH2 0x192B JUMPI POP PUSH1 0x1 EQ PUSH2 0x18E8 JUMPI JUMPDEST POP POP PUSH2 0x18E6 SWAP3 POP SUB DUP4 PUSH2 0x1870 JUMP JUMPDEST JUMP JUMPDEST SWAP1 SWAP4 SWAP2 POP PUSH1 0x0 MSTORE PUSH1 0x20 SWAP1 DUP2 PUSH1 0x0 KECCAK256 SWAP4 PUSH1 0x0 SWAP2 JUMPDEST DUP2 DUP4 LT PUSH2 0x1913 JUMPI POP POP PUSH2 0x18E6 SWAP4 POP DUP3 ADD ADD CODESIZE DUP1 PUSH2 0x18D8 JUMP JUMPDEST DUP6 SLOAD DUP9 DUP5 ADD DUP6 ADD MSTORE SWAP5 DUP6 ADD SWAP5 DUP8 SWAP5 POP SWAP2 DUP4 ADD SWAP2 PUSH2 0x18FB JUMP JUMPDEST SWAP2 POP POP PUSH2 0x18E6 SWAP5 POP PUSH1 0x20 SWAP3 POP PUSH1 0xFF NOT AND DUP3 DUP5 ADD MSTORE ISZERO ISZERO PUSH1 0x5 SHL DUP3 ADD ADD CODESIZE DUP1 PUSH2 0x18D8 JUMP JUMPDEST SWAP2 SWAP1 DUP3 MLOAD SWAP3 DUP4 DUP3 MSTORE PUSH1 0x0 JUMPDEST DUP5 DUP2 LT PUSH2 0x197A JUMPI POP POP DUP3 PUSH1 0x0 PUSH1 0x20 DUP1 SWAP5 SWAP6 DUP5 ADD ADD MSTORE PUSH1 0x1F DUP1 NOT SWAP2 ADD AND ADD ADD SWAP1 JUMP JUMPDEST PUSH1 0x20 DUP2 DUP4 ADD DUP2 ADD MLOAD DUP5 DUP4 ADD DUP3 ADD MSTORE ADD PUSH2 0x1959 JUMP JUMPDEST PUSH1 0x4 CALLDATALOAD SWAP1 PUSH1 0x1 PUSH1 0x1 PUSH1 0xA0 SHL SUB DUP3 AND DUP3 SUB PUSH2 0x19A4 JUMPI JUMP JUMPDEST PUSH1 0x0 DUP1 REVERT JUMPDEST PUSH8 0xFFFFFFFFFFFFFFFF DUP2 GT PUSH2 0x1892 JUMPI PUSH1 0x1F ADD PUSH1 0x1F NOT AND PUSH1 0x20 ADD SWAP1 JUMP JUMPDEST PUSH1 0x4 SLOAD DUP2 LT ISZERO PUSH2 0x19FC JUMPI PUSH1 0x4 PUSH1 0x0 MSTORE PUSH32 0x8A35ACFBC15FF81A39AE7D344FD709F28E8600B4AA8C65C6B64BFE7FE36BD19B ADD SWAP1 PUSH1 0x0 SWAP1 JUMP JUMPDEST PUSH4 0x4E487B71 PUSH1 0xE0 SHL PUSH1 0x0 MSTORE PUSH1 0x32 PUSH1 0x4 MSTORE PUSH1 0x24 PUSH1 0x0 REVERT JUMPDEST PUSH1 0x0 SLOAD PUSH1 0x1 PUSH1 0x1 PUSH1 0xA0 SHL SUB AND CALLER SUB PUSH2 0x1A26 JUMPI JUMP JUMPDEST PUSH1 0x40 MLOAD PUSH4 0x118CDAA7 PUSH1 0xE0 SHL DUP2 MSTORE CALLER PUSH1 0x4 DUP3 ADD MSTORE PUSH1 0x24 SWAP1 REVERT JUMPDEST PUSH1 0xFF PUSH1 0x2 SLOAD AND PUSH2 0x1A4A JUMPI JUMP JUMPDEST PUSH1 0x40 MLOAD PUSH4 0xD93C0665 PUSH1 0xE0 SHL DUP2 MSTORE PUSH1 0x4 SWAP1 REVERT JUMPDEST ISZERO PUSH2 0x1A63 JUMPI JUMP JUMPDEST PUSH1 0x40 MLOAD PUSH3 0x461BCD PUSH1 0xE5 SHL DUP2 MSTORE PUSH1 0x20 PUSH1 0x4 DUP3 ADD MSTORE PUSH1 0x16 PUSH1 0x24 DUP3 ADD MSTORE PUSH22 0x53616665436C75623A2061647265737365207A65726F PUSH1 0x50 SHL PUSH1 0x44 DUP3 ADD MSTORE PUSH1 0x64 SWAP1 REVERT JUMPDEST ISZERO PUSH2 0x1AA8 JUMPI JUMP JUMPDEST PUSH1 0x40 MLOAD PUSH3 0x461BCD PUSH1 0xE5 SHL DUP2 MSTORE PUSH1 0x20 PUSH1 0x4 DUP3 ADD MSTORE PUSH1 0x19 PUSH1 0x24 DUP3 ADD MSTORE PUSH32 0x53616665436C75623A206164726573736520636F6E7472617400000000000000 PUSH1 0x44 DUP3 ADD MSTORE PUSH1 0x64 SWAP1 REVERT JUMPDEST PUSH1 0x0 NOT DUP2 EQ PUSH2 0x1AFC JUMPI PUSH1 0x1 ADD SWAP1 JUMP JUMPDEST PUSH4 0x4E487B71 PUSH1 0xE0 SHL PUSH1 0x0 MSTORE PUSH1 0x11 PUSH1 0x4 MSTORE PUSH1 0x24 PUSH1 0x0 REVERT JUMPDEST ISZERO PUSH2 0x1B19 JUMPI JUMP JUMPDEST PUSH1 0x40 MLOAD PUSH3 0x461BCD PUSH1 0xE5 SHL DUP2 MSTORE PUSH1 0x20 PUSH1 0x4 DUP3 ADD MSTORE PUSH1 0x15 PUSH1 0x24 DUP3 ADD MSTORE PUSH21 0x14D8599950DB1D588E881B5BDB9D185B9D081B9D5B PUSH1 0x5A SHL PUSH1 0x44 DUP3 ADD MSTORE PUSH1 0x64 SWAP1 REVERT JUMPDEST PUSH2 0x1B61 CALLVALUE ISZERO ISZERO PUSH2 0x1B12 JUMP JUMPDEST PUSH1 0x40 MLOAD CALLVALUE DUP2 MSTORE TIMESTAMP PUSH1 0x20 DUP3 ADD MSTORE PUSH32 0x363F315F930A17D1266B86A20D6DD34B1CFBC5A9DB9F13A65D06A689C3A2AF8A PUSH1 0x40 CALLER SWAP3 LOG2 JUMP JUMPDEST ISZERO PUSH2 0x1B9C JUMPI JUMP JUMPDEST PUSH1 0x40 MLOAD PUSH3 0x461BCD PUSH1 0xE5 SHL DUP2 MSTORE PUSH1 0x20 PUSH1 0x4 DUP3 ADD MSTORE PUSH1 0x1D PUSH1 0x24 DUP3 ADD MSTORE PUSH32 0x53616665436C75623A20617070656C616E74206E6F6E206D656D627265000000 PUSH1 0x44 DUP3 ADD MSTORE PUSH1 0x64 SWAP1 REVERT JUMPDEST ISZERO PUSH2 0x1BE8 JUMPI JUMP JUMPDEST PUSH1 0x40 MLOAD PUSH3 0x461BCD PUSH1 0xE5 SHL DUP2 MSTORE PUSH1 0x20 PUSH1 0x4 DUP3 ADD MSTORE PUSH1 0x1C PUSH1 0x24 DUP3 ADD MSTORE PUSH32 0x53616665436C75623A20666F6E647320696E737566666973616E747300000000 PUSH1 0x44 DUP3 ADD MSTORE PUSH1 0x64 SWAP1 REVERT JUMPDEST DUP2 DUP2 MUL SWAP3 SWAP2 DUP2 ISZERO SWAP2 DUP5 DIV EQ OR ISZERO PUSH2 0x1AFC JUMPI JUMP JUMPDEST SWAP2 SWAP1 DUP3 ADD DUP1 SWAP3 GT PUSH2 0x1AFC JUMPI JUMP JUMPDEST ISZERO PUSH2 0x1C54 JUMPI JUMP JUMPDEST PUSH1 0x40 MLOAD PUSH3 0x461BCD PUSH1 0xE5 SHL DUP2 MSTORE PUSH1 0x20 PUSH1 0x4 DUP3 ADD MSTORE PUSH1 0x15 PUSH1 0x24 DUP3 ADD MSTORE PUSH21 0x53616665436C75623A20494420696E76616C696465 PUSH1 0x58 SHL PUSH1 0x44 DUP3 ADD MSTORE PUSH1 0x64 SWAP1 REVERT JUMPDEST ISZERO PUSH2 0x1C98 JUMPI JUMP JUMPDEST PUSH1 0x40 MLOAD PUSH3 0x461BCD PUSH1 0xE5 SHL DUP2 MSTORE PUSH1 0x20 PUSH1 0x4 DUP3 ADD MSTORE PUSH1 0x21 PUSH1 0x24 DUP3 ADD MSTORE PUSH32 0x53616665436C75623A2070726F706F736974696F6E20696E6578697374616E74 PUSH1 0x44 DUP3 ADD MSTORE PUSH1 0x65 PUSH1 0xF8 SHL PUSH1 0x64 DUP3 ADD MSTORE PUSH1 0x84 SWAP1 REVERT JUMPDEST ISZERO PUSH2 0x1CEE JUMPI JUMP JUMPDEST PUSH1 0x40 MLOAD PUSH3 0x461BCD PUSH1 0xE5 SHL DUP2 MSTORE PUSH1 0x20 PUSH1 0x4 DUP3 ADD MSTORE PUSH1 0x17 PUSH1 0x24 DUP3 ADD MSTORE PUSH32 0x53616665436C75623A2064656A61206578656375746565000000000000000000 PUSH1 0x44 DUP3 ADD MSTORE PUSH1 0x64 SWAP1 REVERT JUMPDEST PUSH1 0x0 SWAP1 DUP2 MSTORE PUSH1 0x5 PUSH1 0x20 MSTORE PUSH1 0x40 DUP2 KECCAK256 PUSH1 0x6 DUP2 ADD SLOAD TIMESTAMP GT ISZERO PUSH2 0x1DE4 JUMPI PUSH2 0x1D60 PUSH1 0x5 PUSH1 0x4 DUP4 ADD SLOAD SWAP3 ADD SLOAD DUP3 PUSH2 0x1C40 JUMP JUMPDEST DUP1 ISZERO PUSH2 0x1DDF JUMPI PUSH1 0x4 SLOAD PUSH1 0x64 DUP3 MUL SWAP1 DUP3 DUP3 DIV PUSH1 0x64 SUB PUSH2 0x1DCB JUMPI PUSH1 0x8 SLOAD PUSH2 0x1D84 SWAP2 PUSH2 0x1C2D JUMP JUMPDEST GT ISZERO SWAP3 PUSH1 0x64 DUP4 MUL SWAP3 DUP1 DUP5 DIV PUSH1 0x64 EQ SWAP1 ISZERO OR ISZERO PUSH2 0x1DB7 JUMPI POP PUSH1 0x9 SLOAD PUSH2 0x1DA7 SWAP2 PUSH2 0x1C2D JUMP JUMPDEST GT ISZERO DUP2 PUSH2 0x1DB2 JUMPI POP SWAP1 JUMP JUMPDEST SWAP1 POP SWAP1 JUMP JUMPDEST PUSH4 0x4E487B71 PUSH1 0xE0 SHL DUP2 MSTORE PUSH1 0x11 PUSH1 0x4 MSTORE PUSH1 0x24 SWAP1 REVERT JUMPDEST PUSH4 0x4E487B71 PUSH1 0xE0 SHL DUP6 MSTORE PUSH1 0x11 PUSH1 0x4 MSTORE PUSH1 0x24 DUP6 REVERT JUMPDEST POP POP SWAP1 JUMP JUMPDEST POP SWAP1 JUMP JUMPDEST ISZERO PUSH2 0x1DEF JUMPI JUMP JUMPDEST PUSH1 0x40 MLOAD PUSH3 0x461BCD PUSH1 0xE5 SHL DUP2 MSTORE PUSH1 0x20 PUSH1 0x4 DUP3 ADD MSTORE PUSH1 0x1E PUSH1 0x24 DUP3 ADD MSTORE PUSH32 0x53616665436C75623A20706F757263656E7461676520696E76616C6964650000 PUSH1 0x44 DUP3 ADD MSTORE PUSH1 0x64 SWAP1 REVERT INVALID LOG2 PUSH5 0x6970667358 0x22 SLT KECCAK256 BALANCE DUP5 PUSH17 0xE1500507D58543C54DF0FB35E0706FAF5D DUP13 0x27 0xE7 PUSH14 0xD533684FA244305164736F6C6343 STOP ADDMOD EQ STOP CALLER "},"methodIdentifiers":{"MAX_ACTIVE_PROPOSALS()":"a91937ad","MAX_MEMBERS()":"ea0e35b1","MAX_PROPOSAL_AMOUNT()":"3340a176","MAX_PROPOSAL_DURATION()":"bd968216","MIN_PROPOSAL_DURATION()":"944ee22d","activeProposalsCount()":"2116c347","addMember(address)":"ca6d56dc","approvalPercentage()":"3008d437","createProposal(string,address,uint256,uint256)":"8743dae6","executeProposal(uint256)":"0d61b519","getAllMembers()":"7c0f6b35","getBalance()":"12065fe0","getMemberCount()":"997072f7","getProposal(uint256)":"c7f758a8","hasVoted(uint256,address)":"43859632","isMember(address)":"a230c524","isProposalApproved(uint256)":"9abcc0cc","memberList(uint256)":"b307fc6d","members(address)":"08ae4b0c","owner()":"8da5cb5b","pause()":"8456cb59","paused()":"5c975abb","proposalCount()":"da35c664","proposals(uint256)":"013cf08b","quorumPercentage()":"4fa76ec9","removeMember(address)":"0b1ca49a","renounceOwnership()":"715018a6","setApprovalPercentage(uint256)":"784f80f8","setQuorumPercentage(uint256)":"32f6a1dc","transferOwnership(address)":"f2fde38b","unpause()":"3f4ba83a","vote(uint256,bool)":"c9d27afe"}}}}}