{"contracts/ReentrancyAttacker.sol":{"ReentrancyAttacker":{"abi":[{"inputs":[{"internalType":"address","name":"_target","type":"address"}],"stateMutability":"nonpayable","type":"constructor"},{"anonymous":false,"inputs":[{"indexed":false,"internalType":"uint256","name":"count","type":"uint256"}],"name":"AttackAttempted","type":"event"},{"anonymous":false,"inputs":[{"indexed":false,"internalType":"string","name":"reason","type":"string"}],"name":"AttackFailed","type":"event"},{"inputs":[],"name":"attackCount","outputs":[{"internalType":"uint256","name":"","type":"uint256"}],"stateMutability":"view","type":"function"},{"inputs":[],"name":"attackEnabled","outputs":[{"internalType":"bool","name":"","type":"bool"}],"stateMutability":"view","type":"function"},{"inputs":[],"name":"maxAttacks","outputs":[{"internalType":"uint256","name":"","type":"uint256"}],"stateMutability":"view","type":"function"},{"inputs":[],"name":"resetAttackCount","outputs":[],"stateMutability":"nonpayable","type":"function"},{"inputs":[{"internalType":"bool","name":"_enabled","type":"bool"}],"name":"setAttackEnabled","outputs":[],"stateMutability":"nonpayable","type":"function"},{"inputs":[],"name":"target","outputs":[{"internalType":"contract ISafeClub","name":"","type":"address"}],"stateMutability":"view","type":"function"},{"inputs":[],"name":"withdraw","outputs":[],"stateMutability":"nonpayable","type":"function"},{"stateMutability":"payable","type":"receive"}],"evm":{"bytecode":{"linkReferences":{},"object":"60803461008257601f6104d938819003918201601f19168301916001600160401b038311848410176100875780849260209460405283398101031261008257516001600160a01b03811690819003610082576003600255600160ff19600354161760035560018060a01b0319600054161760005560405161043b908161009e8239f35b600080fd5b634e487b7160e01b600052604160045260246000fdfe604060808152600490813610156101fd575b361561001c57600080fd5b6003549160ff60009316806101f0575b61003257005b60015460001981146101dd57600101928360015582519384527f9de7696c1ddde10847858955a8530cc578ad5b8a8887b231fad51acf0a4cfa0a60208095a180546001600160a01b0316803b156101d9578180916024865180958193630d61b51960e01b835281898401525af191826101af575b50906100cc57600191819060033d1161019f575b506308c379a014610115575b506100ce575b005b7ff7ce286cb87e5c742d8641799444d56f1df046fa657c97d13b6f4fddb35a8cc3916c2ab735b737bbb71032b93937b960991b82600d6060945193808552840152820152a1005b61011d610367565b908161012a575b506100c6565b809192509183805191868352805190818885015287855b83811061018957505050807ff7ce286cb87e5c742d8641799444d56f1df046fa657c97d13b6f4fddb35a8cc39483859384010152601f80199101168101030190a13880610124565b8083018201518187018a01528894508101610141565b905081803e805160e01c386100ba565b67ffffffffffffffff81116101c6578452386100a6565b634e487b7160e01b825260418452602482fd5b5080fd5b634e487b7160e01b845260118252602484fd5b506001546002541161002c565b6000803560e01c80633ccfd60b14610329578063407c28211461030a5780637aef8474146102ef57806390a7561d146102c0578063a37573d6146102a1578063d4b83992146102795763d7751b85146102565750610011565b90346101d957816003193601126101d95760209060ff6003541690519015158152f35b5090346101d957816003193601126101d957905490516001600160a01b039091168152602090f35b5090346101d957816003193601126101d9576020906002549051908152f35b5082346101d95760203660031901126101d957358015158091036101d95760ff80196003541691161760035580f35b50346103075780600319360112610307578060015580f35b80fd5b5090346101d957816003193601126101d9576020906001549051908152f35b5090346101d957816003193601126101d957818080804781811561035e575b3390f115610354575080f35b51903d90823e3d90fd5b506108fc610348565b600060443d10610402576040516003193d81016004833e815167ffffffffffffffff918282113d6024840111176103fb57818401948551918483116103f1573d860101602083880101116103e8575001603f01601f1916820191908211908210176103d25760405290565b634e487b7160e01b600052604160045260246000fd5b95945050505050565b5095945050505050565b5050505090565b9056fea2646970667358221220445bff78b4a9f88f27dfd3c6d7561915797f976767ecac68509fc09934bbe03664736f6c63430008140033","opcodes":"PUSH1 0x80 CALLVALUE PUSH2 0x82 JUMPI PUSH1 0x1F PUSH2 0x4D9 CODESIZE DUP2 SWAP1 SUB SWAP2 DUP3 ADD PUSH1 0x1F NOT AND DUP4 ADD SWAP2 PUSH1 0x1 PUSH1 0x1 PUSH1 0x40 SHL SUB DUP4 GT DUP5 DUP5 LT OR PUSH2 0x87 JUMPI DUP1 DUP5 SWAP3 PUSH1 0x20 SWAP5 PUSH1 0x40 MSTORE DUP4 CODECOPY DUP2 ADD SUB SLT PUSH2 0x82 JUMPI MLOAD PUSH1 0x1 PUSH1 0x1 PUSH1 0xA0 SHL SUB DUP2 AND SWAP1 DUP2 SWAP1 SUB PUSH2 0x82 JUMPI PUSH1 0x3 PUSH1 0x2 SSTORE PUSH1 0x1 PUSH1 0xFF NOT PUSH1 0x3 SLOAD AND OR PUSH1 0x3 SSTORE PUSH1 0x1 DUP1 PUSH1 0xA0 SHL SUB NOT PUSH1 0x0 SLOAD AND OR PUSH1 0x0 SSTORE PUSH1 0x40 MLOAD PUSH2 0x43B SWAP1 DUP2 PUSH2 0x9E DUP3 CODECOPY RETURN JUMPDEST PUSH1 0x0 DUP1 REVERT JUMPDEST PUSH4 0x4E487B71 PUSH1 0xE0 SHL PUSH1 0x0 MSTORE PUSH1 0x41 PUSH1 0x4 MSTORE PUSH1 0x24 PUSH1 0x0 REVERT INVALID PUSH1 0x40 PUSH1 0x80 DUP2 MSTORE PUSH1 0x4 SWAP1 DUP2 CALLDATASIZE LT ISZERO PUSH2 0x1FD JUMPI JUMPDEST CALLDATASIZE ISZERO PUSH2 0x1C JUMPI PUSH1 0x0 DUP1 REVERT JUMPDEST PUSH1 0x3 SLOAD SWAP2 PUSH1 0xFF PUSH1 0x0 SWAP4 AND DUP1 PUSH2 0x1F0 JUMPI JUMPDEST PUSH2 0x32 JUMPI STOP JUMPDEST PUSH1 0x1 SLOAD PUSH1 0x0 NOT DUP2 EQ PUSH2 0x1DD JUMPI PUSH1 0x1 ADD SWAP3 DUP4 PUSH1 0x1 SSTORE DUP3 MLOAD SWAP4 DUP5 MSTORE PUSH32 0x9DE7696C1DDDE10847858955A8530CC578AD5B8A8887B231FAD51ACF0A4CFA0A PUSH1 0x20 DUP1 SWAP6 LOG1 DUP1 SLOAD PUSH1 0x1 PUSH1 0x1 PUSH1 0xA0 SHL SUB AND DUP1 EXTCODESIZE ISZERO PUSH2 0x1D9 JUMPI DUP2 DUP1 SWAP2 PUSH1 0x24 DUP7 MLOAD DUP1 SWAP6 DUP2 SWAP4 PUSH4 0xD61B519 PUSH1 0xE0 SHL DUP4 MSTORE DUP2 DUP10 DUP5 ADD MSTORE GAS CALL SWAP2 DUP3 PUSH2 0x1AF JUMPI JUMPDEST POP SWAP1 PUSH2 0xCC JUMPI PUSH1 0x1 SWAP2 DUP2 SWAP1 PUSH1 0x3 RETURNDATASIZE GT PUSH2 0x19F JUMPI JUMPDEST POP PUSH4 0x8C379A0 EQ PUSH2 0x115 JUMPI JUMPDEST POP PUSH2 0xCE JUMPI JUMPDEST STOP JUMPDEST PUSH32 0xF7CE286CB87E5C742D8641799444D56F1DF046FA657C97D13B6F4FDDB35A8CC3 SWAP2 PUSH13 0x2AB735B737BBB71032B93937B9 PUSH1 0x99 SHL DUP3 PUSH1 0xD PUSH1 0x60 SWAP5 MLOAD SWAP4 DUP1 DUP6 MSTORE DUP5 ADD MSTORE DUP3 ADD MSTORE LOG1 STOP JUMPDEST PUSH2 0x11D PUSH2 0x367 JUMP JUMPDEST SWAP1 DUP2 PUSH2 0x12A JUMPI JUMPDEST POP PUSH2 0xC6 JUMP JUMPDEST DUP1 SWAP2 SWAP3 POP SWAP2 DUP4 DUP1 MLOAD SWAP2 DUP7 DUP4 MSTORE DUP1 MLOAD SWAP1 DUP2 DUP9 DUP6 ADD MSTORE DUP8 DUP6 JUMPDEST DUP4 DUP2 LT PUSH2 0x189 JUMPI POP POP POP DUP1 PUSH32 0xF7CE286CB87E5C742D8641799444D56F1DF046FA657C97D13B6F4FDDB35A8CC3 SWAP5 DUP4 DUP6 SWAP4 DUP5 ADD ADD MSTORE PUSH1 0x1F DUP1 NOT SWAP2 ADD AND DUP2 ADD SUB ADD SWAP1 LOG1 CODESIZE DUP1 PUSH2 0x124 JUMP JUMPDEST DUP1 DUP4 ADD DUP3 ADD MLOAD DUP2 DUP8 ADD DUP11 ADD MSTORE DUP9 SWAP5 POP DUP2 ADD PUSH2 0x141 JUMP JUMPDEST SWAP1 POP DUP2 DUP1 RETURNDATACOPY DUP1 MLOAD PUSH1 0xE0 SHR CODESIZE PUSH2 0xBA JUMP JUMPDEST PUSH8 0xFFFFFFFFFFFFFFFF DUP2 GT PUSH2 0x1C6 JUMPI DUP5 MSTORE CODESIZE PUSH2 0xA6 JUMP JUMPDEST PUSH4 0x4E487B71 PUSH1 0xE0 SHL DUP3 MSTORE PUSH1 0x41 DUP5 MSTORE PUSH1 0x24 DUP3 REVERT JUMPDEST POP DUP1 REVERT JUMPDEST PUSH4 0x4E487B71 PUSH1 0xE0 SHL DUP5 MSTORE PUSH1 0x11 DUP3 MSTORE PUSH1 0x24 DUP5 REVERT JUMPDEST POP PUSH1 0x1 SLOAD PUSH1 0x2 SLOAD GT PUSH2 0x2C JUMP JUMPDEST PUSH1 0x0 DUP1 CALLDATALOAD PUSH1 0xE0 SHR DUP1 PUSH4 0x3CCFD60B EQ PUSH2 0x329 JUMPI DUP1 PUSH4 0x407C2821 EQ PUSH2 0x30A JUMPI DUP1 PUSH4 0x7AEF8474 EQ PUSH2 0x2EF JUMPI DUP1 PUSH4 0x90A7561D EQ PUSH2 0x2C0 JUMPI DUP1 PUSH4 0xA37573D6 EQ PUSH2 0x2A1 JUMPI DUP1 PUSH4 0xD4B83992 EQ PUSH2 0x279 JUMPI PUSH4 0xD7751B85 EQ PUSH2 0x256 JUMPI POP PUSH2 0x11 JUMP JUMPDEST SWAP1 CALLVALUE PUSH2 0x1D9 JUMPI DUP2 PUSH1 0x3 NOT CALLDATASIZE ADD SLT PUSH2 0x1D9 JUMPI PUSH1 0x20 SWAP1 PUSH1 0xFF PUSH1 0x3 SLOAD AND SWAP1 MLOAD SWAP1 ISZERO ISZERO DUP2 MSTORE RETURN JUMPDEST POP SWAP1 CALLVALUE PUSH2 0x1D9 JUMPI DUP2 PUSH1 0x3 NOT CALLDATASIZE ADD SLT PUSH2 0x1D9 JUMPI SWAP1 SLOAD SWAP1 MLOAD PUSH1 0x1 PUSH1 0x1 PUSH1 0xA0 SHL SUB SWAP1 SWAP2 AND DUP2 MSTORE PUSH1 0x20 SWAP1 RETURN JUMPDEST POP SWAP1 CALLVALUE PUSH2 0x1D9 JUMPI DUP2 PUSH1 0x3 NOT CALLDATASIZE ADD SLT PUSH2 0x1D9 JUMPI PUSH1 0x20 SWAP1 PUSH1 0x2 SLOAD SWAP1 MLOAD SWAP1 DUP2 MSTORE RETURN JUMPDEST POP DUP3 CALLVALUE PUSH2 0x1D9 JUMPI PUSH1 0x20 CALLDATASIZE PUSH1 0x3 NOT ADD SLT PUSH2 0x1D9 JUMPI CALLDATALOAD DUP1 ISZERO ISZERO DUP1 SWAP2 SUB PUSH2 0x1D9 JUMPI PUSH1 0xFF DUP1 NOT PUSH1 0x3 SLOAD AND SWAP2 AND OR PUSH1 0x3 SSTORE DUP1 RETURN JUMPDEST POP CALLVALUE PUSH2 0x307 JUMPI DUP1 PUSH1 0x3 NOT CALLDATASIZE ADD SLT PUSH2 0x307 JUMPI DUP1 PUSH1 0x1 SSTORE DUP1 RETURN JUMPDEST DUP1 REVERT JUMPDEST POP SWAP1 CALLVALUE PUSH2 0x1D9 JUMPI DUP2 PUSH1 0x3 NOT CALLDATASIZE ADD SLT PUSH2 0x1D9 JUMPI PUSH1 0x20 SWAP1 PUSH1 0x1 SLOAD SWAP1 MLOAD SWAP1 DUP2 MSTORE RETURN JUMPDEST POP SWAP1 CALLVALUE PUSH2 0x1D9 JUMPI DUP2 PUSH1 0x3 NOT CALLDATASIZE ADD SLT PUSH2 0x1D9 JUMPI DUP2 DUP1 DUP1 DUP1 SELFBALANCE DUP2 DUP2 ISZERO PUSH2 0x35E JUMPI JUMPDEST CALLER SWAP1 CALL ISZERO PUSH2 0x354 JUMPI POP DUP1 RETURN JUMPDEST MLOAD SWAP1 RETURNDATASIZE SWAP1 DUP3 RETURNDATACOPY RETURNDATASIZE SWAP1 REVERT JUMPDEST POP PUSH2 0x8FC PUSH2 0x348 JUMP JUMPDEST PUSH1 0x0 PUSH1 0x44 RETURNDATASIZE LT PUSH2 0x402 JUMPI PUSH1 0x40 MLOAD PUSH1 0x3 NOT RETURNDATASIZE DUP2 ADD PUSH1 0x4 DUP4 RETURNDATACOPY DUP2 MLOAD PUSH8 0xFFFFFFFFFFFFFFFF SWAP2 DUP3 DUP3 GT RETURNDATASIZE PUSH1 0x24 DUP5 ADD GT OR PUSH2 0x3FB JUMPI DUP2 DUP5 ADD SWAP5 DUP6 MLOAD SWAP2 DUP5 DUP4 GT PUSH2 0x3F1 JUMPI RETURNDATASIZE DUP7 ADD ADD PUSH1 0x20 DUP4 DUP9 ADD ADD GT PUSH2 0x3E8 JUMPI POP ADD PUSH1 0x3F ADD PUSH1 0x1F NOT AND DUP3 ADD SWAP2 SWAP1 DUP3 GT SWAP1 DUP3 LT OR PUSH2 0x3D2 JUMPI PUSH1 0x40 MSTORE SWAP1 JUMP JUMPDEST PUSH4 0x4E487B71 PUSH1 0xE0 SHL PUSH1 0x0 MSTORE PUSH1 0x41 PUSH1 0x4 MSTORE PUSH1 0x24 PUSH1 0x0 REVERT JUMPDEST SWAP6 SWAP5 POP POP POP POP POP JUMP JUMPDEST POP SWAP6 SWAP5 POP POP POP POP POP JUMP JUMPDEST POP POP POP POP SWAP1 JUMP JUMPDEST SWAP1 JUMP INVALID LOG2 PUSH5 0x6970667358 0x22 SLT KECCAK256 PREVRANDAO JUMPDEST SELFDESTRUCT PUSH25 0xB4A9F88F27DFD3C6D7561915797F976767ECAC68509FC09934 0xBB 0xE0 CALLDATASIZE PUSH5 0x736F6C6343 STOP ADDMOD EQ STOP CALLER "},"methodIdentifiers":{"attackCount()":"407c2821","attackEnabled()":"d7751b85","maxAttacks()":"a37573d6","resetAttackCount()":"7aef8474","setAttackEnabled(bool)":"90a7561d","target()":"d4b83992","withdraw()":"3ccfd60b"}}}}}