{
  "_format": "hh-sol-artifact-1",
  "contractName": "SafeClub",
  "sourceName": "contracts/SafeClub.sol",
  "abi": [
    {
      "inputs": [],
      "stateMutability": "nonpayable",
      "type": "constructor"
    },
    {
      "inputs": [
        {
          "internalType": "address",
          "name": "owner",
          "type": "address"
        }
      ],
      "name": "OwnableInvalidOwner",
      "type": "error"
    },
    {
      "inputs": [
        {
          "internalType": "address",
          "name": "account",
          "type": "address"
        }
      ],
      "name": "OwnableUnauthorizedAccount",
      "type": "error"
    },
    {
      "inputs": [],
      "name": "ReentrancyGuardReentrantCall",
      "type": "error"
    },
    {
      "anonymous": false,
      "inputs": [
        {
          "indexed": false,
          "internalType": "uint256",
          "name": "oldApproval",
          "type": "uint256"
        },
        {
          "indexed": false,
          "internalType": "uint256",
          "name": "newApproval",
          "type": "uint256"
        }
      ],
      "name": "ApprovalUpdated",
      "type": "event"
    },
    {
      "anonymous": false,
      "inputs": [
        {
          "indexed": true,
          "internalType": "address",
          "name": "from",
          "type": "address"
        },
        {
          "indexed": false,
          "internalType": "uint256",
          "name": "amount",
          "type": "uint256"
        },
        {
          "indexed": false,
          "internalType": "uint256",
          "name": "timestamp",
          "type": "uint256"
        }
      ],
      "name": "FundsReceived",
      "type": "event"
    },
    {
      "anonymous": false,
      "inputs": [
        {
          "indexed": true,
          "internalType": "address",
          "name": "member",
          "type": "address"
        },
        {
          "indexed": false,
          "internalType": "string",
          "name": "name",
          "type": "string"
        },
        {
          "indexed": false,
          "internalType": "string",
          "name": "role",
          "type": "string"
        },
        {
          "indexed": false,
          "internalType": "uint256",
          "name": "timestamp",
          "type": "uint256"
        }
      ],
      "name": "MemberAdded",
      "type": "event"
    },
    {
      "anonymous": false,
      "inputs": [
        {
          "indexed": true,
          "internalType": "address",
          "name": "member",
          "type": "address"
        },
        {
          "indexed": false,
          "internalType": "uint256",
          "name": "timestamp",
          "type": "uint256"
        }
      ],
      "name": "MemberRemoved",
      "type": "event"
    },
    {
      "anonymous": false,
      "inputs": [
        {
          "indexed": true,
          "internalType": "address",
          "name": "member",
          "type": "address"
        },
        {
          "indexed": false,
          "internalType": "string",
          "name": "newName",
          "type": "string"
        },
        {
          "indexed": false,
          "internalType": "string",
          "name": "newRole",
          "type": "string"
        },
        {
          "indexed": false,
          "internalType": "uint256",
          "name": "timestamp",
          "type": "uint256"
        }
      ],
      "name": "MemberUpdated",
      "type": "event"
    },
    {
      "anonymous": false,
      "inputs": [
        {
          "indexed": true,
          "internalType": "address",
          "name": "previousOwner",
          "type": "address"
        },
        {
          "indexed": true,
          "internalType": "address",
          "name": "newOwner",
          "type": "address"
        }
      ],
      "name": "OwnershipTransferred",
      "type": "event"
    },
    {
      "anonymous": false,
      "inputs": [
        {
          "indexed": true,
          "internalType": "uint256",
          "name": "proposalId",
          "type": "uint256"
        },
        {
          "indexed": true,
          "internalType": "address",
          "name": "proposer",
          "type": "address"
        },
        {
          "indexed": false,
          "internalType": "string",
          "name": "description",
          "type": "string"
        },
        {
          "indexed": true,
          "internalType": "address",
          "name": "recipient",
          "type": "address"
        },
        {
          "indexed": false,
          "internalType": "uint256",
          "name": "amount",
          "type": "uint256"
        },
        {
          "indexed": false,
          "internalType": "uint256",
          "name": "deadline",
          "type": "uint256"
        }
      ],
      "name": "ProposalCreated",
      "type": "event"
    },
    {
      "anonymous": false,
      "inputs": [
        {
          "indexed": true,
          "internalType": "uint256",
          "name": "proposalId",
          "type": "uint256"
        },
        {
          "indexed": true,
          "internalType": "address",
          "name": "recipient",
          "type": "address"
        },
        {
          "indexed": false,
          "internalType": "uint256",
          "name": "amount",
          "type": "uint256"
        }
      ],
      "name": "ProposalExecuted",
      "type": "event"
    },
    {
      "anonymous": false,
      "inputs": [
        {
          "indexed": false,
          "internalType": "uint256",
          "name": "oldQuorum",
          "type": "uint256"
        },
        {
          "indexed": false,
          "internalType": "uint256",
          "name": "newQuorum",
          "type": "uint256"
        }
      ],
      "name": "QuorumUpdated",
      "type": "event"
    },
    {
      "anonymous": false,
      "inputs": [
        {
          "indexed": true,
          "internalType": "uint256",
          "name": "proposalId",
          "type": "uint256"
        },
        {
          "indexed": true,
          "internalType": "address",
          "name": "voter",
          "type": "address"
        },
        {
          "indexed": false,
          "internalType": "bool",
          "name": "support",
          "type": "bool"
        },
        {
          "indexed": false,
          "internalType": "uint256",
          "name": "votesFor",
          "type": "uint256"
        },
        {
          "indexed": false,
          "internalType": "uint256",
          "name": "votesAgainst",
          "type": "uint256"
        }
      ],
      "name": "VoteCast",
      "type": "event"
    },
    {
      "stateMutability": "payable",
      "type": "fallback"
    },
    {
      "inputs": [],
      "name": "MAX_ACTIVE_PROPOSALS",
      "outputs": [
        {
          "internalType": "uint256",
          "name": "",
          "type": "uint256"
        }
      ],
      "stateMutability": "view",
      "type": "function"
    },
    {
      "inputs": [],
      "name": "MAX_MEMBERS",
      "outputs": [
        {
          "internalType": "uint256",
          "name": "",
          "type": "uint256"
        }
      ],
      "stateMutability": "view",
      "type": "function"
    },
    {
      "inputs": [],
      "name": "MAX_PROPOSAL_AMOUNT",
      "outputs": [
        {
          "internalType": "uint256",
          "name": "",
          "type": "uint256"
        }
      ],
      "stateMutability": "view",
      "type": "function"
    },
    {
      "inputs": [],
      "name": "MAX_PROPOSAL_DURATION",
      "outputs": [
        {
          "internalType": "uint256",
          "name": "",
          "type": "uint256"
        }
      ],
      "stateMutability": "view",
      "type": "function"
    },
    {
      "inputs": [],
      "name": "MIN_PROPOSAL_DURATION",
      "outputs": [
        {
          "internalType": "uint256",
          "name": "",
          "type": "uint256"
        }
      ],
      "stateMutability": "view",
      "type": "function"
    },
    {
      "inputs": [],
      "name": "activeProposalsCount",
      "outputs": [
        {
          "internalType": "uint256",
          "name": "",
          "type": "uint256"
        }
      ],
      "stateMutability": "view",
      "type": "function"
    },
    {
      "inputs": [
        {
          "internalType": "address",
          "name": "_member",
          "type": "address"
        },
        {
          "internalType": "string",
          "name": "_name",
          "type": "string"
        },
        {
          "internalType": "string",
          "name": "_role",
          "type": "string"
        }
      ],
      "name": "addMember",
      "outputs": [],
      "stateMutability": "nonpayable",
      "type": "function"
    },
    {
      "inputs": [],
      "name": "approvalPercentage",
      "outputs": [
        {
          "internalType": "uint256",
          "name": "",
          "type": "uint256"
        }
      ],
      "stateMutability": "view",
      "type": "function"
    },
    {
      "inputs": [
        {
          "internalType": "string",
          "name": "_description",
          "type": "string"
        },
        {
          "internalType": "address payable",
          "name": "_recipient",
          "type": "address"
        },
        {
          "internalType": "uint256",
          "name": "_amount",
          "type": "uint256"
        },
        {
          "internalType": "uint256",
          "name": "_durationInMinutes",
          "type": "uint256"
        }
      ],
      "name": "createProposal",
      "outputs": [],
      "stateMutability": "nonpayable",
      "type": "function"
    },
    {
      "inputs": [
        {
          "internalType": "uint256",
          "name": "_proposalId",
          "type": "uint256"
        }
      ],
      "name": "executeProposal",
      "outputs": [],
      "stateMutability": "nonpayable",
      "type": "function"
    },
    {
      "inputs": [],
      "name": "getAllMembers",
      "outputs": [
        {
          "internalType": "address[]",
          "name": "",
          "type": "address[]"
        }
      ],
      "stateMutability": "view",
      "type": "function"
    },
    {
      "inputs": [],
      "name": "getBalance",
      "outputs": [
        {
          "internalType": "uint256",
          "name": "",
          "type": "uint256"
        }
      ],
      "stateMutability": "view",
      "type": "function"
    },
    {
      "inputs": [],
      "name": "getMemberCount",
      "outputs": [
        {
          "internalType": "uint256",
          "name": "",
          "type": "uint256"
        }
      ],
      "stateMutability": "view",
      "type": "function"
    },
    {
      "inputs": [
        {
          "internalType": "address",
          "name": "_member",
          "type": "address"
        }
      ],
      "name": "getMemberInfo",
      "outputs": [
        {
          "internalType": "string",
          "name": "name",
          "type": "string"
        },
        {
          "internalType": "string",
          "name": "role",
          "type": "string"
        },
        {
          "internalType": "bool",
          "name": "isActive",
          "type": "bool"
        },
        {
          "internalType": "uint256",
          "name": "joinedAt",
          "type": "uint256"
        }
      ],
      "stateMutability": "view",
      "type": "function"
    },
    {
      "inputs": [
        {
          "internalType": "uint256",
          "name": "_proposalId",
          "type": "uint256"
        }
      ],
      "name": "getProposal",
      "outputs": [
        {
          "internalType": "uint256",
          "name": "id",
          "type": "uint256"
        },
        {
          "internalType": "string",
          "name": "description",
          "type": "string"
        },
        {
          "internalType": "address",
          "name": "recipient",
          "type": "address"
        },
        {
          "internalType": "uint256",
          "name": "amount",
          "type": "uint256"
        },
        {
          "internalType": "uint256",
          "name": "votesFor",
          "type": "uint256"
        },
        {
          "internalType": "uint256",
          "name": "votesAgainst",
          "type": "uint256"
        },
        {
          "internalType": "uint256",
          "name": "deadline",
          "type": "uint256"
        },
        {
          "internalType": "bool",
          "name": "executed",
          "type": "bool"
        }
      ],
      "stateMutability": "view",
      "type": "function"
    },
    {
      "inputs": [
        {
          "internalType": "uint256",
          "name": "_proposalId",
          "type": "uint256"
        },
        {
          "internalType": "address",
          "name": "_voter",
          "type": "address"
        }
      ],
      "name": "hasVoted",
      "outputs": [
        {
          "internalType": "bool",
          "name": "",
          "type": "bool"
        }
      ],
      "stateMutability": "view",
      "type": "function"
    },
    {
      "inputs": [
        {
          "internalType": "address",
          "name": "_address",
          "type": "address"
        }
      ],
      "name": "isMember",
      "outputs": [
        {
          "internalType": "bool",
          "name": "",
          "type": "bool"
        }
      ],
      "stateMutability": "view",
      "type": "function"
    },
    {
      "inputs": [
        {
          "internalType": "uint256",
          "name": "_proposalId",
          "type": "uint256"
        }
      ],
      "name": "isProposalApproved",
      "outputs": [
        {
          "internalType": "bool",
          "name": "",
          "type": "bool"
        }
      ],
      "stateMutability": "view",
      "type": "function"
    },
    {
      "inputs": [
        {
          "internalType": "address",
          "name": "",
          "type": "address"
        }
      ],
      "name": "members",
      "outputs": [
        {
          "internalType": "bool",
          "name": "isActive",
          "type": "bool"
        },
        {
          "internalType": "uint256",
          "name": "joinedAt",
          "type": "uint256"
        },
        {
          "internalType": "uint256",
          "name": "proposalsCreated",
          "type": "uint256"
        },
        {
          "internalType": "uint256",
          "name": "votesCount",
          "type": "uint256"
        },
        {
          "internalType": "string",
          "name": "name",
          "type": "string"
        },
        {
          "internalType": "string",
          "name": "role",
          "type": "string"
        }
      ],
      "stateMutability": "view",
      "type": "function"
    },
    {
      "inputs": [],
      "name": "owner",
      "outputs": [
        {
          "internalType": "address",
          "name": "",
          "type": "address"
        }
      ],
      "stateMutability": "view",
      "type": "function"
    },
    {
      "inputs": [],
      "name": "proposalCount",
      "outputs": [
        {
          "internalType": "uint256",
          "name": "",
          "type": "uint256"
        }
      ],
      "stateMutability": "view",
      "type": "function"
    },
    {
      "inputs": [],
      "name": "quorumPercentage",
      "outputs": [
        {
          "internalType": "uint256",
          "name": "",
          "type": "uint256"
        }
      ],
      "stateMutability": "view",
      "type": "function"
    },
    {
      "inputs": [
        {
          "internalType": "address",
          "name": "_member",
          "type": "address"
        }
      ],
      "name": "removeMember",
      "outputs": [],
      "stateMutability": "nonpayable",
      "type": "function"
    },
    {
      "inputs": [],
      "name": "renounceOwnership",
      "outputs": [],
      "stateMutability": "nonpayable",
      "type": "function"
    },
    {
      "inputs": [
        {
          "internalType": "uint256",
          "name": "_percentage",
          "type": "uint256"
        }
      ],
      "name": "setApprovalPercentage",
      "outputs": [],
      "stateMutability": "nonpayable",
      "type": "function"
    },
    {
      "inputs": [
        {
          "internalType": "uint256",
          "name": "_percentage",
          "type": "uint256"
        }
      ],
      "name": "setQuorumPercentage",
      "outputs": [],
      "stateMutability": "nonpayable",
      "type": "function"
    },
    {
      "inputs": [
        {
          "internalType": "address",
          "name": "newOwner",
          "type": "address"
        }
      ],
      "name": "transferOwnership",
      "outputs": [],
      "stateMutability": "nonpayable",
      "type": "function"
    },
    {
      "inputs": [
        {
          "internalType": "address",
          "name": "_member",
          "type": "address"
        },
        {
          "internalType": "string",
          "name": "_name",
          "type": "string"
        },
        {
          "internalType": "string",
          "name": "_role",
          "type": "string"
        }
      ],
      "name": "updateMember",
      "outputs": [],
      "stateMutability": "nonpayable",
      "type": "function"
    },
    {
      "inputs": [
        {
          "internalType": "uint256",
          "name": "_proposalId",
          "type": "uint256"
        },
        {
          "internalType": "bool",
          "name": "_support",
          "type": "bool"
        }
      ],
      "name": "vote",
      "outputs": [],
      "stateMutability": "nonpayable",
      "type": "function"
    },
    {
      "stateMutability": "payable",
      "type": "receive"
    }
  ],
  "bytecode": "0x6080604090808252346200049f57331562000489575060008054336001600160a01b0319821681178355916001600160a01b03909116907f8be0079c531659141344cd1fd0a4f28419497f9722a3daafe3b4186f6b6457e09080a3600180556032600755603c60085562000072620004a4565b6200007c620004a4565b825160c081016001600160401b03811182821017620002a6578452600181526020810190428252848101600081526060820160008152608083019186835260a0840194868652336000526002602052886000209451151560ff801987541691161785555160018501555160028401555160038301555190815160018060401b038111620002a657600482015492600184811c941680156200047e575b60208510146200038c57601f9384811162000431575b50602090848311600114620003b957600593929160009183620003ad575b50508160011b916000199060031b1c19161760048201555b01915180519160018060401b038311620002a657835491600183811c93168015620003a2575b60208410146200038c57828285941162000333575b506020918311600114620002c857600092620002bc575b50508160011b916000199060031b1c19161790555b60035468010000000000000000811015620002a6576001810180600355811015620002905760036000527fc2575a0e9e593c00f959f8c92f12db2869c3395a3b0502d05e2516446f71f85b0180546001600160a01b031916331790558251606080825290927f62c29952981da6a6c23203092d94e1ce8ad7a50339f2377bbe25b2f07dd9663992620002769290916200026791860190620004d6565b908482036020860152620004d6565b9142848201528033930390a2516121509081620005198239f35b634e487b7160e01b600052603260045260246000fd5b634e487b7160e01b600052604160045260246000fd5b015190503880620001b6565b6000858152602081209350601f198516905b8181106200031a575090846001959493921062000300575b505050811b019055620001cb565b015160001960f88460031b161c19169055388080620002f2565b92936020600181928786015181550195019301620002da565b909192508460005260206000208380860160051c8201926020871062000382575b94869594939291940160051c01905b8181106200037257506200019f565b6000815585945060010162000363565b9250819262000354565b634e487b7160e01b600052602260045260246000fd5b92607f16926200018a565b0151905038806200014c565b906004840160005260206000209160005b601f198516811062000418575091839160019360059695601f19811610620003fe575b505050811b01600482015562000164565b015160001960f88460031b161c19169055388080620003ed565b91926020600181928685015181550194019201620003ca565b6004840160005260206000208580850160051c8201926020861062000474575b0160051c01905b8181106200046757506200012e565b6000815560010162000458565b9250819262000451565b93607f169362000118565b631e4fbdf760e01b815260006004820152602490fd5b600080fd5b60408051919082016001600160401b03811183821017620002a657604052600582526420b236b4b760d91b6020830152565b919082519283825260005b84811062000503575050826000602080949584010152601f8019910116010190565b602081830181015184830182015201620004e156fe60806040526004361015610026575b361561001e5761001c611ee4565b005b61001c611ee4565b60003560e01c806308ae4b0c14611a295780630b1ca49a146118bb5780630d61b5191461160057806312065fe0146115e45780632116c347146115c65780633008d437146115a857806332f6a1dc146115375780633340a176146115135780633f66a4511461122257806343859632146111c25780634fa76ec9146111a45780635f1231ea1461111a578063715018a6146110c157806376c1954614610c52578063784f80f814610be15780637c0f6b3514610b195780638743dae61461056b5780638da5cb5b14610542578063944ee22d1461048f578063997072f7146105245780639abcc0cc146104ef578063a230c524146104b0578063a91937ad14610494578063bd9682161461048f578063c7f758a8146103ea578063c9d27afe14610237578063da35c66414610219578063ea0e35b1146101fd5763f2fde38b0361000e57346101f85760203660031901126101f857610183611ac9565b61018b611cfa565b6001600160a01b039081169081156101df57600054826bffffffffffffffffffffffff60a01b821617600055167f8be0079c531659141344cd1fd0a4f28419497f9722a3daafe3b4186f6b6457e0600080a3005b604051631e4fbdf760e01b815260006004820152602490fd5b600080fd5b346101f85760003660031901126101f857602060405160648152f35b346101f85760003660031901126101f8576020600454604051908152f35b346101f85760403660031901126101f85760043560243590811515918281036101f857336000526020906002825261027660ff60406000205416611e9a565b6102836004548410611fa1565b61029d60ff600761029386611f66565b5001541615611fed565b6102a683611f66565b5090600682015442116103af578360005260058352604060002033600052835260ff6040600020541661037a57836000526005835260406000203360005283526040600020600160ff1982541617905560028352600360406000200161030c8154611ed5565b90551561036557600481016103218154611ed5565b90555b600560048201549101549160405194855284015260408301527f77a255f45c79d26605c257d8dfc37f9a619f53963ddbed1e95aa0aab1c801cee60603393a3005b600581016103738154611ed5565b9055610324565b60405162461bcd60e51b815260048101849052600d60248201526c105b1c9958591e481d9bdd1959609a1b6044820152606490fd5b60405162461bcd60e51b8152600481018490526013602482015272159bdd1a5b99c81c195c9a5bd908195b991959606a1b6044820152606490fd5b346101f85760203660031901126101f85761041360043561040e6004548210611fa1565b611f66565b50805460018060a01b036002830154166003830154926004810154600582015460068301549161044d600160ff6007870154169501611b3b565b9661046a60405198899889526101008060208b0152890190611be1565b9560408801526060870152608086015260a085015260c0840152151560e08301520390f35b611cde565b346101f85760003660031901126101f857602060405160148152f35b346101f85760203660031901126101f8576001600160a01b036104d1611ac9565b166000526002602052602060ff604060002054166040519015158152f35b346101f85760203660031901126101f857602061051a6004356105156004548210611fa1565b61204c565b6040519015158152f35b346101f85760003660031901126101f8576020600354604051908152f35b346101f85760003660031901126101f8576000546040516001600160a01b039091168152602090f35b346101f85760803660031901126101f85760043567ffffffffffffffff81116101f85761059c903690600401611c3d565b6024356001600160a01b03811681036101f8573360005260026020526105c960ff60406000205416611e9a565b6105dd6001600160a01b0382161515611d26565b6105f26001600160a01b038216301415611d64565b604490813515610ad5576802b5e3af16b1880000823511610a985761061a4783351115611f18565b825115610a54576101f4835111610a19576001606435036109cb576014600654101561098757603c420142116109715760045460405190610140820182811067ffffffffffffffff8211176109455760405280825284602083015260018060a01b03831660408301528335606083015260006080830152600060a0830152603c420160c0830152600060e08301523361010083015242610120830152600160401b811015610945578060016106d29201600455611f66565b61095b5781518155602082015180519067ffffffffffffffff8211610945576106fe6001840154611adf565b601f81116108fe575b50602090601f831160011461086b577ffcbc93e90de1f3909139448eea84876f427c600d8e1706f36918b4c5635c02139493929160009183610860575b50508160011b916000199060031b1c19161760018201555b6002810160018060a01b036040840151166bffffffffffffffffffffffff60a01b825416179055606082015160038201556080820151600482015560a0820151600582015560c08201516006820155600781016107cb60e08401511515829060ff801983541691151516179055565b6101008301518154610100600160a81b031916600891821b610100600160a81b03161790915561012083015191015560065461080690611ed5565b60065533600052600260205260026040600020016108248154611ed5565b9055519161083d60405195606087526060870190611be1565b9335602086015242603c0160408601526001600160a01b031693339381900390a4005b015190508880610744565b906001840160005260206000209160005b601f19851681106108e657509183916001937ffcbc93e90de1f3909139448eea84876f427c600d8e1706f36918b4c5635c0213979695601f198116106108cd575b505050811b01600182015561075c565b015160001960f88460031b161c191690558880806108bd565b9192602060018192868501518155019401920161087c565b600184016000526020600020601f840160051c81016020851061093e575b601f830160051c82018110610932575050610707565b6000815560010161091c565b508061091c565b634e487b7160e01b600052604160045260246000fd5b634e487b7160e01b600052600060045260246000fd5b634e487b7160e01b600052601160045260246000fd5b60405162461bcd60e51b815260206004820152601960248201527f546f6f206d616e79206163746976652070726f706f73616c730000000000000081840152606490fd5b60405162461bcd60e51b815260206004820152602160248201527f4475726174696f6e206d7573742062652065786163746c792031206d696e757481840152606560f81b6064820152608490fd5b60405162461bcd60e51b81526020600482015260146024820152734465736372697074696f6e20746f6f206c6f6e6760601b81840152606490fd5b60405162461bcd60e51b815260206004820152601b60248201527f4465736372697074696f6e2063616e6e6f7420626520656d707479000000000081840152606490fd5b60405162461bcd60e51b8152602060048201526016602482015275416d6f756e742065786365656473206d6178696d756d60501b81840152606490fd5b60405162461bcd60e51b815260206004820152601d60248201527f416d6f756e74206d7573742062652067726561746572207468616e203000000081840152606490fd5b346101f85760003660031901126101f857604051806003548083526020809301809160036000527fc2575a0e9e593c00f959f8c92f12db2869c3395a3b0502d05e2516446f71f85b9060005b86828210610bc4578686610b7b82880383611b19565b604051928392818401908285525180915260408401929160005b828110610ba457505050500390f35b83516001600160a01b031685528695509381019392810192600101610b95565b83546001600160a01b031685529093019260019283019201610b65565b346101f85760203660031901126101f8577f215d877bb551ed521bd109659d4cd1e18e4a0a2b72986cb41380db7375b277af6040600435610c20611cfa565b80151580610c47575b610c32906120d9565b600854908060085582519182526020820152a1005b506064811115610c29565b346101f857610c6036611c84565b9190610c6a611cfa565b610c7e6001600160a01b0383161515611d26565b610c936001600160a01b038316301415611d64565b6001600160a01b03821660009081526002602052604090205460ff16611089576064600354101561104d57610cd381518015159081611041575b50611da9565b610ce883518015159081611035575b50611de4565b60405160c0810181811067ffffffffffffffff821117610945576040526001815260208101904282526040810160008152606082016000815260808301918583528760a085015260018060a01b0387166000526002602052604060002094610d5f85511515879060ff801983541691151516179055565b5160018601555160028501555160038401555180519067ffffffffffffffff821161094557610d916004850154611adf565b601f8111610fee575b50602090601f8311600114610f7d5760a093929160009183610f72575b50508160011b916000199060031b1c19161760048401555b015180519067ffffffffffffffff821161094557610df06005840154611adf565b601f8111610f27575b50602090601f8311600114610eb9576005929160009183610eae575b50508160011b916000199060031b1c1916179101555b60035491600160401b83101561094557610e8f81610e708560017f62c29952981da6a6c23203092d94e1ce8ad7a50339f2377bbe25b2f07dd966399701600355611e1f565b90919082549060031b9160018060a01b03809116831b921b1916179055565b610ea960405192839260018060a01b031695429184611e6c565b0390a2005b015190508780610e15565b90601f198316916005850160005260206000209260005b818110610f0f57509160019391856005969410610ef6575b505050811b01910155610e2b565b015160001960f88460031b161c19169055878080610ee8565b92936020600181928786015181550195019301610ed0565b600584016000526020600020601f840160051c81019160208510610f68575b601f0160051c01905b818110610f5c5750610df9565b60008155600101610f4f565b9091508190610f46565b015190508880610db7565b90601f198316916004860160005260206000209260005b818110610fd6575091600193918560a097969410610fbd575b505050811b016004840155610dcf565b015160001960f88460031b161c19169055888080610fad565b92936020600181928786015181550195019301610f94565b600485016000526020600020601f840160051c81016020851061102e575b601f830160051c82018110611022575050610d9a565b6000815560010161100c565b508061100c565b60329150111585610ce2565b60329150111585610ccd565b60405162461bcd60e51b815260206004820152601460248201527313595b58995c881b1a5b5a5d081c995858da195960621b6044820152606490fd5b60405162461bcd60e51b815260206004820152601060248201526f20b63932b0b23c90309036b2b6b132b960811b6044820152606490fd5b346101f85760003660031901126101f8576110da611cfa565b600080546001600160a01b0319811682556001600160a01b03167f8be0079c531659141344cd1fd0a4f28419497f9722a3daafe3b4186f6b6457e08280a3005b346101f85760203660031901126101f8576001600160a01b0361113b611ac9565b166000526002602052611185604060002060ff8154166001820154611193611171600561116a60048701611b3b565b9501611b3b565b604051958695608087526080870190611be1565b908582036020870152611be1565b911515604084015260608301520390f35b346101f85760003660031901126101f8576020600754604051908152f35b346101f85760403660031901126101f8576024356001600160a01b03811690600435908290036101f8576111f96004548210611fa1565b6000526005602052604060002090600052602052602060ff604060002054166040519015158152f35b346101f85761123036611c84565b91611239611cfa565b60018060a01b031690816000526020926002845261125e60ff60406000205416611e9a565b611272825180151590816115075750611da9565b611286815180151590816114fb5750611de4565b8260005260028452600460406000200193825167ffffffffffffffff95868211610945576112b48154611adf565b91601f928381116114b8575b5080848482116001146114555760009161144a575b508160011b916000199060031b1c19161790555b846000526002825260056040600020019183519687116109455761130d8354611adf565b828111611407575b508091871160011461137f575094807f633ae31836fc599829bb7374ec1a83609545ea12b3b3795f14f6dbf7bc3c1d779596600091611374575b508160011b916000199060031b1c19161790555b610ea9604051928392429184611e6c565b90508301518761134f565b90601f1987168360005282600020926000905b8282106113ef5750509187917f633ae31836fc599829bb7374ec1a83609545ea12b3b3795f14f6dbf7bc3c1d779798600194106113d6575b5050811b019055611363565b85015160001960f88460031b161c1916905587806113ca565b80600185968294968a01518155019501930190611392565b836000528160002083808a0160051c820192848b10611441575b0160051c01905b8181106114355750611315565b60008155600101611428565b92508192611421565b9050860151896112d5565b60008481528681209250601f198416905b878282106114a25750509083600194939210611489575b5050811b0190556112e9565b88015160001960f88460031b161c19169055898061147d565b600184958293958d015181550194019201611466565b82600052846000208480840160051c8201928785106114f2575b0160051c01905b8181106114e657506112c0565b600081556001016114d9565b925081926114d2565b60329150111586610ce2565b60329150111586610ccd565b346101f85760003660031901126101f85760206040516802b5e3af16b18800008152f35b346101f85760203660031901126101f8577f6784e9bcb845caaa98267d7b0918f97d3d17f7cb35a05b52010f7eb587a0acb06040600435611576611cfa565b8015158061159d575b611588906120d9565b600754908060075582519182526020820152a1005b50606481111561157f565b346101f85760003660031901126101f8576020600854604051908152f35b346101f85760003660031901126101f8576020600654604051908152f35b346101f85760003660031901126101f857602047604051908152f35b346101f8576020806003193601126101f85760043590336000526002815261162f60ff60406000205416611e9a565b61163c6004548310611fa1565b61164c60ff600761029385611f66565b6002600154146118a957600260015561166482611f66565b50916006830154421115611864574791611685600385019384541115611f18565b600484015493611699600582015486611f59565b9460035495801561182f57606496878202908282048903610971576007546116c091612039565b116117f65786820291808304881490151715610971576008546116e291612039565b116117be5760078101805460ff1916600117905560065490811561097157600291600019016006550160018060a01b03906000808080858554168954905af13d156117b9573d61173181611c21565b9061173f6040519283611b19565b81526000853d92013e5b1561178357907f3b7c90df35b419337cff0919fe91849006607bb66c4373623f06f9d48c1ebb98929154169354604051908152a360018055005b60405162461bcd60e51b815260048101849052600f60248201526e151c985b9cd9995c8819985a5b1959608a1b60448201528690fd5b611749565b60405162461bcd60e51b8152600481018390526011602482015270141c9bdc1bdcd85b081c995a9958dd1959607a1b60448201528590fd5b60405162461bcd60e51b8152600481018590526012602482015271145d5bdc9d5b481b9bdd081c995858da195960721b60448201528790fd5b60405162461bcd60e51b815260048101859052600d60248201526c139bc81d9bdd195cc818d85cdd609a1b6044820152606490fd5b60405162461bcd60e51b815260048101839052601860248201527f566f74696e67207374696c6c20696e2070726f677265737300000000000000006044820152606490fd5b604051633ee5aeb560e01b8152600490fd5b346101f85760203660031901126101f8576118d4611ac9565b6118dc611cfa565b60018060a01b038091169081600052600260205261190160ff60406000205416611e9a565b806000541682146119ee576000828152600260205260408120805460ff191690555b6003908154808210156119e557848461193b84611e1f565b905490861b1c161461195757506119529150611ed5565b611923565b6000199181830191821161097157610e708561197561198294611e1f565b905490871b1c1691611e1f565b815480156119cf57019161199583611e1f565b9091825491841b1b19169055555b7f3ac963493df564de734d98633f1145d21512e282ba4c02d3c1011119bf7f28626020604051428152a2005b634e487b7160e01b600052603160045260246000fd5b505050506119a3565b60405162461bcd60e51b815260206004820152601360248201527221b0b73737ba103932b6b7bb329037bbb732b960691b6044820152606490fd5b346101f85760203660031901126101f8576001600160a01b03611a4a611ac9565b166000526002602052604060002060ff815416611ac5600183015492611ab76002820154916003810154611a8c6005611a8560048501611b3b565b9301611b3b565b936040519788971515885260208801526040870152606086015260c0608086015260c0850190611be1565b9083820360a0850152611be1565b0390f35b600435906001600160a01b03821682036101f857565b90600182811c92168015611b0f575b6020831014611af957565b634e487b7160e01b600052602260045260246000fd5b91607f1691611aee565b90601f8019910116810190811067ffffffffffffffff82111761094557604052565b9060405191826000825492611b4f84611adf565b908184526001948581169081600014611bbe5750600114611b7b575b5050611b7992500383611b19565b565b9093915060005260209081600020936000915b818310611ba6575050611b7993508201013880611b6b565b85548884018501529485019487945091830191611b8e565b915050611b7994506020925060ff191682840152151560051b8201013880611b6b565b919082519283825260005b848110611c0d575050826000602080949584010152601f8019910116010190565b602081830181015184830182015201611bec565b67ffffffffffffffff811161094557601f01601f191660200190565b81601f820112156101f857803590611c5482611c21565b92611c626040519485611b19565b828452602083830101116101f857816000926020809301838601378301015290565b60606003198201126101f8576004356001600160a01b03811681036101f8579167ffffffffffffffff6024358181116101f85783611cc491600401611c3d565b926044359182116101f857611cdb91600401611c3d565b90565b346101f85760003660031901126101f8576020604051603c8152f35b6000546001600160a01b03163303611d0e57565b60405163118cdaa760e01b8152336004820152602490fd5b15611d2d57565b60405162461bcd60e51b815260206004820152600f60248201526e496e76616c6964206164647265737360881b6044820152606490fd5b15611d6b57565b60405162461bcd60e51b815260206004820152601660248201527510d85b9b9bdd081d185c99d95d0818dbdb9d1c9858dd60521b6044820152606490fd5b15611db057565b60405162461bcd60e51b815260206004820152600c60248201526b496e76616c6964206e616d6560a01b6044820152606490fd5b15611deb57565b60405162461bcd60e51b815260206004820152600c60248201526b496e76616c696420726f6c6560a01b6044820152606490fd5b600354811015611e565760036000527fc2575a0e9e593c00f959f8c92f12db2869c3395a3b0502d05e2516446f71f85b0190600090565b634e487b7160e01b600052603260045260246000fd5b939291611e9590611e87604093606088526060880190611be1565b908682036020880152611be1565b930152565b15611ea157565b60405162461bcd60e51b815260206004820152600c60248201526b2737ba10309036b2b6b132b960a11b6044820152606490fd5b60001981146109715760010190565b6040513481524260208201527f363f315f930a17d1266b86a20d6dd34b1cfbc5a9db9f13a65d06a689c3a2af8a60403392a2565b15611f1f57565b60405162461bcd60e51b8152602060048201526012602482015271496e73756666696369656e742066756e647360701b6044820152606490fd5b9190820180921161097157565b600454811015611e56576009906004600052027f8a35acfbc15ff81a39ae7d344fd709f28e8600b4aa8c65c6b64bfe7fe36bd19b0190600090565b15611fa857565b60405162461bcd60e51b815260206004820152601760248201527f50726f706f73616c20646f6573206e6f742065786973740000000000000000006044820152606490fd5b15611ff457565b60405162461bcd60e51b815260206004820152601960248201527f50726f706f73616c20616c7265616479206578656375746564000000000000006044820152606490fd5b8181029291811591840414171561097157565b61205590611f66565b5060068101544211156120d3576120756005600483015492015482611f59565b9081156120cc5760035460648302908382046064036109715760075461209a91612039565b111591606482029180830460641490151715610971576008546120bc91612039565b1115816120c7575090565b905090565b5050600090565b50600090565b156120e057565b60405162461bcd60e51b8152602060048201526012602482015271496e76616c69642070657263656e7461676560701b6044820152606490fdfea2646970667358221220c1b165d84b421c8b443ab26d52dd0c6e1d959e46d3a868532f9102310e0edf3264736f6c63430008140033",
  "linkReferences": {},
  "deployedLinkReferences": {}
}