{
  "_format": "hh-sol-artifact-1",
  "contractName": "SafeClub",
  "sourceName": "contracts/SafeClub.sol",
  "abi": [
    {
      "inputs": [],
      "stateMutability": "nonpayable",
      "type": "constructor"
    },
    {
      "inputs": [],
      "name": "EnforcedPause",
      "type": "error"
    },
    {
      "inputs": [],
      "name": "ExpectedPause",
      "type": "error"
    },
    {
      "inputs": [
        {
          "internalType": "address",
          "name": "owner",
          "type": "address"
        }
      ],
      "name": "OwnableInvalidOwner",
      "type": "error"
    },
    {
      "inputs": [
        {
          "internalType": "address",
          "name": "account",
          "type": "address"
        }
      ],
      "name": "OwnableUnauthorizedAccount",
      "type": "error"
    },
    {
      "inputs": [],
      "name": "ReentrancyGuardReentrantCall",
      "type": "error"
    },
    {
      "anonymous": false,
      "inputs": [
        {
          "indexed": false,
          "internalType": "uint256",
          "name": "oldApproval",
          "type": "uint256"
        },
        {
          "indexed": false,
          "internalType": "uint256",
          "name": "newApproval",
          "type": "uint256"
        },
        {
          "indexed": false,
          "internalType": "uint256",
          "name": "timestamp",
          "type": "uint256"
        }
      ],
      "name": "ApprovalUpdated",
      "type": "event"
    },
    {
      "anonymous": false,
      "inputs": [
        {
          "indexed": true,
          "internalType": "address",
          "name": "by",
          "type": "address"
        },
        {
          "indexed": false,
          "internalType": "uint256",
          "name": "timestamp",
          "type": "uint256"
        }
      ],
      "name": "ContractPaused",
      "type": "event"
    },
    {
      "anonymous": false,
      "inputs": [
        {
          "indexed": true,
          "internalType": "address",
          "name": "by",
          "type": "address"
        },
        {
          "indexed": false,
          "internalType": "uint256",
          "name": "timestamp",
          "type": "uint256"
        }
      ],
      "name": "ContractUnpaused",
      "type": "event"
    },
    {
      "anonymous": false,
      "inputs": [
        {
          "indexed": true,
          "internalType": "address",
          "name": "from",
          "type": "address"
        },
        {
          "indexed": false,
          "internalType": "uint256",
          "name": "amount",
          "type": "uint256"
        },
        {
          "indexed": false,
          "internalType": "uint256",
          "name": "timestamp",
          "type": "uint256"
        }
      ],
      "name": "FundsReceived",
      "type": "event"
    },
    {
      "anonymous": false,
      "inputs": [
        {
          "indexed": true,
          "internalType": "address",
          "name": "member",
          "type": "address"
        },
        {
          "indexed": false,
          "internalType": "uint256",
          "name": "timestamp",
          "type": "uint256"
        }
      ],
      "name": "MemberAdded",
      "type": "event"
    },
    {
      "anonymous": false,
      "inputs": [
        {
          "indexed": true,
          "internalType": "address",
          "name": "member",
          "type": "address"
        },
        {
          "indexed": false,
          "internalType": "uint256",
          "name": "timestamp",
          "type": "uint256"
        }
      ],
      "name": "MemberRemoved",
      "type": "event"
    },
    {
      "anonymous": false,
      "inputs": [
        {
          "indexed": true,
          "internalType": "address",
          "name": "previousOwner",
          "type": "address"
        },
        {
          "indexed": true,
          "internalType": "address",
          "name": "newOwner",
          "type": "address"
        }
      ],
      "name": "OwnershipTransferred",
      "type": "event"
    },
    {
      "anonymous": false,
      "inputs": [
        {
          "indexed": false,
          "internalType": "address",
          "name": "account",
          "type": "address"
        }
      ],
      "name": "Paused",
      "type": "event"
    },
    {
      "anonymous": false,
      "inputs": [
        {
          "indexed": true,
          "internalType": "uint256",
          "name": "proposalId",
          "type": "uint256"
        },
        {
          "indexed": true,
          "internalType": "address",
          "name": "proposer",
          "type": "address"
        },
        {
          "indexed": false,
          "internalType": "string",
          "name": "description",
          "type": "string"
        },
        {
          "indexed": true,
          "internalType": "address",
          "name": "recipient",
          "type": "address"
        },
        {
          "indexed": false,
          "internalType": "uint256",
          "name": "amount",
          "type": "uint256"
        },
        {
          "indexed": false,
          "internalType": "uint256",
          "name": "deadline",
          "type": "uint256"
        },
        {
          "indexed": false,
          "internalType": "uint256",
          "name": "timestamp",
          "type": "uint256"
        }
      ],
      "name": "ProposalCreated",
      "type": "event"
    },
    {
      "anonymous": false,
      "inputs": [
        {
          "indexed": true,
          "internalType": "uint256",
          "name": "proposalId",
          "type": "uint256"
        },
        {
          "indexed": true,
          "internalType": "address",
          "name": "recipient",
          "type": "address"
        },
        {
          "indexed": false,
          "internalType": "uint256",
          "name": "amount",
          "type": "uint256"
        },
        {
          "indexed": false,
          "internalType": "uint256",
          "name": "timestamp",
          "type": "uint256"
        }
      ],
      "name": "ProposalExecuted",
      "type": "event"
    },
    {
      "anonymous": false,
      "inputs": [
        {
          "indexed": false,
          "internalType": "uint256",
          "name": "oldQuorum",
          "type": "uint256"
        },
        {
          "indexed": false,
          "internalType": "uint256",
          "name": "newQuorum",
          "type": "uint256"
        },
        {
          "indexed": false,
          "internalType": "uint256",
          "name": "timestamp",
          "type": "uint256"
        }
      ],
      "name": "QuorumUpdated",
      "type": "event"
    },
    {
      "anonymous": false,
      "inputs": [
        {
          "indexed": false,
          "internalType": "address",
          "name": "account",
          "type": "address"
        }
      ],
      "name": "Unpaused",
      "type": "event"
    },
    {
      "anonymous": false,
      "inputs": [
        {
          "indexed": true,
          "internalType": "uint256",
          "name": "proposalId",
          "type": "uint256"
        },
        {
          "indexed": true,
          "internalType": "address",
          "name": "voter",
          "type": "address"
        },
        {
          "indexed": false,
          "internalType": "bool",
          "name": "support",
          "type": "bool"
        },
        {
          "indexed": false,
          "internalType": "uint256",
          "name": "votesFor",
          "type": "uint256"
        },
        {
          "indexed": false,
          "internalType": "uint256",
          "name": "votesAgainst",
          "type": "uint256"
        },
        {
          "indexed": false,
          "internalType": "uint256",
          "name": "timestamp",
          "type": "uint256"
        }
      ],
      "name": "VoteCast",
      "type": "event"
    },
    {
      "stateMutability": "payable",
      "type": "fallback"
    },
    {
      "inputs": [],
      "name": "MAX_ACTIVE_PROPOSALS",
      "outputs": [
        {
          "internalType": "uint256",
          "name": "",
          "type": "uint256"
        }
      ],
      "stateMutability": "view",
      "type": "function"
    },
    {
      "inputs": [],
      "name": "MAX_MEMBERS",
      "outputs": [
        {
          "internalType": "uint256",
          "name": "",
          "type": "uint256"
        }
      ],
      "stateMutability": "view",
      "type": "function"
    },
    {
      "inputs": [],
      "name": "MAX_PROPOSAL_AMOUNT",
      "outputs": [
        {
          "internalType": "uint256",
          "name": "",
          "type": "uint256"
        }
      ],
      "stateMutability": "view",
      "type": "function"
    },
    {
      "inputs": [],
      "name": "MAX_PROPOSAL_DURATION",
      "outputs": [
        {
          "internalType": "uint256",
          "name": "",
          "type": "uint256"
        }
      ],
      "stateMutability": "view",
      "type": "function"
    },
    {
      "inputs": [],
      "name": "MIN_PROPOSAL_DURATION",
      "outputs": [
        {
          "internalType": "uint256",
          "name": "",
          "type": "uint256"
        }
      ],
      "stateMutability": "view",
      "type": "function"
    },
    {
      "inputs": [],
      "name": "activeProposalsCount",
      "outputs": [
        {
          "internalType": "uint256",
          "name": "",
          "type": "uint256"
        }
      ],
      "stateMutability": "view",
      "type": "function"
    },
    {
      "inputs": [
        {
          "internalType": "address",
          "name": "_member",
          "type": "address"
        }
      ],
      "name": "addMember",
      "outputs": [],
      "stateMutability": "nonpayable",
      "type": "function"
    },
    {
      "inputs": [],
      "name": "approvalPercentage",
      "outputs": [
        {
          "internalType": "uint256",
          "name": "",
          "type": "uint256"
        }
      ],
      "stateMutability": "view",
      "type": "function"
    },
    {
      "inputs": [
        {
          "internalType": "string",
          "name": "_description",
          "type": "string"
        },
        {
          "internalType": "address payable",
          "name": "_recipient",
          "type": "address"
        },
        {
          "internalType": "uint256",
          "name": "_amount",
          "type": "uint256"
        },
        {
          "internalType": "uint256",
          "name": "_durationInDays",
          "type": "uint256"
        }
      ],
      "name": "createProposal",
      "outputs": [],
      "stateMutability": "nonpayable",
      "type": "function"
    },
    {
      "inputs": [
        {
          "internalType": "uint256",
          "name": "_proposalId",
          "type": "uint256"
        }
      ],
      "name": "executeProposal",
      "outputs": [],
      "stateMutability": "nonpayable",
      "type": "function"
    },
    {
      "inputs": [],
      "name": "getAllMembers",
      "outputs": [
        {
          "internalType": "address[]",
          "name": "",
          "type": "address[]"
        }
      ],
      "stateMutability": "view",
      "type": "function"
    },
    {
      "inputs": [],
      "name": "getBalance",
      "outputs": [
        {
          "internalType": "uint256",
          "name": "",
          "type": "uint256"
        }
      ],
      "stateMutability": "view",
      "type": "function"
    },
    {
      "inputs": [],
      "name": "getMemberCount",
      "outputs": [
        {
          "internalType": "uint256",
          "name": "",
          "type": "uint256"
        }
      ],
      "stateMutability": "view",
      "type": "function"
    },
    {
      "inputs": [
        {
          "internalType": "uint256",
          "name": "_proposalId",
          "type": "uint256"
        }
      ],
      "name": "getProposal",
      "outputs": [
        {
          "internalType": "uint256",
          "name": "id",
          "type": "uint256"
        },
        {
          "internalType": "string",
          "name": "description",
          "type": "string"
        },
        {
          "internalType": "address",
          "name": "recipient",
          "type": "address"
        },
        {
          "internalType": "uint256",
          "name": "amount",
          "type": "uint256"
        },
        {
          "internalType": "uint256",
          "name": "votesFor",
          "type": "uint256"
        },
        {
          "internalType": "uint256",
          "name": "votesAgainst",
          "type": "uint256"
        },
        {
          "internalType": "uint256",
          "name": "deadline",
          "type": "uint256"
        },
        {
          "internalType": "bool",
          "name": "executed",
          "type": "bool"
        }
      ],
      "stateMutability": "view",
      "type": "function"
    },
    {
      "inputs": [
        {
          "internalType": "uint256",
          "name": "_proposalId",
          "type": "uint256"
        },
        {
          "internalType": "address",
          "name": "_voter",
          "type": "address"
        }
      ],
      "name": "hasVoted",
      "outputs": [
        {
          "internalType": "bool",
          "name": "",
          "type": "bool"
        }
      ],
      "stateMutability": "view",
      "type": "function"
    },
    {
      "inputs": [
        {
          "internalType": "address",
          "name": "_address",
          "type": "address"
        }
      ],
      "name": "isMember",
      "outputs": [
        {
          "internalType": "bool",
          "name": "",
          "type": "bool"
        }
      ],
      "stateMutability": "view",
      "type": "function"
    },
    {
      "inputs": [
        {
          "internalType": "uint256",
          "name": "_proposalId",
          "type": "uint256"
        }
      ],
      "name": "isProposalApproved",
      "outputs": [
        {
          "internalType": "bool",
          "name": "",
          "type": "bool"
        }
      ],
      "stateMutability": "view",
      "type": "function"
    },
    {
      "inputs": [
        {
          "internalType": "uint256",
          "name": "",
          "type": "uint256"
        }
      ],
      "name": "memberList",
      "outputs": [
        {
          "internalType": "address",
          "name": "",
          "type": "address"
        }
      ],
      "stateMutability": "view",
      "type": "function"
    },
    {
      "inputs": [
        {
          "internalType": "address",
          "name": "",
          "type": "address"
        }
      ],
      "name": "members",
      "outputs": [
        {
          "internalType": "bool",
          "name": "isActive",
          "type": "bool"
        },
        {
          "internalType": "uint256",
          "name": "joinedAt",
          "type": "uint256"
        },
        {
          "internalType": "uint256",
          "name": "proposalsCreated",
          "type": "uint256"
        },
        {
          "internalType": "uint256",
          "name": "votesCount",
          "type": "uint256"
        }
      ],
      "stateMutability": "view",
      "type": "function"
    },
    {
      "inputs": [],
      "name": "owner",
      "outputs": [
        {
          "internalType": "address",
          "name": "",
          "type": "address"
        }
      ],
      "stateMutability": "view",
      "type": "function"
    },
    {
      "inputs": [],
      "name": "pause",
      "outputs": [],
      "stateMutability": "nonpayable",
      "type": "function"
    },
    {
      "inputs": [],
      "name": "paused",
      "outputs": [
        {
          "internalType": "bool",
          "name": "",
          "type": "bool"
        }
      ],
      "stateMutability": "view",
      "type": "function"
    },
    {
      "inputs": [],
      "name": "proposalCount",
      "outputs": [
        {
          "internalType": "uint256",
          "name": "",
          "type": "uint256"
        }
      ],
      "stateMutability": "view",
      "type": "function"
    },
    {
      "inputs": [
        {
          "internalType": "uint256",
          "name": "",
          "type": "uint256"
        }
      ],
      "name": "proposals",
      "outputs": [
        {
          "internalType": "uint256",
          "name": "id",
          "type": "uint256"
        },
        {
          "internalType": "string",
          "name": "description",
          "type": "string"
        },
        {
          "internalType": "address payable",
          "name": "recipient",
          "type": "address"
        },
        {
          "internalType": "uint256",
          "name": "amount",
          "type": "uint256"
        },
        {
          "internalType": "uint256",
          "name": "votesFor",
          "type": "uint256"
        },
        {
          "internalType": "uint256",
          "name": "votesAgainst",
          "type": "uint256"
        },
        {
          "internalType": "uint256",
          "name": "deadline",
          "type": "uint256"
        },
        {
          "internalType": "bool",
          "name": "executed",
          "type": "bool"
        },
        {
          "internalType": "bool",
          "name": "exists",
          "type": "bool"
        },
        {
          "internalType": "address",
          "name": "proposer",
          "type": "address"
        },
        {
          "internalType": "uint256",
          "name": "createdAt",
          "type": "uint256"
        }
      ],
      "stateMutability": "view",
      "type": "function"
    },
    {
      "inputs": [],
      "name": "quorumPercentage",
      "outputs": [
        {
          "internalType": "uint256",
          "name": "",
          "type": "uint256"
        }
      ],
      "stateMutability": "view",
      "type": "function"
    },
    {
      "inputs": [
        {
          "internalType": "address",
          "name": "_member",
          "type": "address"
        }
      ],
      "name": "removeMember",
      "outputs": [],
      "stateMutability": "nonpayable",
      "type": "function"
    },
    {
      "inputs": [],
      "name": "renounceOwnership",
      "outputs": [],
      "stateMutability": "nonpayable",
      "type": "function"
    },
    {
      "inputs": [
        {
          "internalType": "uint256",
          "name": "_percentage",
          "type": "uint256"
        }
      ],
      "name": "setApprovalPercentage",
      "outputs": [],
      "stateMutability": "nonpayable",
      "type": "function"
    },
    {
      "inputs": [
        {
          "internalType": "uint256",
          "name": "_percentage",
          "type": "uint256"
        }
      ],
      "name": "setQuorumPercentage",
      "outputs": [],
      "stateMutability": "nonpayable",
      "type": "function"
    },
    {
      "inputs": [
        {
          "internalType": "address",
          "name": "newOwner",
          "type": "address"
        }
      ],
      "name": "transferOwnership",
      "outputs": [],
      "stateMutability": "nonpayable",
      "type": "function"
    },
    {
      "inputs": [],
      "name": "unpause",
      "outputs": [],
      "stateMutability": "nonpayable",
      "type": "function"
    },
    {
      "inputs": [
        {
          "internalType": "uint256",
          "name": "_proposalId",
          "type": "uint256"
        },
        {
          "internalType": "bool",
          "name": "_support",
          "type": "bool"
        }
      ],
      "name": "vote",
      "outputs": [],
      "stateMutability": "nonpayable",
      "type": "function"
    },
    {
      "stateMutability": "payable",
      "type": "receive"
    }
  ],
  "bytecode": "0x6080604090808252346101865733156101705750600080546001600160a01b031980821633908117845584519193926001600160a01b03167f8be0079c531659141344cd1fd0a4f28419497f9722a3daafe3b4186f6b6457e08480a3600180556032600855603c600955608081016001600160401b0381118282101761015c578452600181526003602082014281528583018481526060840191858352338652836020528786209451151560ff801987541691161785555160018501555160028401555191015560045490680100000000000000008210156101485760018201806004558210156101345780600460209252200190339082541617905580514281527fede8eed4383e9241982619b94dd83e488b274cced0fd07b8c0092a393defd52f60203392a251611e6a908161018c8239f35b634e487b7160e01b81526032600452602490fd5b634e487b7160e01b81526041600452602490fd5b634e487b7160e01b83526041600452602483fd5b631e4fbdf760e01b815260006004820152602490fd5b600080fdfe60406080815260049081361015610033575b5050361561002b57610021611a3e565b610029611b56565b005b610021611a3e565b600091823560e01c8063013cf08b1461177357806308ae4b0c146117025780630b1ca49a146115195780630d61b519146111d357806312065fe0146111b85780632116c347146111995780633008d4371461117a57806332f6a1dc146110fd5780633340a176146110d95780633f4ba83a146110475780634385963214610fce5780634fa76ec914610faf5780635c975abb14610f8b578063715018a614610f31578063784f80f814610eb25780637c0f6b3514610df05780638456cb5914610d6b5780638743dae61461084c5780638da5cb5b14610824578063944ee22d14610806578063997072f7146107e95780639abcc0cc14610798578063a230c5241461075a578063a91937ad1461073e578063b307fc6d146106fe578063bd968216146106e0578063c7f758a81461061a578063c9d27afe14610447578063ca6d56dc14610268578063da35c66414610249578063ea0e35b1146102295763f2fde38b146101a05750610011565b34610225576020366003190112610225576101b961198e565b906101c2611a12565b6001600160a01b0391821692831561020f57505082546001600160a01b0319811683178455167f8be0079c531659141344cd1fd0a4f28419497f9722a3daafe3b4186f6b6457e08380a380f35b51631e4fbdf760e01b8152908101849052602490fd5b8280fd5b5050346102455781600319360112610245576020905160648152f35b5080fd5b5050346102455781600319360112610245576020906006549051908152f35b50919034610245576020806003193601126102255761028561198e565b9161028e611a12565b6001600160a01b038316926102a4841515611a5c565b6102b030851415611aa1565b6102b8611a3e565b8385526003835260ff828620541661040c576064865410156103c95781516080810181811067ffffffffffffffff8211176103b65783526001815260038482014281528483018881526060840191898352888a52838852868a209451151560ff80198754169116178555516001850155516002840155519101558554680100000000000000008110156103a3579061037c827fede8eed4383e9241982619b94dd83e488b274cced0fd07b8c0092a393defd52f969798600161039b950190556119c5565b90919082549060031b9160018060a01b03809116831b921b1916179055565b51428152a280f35b634e487b7160e01b865260418752602486fd5b634e487b7160e01b875260418852602487fd5b815162461bcd60e51b8152808701849052601960248201527f53616665436c75623a206c696d6974652061747465696e7465000000000000006044820152606490fd5b815162461bcd60e51b8152808701849052601560248201527453616665436c75623a2064656a61206d656d62726560581b6044820152606490fd5b509034610225578060031936011261022557813590602435908115158203610616573385526020936003855261048260ff8388205416611b95565b61048a611a3e565b6104976006548510611c4d565b838652600585526104b360ff6007848920015460081c16611c91565b838652600585526104cd60ff600784892001541615611ce7565b8386526005855281862094600686015442116105dd576009860133885280825260ff84892054166105a6577f6f6f95f30a8e58dcbd04046390ab11f621176801303e8fd816ddb1002c0004d9949392600361058c93600593338c528152858b20600160ff19825416179055526003848a20016105498154611aed565b905584156105925780880161055e8154611aed565b90555b8701549601549151921515835260208301959095526040820152426060820152339381906080820190565b0390a380f35b81880161059f8154611aed565b9055610561565b50606492519162461bcd60e51b8352820152601360248201527253616665436c75623a2064656a6120766f746560681b6044820152fd5b606492519162461bcd60e51b8352820152601660248201527553616665436c75623a20766f7465207465726d696e6560501b6044820152fd5b8480fd5b5091346106dd5760203660031901126106dd578190833561063e6006548210611c4d565b808252600560205261065b60ff6007858520015460081c16611c91565b81526005602052209081549160018060a01b036002820154169360038201549082015460058301549060068401549261069e600160ff60078801541696016118a8565b976106ba8751998a998a526101008060208c01528a019061194e565b968801526060870152608086015260a085015260c0840152151560e08301520390f35b80fd5b505034610245578160031936011261024557602090516276a7008152f35b5091346106dd5760203660031901126106dd57823592548310156106dd57506107286020926119c5565b905491519160018060a01b039160031b1c168152f35b5050346102455781600319360112610245576020905160148152f35b5050346102455760203660031901126102455760209160ff9082906001600160a01b0361078561198e565b1681526003855220541690519015158152f35b5034610225576020366003190112610225576020926107db60ff6007856107e09535946107c86006548710611c4d565b8581526005895220015460081c16611c91565b611d33565b90519015158152f35b503461022557826003193601126102255760209250549051908152f35b50503461024557816003193601126102455760209051620151808152f35b505034610245578160031936011261024557905490516001600160a01b039091168152602090f35b50346102255760803660031901126102255780359067ffffffffffffffff808311610616573660238401121561061657828201359161088a836119a9565b9061089786519283611870565b838252866024953687878301011161024557858796602098899301838701378401015283356001600160a01b0381169690879003610d67578594604490898235926108f260ff86606494600386359d33835252205416611b95565b6108fa611a3e565b6109058b1515611a5c565b610911308c1415611aa1565b61091c841515611b12565b6802b5e3af16b18800008411610d295761093847851115611be1565b62015180808a0299808b04821490151715610d17578910610cd9576276a7008911610c9b57865115610c5d576101f4875111610c145760146007541015610bc65750506109946006549761098b89611aed565b60065542611c40565b93878b5260058952838b209188835560018301908751988911610bb5575090816109bf8d9354611836565b601f8111610b68575b508a98601f8111600114610acc57807fc063349a9ed4c2f352529d20275a109284941778ebc0f9384b0f7d5f746d812b9a8591610ac1575b508160011b916000199060031b1c19161790555b6002830180546001600160a01b0319168c17905560038301849055820155600581018a905560068101849055600780820180546001600160b01b0319163360101b62010000600160b01b0316176101001790554260089092019190915554610a7b90611aed565b600755338952600387526002828a2001610a958154611aed565b9055610aab82519460808652608086019061194e565b968401528201524260608201528033940390a480f35b905089015138610a00565b8184528b84209099601f198b16858e5b828210610b38575050918b917fc063349a9ed4c2f352529d20275a109284941778ebc0f9384b0f7d5f746d812b9c60019410610b1f575b5050811b019055610a14565b8b015160001960f88460031b161c191690553880610b13565b91929496509260018291868e9f989a9b9c9d9e015181550194019201908f959392918e9c9b9a999897959c610adc565b90809293528a8d20601f8a0160051c8101918c8b10610bab575b90601f8f959493920160051c01905b818110610b9e57506109c8565b9384558d93600101610b91565b9091508190610b82565b634e487b7160e01b8d52604183528cfd5b85917f53616665436c75623a2074726f702064652070726f706f736974696f6e7320616563746976657360d01b9260266084968e8a519762461bcd60e51b8952880152860152840152820152fd5b85917f53616665436c75623a206465736372697074696f6e2074726f70206c6f6e6775606560f81b9260216084968e8a519762461bcd60e51b8952880152860152840152820152fd5b7f53616665436c75623a206465736372697074696f6e20766964650000000000008691601a858d89519562461bcd60e51b8752860152840152820152fd5b7f53616665436c75623a2064757265652074726f70206c6f6e67756500000000008691601b858d89519562461bcd60e51b8752860152840152820152fd5b7f53616665436c75623a2064757265652074726f7020636f7572746500000000008691601b858d89519562461bcd60e51b8752860152840152820152fd5b634e487b7160e01b8d5260118752838dfd5b7f53616665436c75623a206d6f6e74616e742074726f7020656c657665000000008691601c858d89519562461bcd60e51b8752860152840152820152fd5b8780fd5b505034610245578160031936011261024557610d85611a12565b610d8d611a3e565b600160ff1960025416176002557f62e78cea01bee320cd4e420270b5ea74000d11b0c9f74754ebdbfc544b05a25860208251338152a1514281527f80170b5fcdd2bf1e0660ef4b8851f86685f64d41b1a19de1471947ece8725aac60203392a280f35b5082346106dd57806003193601126106dd579190815192838254808652602080960190819484527f8a35acfbc15ff81a39ae7d344fd709f28e8600b4aa8c65c6b64bfe7fe36bd19b90845b818110610e955750505081610e51910382611870565b83519485948186019282875251809352850193925b828110610e7557505050500390f35b83516001600160a01b031685528695509381019392810192600101610e66565b82546001600160a01b031684529288019260019283019201610e3b565b509034610225576020366003190112610225577fda4bd2ea351b72d1a0ace37c381ff426e3f4d0d1e7b5b040e550f47c998bf7f89135610ef0611a12565b80151580610f26575b610f0290611de8565b60098054908290559151918252602082015242604082015280606081015b0390a180f35b506064811115610ef9565b83346106dd57806003193601126106dd57610f4a611a12565b80546001600160a01b03198116825581906001600160a01b03167f8be0079c531659141344cd1fd0a4f28419497f9722a3daafe3b4186f6b6457e08280a380f35b50503461024557816003193601126102455760209060ff6002541690519015158152f35b5050346102455781600319360112610245576020906008549051908152f35b50346102255781600319360112610225576024356001600160a01b0381169135908290036110435760209360ff92849261100b6006548210611c4d565b80835260058752611026856007868620015460081c16611c91565b825260058652600983832001908252855220541690519015158152f35b8380fd5b5034610225578260031936011261022557611060611a12565b6002549060ff8216156110cb575060ff19166002557f5db9ee0a495bf2e6ff9c91a7834c1ba4fdd244a5e8aa4e537bd38aeae4b073aa60208251338152a1514281527f107553d8191d85b405879cf752997865edd48d94e20bda4dd27223c94b31a7cc60203392a280f35b8251638dfc202b60e01b8152fd5b505034610245578160031936011261024557602090516802b5e3af16b18800008152f35b509034610225576020366003190112610225577f5384e77902e0a367dcb99bc04797da1faf6cf20207e7277dd78a7f0388dc08b8913561113b611a12565b8015158061116f575b61114d90611de8565b6008805490829055915191825260208201524260408201528060608101610f20565b506064811115611144565b5050346102455781600319360112610245576020906009549051908152f35b5050346102455781600319360112610245576020906007549051908152f35b50503461024557816003193601126102455751478152602090f35b5090346102255760209081600319360112611043578235913385526003815261120160ff8387205416611b95565b611209611a3e565b6112166006548410611c4d565b8285526005815261123260ff6007848820015460081c16611c91565b8285526005815261124c60ff600784882001541615611ce7565b600260015414611509576002600155828552600581528185209360068501544211156114c8574794611285600382019687541115611be1565b8181015490611298600582015483611c40565b9183549260649384820282159183820487148317156114b5576008546112bd91611c2d565b116114735761143a5783820291808304851490151715611427576009546112e391611c2d565b116113e7576007818101805460ff191660011790555480156113d45760001901600755600201805487546001600160a01b0394929392918a9182918291829189165af13d156113cf573d611336816119a9565b9061134389519283611870565b81528a873d92013e5b1561138f575050907f2d436577633120007446fc8116bf731759187b21264eb8a052e92be53c64c61e939291541694549082519182524290820152a36001805580f35b855162461bcd60e51b8152908101859052601a60248201527f53616665436c75623a207472616e7366657274206563686f75650000000000006044820152fd5b61134c565b634e487b7160e01b895260118452602489fd5b509183519162461bcd60e51b8352820152601d60248201527f53616665436c75623a2070726f706f736974696f6e2072656a657465650000006044820152fd5b634e487b7160e01b8a526011855260248afd5b5050509183519162461bcd60e51b8352820152601460248201527353616665436c75623a20617563756e20766f746560601b6044820152fd5b875162461bcd60e51b8152808701889052601c60248201527f53616665436c75623a2071756f72756d206e6f6e2061747465696e740000000060448201528590fd5b634e487b7160e01b8d526011885260248dfd5b915162461bcd60e51b815291820152601760248201527f53616665436c75623a20766f746520656e20636f7572730000000000000000006044820152606490fd5b8151633ee5aeb560e01b81528490fd5b5082346106dd57602092836003193601126102455761153661198e565b9361153f611a12565b611547611a3e565b6001600160a01b0394851680845260038083528385205491939160ff16156116c85786855416841461167a57838552808352818520805460ff19169055845b86548082101561164a57858961159b846119c5565b905490861b1c16146115b657506115b190611aed565b611586565b979060009792939495969719988981019081116113d4579061037c836115de6115eb946119c5565b905490881b1c16916119c5565b8154978815611637577f3ac963493df564de734d98633f1145d21512e282ba4c02d3c1011119bf7f28629697980192611623846119c5565b81939154921b1b191690555551428152a280f35b634e487b7160e01b885260318352602488fd5b505050909193507f3ac963493df564de734d98633f1145d21512e282ba4c02d3c1011119bf7f286292945061039b565b815162461bcd60e51b8152808701849052602260248201527f53616665436c75623a20696d706f737369626c652072657469726572206f776e60448201526132b960f11b6064820152608490fd5b815162461bcd60e51b8152808701849052601460248201527353616665436c75623a206e6f6e206d656d62726560601b6044820152606490fd5b505034610245576020366003190112610245579081906001600160a01b0361172861198e565b1681526003602052209061176f60ff835416916001840154936003600282015491015491519485948590949392606092608083019615158352602083015260408201520152565b0390f35b5082346106dd5760203660031901126106dd57829082358152600560205220918254916117a2600185016118a8565b9360018060a01b0390816002820154169260038201549082015460058301549060068401549260086007860154950154966117f089519b8c9b8c5260208c61016091829101528c019061194e565b988a01526060890152608088015260a087015260c086015260ff8116151560e086015260ff8160081c16151561010086015260101c166101208401526101408301520390f35b90600182811c92168015611866575b602083101461185057565b634e487b7160e01b600052602260045260246000fd5b91607f1691611845565b90601f8019910116810190811067ffffffffffffffff82111761189257604052565b634e487b7160e01b600052604160045260246000fd5b90604051918260008254926118bc84611836565b90818452600194858116908160001461192b57506001146118e8575b50506118e692500383611870565b565b9093915060005260209081600020936000915b8183106119135750506118e6935082010138806118d8565b855488840185015294850194879450918301916118fb565b9150506118e694506020925060ff191682840152151560051b82010138806118d8565b919082519283825260005b84811061197a575050826000602080949584010152601f8019910116010190565b602081830181015184830182015201611959565b600435906001600160a01b03821682036119a457565b600080fd5b67ffffffffffffffff811161189257601f01601f191660200190565b6004548110156119fc5760046000527f8a35acfbc15ff81a39ae7d344fd709f28e8600b4aa8c65c6b64bfe7fe36bd19b0190600090565b634e487b7160e01b600052603260045260246000fd5b6000546001600160a01b03163303611a2657565b60405163118cdaa760e01b8152336004820152602490fd5b60ff60025416611a4a57565b60405163d93c066560e01b8152600490fd5b15611a6357565b60405162461bcd60e51b815260206004820152601660248201527553616665436c75623a2061647265737365207a65726f60501b6044820152606490fd5b15611aa857565b60405162461bcd60e51b815260206004820152601960248201527f53616665436c75623a206164726573736520636f6e74726174000000000000006044820152606490fd5b6000198114611afc5760010190565b634e487b7160e01b600052601160045260246000fd5b15611b1957565b60405162461bcd60e51b815260206004820152601560248201527414d8599950db1d588e881b5bdb9d185b9d081b9d5b605a1b6044820152606490fd5b611b61341515611b12565b6040513481524260208201527f363f315f930a17d1266b86a20d6dd34b1cfbc5a9db9f13a65d06a689c3a2af8a60403392a2565b15611b9c57565b60405162461bcd60e51b815260206004820152601d60248201527f53616665436c75623a20617070656c616e74206e6f6e206d656d6272650000006044820152606490fd5b15611be857565b60405162461bcd60e51b815260206004820152601c60248201527f53616665436c75623a20666f6e647320696e737566666973616e7473000000006044820152606490fd5b81810292918115918404141715611afc57565b91908201809211611afc57565b15611c5457565b60405162461bcd60e51b815260206004820152601560248201527453616665436c75623a20494420696e76616c69646560581b6044820152606490fd5b15611c9857565b60405162461bcd60e51b815260206004820152602160248201527f53616665436c75623a2070726f706f736974696f6e20696e6578697374616e746044820152606560f81b6064820152608490fd5b15611cee57565b60405162461bcd60e51b815260206004820152601760248201527f53616665436c75623a2064656a612065786563757465650000000000000000006044820152606490fd5b60009081526005602052604081206006810154421115611de457611d606005600483015492015482611c40565b8015611ddf576004546064820290828204606403611dcb57600854611d8491611c2d565b111592606483029280840460641490151715611db75750600954611da791611c2d565b111581611db2575090565b905090565b634e487b7160e01b81526011600452602490fd5b634e487b7160e01b85526011600452602485fd5b505090565b5090565b15611def57565b60405162461bcd60e51b815260206004820152601e60248201527f53616665436c75623a20706f757263656e7461676520696e76616c69646500006044820152606490fdfea2646970667358221220318470e1500507d58543c54df0fb35e0706faf5d8c27e76dd533684fa244305164736f6c63430008140033",
  "linkReferences": {},
  "deployedLinkReferences": {}
}