{
  "_format": "hh-sol-artifact-1",
  "contractName": "SafeClub",
  "sourceName": "contracts/SafeClub.sol",
  "abi": [
    {
      "inputs": [],
      "stateMutability": "nonpayable",
      "type": "constructor"
    },
    {
      "inputs": [
        {
          "internalType": "address",
          "name": "owner",
          "type": "address"
        }
      ],
      "name": "OwnableInvalidOwner",
      "type": "error"
    },
    {
      "inputs": [
        {
          "internalType": "address",
          "name": "account",
          "type": "address"
        }
      ],
      "name": "OwnableUnauthorizedAccount",
      "type": "error"
    },
    {
      "inputs": [],
      "name": "ReentrancyGuardReentrantCall",
      "type": "error"
    },
    {
      "anonymous": false,
      "inputs": [
        {
          "indexed": true,
          "internalType": "address",
          "name": "from",
          "type": "address"
        },
        {
          "indexed": false,
          "internalType": "uint256",
          "name": "amount",
          "type": "uint256"
        }
      ],
      "name": "FundsReceived",
      "type": "event"
    },
    {
      "anonymous": false,
      "inputs": [
        {
          "indexed": true,
          "internalType": "address",
          "name": "member",
          "type": "address"
        },
        {
          "indexed": false,
          "internalType": "uint256",
          "name": "timestamp",
          "type": "uint256"
        }
      ],
      "name": "MemberAdded",
      "type": "event"
    },
    {
      "anonymous": false,
      "inputs": [
        {
          "indexed": true,
          "internalType": "address",
          "name": "member",
          "type": "address"
        },
        {
          "indexed": false,
          "internalType": "uint256",
          "name": "timestamp",
          "type": "uint256"
        }
      ],
      "name": "MemberRemoved",
      "type": "event"
    },
    {
      "anonymous": false,
      "inputs": [
        {
          "indexed": true,
          "internalType": "address",
          "name": "previousOwner",
          "type": "address"
        },
        {
          "indexed": true,
          "internalType": "address",
          "name": "newOwner",
          "type": "address"
        }
      ],
      "name": "OwnershipTransferred",
      "type": "event"
    },
    {
      "anonymous": false,
      "inputs": [
        {
          "indexed": true,
          "internalType": "uint256",
          "name": "proposalId",
          "type": "uint256"
        },
        {
          "indexed": false,
          "internalType": "string",
          "name": "description",
          "type": "string"
        },
        {
          "indexed": true,
          "internalType": "address",
          "name": "recipient",
          "type": "address"
        },
        {
          "indexed": false,
          "internalType": "uint256",
          "name": "amount",
          "type": "uint256"
        },
        {
          "indexed": false,
          "internalType": "uint256",
          "name": "deadline",
          "type": "uint256"
        }
      ],
      "name": "ProposalCreated",
      "type": "event"
    },
    {
      "anonymous": false,
      "inputs": [
        {
          "indexed": true,
          "internalType": "uint256",
          "name": "proposalId",
          "type": "uint256"
        },
        {
          "indexed": true,
          "internalType": "address",
          "name": "recipient",
          "type": "address"
        },
        {
          "indexed": false,
          "internalType": "uint256",
          "name": "amount",
          "type": "uint256"
        }
      ],
      "name": "ProposalExecuted",
      "type": "event"
    },
    {
      "anonymous": false,
      "inputs": [
        {
          "indexed": true,
          "internalType": "uint256",
          "name": "proposalId",
          "type": "uint256"
        },
        {
          "indexed": true,
          "internalType": "address",
          "name": "voter",
          "type": "address"
        },
        {
          "indexed": false,
          "internalType": "bool",
          "name": "support",
          "type": "bool"
        }
      ],
      "name": "VoteCast",
      "type": "event"
    },
    {
      "stateMutability": "payable",
      "type": "fallback"
    },
    {
      "inputs": [
        {
          "internalType": "address",
          "name": "_member",
          "type": "address"
        }
      ],
      "name": "addMember",
      "outputs": [],
      "stateMutability": "nonpayable",
      "type": "function"
    },
    {
      "inputs": [],
      "name": "approvalPercentage",
      "outputs": [
        {
          "internalType": "uint256",
          "name": "",
          "type": "uint256"
        }
      ],
      "stateMutability": "view",
      "type": "function"
    },
    {
      "inputs": [
        {
          "internalType": "string",
          "name": "_description",
          "type": "string"
        },
        {
          "internalType": "address payable",
          "name": "_recipient",
          "type": "address"
        },
        {
          "internalType": "uint256",
          "name": "_amount",
          "type": "uint256"
        },
        {
          "internalType": "uint256",
          "name": "_durationInDays",
          "type": "uint256"
        }
      ],
      "name": "createProposal",
      "outputs": [],
      "stateMutability": "nonpayable",
      "type": "function"
    },
    {
      "inputs": [
        {
          "internalType": "uint256",
          "name": "_proposalId",
          "type": "uint256"
        }
      ],
      "name": "executeProposal",
      "outputs": [],
      "stateMutability": "nonpayable",
      "type": "function"
    },
    {
      "inputs": [],
      "name": "getAllMembers",
      "outputs": [
        {
          "internalType": "address[]",
          "name": "",
          "type": "address[]"
        }
      ],
      "stateMutability": "view",
      "type": "function"
    },
    {
      "inputs": [],
      "name": "getBalance",
      "outputs": [
        {
          "internalType": "uint256",
          "name": "",
          "type": "uint256"
        }
      ],
      "stateMutability": "view",
      "type": "function"
    },
    {
      "inputs": [],
      "name": "getMemberCount",
      "outputs": [
        {
          "internalType": "uint256",
          "name": "",
          "type": "uint256"
        }
      ],
      "stateMutability": "view",
      "type": "function"
    },
    {
      "inputs": [
        {
          "internalType": "uint256",
          "name": "_proposalId",
          "type": "uint256"
        }
      ],
      "name": "getProposal",
      "outputs": [
        {
          "internalType": "uint256",
          "name": "id",
          "type": "uint256"
        },
        {
          "internalType": "string",
          "name": "description",
          "type": "string"
        },
        {
          "internalType": "address",
          "name": "recipient",
          "type": "address"
        },
        {
          "internalType": "uint256",
          "name": "amount",
          "type": "uint256"
        },
        {
          "internalType": "uint256",
          "name": "votesFor",
          "type": "uint256"
        },
        {
          "internalType": "uint256",
          "name": "votesAgainst",
          "type": "uint256"
        },
        {
          "internalType": "uint256",
          "name": "deadline",
          "type": "uint256"
        },
        {
          "internalType": "bool",
          "name": "executed",
          "type": "bool"
        }
      ],
      "stateMutability": "view",
      "type": "function"
    },
    {
      "inputs": [
        {
          "internalType": "uint256",
          "name": "_proposalId",
          "type": "uint256"
        },
        {
          "internalType": "address",
          "name": "_voter",
          "type": "address"
        }
      ],
      "name": "hasVoted",
      "outputs": [
        {
          "internalType": "bool",
          "name": "",
          "type": "bool"
        }
      ],
      "stateMutability": "view",
      "type": "function"
    },
    {
      "inputs": [
        {
          "internalType": "address",
          "name": "_address",
          "type": "address"
        }
      ],
      "name": "isMember",
      "outputs": [
        {
          "internalType": "bool",
          "name": "",
          "type": "bool"
        }
      ],
      "stateMutability": "view",
      "type": "function"
    },
    {
      "inputs": [
        {
          "internalType": "uint256",
          "name": "_proposalId",
          "type": "uint256"
        }
      ],
      "name": "isProposalApproved",
      "outputs": [
        {
          "internalType": "bool",
          "name": "",
          "type": "bool"
        }
      ],
      "stateMutability": "view",
      "type": "function"
    },
    {
      "inputs": [
        {
          "internalType": "uint256",
          "name": "",
          "type": "uint256"
        }
      ],
      "name": "memberList",
      "outputs": [
        {
          "internalType": "address",
          "name": "",
          "type": "address"
        }
      ],
      "stateMutability": "view",
      "type": "function"
    },
    {
      "inputs": [
        {
          "internalType": "address",
          "name": "",
          "type": "address"
        }
      ],
      "name": "members",
      "outputs": [
        {
          "internalType": "bool",
          "name": "isActive",
          "type": "bool"
        },
        {
          "internalType": "uint256",
          "name": "joinedAt",
          "type": "uint256"
        }
      ],
      "stateMutability": "view",
      "type": "function"
    },
    {
      "inputs": [],
      "name": "owner",
      "outputs": [
        {
          "internalType": "address",
          "name": "",
          "type": "address"
        }
      ],
      "stateMutability": "view",
      "type": "function"
    },
    {
      "inputs": [],
      "name": "proposalCount",
      "outputs": [
        {
          "internalType": "uint256",
          "name": "",
          "type": "uint256"
        }
      ],
      "stateMutability": "view",
      "type": "function"
    },
    {
      "inputs": [
        {
          "internalType": "uint256",
          "name": "",
          "type": "uint256"
        }
      ],
      "name": "proposals",
      "outputs": [
        {
          "internalType": "uint256",
          "name": "id",
          "type": "uint256"
        },
        {
          "internalType": "string",
          "name": "description",
          "type": "string"
        },
        {
          "internalType": "address payable",
          "name": "recipient",
          "type": "address"
        },
        {
          "internalType": "uint256",
          "name": "amount",
          "type": "uint256"
        },
        {
          "internalType": "uint256",
          "name": "votesFor",
          "type": "uint256"
        },
        {
          "internalType": "uint256",
          "name": "votesAgainst",
          "type": "uint256"
        },
        {
          "internalType": "uint256",
          "name": "deadline",
          "type": "uint256"
        },
        {
          "internalType": "bool",
          "name": "executed",
          "type": "bool"
        },
        {
          "internalType": "bool",
          "name": "exists",
          "type": "bool"
        }
      ],
      "stateMutability": "view",
      "type": "function"
    },
    {
      "inputs": [],
      "name": "quorumPercentage",
      "outputs": [
        {
          "internalType": "uint256",
          "name": "",
          "type": "uint256"
        }
      ],
      "stateMutability": "view",
      "type": "function"
    },
    {
      "inputs": [
        {
          "internalType": "address",
          "name": "_member",
          "type": "address"
        }
      ],
      "name": "removeMember",
      "outputs": [],
      "stateMutability": "nonpayable",
      "type": "function"
    },
    {
      "inputs": [],
      "name": "renounceOwnership",
      "outputs": [],
      "stateMutability": "nonpayable",
      "type": "function"
    },
    {
      "inputs": [
        {
          "internalType": "uint256",
          "name": "_percentage",
          "type": "uint256"
        }
      ],
      "name": "setApprovalPercentage",
      "outputs": [],
      "stateMutability": "nonpayable",
      "type": "function"
    },
    {
      "inputs": [
        {
          "internalType": "uint256",
          "name": "_percentage",
          "type": "uint256"
        }
      ],
      "name": "setQuorumPercentage",
      "outputs": [],
      "stateMutability": "nonpayable",
      "type": "function"
    },
    {
      "inputs": [
        {
          "internalType": "address",
          "name": "newOwner",
          "type": "address"
        }
      ],
      "name": "transferOwnership",
      "outputs": [],
      "stateMutability": "nonpayable",
      "type": "function"
    },
    {
      "inputs": [
        {
          "internalType": "uint256",
          "name": "_proposalId",
          "type": "uint256"
        },
        {
          "internalType": "bool",
          "name": "_support",
          "type": "bool"
        }
      ],
      "name": "vote",
      "outputs": [],
      "stateMutability": "nonpayable",
      "type": "function"
    },
    {
      "stateMutability": "payable",
      "type": "receive"
    }
  ],
  "bytecode": "0x60806040908082523461016c5733156101565750600080546001600160a01b031980821633908117845584519193926001600160a01b03167f8be0079c531659141344cd1fd0a4f28419497f9722a3daafe3b4186f6b6457e08480a3600180556032600655603c6007558084016001600160401b038111828210176101425784526001815260016020820142815233845260026020528584209251151560ff8019855416911617835551910155600354906801000000000000000082101561012e57600182018060035582101561011a5780600360209252200190339082541617905580514281527fede8eed4383e9241982619b94dd83e488b274cced0fd07b8c0092a393defd52f60203392a25161172290816101728239f35b634e487b7160e01b81526032600452602490fd5b634e487b7160e01b81526041600452602490fd5b634e487b7160e01b83526041600452602483fd5b631e4fbdf760e01b815260006004820152602490fd5b600080fdfe6040608081526004908136101561002b575b505036156100235761002161147c565b005b61002161147c565b600091823560e01c8063013cf08b146111a957806308ae4b0c146111625780630b1ca49a14610f6c5780630d61b51914610cda57806312065fe014610cbf5780633008d43714610ca057806332f6a1dc14610c615780634385963214610bf95780634fa76ec914610bda578063715018a614610b80578063784f80f814610b415780637c0f6b3514610a7c5780638743dae6146106a95780638da5cb5b14610681578063997072f7146106625780639abcc0cc1461061f578063a230c524146105e1578063b307fc6d146105a1578063c7f758a8146104ea578063c9d27afe14610373578063ca6d56dc146101e1578063da35c664146101be5763f2fde38b146101355750610011565b346101ba5760203660031901126101ba5761014e6113a7565b9061015761142b565b6001600160a01b039182169283156101a457505082546001600160a01b0319811683178455167f8be0079c531659141344cd1fd0a4f28419497f9722a3daafe3b4186f6b6457e08380a380f35b51631e4fbdf760e01b8152908101849052602490fd5b8280fd5b5050346101dd57816003193601126101dd576020906005549051908152f35b5080fd5b509190346101dd576020806003193601126101ba576101fe6113a7565b9161020761142b565b6001600160a01b03831692831561033d578385526002835260ff828620541661030657815182810181811067ffffffffffffffff8211176102f3578352600181526001848201428152868852600286528488209251151560ff8019855416911617835551910155600354680100000000000000008110156102e0577fede8eed4383e9241982619b94dd83e488b274cced0fd07b8c0092a393defd52f9392916102b98260016102d894016003556113de565b90919082549060031b9160018060a01b03809116831b921b1916179055565b51428152a280f35b634e487b7160e01b865260418752602486fd5b634e487b7160e01b875260418852602487fd5b815162461bcd60e51b8152808701849052601160248201527026b2b6b13932903232b5309030b1ba34b360791b6044820152606490fd5b815162461bcd60e51b8152808701849052601060248201526f4164726573736520696e76616c69646560801b6044820152606490fd5b509190346101dd57806003193601126101dd57823560243593841515928386036104e657338552602091600283526103b060ff83882054166114aa565b8386528083526103cb60ff6007848920015460081c16611563565b8386528083526103e460ff6007848920015416156115af565b838652808352818620600681015442116104b557600881019733885288855260ff848920541661047b577fe71fcdac32df1877c1700e7bda2a03157e20993363a28fc35ac495cefc76e4d495969798338a528552838920600160ff1982541617905560001461046557016104588154611457565b90555b519384523393a380f35b60059150016104748154611457565b905561045b565b835162461bcd60e51b81528084018690526014602482015273566f74652064656a6120656e726567697374726560601b6044820152606490fd5b5082606492519162461bcd60e51b8352820152600c60248201526b566f7465207465726d696e6560a01b6044820152fd5b8480fd5b50913461059e57602036600319011261059e57819083358082528460205261051d60ff6007858520015460081c16611563565b815283602052209081549160018060a01b036002820154169360038201549082015460058301549060068401549261055f600160ff60078801541696016112c1565b9761057b8751998a998a526101008060208c01528a0190611367565b968801526060870152608086015260a085015260c0840152151560e08301520390f35b80fd5b50346101ba5760203660031901126101ba57359160035483101561059e57506105cb6020926113de565b60018060a01b0391549060031b1c169051908152f35b5050346101dd5760203660031901126101dd5760209160ff9082906001600160a01b0361060c6113a7565b1681526002855220541690519015158152f35b50346101ba5760203660031901126101ba578061065460ff600785602097610659963595868252895220015460081c16611563565b6115fb565b90519015158152f35b5050346101dd57816003193601126101dd576020906003549051908152f35b5050346101dd57816003193601126101dd57905490516001600160a01b039091168152602090f35b508290346101dd5760803660031901126101dd5767ffffffffffffffff908035828111610a785736602382011215610a785780820135946106e9866113c2565b916106f682519384611289565b86835260249636888284010111610a745787929181889260209a8b9301838801378501015281356001600160a01b0381169590869003610a7457604435906064359533895260028a5261074e60ff858b2054166114aa565b8715610a3a5782156109f85761076647841115611502565b86156109c55785511561098d576005549661078088611457565b600555620151808082029182040361097b5761079c9042611556565b94878a52818b52848a20928884556001840191885191821161096a57508b6107c4835461124f565b601f8111610925575b50508b601f8211600114610894579a61087c9897959360079383839f9997947f331b791e5a0526c6d6f17a46c1d4139542c8579c245d9f8082d0b1462942f4fa9d9e9f8591610889575b508160011b916000199060031b1c19161790555b600283018d6bffffffffffffffffffffffff60a01b8254161790558460038401558201558b60058201558460068201550161010061ffff198254161790558151958695606087526060870190611367565b938501528301520390a380f35b90508b015138610817565b828c528c8c2090601f1983168d5b81811061090e57509360018e9f9997947f331b791e5a0526c6d6f17a46c1d4139542c8579c245d9f8082d0b1462942f4fa9d9e9f9461087c9d9c9a989482600799106108f5575b5050811b01905561082b565b8d015160001960f88460031b161c1916905538806108e9565b91928f60018192868f0151815501940192016108a2565b838d52818d2090601f840160051c8201928410610960575b601f0160051c01905b818110610955578d91506107cd565b8c8155600101610946565b909150819061093d565b634e487b7160e01b8c52604184528bfd5b634e487b7160e01b8a5260118252858afd5b835162461bcd60e51b81529081018a9052601381860152724465736372697074696f6e207265717569736560681b6044820152606490fd5b835162461bcd60e51b81529081018a9052600e818601526d447572656520696e76616c69646560901b6044820152606490fd5b835162461bcd60e51b81529081018a9052601f818601527f4d6f6e74616e7420646f697420657472652073757065726965757220612030006044820152606490fd5b835162461bcd60e51b81529081018a90526015818601527444657374696e61746169726520696e76616c69646560581b6044820152606490fd5b8680fd5b8380fd5b82843461059e578060031936011261059e579080519182906003549182855260208095018093600384527fc2575a0e9e593c00f959f8c92f12db2869c3395a3b0502d05e2516446f71f85b90845b818110610b245750505081610ae0910382611289565b83519485948186019282875251809352850193925b828110610b0457505050500390f35b83516001600160a01b031685528695509381019392810192600101610af5565b82546001600160a01b031684529288019260019283019201610aca565b8382346101dd5760203660031901126101dd5735610b5d61142b565b80151580610b75575b610b6f906116a9565b60075580f35b506064811115610b66565b833461059e578060031936011261059e57610b9961142b565b80546001600160a01b03198116825581906001600160a01b03167f8be0079c531659141344cd1fd0a4f28419497f9722a3daafe3b4186f6b6457e08280a380f35b5050346101dd57816003193601126101dd576020906006549051908152f35b50346101ba57816003193601126101ba576024356001600160a01b03811691908135908390036104e6579360ff928492866020978452818852610c46866007878720015460081c16611563565b83528652600883832001908252855220541690519015158152f35b8382346101dd5760203660031901126101dd5735610c7d61142b565b80151580610c95575b610c8f906116a9565b60065580f35b506064811115610c86565b5050346101dd57816003193601126101dd576020906007549051908152f35b5050346101dd57816003193601126101dd5751478152602090f35b508290346101dd576020806003193601126101ba5781359033845260028152610d0860ff86862054166114aa565b818452828152610d2360ff6007878720015460081c16611563565b818452828152610d3c60ff6007878720015416156115af565b600260015414610f5c576002600155818452828152848420946006860154421115610f2b57476003870194610d75865480931015611502565b8088015497610d8860058201548a611556565b986003549960649a8b8202908282048d1483151715610f1857600654610dad91611543565b11610ee1578a8202918083048c1490151715610ece57600754610dcf91611543565b11610e965780600760029201600160ff1982541617905501908780808060018060a01b0396878754165af13d15610e91573d610e0a816113c2565b90610e1787519283611289565b815289873d92013e5b15610e5c5750907f3b7c90df35b419337cff0919fe91849006607bb66c4373623f06f9d48c1ebb98939291541694549051908152a36001805580f35b835162461bcd60e51b8152908101859052601060248201526f5472616e7366657274206563686f756560801b60448201528890fd5b610e20565b835162461bcd60e51b8152808301869052601360248201527250726f706f736974696f6e2072656a6574656560681b60448201528990fd5b634e487b7160e01b8a526011845260248afd5b855162461bcd60e51b81528085018890526012602482015271145d5bdc9d5b481b9bdb88185d1d195a5b9d60721b60448201528b90fd5b634e487b7160e01b8c526011865260248cfd5b5162461bcd60e51b81529283015250600d60248201526c566f746520656e20636f75727360981b6044820152606490fd5b8451633ee5aeb560e01b81528390fd5b50913461059e57602091826003193601126101dd57610f896113a7565b92610f9261142b565b6001600160a01b03938416808452600282528284205490929060ff161561112c578484541683146110db5782845260028252808420805460ff19169055835b60038054808310156110ab578588610fe8856113de565b905490851b1c1614611004575050610fff90611457565b610fd1565b90916000979394959697199182810190811161109857906102b98561102b611038946113de565b905490871b1c16916113de565b81548015611085577f3ac963493df564de734d98633f1145d21512e282ba4c02d3c1011119bf7f2862969798500191611070836113de565b9091825491841b1b191690555551428152a280f35b634e487b7160e01b885260318952602488fd5b634e487b7160e01b895260118a52602489fd5b505050909193507f3ac963493df564de734d98633f1145d21512e282ba4c02d3c1011119bf7f28629294506102d8565b5162461bcd60e51b815280860191909152602560248201527f496d706f737369626c652064652072657469726572206c652070726f70726965604482015264746169726560d81b6064820152608490fd5b5162461bcd60e51b815280860191909152601060248201526f26b2b6b13932903737b71030b1ba34b360811b6044820152606490fd5b5050346101dd5760203660031901126101dd579081906001600160a01b036111886113a7565b168152600260205220600160ff825416910154825191151582526020820152f35b50823461059e57602036600319011261059e5782908235815282602052209160ff8354926111d9600186016112c1565b9460018060a01b0360028201541691600382015490820154600583015491600760068501549401549461121d88519a8b9a8b526101208060208d01528b0190611367565b978901526060880152608087015260a086015260c0850152818116151560e085015260081c1615156101008301520390f35b90600182811c9216801561127f575b602083101461126957565b634e487b7160e01b600052602260045260246000fd5b91607f169161125e565b90601f8019910116810190811067ffffffffffffffff8211176112ab57604052565b634e487b7160e01b600052604160045260246000fd5b90604051918260008254926112d58461124f565b9081845260019485811690816000146113445750600114611301575b50506112ff92500383611289565b565b9093915060005260209081600020936000915b81831061132c5750506112ff935082010138806112f1565b85548884018501529485019487945091830191611314565b9150506112ff94506020925060ff191682840152151560051b82010138806112f1565b919082519283825260005b848110611393575050826000602080949584010152601f8019910116010190565b602081830181015184830182015201611372565b600435906001600160a01b03821682036113bd57565b600080fd5b67ffffffffffffffff81116112ab57601f01601f191660200190565b6003548110156114155760036000527fc2575a0e9e593c00f959f8c92f12db2869c3395a3b0502d05e2516446f71f85b0190600090565b634e487b7160e01b600052603260045260246000fd5b6000546001600160a01b0316330361143f57565b60405163118cdaa760e01b8152336004820152602490fd5b60001981146114665760010190565b634e487b7160e01b600052601160045260246000fd5b6040513481527f8e47b87b0ef542cdfa1659c551d88bad38aa7f452d2bbb349ab7530dfec8be8f60203392a2565b156114b157565b60405162461bcd60e51b8152602060048201526024808201527f4e6f6e206175746f726973653a20766f7573206e276574657320706173206d656044820152636d62726560e01b6064820152608490fd5b1561150957565b60405162461bcd60e51b8152602060048201526012602482015271466f6e647320696e737566666973616e747360701b6044820152606490fd5b8181029291811591840414171561146657565b9190820180921161146657565b1561156a57565b60405162461bcd60e51b815260206004820152601760248201527f50726f706f736974696f6e20696e6578697374616e74650000000000000000006044820152606490fd5b156115b657565b60405162461bcd60e51b815260206004820152601960248201527f50726f706f736974696f6e2064656a61206578656375746565000000000000006044820152606490fd5b600090815260046020526040812060068101544211156116a5576116286005600483015492015482611556565b6003546064820290828204606414831517156116915760065461164a91611543565b11159260648302928084046064149015171561167d575060075461166d91611543565b111581611678575090565b905090565b634e487b7160e01b81526011600452602490fd5b634e487b7160e01b85526011600452602485fd5b5090565b156116b057565b60405162461bcd60e51b8152602060048201526014602482015273506f757263656e7461676520696e76616c69646560601b6044820152606490fdfea2646970667358221220f50b2170dd52ec4ba53b0a0fbd75c3a5b4b1954501916d3d7dbaaa5220fc7b1764736f6c63430008140033",
  "linkReferences": {},
  "deployedLinkReferences": {}
}